:100000000C9476000C949E000C949E000C941F049B
:100010000C941F040C941F040C949E000C949E00DE
:100020000C949E000C949E000C949E000C949E00D8
:100030000C949E000C949E000C949E000C949E00C8
:100040000C94D5030C949E000C9475020C944F02F2
:100050000C949E000C949E000C949E000C949E00A8
:100060000C949E000C949E00F40BEE0B650C650C3A
:10007000650CD00BD80BE40BD30BDD0B650CF10B2F
:10008000650C650C650C650C650CEB0B630C0000D6
:100090000000240027002A000000000800020100E0
:1000A0000003040700000000000000000000000042
:1000B00023002600290000000000250028002B0056
:1000C00004040404040404040202020202020303FE
:1000D0000303030301020408102040800102040806
:1000E0001020010204081020C40DB20D11241FBEFF
:1000F000CFEFD8E0DEBFCDBF23E0A4E9B1E001C07F
:100100001D92AB31B207E1F711E0A0E0B1E0E0E60B
:10011000F7E202C005900D92A439B107D9F710E0BB
:10012000C5E7D0E004C02197FE010E948411C437C6
:10013000D107C9F70E94CA090C94A3130C940000BC
:100140000895FC01538D448D252F30E0842F90E0DD
:10015000821B930B541710F0CF96089501970895C2
:10016000FC01918D828D981761F0828DDF01A80FBF
:10017000B11D5D968C91928D9F5F9F73928F90E0E1
:1001800008958FEF9FEF0895FC01918D828D981750
:1001900031F0828DE80FF11D858D90E008958FEF8D
:1001A0009FEF0895FC01918D228D892F90E0805C56
:1001B0009F4F821B91098F739927089582EF91E0D9
:1001C0000E94D20021E0892B09F420E0822F0895BB
:1001D000FC01848DDF01A80FB11DA35ABF4F2C91E4
:1001E000848D90E001968F739927848FA689B789B3
:1001F0002C93A089B1898C91837080648C93938DAA
:10020000848D981306C00288F389E02D80818F7D4C
:1002100080830895EF92FF920F931F93CF93DF9304
:10022000EC0181E0888F9B8D8C8D981305C0E88947
:10023000F989808185FD26C0F62E0B8D10E00F5FB9
:100240001F4F0F731127E02E8C8DE8120CC00FB6D4
:1002500007FCFACFE889F989808185FFF5CFCE01C7
:100260000E94E800F1CF8B8DFE01E80FF11DE35AEB
:10027000FF4FF0829FB7F8940B8FEA89FB8980814A
:1002800080620AC09FB7F894EE89FF896083E8898D
:10029000F98980818370806480839FBF81E090E0D2
:1002A000DF91CF911F910F91FF90EF900895CF9321
:1002B000DF93EC01888D8823C9F0EA89FB8980816E
:1002C00085FD05C0A889B9898C9186FD0FC00FB640
:1002D00007FCF5CF808185FFF2CFA889B9898C9181
:1002E00085FFEDCFCE010E94E800E7CFDF91CF91EF
:1002F000089580E090E0892B29F00E94DE008111B2
:100300000C94000008953FB7F8948091D901909122
:10031000DA01A091DB01B091DC0126B5A89B05C0F4
:100320002F3F19F00196A11DB11D3FBFBA2FA92F74
:10033000982F8827820F911DA11DB11DBC01CD01F1
:1003400042E0660F771F881F991F4A95D1F70895DD
:100350002091D9023091DA022817390771F490916F
:10036000D7028091D802981741F0E091D702F0E0CF
:10037000EC56FE4F808190E008958FEF9FEF089537
:100380001F93CF93DF93DC015C968D919C915D97D9
:10039000009739F421E030E013963C932E931297A6
:1003A0003BC05196ED91FC91529750962C915097ED
:1003B000322F30951FB75E964C915E97742F7270F6
:1003C00041FD6095F8944081772311F0422B01C0E4
:1003D00043234083EC012197F1F748E0508160FF0F
:1003E00002C0522B01C053235083EC012197F1F737
:1003F0006695415099F78081772319F08323808394
:1004000002C0282B20831FBF5C968D919C915D9725
:100410000197F1F781E090E0DF91CF911F9108956E
:100420002091D9023091DA022817390771F48091AE
:10043000D8022091D70290E0805C9F4F821B9109E7
:1004400060E470E00E947011089580E090E00895EB
:100450002091D9023091DA0228173907B9F4909126
:10046000D7028091D802981789F0E091D702F0E086
:10047000EC56FE4F80812091D70230E02F5F3F4F36
:100480002F7333272093D70290E008958FEF9FEFCB
:100490000895089580E090E008950E9485131F92CA
:1004A0000F920FB60F9211242F933F934F935F93A8
:1004B0006F937F938F939F93AF93BF93EF93FF932C
:1004C00082EF91E00E94E800FF91EF91BF91AF9120
:1004D0009F918F917F916F915F914F913F912F915C
:1004E0000F900FBE0F901F9018951F920F920FB68E
:1004F0000F9211242F938F939F93EF93FF93E0918B
:100500000202F09103028081E0910802F091090259
:1005100082FD12C0908180910B028F5F8F732091BA
:100520000C02821751F0E0910B02F0E0EE50FE4F0A
:10053000958F80930B0201C08081FF91EF919F9175
:100540008F912F910F900FBE0F901F90189590E0F4
:10055000FC01E856FF4F2491FC01EC52FF4F34910F
:10056000FC01E054FF4FE491EE2309F43CC0222348
:1005700039F1233091F038F42130A9F0223001F51F
:1005800084B58F7D12C0273091F02830A1F024303F
:10059000B9F4809180008F7D03C0809180008F77B7
:1005A000809380000DC084B58F7784BD09C0809191
:1005B000B0008F7703C08091B0008F7D8093B00032
:1005C000F0E0EE0FFF1FEA54FF4FA591B4919FB7E3
:1005D000F894611104C08C913095382302C0EC91DD
:1005E0003E2B3C939FBF0895CF93DF9390E0FC0197
:1005F000EC52FF4F2491FC01E054FF4F849188237B
:1006000061F190E0880F991FFC01E257FF4FC591FF
:10061000D491FC01EA54FF4FA591B491611109C036
:100620009FB7F8948881209582238883EC912E23AC
:100630000BC0623061F49FB7F8948881322F3095F7
:1006400083238883EC912E2B2C939FBF06C08FB7FA
:10065000F894E8812E2B28838FBFDF91CF910895E6
:100660001F93CF93DF93182FEB0161E00E94F402F8
:10067000209711F460E004C0CF3FD10539F461E068
:10068000812FDF91CF911F910C94A702E12FF0E011
:10069000E856FF4FE491E330F9F048F4E130B9F067
:1006A000E230A1F584B5806284BDC8BD34C0E730B6
:1006B000E9F0E83019F1E43049F58091800080627A
:1006C00080938000D0938B00C0938A0024C084B5AF
:1006D000806884BDC7BD1FC0809180008068809302
:1006E0008000D0938900C093880015C08091B0002D
:1006F00080688093B000C093B3000DC08091B000BB
:1007000080628093B000C093B40005C0C038D105AA
:100710000CF0B5CFAFCFDF91CF911F9108958F929D
:100720009F92AF92BF92CF92DF92EF92FF926B01B6
:100730007C010E9483014B015C01C114D104E104DE
:10074000F104F1F00E948301DC01CB0188199909C1
:10075000AA09BB09883E9340A105B10570F321E0C9
:10076000C21AD108E108F10888EE880E83E0981ECD
:10077000A11CB11CC114D104E104F10419F7DDCFAF
:10078000FF90EF90DF90CF90BF90AF909F908F90B1
:1007900008952FB7F8946091D5017091D60180919A
:1007A000D7019091D8012FBF08951F920F920FB6D5
:1007B0000F9211242F933F938F939F93AF93BF93E7
:1007C0008091D5019091D601A091D701B091D80127
:1007D0003091D40123E0230F2D3720F40196A11D81
:1007E000B11D05C026E8230F0296A11DB11D20935F
:1007F000D4018093D5019093D601A093D701B093F3
:10080000D8018091D9019091DA01A091DB01B091DA
:10081000DC010196A11DB11D8093D9019093DA01ED
:10082000A093DB01B093DC01BF91AF919F918F91B9
:100830003F912F910F900FBE0F901F9018951F9210
:100840000F920FB60F9211242F933F934F935F9304
:100850006F937F938F939F93AF93BF93EF93FF9388
:10086000E091D902F091DA02309709F451C0968DE7
:10087000A685B785858591FF04C09C91892329F4BD
:1008800047C09C91892309F043C0A389B4899C91F6
:100890008589809589238C93868997890197F1F7BB
:1008A000608D718DA685B785558538E020E0CB0138
:1008B0000197F1F7822F90E095958795282F4C911D
:1008C000452309F02068315091F7868D81FD2095F0
:1008D0008091D80290E001968F7399273091D702CA
:1008E000381749F0A091D802B0E0AC56BE4F2C9317
:1008F0008093D80203C0868D8160868F828D938D10
:100900000197F1F7A389B4899C918589892B8C93F0
:10091000FF91EF91BF91AF919F918F917F916F91D7
:100920005F914F913F912F910F900FBE0F901F90AD
:100930001895E091D902F091DA02E817F90769F405
:10094000A389B4899C918589809589238C93109281
:10095000DA021092D90281E0089580E00895CF93E1
:10096000DF93DC01ED91FC91EB01A881B981309717
:1009700011F01097C9F4109759F0EB012C813D81CB
:10098000232B31F08C9190E091958195910914C0C1
:10099000309781F0DC0114968D919C911597892BED
:1009A00049F0808190E008C0BD01CF01DF91CF9177
:1009B0000C94931380E090E0DF91CF910895E2EFE3
:1009C000F1E0A089B18982E08C93A485B5851C9261
:1009D000A685B7858FEC8C93108EA489B58986E0A7
:1009E0008C93A289B3898C9180618C93A289B389FD
:1009F0008C9188608C93A289B3898C9180688C9348
:100A00000288F389E02D80818F7D80830895CF93C4
:100A1000DF93C6EED1E060E08A850E94A70260E025
:100A20008B85DF91CF910C94A7028F929F92AF920A
:100A3000BF92CF92DF92EF92FF926B017C010E94F6
:100A4000C9034B015C01C60ED71EE81EF91E0E94A9
:100A5000C903681579058A059B0528F0C616D706CF
:100A6000E806F906A0F7FF90EF90DF90CF90BF90D7
:100A7000AF909F908F9008950C9415050F931F933E
:100A8000811123C00E94C90300919102109192022A
:100A90002091930230919402DC01CB01801B910BD9
:100AA000A20BB30B82339105A105B10570F442E3AB
:100AB00050E060E070E08A019B01081B190B2A0BD3
:100AC0003B0BC901B8010E9415050E94C903609340
:100AD000910270939202809393029093940281E02A
:100AE0001F910F910895CF939091A502992309F436
:100AF0005BC0C82F8091D1029091D202DC01ED91B0
:100B0000FC910084F185E02D0995811114C085E6E2
:100B10004CC08091D1029091D202DC01ED91FC9108
:100B20000284F385E02D09958836F1F190F0813744
:100B3000D9F18637D1F18091D1029091D202DC01B6
:100B4000ED91FC910084F185E02D09958111E1CFB3
:100B5000DECF883539F1833671F781E00E943E059A
:100B60006AE671E08091D1029091D2020E94AE08B3
:100B70004C2F50E060E070E02AE08091D10290912B
:100B8000D2020E94C30861E771E08091D102909186
:100B9000D2020E94AE0862E370E080E090E00E9422
:100BA0003C0502C01092A50283E6CF9108950F93F1
:100BB0001F93CF93DF93C82FD62F8091E801861320
:100BC0001AC0CC2319F010E001E002C011E000E0EF
:100BD0006091E601062E000C770B8091F0010E94D7
:100BE0003003602F8091EC010E94A702612F809159
:100BF000ED010E94A7028091EB01D8131EC0CC2307
:100C000019F0C0E0D1E002C0C1E0D0E06091E9019C
:100C1000062E000C770B8091F1010E9430036D2F9E
:100C20008091EE010E94A7026C2F8091EF01DF916D
:100C3000CF911F910F910C94A702DF91CF911F913B
:100C40000F9108951F93CF93DF93CDB7DEB72C9705
:100C50000FB6F894DEBF0FBECDBF8BED92E00E94C1
:100C60001002892B29F08BED92E00E942802F5CF2B
:100C70006AE771E0CE0107960E9499084B855C8572
:100C80006F8178858BED92E00E94C80767E771E07D
:100C90008BED92E00E94AE0864EF71E080E090E09E
:100CA0000E948F038BED92E00E94100202975CF18C
:100CB00069E771E0CE0101960E9499088BED92E000
:100CC0000E942802682FCE0101960E9439088BED00
:100CD00092E00E942802682FCE0101960E943908F6
:100CE0008D819E81892B49F06DE771E089819A8120
:100CF0000E94931311E0892B09F010E0CE010196B8
:100D00000E94940801C010E0CE0107960E9494084A
:100D1000812F2C960FB6F894DEBF0FBECDBFDF91AA
:100D2000CF911F910895DF92EF92FF920F931F933F
:100D3000CF93DF9300D000D000D0CDB7DEB785E0F1
:100D4000F82E93E0E92E24E0D22E8091FA0285302D
:100D500009F48DC08BED92E00E941002892B09F4FA
:100D60006CC08BED92E00E942802182F8B3279F52F
:100D70008BED92E00E9410020A97D4F369E771E0CC
:100D8000CE0101960E9499080AE08BED92E00E9444
:100D90002802182F682FCE0101960E9439080150B1
:100DA000A1F72D813E818091FF02909100032817C9
:100DB000390749F46BEF72E0CE0101960E94AF044F
:100DC000892B09F44EC0CE0101960E949408133479
:100DD00009F0BBCF8BED92E00E9410020897D4F38C
:100DE00069E771E0CE0101960E94990863E4CE01A3
:100DF00001960E94390818E08BED92E00E942802CB
:100E0000682FCE0101960E9439081150A9F72D8153
:100E10003E8180910503909106032817390741F41C
:100E200061E073E0CE0101960E94AF04892BE1F0EE
:100E3000CE0101960E94940888CF0E942206882342
:100E400019F0E092FA0281CF68EC70E080E090E067
:100E50000E948F030E9422068111F3CFF092FA02C2
:100E600074CFD092FA02AFCFF092FA02E1CF269679
:100E70000FB6F894DEBF0FBECDBFDF91CF911F91AB
:100E80000F91FF90EF90DF9008950F931F93CF93F2
:100E9000DF9300D000D000D0CDB7DEB703E0809163
:100EA000FA02833009F469C08BED92E00E941002CF
:100EB000892B09F44EC08BED92E00E942802182F76
:100EC000682F82EF91E00E940A011B3241F78BEDFF
:100ED00092E00E941002892BD1F38BED92E00E94E8
:100EE0002802182F682F82EF91E00E940A01103526
:100EF000B1F68BED92E00E9410020797D4F369E7F8
:100F000071E0CE0101960E94990860E5CE0101963C
:100F10000E94390817E08BED92E00E942802682FAA
:100F2000CE0101960E9439081150A9F78D819E814A
:100F3000892B51F060E871E089819A810E949313B6
:100F4000892B11F40093FA02CE0101960E949408B5
:100F5000A6CF0E942206882319F00093FA029FCFA1
:100F600068EC70E080E090E00E948F030E9422060F
:100F70008111F3CF85E08093FA0226960FB6F8949C
:100F8000DEBF0FBECDBFDF91CF911F910F910895AE
:100F9000CF92DF92EF92FF920F931F93CF93DF9345
:100FA0006C017A018B01C0E0D0E0CE15DF0581F045
:100FB000D8016D918D01D601ED91FC910190F081E8
:100FC000E02DC6010995892B11F02196EECF7E0107
:100FD000C701DF91CF911F910F91FF90EF90DF90AC
:100FE000CF9008950F931F93CF93DF93EC018881E7
:100FF0009981009729F02A813B812617370788F4C9
:101000008B016F5F7F4F0E94BF12009761F0998341
:1010100088831B830A832C813D81232B11F4FC01DF
:10102000108281E001C080E0DF91CF911F910F918C
:10103000089561E081E00E94D70560E080E00C94B3
:10104000D70561E080E00E94D70560E080E00C9465
:10105000D70560E081E00E94D70561E080E00C9454
:10106000D70561E081E00E94D70560E081E00C9443
:10107000D705EF92FF920F931F93CF93DF9300D08A
:10108000CDB7DEB78C0169831A82FC01E480F5805C
:10109000FFEFEF1AFF0AB7010E94F207882381F0E1
:1010A000F8012081318184819581BE016F5F7F4F7E
:1010B000820F931F0E949C13F801F582E48281E065
:1010C0000F900F90DF91CF911F910F91FF90EF90B4
:1010D0000895EF92FF920F931F93CF93DF93EC014C
:1010E0007B018A01BA010E94F207288139818111AE
:1010F0000DC02115310519F0C9010E94361219825F
:1011000018821D821C821B821A8206C01D830C83DA
:10111000B701C9010E949C13CE01DF91CF911F91AD
:101120000F91FF90EF900895FC01808191810C94C4
:101130003612FC01118210821382128215821482EF
:101140006115710551F0FB0101900020E9F731971D
:10115000AF01461B570B0C94690808956115710582
:1011600079F0FB0101900020E9F73197AF01461BB0
:10117000570BDC01ED91FC910280F381E02D099485
:1011800080E090E008958F929F92AF92BF92EF928D
:10119000FF920F931F93CF93DF93CDB7DEB7A19745
:1011A0000FB6F894DEBF0FBECDBF7C01FA01CB01B4
:1011B00019A2223008F42AE08E010F5D1F4F822E03
:1011C000912CA12CB12CBF01A50194010E94A0106B
:1011D000F901CA01015011096A3014F4605D01C0BF
:1011E000695CD8016C93232B242B252B61F7B80164
:1011F000C7010E94AE08A1960FB6F894DEBF0FBEDD
:10120000CDBFDF91CF911F910F91FF90EF90BF90D5
:10121000AF909F908F900895BF92CF92DF92EF9200
:10122000FF920F931F93CF93DF93B82E0E94C903B1
:101230006B017C010FE812E0C1EDD2E069E871E0DA
:10124000888199810E94AE084B2D50E060E070E0EB
:101250002AE0888199810E94C30860E971E0888151
:1012600099810E94AE082AE0B701A6018881998180
:101270000E94C30862E971E0888199810E94AE08EA
:10128000F80186819781A085B185B701A601481B29
:10129000590B6A0B7B0B2AE0888199810E94C30855
:1012A00062E971E0888199810E94AE08F801468167
:1012B00057816085718582859385A485B585481B96
:1012C000590B6A0B7B0B2AE088819981DF91CF91C2
:1012D0001F910F91FF90EF90DF90CF90BF900C94F3
:1012E000C3080F931F93CF93DF93EC010E94AE08C6
:1012F0008C0167E771E0CE010E94AE08800F911F5C
:10130000DF91CF911F910F910895CF92DF92EF92CD
:10131000FF920F931F93E82FF92F05C00150110979
:101320002109310961F1908196239417B9F305C021
:10133000015011092109310911F19081962394136B
:10134000F7CFC12CD12CE12CF12C0AC08FEFC81A99
:10135000D80AE80AF80A0C151D052E053F0579F094
:1013600080818623841791F36C2D7D2D8E2D9F2DEA
:101370001F910F91FF90EF90DF90CF90089560E064
:1013800070E080E090E01F910F91FF90EF90DF9070
:10139000CF900895789484B5826084BD84B58160CF
:1013A00084BD85B5826085BD85B5816085BD809130
:1013B0006E00816080936E001092810080918100A8
:1013C00082608093810080918100816080938100A0
:1013D000809180008160809380008091B100846062
:1013E0008093B1008091B00081608093B0008091C3
:1013F0007A00846080937A0080917A008260809382
:101400007A0080917A00816080937A0080917A00DE
:10141000806880937A001092C1001092D3021092DB
:10142000D4021092D5021092D6021092910210921C
:101430009202109293021092940268EB7BE080E09B
:1014400090E00E943C0582EF91E09093D20280935D
:10145000D1020E94DF040E94C9036093910270933D
:10146000920280939302909394026AE271E08091D9
:10147000D1029091D2020E94AE086AE070E080E052
:1014800090E00E943C05C1E0C093A5020E94DF04E9
:1014900088E08093EC018BE08093ED018CE08093F9
:1014A000EE018DE08093EF0189E08093F0018AE006
:1014B0008093F10161E088E00E94F40261E0809194
:1014C000ED010E94F40261E08091EE010E94F402BD
:1014D00061E08091EF010E94F40261E08091F001EF
:1014E0000E94F40261E08091F1010E94F4020E94E6
:1014F00007051092E801C093EB01C093E701109239
:10150000EA0184EB8093E6018093E9010E9445079C
:101510006CE371E082EF91E00E9471090E949306F2
:1015200065E471E082EF91E00E94710993E0E92E99
:10153000F12C23E2C22ED12C34EF832E99249394E4
:10154000A12CB12C45E6342EC4E6D4EB60E08091AA
:1015500007030E94A702C7010197F1F761E080919C
:1015600007030E94A702C6010197F1F760E080918E
:1015700007030E94A7028091090390910A0399270B
:10158000FC01EC52FF4F6491FC01E054FF4FE491E9
:10159000F0E0EE0FFF1FE455FF4F8591949100E4BA
:1015A00012E42FE030E0462F0E9485096115710595
:1015B0008105910549F0DC01CB010196A11DB11D0A
:1015C000BC01CD019F7003C060E070E0CB010E94C0
:1015D000830F20910B0330910C0340910D03509128
:1015E0000E030E94F91020E030E040E05FE30E942B
:1015F000E20F6093DD017093DE018093DF01909331
:10160000E0011092E5011092E4018091E2019091D5
:10161000E301039709F0FBC18091FA02853071F470
:101620008BED92E00E941002892B41F08BED92E04D
:101630000E9428028B3219F40E9445078FEF809395
:10164000E10180929D0290929E02A0929F02B09230
:10165000A0021092A1021092A2021092A302109274
:10166000A4028091950290919602A0919702B09168
:1016700098028093990290939A02A0939B02B09350
:101680009C020E94C9036093950270939602809316
:1016900097029093980265E070E080E090E00E94ED
:1016A0003C056AE070E080E090E00E943C053092EA
:1016B000A6028091A602833609F447C08536C9F593
:1016C0008091A1029091A202A091A302B091A402E4
:1016D0000196A11DB11D8093A1029093A202A09337
:1016E000A302B093A40240919D0250919E0260918A
:1016F0009F027091A002452B462B472B21F4892B8A
:101700008A2B8B2BB1F480E00E943E05882359F090
:1017100083E00E940C096EE471E08091D102909107
:10172000D2020E94710964EF71E080E090E00E94B3
:1017300015056AE070E080E090E00E943C0583E0DF
:101740000E9473058093A602B4CF0E94C9036093E0
:101750009502709396028093970290939802E0917D
:10176000E101EF3F09F453C14E2E512C612C712C35
:101770002AE0B301A20182EF91E00E94C30867E76B
:1017800071E082EF91E00E94AE08F201E154F109AC
:10179000E331F10508F099C0EC5CFF4F0C94841123
:1017A0000E94290892C0C093E9010E94290809C03B
:1017B000C093E6010E9429080BC0C093E9010E9472
:1017C0001908D093E90181C0C093E6010E9419086D
:1017D000D093E6017AC00E94310877C00E941908B0
:1017E00074C00E94210871C04090DD015090DE015C
:1017F0006090DF017090E00120E030E046E153E4CA
:10180000C301B2010E946B11181644F40E94310802
:1018100064E670E080E090E00E948F0320E030E01A
:1018200046E153E4C301B2010E947C0F181694F004
:1018300020E030E048E452E4C301B2010E946B11A1
:1018400087FD08C00E94290864E670E080E090E00F
:101850000E948F0320E030E044E452E4C301B2016F
:101860000E947C0F181694F020E030E040EF51E425
:10187000C301B2010E946B1187FD08C00E942108BC
:1018800068EE73E080E090E00E948F0320E030E09B
:1018900048EE51E4C301B2010E947C0F1816ACF06F
:1018A00020E030E040E85FE3C301B2010E946B1129
:1018B00087FD0BC00E94190868EE73E080E090E09D
:1018C0000E948F0302C00E94070580929D029092A1
:1018D0009E02A0929F02B092A0021092A1021092CA
:1018E000A2021092A3021092A402809195029091FC
:1018F0009602A0919702B0919802809399029093DA
:101900009A02A0939B02B0939C020E94C903609329
:10191000950270939602809397029093980265E0E7
:1019200070E080E090E00E943C056AE070E080E0BA
:1019300090E00E943C053092A6028091A602833678
:1019400009F447C08536C9F58091A1029091A202A1
:10195000A091A302B091A4020196A11DB11D809394
:10196000A1029093A202A093A302B093A40240917B
:101970009D0250919E0260919F027091A002452BA2
:10198000462B472B21F4892B8A2B8B2BB1F480E03B
:101990000E943E05882359F082E00E940C096EE403
:1019A00071E08091D1029091D2020E94710964EF9E
:1019B00071E080E090E00E9415056AE070E080E050
:1019C00090E00E943C0582E00E9473058093A6028D
:1019D000B4CF0E94C90360939502709396028093DE
:1019E0009702909398024091E10150E060E070E02E
:1019F0002AE082EF91E00E94C30867E771E082EF7E
:101A000091E00E94AE081092E3011092E2018091F1
:101A1000FA02833021F40E9407050E949306809108
:101A2000E4019091E50101969093E5018093E40132
:101A300080929D0290929E02A0929F02B092A0027C
:101A40001092A1021092A2021092A3021092A4027C
:101A50008091950290919602A0919702B091980280
:101A60008093990290939A02A0939B02B0939C0258
:101A70000E94C90360939502709396028093970227
:101A80009093980265E070E080E090E00E943C0551
:101A90006AE070E080E090E00E943C053092A6028F
:101AA0008091A602833609F447C08536C9F5809136
:101AB000A1029091A202A091A302B091A40201966A
:101AC000A11DB11D8093A1029093A202A093A30235
:101AD000B093A40240919D0250919E0260919F029A
:101AE0007091A002452B462B472B21F4892B8A2B82
:101AF0008B2BB1F480E00E943E05882359F084E0EE
:101B00000E940C096EE471E08091D1029091D202A2
:101B10000E94710964EF71E080E090E00E94150579
:101B20006AE070E080E090E00E943C0584E00E9462
:101B300073058093A602B4CF0E94C90360939502F7
:101B40007093960280939702909398028091E2019D
:101B50009091E30101969093E3018093E2010E944A
:101B60007901F4CC81E093E00E9494088BEF92E03D
:101B70000E9494088CE191E09093DC028093DB0258
:101B80008BED92E00C949904CF92DF92EF92FF924A
:101B90001092F5011092F40198EEC92E93E0D92E1F
:101BA000E12CF12CC092F601D092F701E092F801FD
:101BB000F092F9018AE091E09093F3018093F201B1
:101BC00085EC90E09093FF018093FE0184EC90E01F
:101BD000909301028093000280EC90E090930302C6
:101BE0008093020281EC90E09093050280930402BE
:101BF00082EC90E0909307028093060286EC90E0DE
:101C0000909309028093080210920B0210920C022A
:101C100010920D0210920E021092950210929602EE
:101C200010929702109298021092990210929A02C2
:101C300010929B0210929C0210929D0210929E02A2
:101C400010929F021092A0021092A1021092A20282
:101C50001092A3021092A40261E085E00E94F402B7
:101C600060E083E00E94F40285E090E09093080336
:101C70008093070383E090E090930A038093090325
:101C800085E89CEFACEDB1E480930B0390930C03DB
:101C9000A0930D03B0930E038CE993E5ACE8B2E496
:101CA00080930F0390931003A0931103B09312033A
:101CB0001092DE021092DD02C092DF02D092E002AA
:101CC000E092E102F092E2028CE191E09093DC027A
:101CD0008093DB021092F2021092F1021092F40251
:101CE0001092F3021092F6021092F5021092F8028E
:101CF0001092F7026091F9026E7F6D7F6093F90296
:101D00006695617081E0682784E00E94A70261E027
:101D100084E00E94F402E8EDF0E0E491E093EB024D
:101D2000E4ECF0E0E491F0E0EE0FFF1FEA54FF4F27
:101D3000859194919093ED028093EC0260E082E0B3
:101D40000E94F4028091F90281FD04C061E082E00A
:101D50000E94A70282E08093E702E6EDF0E0E491C2
:101D6000E093E802E2ECF0E0E491F0E0EE0FFF1F18
:101D7000E455FF4F859194919093EA028093E90294
:101D800069E771E08BEF92E00E94990869E771E0E2
:101D900081E093E00E9499084AE050E065E571E037
:101DA0008BEF92E00E94690849E050E060E671E044
:101DB00081E093E00E9469081092FA021092F60204
:101DC0001092F5021092F4021092F3021092F202B5
:101DD0001092F1028DE991E09093F8028093F7025E
:101DE0009091E702963108F058C02DEB30E0309327
:101DF000F2022093F1022BE931E03093F4022093B8
:101E0000F3022CE231E03093F6022093F502409188
:101E10006800983058F031E09E3008F430E021E05E
:101E2000822F01C0880F3A95EAF701C084E0842B25
:101E300080936800983038F09E3040F0963148F03A
:101E400020E030E008C02DE630E005C02BE630E0B1
:101E500002C02CE630E03093EF022093EE0298307F
:101E600030F481E001C0880F9A95EAF70EC0292F5F
:101E700030E09E3018F42850310902C02E5031094C
:101E800081E001C0880F2A95EAF78093F0028091E3
:101E9000F7029091F8020197F1F78091F502909185
:101EA000F602892B21F18091D9029091DA0222E089
:101EB0008B3D9207E1F0009711F00E949904809108
:101EC000F9028E7F8093F9021092D8021092D70205
:101ED0008BED92E09093DA028093D902E091EE02CA
:101EE000F091EF0290818091F002892B8083FF9026
:101EF000EF90DF90CF9008950E94BE0F08F481E02C
:101F00000895E89409C097FB3EF4909580957095EC
:101F100061957F4F8F4F9F4F9923A9F0F92F96E935
:101F2000BB279395F695879577956795B795F111AA
:101F3000F8CFFAF4BB0F11F460FF1BC06F5F7F4F47
:101F40008F4F9F4F16C0882311F096E911C0772359
:101F500021F09EE8872F762F05C0662371F096E862
:101F6000862F70E060E02AF09A95660F771F881F31
:101F7000DAF7880F9695879597F90895990F0008D5
:101F8000550FAA0BE0E8FEEF16161706E807F9074B
:101F9000C0F012161306E407F50798F0621B730BE6
:101FA000840B950B39F40A2661F0232B242B252B67
:101FB00021F408950A2609F4A140A6958FEF811D0A
:101FC000811D08950E94F50F0C9466100E94581010
:101FD00038F00E945F1020F0952311F00C944F1000
:101FE0000C94551011240C949A100E94771070F3E1
:101FF000959FC1F3950F50E0551F629FF001729FAE
:10200000BB27F00DB11D639FAA27F00DB11DAA1FBC
:10201000649F6627B00DA11D661F829F2227B00D09
:10202000A11D621F739FB00DA11D621F839FA00D94
:10203000611D221F749F3327A00D611D231F849FE4
:10204000600D211D822F762F6A2F11249F5750403B
:102050009AF0F1F088234AF0EE0FFF1FBB1F661FB6
:10206000771F881F91505040A9F79E3F510580F07F
:102070000C944F100C949A105F3FE4F3983ED4F305
:10208000869577956795B795F795E7959F5FC1F723
:10209000FE2B880F911D9695879597F9089597F9CE
:1020A0009F6780E870E060E008959FEF80EC0895FE
:1020B00000240A9416161706180609060895002427
:1020C0000A9412161306140605060895092E0394A1
:1020D000000C11F4882352F0BB0F40F4BF2B11F415
:1020E00060FF04C06F5F7F4F8F4F9F4F089557FD74
:1020F0009058440F551F59F05F3F71F04795880F76
:1021000097FB991F61F09F3F79F08795089512160C
:1021100013061406551FF2CF4695F1DF08C01616B8
:1021200017061806991FF1CF869571056105089469
:102130000895E894BB2766277727CB0197F9089580
:10214000A1E21A2EAA1BBB1BFD010DC0AA1FBB1FBB
:10215000EE1FFF1FA217B307E407F50720F0A21B2D
:10216000B30BE40BF50B661F771F881F991F1A949A
:1021700069F760957095809590959B01AC01BD01C4
:10218000CF0108952F923F924F925F926F927F926C
:102190008F929F92AF92BF92CF92DF92EF92FF9277
:1021A0000F931F93CF93DF93CDB7DEB7CA1BDB0B23
:1021B0000FB6F894DEBF0FBECDBF09942A883988C8
:1021C00048885F846E847D848C849B84AA84B984CF
:1021D000C884DF80EE80FD800C811B81AA81B981DB
:1021E000CE0FD11D0FB6F894DEBF0FBECDBFED01EF
:1021F00008950E940D110C9466100E945F1058F013
:102200000E94581040F029F45F3F29F00C944F10C1
:1022100051110C949A100C9455100E94771068F389
:102220009923B1F3552391F3951B550BBB27AA278F
:1022300062177307840738F09F5F5F4F220F331FC9
:10224000441FAA1FA9F335D00E2E3AF0E0E832D091
:1022500091505040E695001CCAF72BD0FE2F29D094
:10226000660F771F881FBB1F261737074807AB0766
:10227000B0E809F0BB0B802DBF01FF2793585F4FDB
:102280003AF09E3F510578F00C944F100C949A1040
:102290005F3FE4F3983ED4F3869577956795B795BD
:1022A000F7959F5FC9F7880F911D9695879597F9C8
:1022B0000895E1E0660F771F881FBB1F6217730741
:1022C0008407BA0720F0621B730B840BBA0BEE1F56
:1022D00088F7E09508950E94BE0F08F48FEF0895E7
:1022E00097FB072E16F4009407D077FD09D00E94C3
:1022F0008A1107FC05D03EF4909581959F4F089573
:10230000709561957F4F0895EE0FFF1F0590F49132
:10231000E02D0994AA1BBB1B51E107C0AA1FBB1FDC
:10232000A617B70710F0A61BB70B881F991F5A9561
:10233000A9F780959095BC01CD0108950F931F9347
:10234000CF93DF938230910510F482E090E0E0912A
:102350001903F0911A0320E030E0A0E0B0E03097DC
:1023600019F1408151810281138148175907C8F042
:102370008417950769F4109731F012960C93129711
:1023800013961C9327C00093190310931A0322C0BD
:102390002115310519F04217530718F49A01BD01B0
:1023A000EF01DF01F801DBCF21153105F9F0281B22
:1023B000390B2430310580F48A819B8161157105C8
:1023C00021F0FB019383828304C090931A038093CE
:1023D0001903FE01329644C0FE01E20FF31F819300
:1023E000919322503109398328833AC020911703F1
:1023F00030911803232B41F4209102013091030105
:1024000030931803209317032091000130910101AC
:102410002115310541F42DB73EB74091040150918B
:102420000501241B350BE0911703F0911803E21707
:10243000F307A0F42E1B3F0B2817390778F0AC01E7
:102440004E5F5F4F2417350748F04E0F5F1F5093C4
:102450001803409317038193919302C0E0E0F0E0EA
:10246000CF01DF91CF911F910F910895CF93DF930B
:10247000009709F481C0FC01329713821282A09167
:102480001903B0911A03109781F420813181820FD2
:10249000931F20911703309118032817390751F51E
:1024A000F0931803E093170367C0ED0120E030E0DC
:1024B000CE17DF0740F44A815B819E01411551052B
:1024C000F1F0EA01F5CFD383C28340815181840FBB
:1024D000951FC817D90759F488819981840F951FD2
:1024E0000296918380838A819B81938382832115C5
:1024F000310529F4F0931A03E09319033DC0E90173
:10250000FB83EA8349915991C40FD51FEC17FD074E
:1025100061F480819181840F951F0296E90199836E
:102520008883828193819B838A83E0E0F0E0129626
:102530008D919C911397009719F0FD01DC01F7CF65
:102540008D919C9111979D012E5F3F4F820F931F9C
:1025500020911703309118032817390769F4309731
:1025600029F410921A031092190302C013821282E6
:10257000B0931803A0931703DF91CF910895A0E0C3
:10258000B0E0E5ECF2E10C94C610EC01009721F408
:10259000CB010E949E11B4C0FC01E60FF71F9C0105
:1025A00022503109E217F30708F4A8C0D9010D91B0
:1025B0001C91119706171707B0F00530110508F4A4
:1025C0009BC0C80104978617970708F495C002506E
:1025D0001109061B170B019311936D937C93CF0187
:1025E0000E94361289C05B01A01AB10A4C01800E0C
:1025F000911EA0911903B0911A03612C712CE12C4A
:10260000F12C109709F446C08D919C911197A81553
:10261000B905B1F56C0142E0C40ED11CCA14DB044B
:1026200078F14C018A189B08640142E0C40ED11C69
:102630001296BC9012971396AC91B5E0CB16D104CC
:1026400040F0B282A38391828082D9016D937C9302
:1026500009C00E5F1F4F800F911FF9019183808386
:10266000EB2DFA2FE114F10431F0D7011396FC930E
:10267000EE93129741C0F0931A03E09319033CC004
:102680006816790608F43C017D0112960D90BC9104
:10269000A02DB7CF80911703909118038816990643
:1026A000E1F466167706C8F480910001909101016B
:1026B000009741F48DB79EB74091040150910501F8
:1026C000841B950BE817F907C8F4F0931803E093FF
:1026D0001703F901718360830FC0CB010E949E1123
:1026E0007C01009759F0A801BE010E948A13CE0117
:1026F0000E943612C70104C0CE0102C080E090E003
:10270000CDB7DEB7EEE00C94E21081E090E0F894F3
:102710000C94A313FB01DC0102C001900D92415007
:102720005040D8F70895FB01DC018D91019080198C
:102730000110D9F3990B0895FB01DC0101900D9272
:102740000020E1F7089510E0C5E7D0E004C0FE01E5
:102750000E9484112196C637D107C9F7F894FFCF9C
:1027600000001B038000000000000A01C807A10050
:102770005701D200B000C40000000000C001C8072B
:102780004A02A00010022802A801564D4450565F8C
:10279000317C315F564D4450560D0A0070616972AC
:1027A00061626C6500636F6E6E65637465005F5691
:1027B0004D44504500434F4E4E454354494E47000B
:1027C000434F4E4E454354454400564D4450435F9D
:1027D000005F564D4450430D0A004154004F4B00DA
:1027E0005041495241424C4500564D4450455F00CE
:0427F0003A323A003F
:107E0000112484B714BE81FFF0D085E080938100F7
:107E100082E08093C00088E18093C10086E0809377
:107E2000C20080E18093C4008EE0C9D0259A86E02C
:107E300020E33CEF91E0309385002093840096BBD3
:107E4000B09BFECF1D9AA8958150A9F7CC24DD24C4
:107E500088248394B5E0AB2EA1E19A2EF3E0BF2EE7
:107E6000A2D0813461F49FD0082FAFD0023811F036
:107E7000013811F484E001C083E08DD089C08234E0
:107E800011F484E103C0853419F485E0A6D080C0E4
:107E9000853579F488D0E82EFF2485D0082F10E0AE
:107EA000102F00270E291F29000F111F8ED06801E7
:107EB0006FC0863521F484E090D080E0DECF843638
:107EC00009F040C070D06FD0082F6DD080E0C81688
:107ED00080E7D80618F4F601B7BEE895C0E0D1E017
:107EE00062D089930C17E1F7F0E0CF16F0E7DF06D8
:107EF00018F0F601B7BEE89568D007B600FCFDCFD4
:107F0000A601A0E0B1E02C9130E011968C91119780
:107F100090E0982F8827822B932B1296FA010C0160
:107F200087BEE89511244E5F5F4FF1E0A038BF0790
:107F300051F7F601A7BEE89507B600FCFDCF97BE46
:107F4000E89526C08437B1F42ED02DD0F82E2BD052
:107F50003CD0F601EF2C8F010F5F1F4F84911BD097
:107F6000EA94F801C1F70894C11CD11CFA94CF0C13
:107F7000D11C0EC0853739F428D08EE10CD085E9AC
:107F80000AD08FE07ACF813511F488E018D01DD067
:107F900080E101D065CF982F8091C00085FFFCCF94
:107FA0009093C60008958091C00087FFFCCF809118
:107FB000C00084FD01C0A8958091C6000895E0E648
:107FC000F0E098E1908380830895EDDF803219F02E
:107FD00088E0F5DFFFCF84E1DECF1F93182FE3DFCA
:107FE0001150E9F7F2DF1F91089580E0E8DFEE27F6
:047FF000FF270994CA
:027FFE00040479
:0400000300007E007B
:00000001FF