:10000000BEC10000EDC10000EBC10000E9C100006D
:10001000E7C10000E5C10000E3C10000E1C100004C
:10002000DFC10000DDC10000DBC10000D9C100005C
:10003000D7C10000D5C10000D3C10000D1C100006C
:10004000CFC10000CDC10000CBC10000C9C100007C
:10005000C7C10000C5C10000C3C10000D4C4000076
:10006000BFC100000C948E0A0C94650AB9C100004F
:10007000B7C10000B5C10000B3C10000B1C10000AC
:10008000AFC10000ADC10000ABC10000A9C10000BC
:10009000A7C10000A5C10000A3C10000FEC400006C
:1000A0009FC100009DC100009BC1000099C10000DC
:1000B00097C1000095C1000093C1000091C10000EC
:1000C0008FC100008DC100008BC1000089C10000FC
:1000D00087C1000085C100000C942F0A0C94060A09
:1000E0007FC100008B038E037D0381038703C5035B
:1000F000920396039C03A003A403AA03AE03B203D6
:10010000C503B803BC03C00357045C0461046B045B
:100110007504EE047F0487048F049904A304AD04DE
:10012000BC04C604EE04D004DA04E404C40955088F
:10013000E6094108E6093F0843084A08E609450878
:10014000E6095708D509E6096008E6090B094F08D2
:100150005E08E609E609E609C608E609E60959095E
:1001600000407A10F35A00A0724E18090010A5D46E
:10017000E80000E87648170000E40B54020000CACB
:100180009A3B000000E1F505000080969800000011
:1001900040420F000000A086010000001027000070
:1001A0000000E803000000006400000000000A00F6
:1001B000000000000100000000002C76D888DC67F9
:1001C0004F0823DFC1DFAE59E1B1B796E5E3E45351
:1001D000C63AE651997696E8E6C28426EB898C9B6E
:1001E00062ED407C6FFCEFBC9C9F40F2BAA56FA50E
:1001F000F490055A2AF75C936B6CF9676DC11BFC90
:10020000E0E40D47FEF520E6B500D0ED902E0300AA
:10021000943577050080841E080000204E0A0000F7
:1002200000C80C333333330F986E12831141EF8DB6
:100230002114893BE65516CFFEE6DB18D1844B38F6
:100240001BF77C1D901DA4BBE424203284725E2227
:100250008100C9F124ECA1E53D2700002100240024
:1002600027002A002D0030003300010100000401A6
:1002700007010A0100002200250028002B002E00A3
:100280003100340002010000050108010B010000EB
:100290000A0B02090C0D0E08070304010000000000
:1002A000000000000000000000000000000000004E
:1002B000000000000000000000001211100000000B
:1002C000000000000000000000000000000000002E
:1002D00000000000000020002300260029002C0060
:1002E0002F0032000001000003010601090105058D
:1002F0000505070508080808020202020A0A08089C
:1003000004040404010101010101010103030303C9
:1003100003030303040707070C0C0C0C0C0C0C0C58
:100320000202020206060606060606060B0B0B0B69
:100330000B0B0B0B0102102020080810204010208E
:100340004080020102010804020101020408102099
:100350004080804020100804020180040201804097
:100360002010080402010804020101020408102000
:10037000408001020408102040802413EC0E112458
:100380001FBECFEFD1E2DEBFCDBF00E00CBF12E059
:10039000A0E0B2E0EEE2F4E300E00BBF02C00790A1
:1003A0000D92AA3DB107D9F725E0AAEDB2E001C050
:1003B0001D92A235B207E1F711E0CEEBD1E000E0EB
:1003C00006C021970109802FFE010E940119CD3B33
:1003D000D10780E00807A9F70E94F50E0C94061AD1
:1003E0000FCEFC01538D448D252F30E0842F90E0FB
:1003F000821B930B541710F0CF9608950197089520
:10040000FC01918D828D981761F0828DDF01A80F1C
:10041000B11D5D968C91928D9F5F9F73928F90E03E
:1004200008958FEF9FEF0895FC01918D828D9817AD
:1004300031F0828DE80FF11D858D90E008958FEFEA
:100440009FEF0895FC01918D228D892F90E0805CB3
:100450009F4F821B91098F739927089580E090E048
:10046000892B19F0CAD7811120C080E090E0892B38
:1004700041F080E090E0892B21F00E940000811182
:1004800017C080E090E0892B41F080E090E0892B5C
:1004900021F00E94000081110EC080E090E0892BC5
:1004A00079F0A2D781110AC008950E940000DDCF23
:1004B0000E940000E6CF0E940000EFCF0C940000E5
:1004C000089585ED8093BC008091BC0084FDFCCF35
:1004D00010929F03089540913203262F30E0240F9D
:1004E000311D21323105DCF420919F032430C9F401
:1004F000FC0180E090E0861758F43091320321919E
:10050000DC01AE5EBC4FA30FB11D2C930196F3CF5F
:1005100080913203680F6093320380E0089581E098
:10052000089582E00895089508950895E09165037F
:1005300080916403E81730F4F0E0EE50FD4F8081C5
:1005400090E008958FEF9FEF08959091650380915B
:100550006403981750F4E92FF0E0EE50FD4F20812E
:1005600030E09F5F9093650302C02FEF3FEFC9011A
:1005700008958091640390E020916503821B9109A6
:100580000895CF93DF93CB01EA01642FA4DFCE015E
:10059000DF91CF910895CF93DF931F92CDB7DEB750
:1005A000698361E0CE01019696DF81E090E00F90D3
:1005B000DF91CF910895089580E090E008950E9422
:1005C000E919FC01848DDF01A80FB11DA35ABF4FAB
:1005D0002C91848D90E001968F739927848FA68942
:1005E000B7892C93A089B1898C91837080648C9396
:1005F000938D848D981306C00288F389E02D808145
:100600008F7D80830895EF92FF920F931F93CF9376
:10061000DF93EC0181E0888F9B8D8C8D981305C052
:10062000E889F989808185FD25C0F62E0B8D10E0C3
:100630000F5F1F4F0F731127E02E8C8DE8120BC038
:100640000FB607FCFACFE889F989808185FFF5CFDD
:10065000CE01B7DFF2CF8B8DFE01E80FF11DE35A1B
:10066000FF4FF0829FB7F8940B8FEA89FB89808156
:1006700080620AC09FB7F894EE89FF896083E88999
:10068000F98980818370806480839FBF81E090E0DE
:10069000DF91CF911F910F91FF90EF900895CF932D
:1006A000DF93EC01888D8823C1F0EA89FB89808182
:1006B00085FD05C0A889B9898C9186FD0EC00FB64D
:1006C00007FCF5CF808185FFF2CFA889B9898C918D
:1006D00085FFEDCFCE0175DFE8CFDF91CF91089593
:1006E00090E0FC013197E231F10508F04EC0882717
:1006F000EE58FF4F8F4F0C940119809180008F7737
:1007000003C0809180008F7D809380000895809148
:100710008000877FF9CF84B58F7702C084B58F7D45
:1007200084BD08958091B0008F7703C08091B000A0
:100730008F7D8093B0000895809190008F7707C0DF
:10074000809190008F7D03C080919000877F80937F
:10075000900008958091A0008F7707C08091A0003D
:100760008F7D03C08091A000877F8093A0000895B3
:10077000809120018F7707C0809120018F7D03C079
:1007800080912001877F8093200108951F93CF934C
:10079000DF93282F30E0F901E257FD4F8491F901F2
:1007A000EC5CFC4FD491F901E251FD4FC491CC2394
:1007B000B9F0162F811194DFEC2FF0E0EE0FFF1F40
:1007C000EC58FD4FA591B4919FB7F894111104C056
:1007D0008C91D095D82302C0EC91DE2BDC939FBF87
:1007E000DF91CF911F910895CF93DF9390E0FC01AB
:1007F000EC5CFC4F2491FC01E251FD4F8491882375
:1008000061F190E0880F991FFC01E65AFD4FC591F8
:10081000D491FC01EC58FD4FA591B491611109C030
:100820009FB7F8948881209582238883EC912E23AA
:100830000BC0623061F49FB7F8948881322F3095F5
:1008400083238883EC912E2B2C939FBF06C08FB7F8
:10085000F894E8812E2B28838FBFDF91CF910895E4
:100860001F93CF93DF93182FEB0161E0BDDF20973B
:1008700011F460E004C0CF3FD10531F461E0812F75
:10088000DF91CF911F9182CFE12FF0E0E257FD4F32
:10089000E4918E2F90E0FC013197E231F10508F0F0
:1008A0009DC08827EC57FF4F8F4F0C94011984B5DA
:1008B000806884BDC7BD97C084B5806284BDC8BD53
:1008C00092C080918000806880938000D0938900DE
:1008D000C093880088C080918000806280938000EF
:1008E000D0938B00C0938A007EC080918000886086
:1008F00080938000D0938D00C0938C0074C0809151
:10090000B00080688093B000C093B3006CC0809149
:10091000B00080628093B000C093B40064C0809146
:100920009000806880939000D0939900C0939800C5
:100930005AC080919000806280939000D0939B0079
:10094000C0939A0050C0809190008860809390007E
:10095000D0939D00C0939C0046C08091A000806809
:100960008093A0008091A0008F7B8093A000D09303
:10097000A900C093A80037C08091A0008062809336
:10098000A000D093AB00C093AA002DC08091A0001E
:1009900088608093A000D093AD00C093AC0023C0CA
:1009A00080912001806880932001D0932901C09319
:1009B000280119C080912001806280932001D0938A
:1009C0002B01C0932A010FC0809120018860809381
:1009D0002001D0932D01C0932C0105C0C038D10552
:1009E0000CF04CCF46CFDF91CF911F9108952FB7D8
:1009F000F89460915A0370915B0380915C0390912D
:100A00005D032FBF08951F920F920FB60F9211240E
:100A10002F933F938F939F93AF93BF9380915A03EC
:100A200090915B03A0915C03B0915D0330915903F9
:100A300023E0230F2D3720F40196A11DB11D05C021
:100A400026E8230F0296A11DB11D20935903809320
:100A50005A0390935B03A0935C03B0935D03809172
:100A6000550390915603A0915703B09158030196F6
:100A7000A11DB11D8093550390935603A093570376
:100A8000B0935803BF91AF919F918F913F912F9158
:100A90000F900FBE0F901F9018951F920F920FB6D8
:100AA0000F9211240BB60F922F933F934F935F93A6
:100AB0006F937F938F939F93AF93BF93EF93FF9326
:100AC0008091B900887F803609F49CC068F588322F
:100AD00009F45BC090F4803109F454C038F48823E1
:100AE00009F4F6C0883009F44DC0F5C0883109F426
:100AF0004CC0803209F45DC0EEC0803409F468C097
:100B000048F4803309F455C0883309F0E4C0809379
:100B10009D03D8C0803509F44FC0883509F45DC005
:100B2000883409F0D8C0D6C0883909F4C7C0A8F401
:100B3000883709F467C038F4883609F463C0803711
:100B400009F460C0C8C0883809F4B8C0803909F415
:100B50005FC0803809F0BFC05BC0803B09F486C02D
:100B600038F4803A09F466C0883A09F47FC0B3C00B
:100B7000803C09F4A7C0883C09F4A4C0883B09F470
:100B80008AC0A9C080917A0310C090919C03809183
:100B90009B03981770F5E0919C0381E08E0F809382
:100BA0009C03F0E0E558FC4F80818093BB0085EC0E
:100BB00086C080939D038EC0E0919C0381E08E0FE0
:100BC00080939C038091BB00F0E0E558FC4F80834C
:100BD00090919C0380919B036EC0E0919C0381E007
:100BE0008E0F80939C038091BB00F0E0E558FC4F92
:100BF000808380919E0381116DC081E08093790391
:100C000084EA61C083E080939F0310925403CFCFA6
:100C100080915403803208F051C0E091540381E088
:100C20008E0F809354038091BB00F0E0EC5CFC4F8E
:100C30008083BDCF85EC8093BC0010929F03809190
:100C40005403803230F4E0915403F0E0EC5CFC4F4C
:100C500010826091540370E0E0915E03F0915F03B5
:100C600084E393E019951092540335C084E0809397
:100C70009F031092330310923203E0916003F091CE
:100C80006103199580913203811105C081E0809341
:100C9000320310921203E091330381E08E0F8093B0
:100CA0003303F0E0EE5EFC4F80818093BB009091B7
:100CB000330380913203981708F479CF85E8809345
:100CC000BC0009C085EC8093BC0010929F0303C058
:100CD00010929D03F6DBFF91EF91BF91AF919F9131
:100CE0008F917F916F915F914F913F912F910F90D5
:100CF0000BBE0F900FBE0F901F9018950F931F9370
:100D0000CF93DF9304EE12E0C0E0D0E0CE010E946A
:100D10006118F80181938F012196CE30D105B1F78A
:100D20008091E4029091E502A091E602B091E70281
:100D30004697A105B10551F186E190E0A0E0B0E051
:100D40008093E4029093E502A093E602B093E70259
:100D50008AE090E09093F1028093F0028EE190E0BF
:100D60009093EF028093EE0282E390E09093ED0285
:100D70008093EC0286E490E09093EB028093EA0289
:100D800084E690E09093E9028093E8028091F0027B
:100D90009091F1029093DB028093DA028091EE024F
:100DA0009091EF029093DD028093DC028091EC023F
:100DB0009091ED029093DF028093DE028091EA022F
:100DC0009091EB029093E1028093E0028091E8021F
:100DD0009091E9029093E3028093E202DF91CF9138
:100DE0001F910F9108951F93CF93DF9300D000D0F0
:100DF000CDB7DEB78CEA93E025DB892B21F08CEAB6
:100E000093E0FEDAF7CF6AE272E0CE010196F0D508
:100E1000CE01019616D6182FCE010196CCD5812F82
:100E200026960FB6F894DEBF0FBECDBFDF91CF91EF
:100E30001F9108950F931F93CF93DF9300D000D09D
:100E4000CDB7DEB703E080916603833009F450C06C
:100E50008CEA93E0F7DA892B09F43EC08CEA93E040
:100E6000CFDA182F682F8EE994E0CDDB1B3259F7CB
:100E70008CEA93E0E7DA892BD9F38CEA93E0C0DAC5
:100E8000803509F78CEA93E0DDDA0797DCF36BE84D
:100E900072E0CE010196ACD560E5CE0101961BD57E
:100EA00017E08CEA93E0ACDA682FCE01019613D5F7
:100EB0001150B9F78D819E81892B51F06DE272E05E
:100EC00089819A810E94F619892B11F40093660397
:100ED000CE01019670D5B7CF86DF882319F0009335
:100EE0006603B1CF80DF8111FACF85E0809366037E
:100EF00026960FB6F894DEBF0FBECDBFDF91CF911F
:100F00001F910F910895DF92EF92FF920F931F931D
:100F1000CF93DF9300D000D0CDB7DEB785E0F82EB9
:100F200093E0E92E24E0D22E80916603853009F407
:100F300076C08CEA93E086DA892B09F45EC08CEAED
:100F400093E05EDA182F8B3249F58CEA93E07ADA77
:100F50000A97DCF36BE872E0CE01019649D50AE00E
:100F60008CEA93E04DDA182F682FCE010196B3D4A6
:100F70000150B1F72D813E8180914B0590914C0538
:100F80002817390741F467E475E0CE01019674D360
:100F9000892B09F43EC0CE0101960DD5133409F01A
:100FA000C3CF8CEA93E04EDA0897DCF36BE872E08B
:100FB000CE0101961DD563E4CE0101968CD418E0D4
:100FC0008CEA93E01DDA682FCE01019684D411508B
:100FD000B9F72D813E8180914505909146052817EE
:100FE000390739F461E475E0CE01019645D3892BC8
:100FF00099F0CE010196DFD497CFF5DE882319F062
:10100000E092660391CFEFDE8111FACFF092660392
:101010008BCFD0926603BFCFF0926603EACF2696BD
:101020000FB6F894DEBF0FBECDBFDF91CF911F91F9
:101030000F91FF90EF90DF900895DF92EF92FF9273
:101040000F931F93CF93DF93CDB7DEB7AD970FB656
:10105000F894DEBF0FBECDBF182F082E000C990BE1
:10106000AA0BBB0BFC01E154F109EA31F10508F0D0
:10107000ADC18827EA56FF4F8F4F0C940119AAD3B0
:10108000A5C1A8D303C0A6D306C09ED38CED809380
:10109000A3039CC199D38CED8093A00397C161E019
:1010A00081E04BD360E081E007C08ED38FC161E067
:1010B00080E043D360E080E040D388C10DD386C197
:1010C0001DDE6BE872E0CE01889692D442E050E0DB
:1010D00066E372E0CE018896D1D30AED12E024EEE9
:1010E000E22E22E0F22EF801819191918F011BA254
:1010F0001AA21DA21CA21FA21EA24AE0BE016F5F7F
:101100007F4F0E943D15BE016F5F7F4FCE018296DB
:101110003DD41A8219821C821B821E821D826AA102
:101120007BA16115710529F04EA15FA1CE01019649
:101130000ED46FE2CE010196CED3811103C0CE0151
:101140000196DCD34D815E8169817A81CE018896DA
:1011500095D3CE0101962FD4CE0182962CD4E016E1
:10116000F10609F0C0CF41E050E069E372E0CE0142
:10117000889684D3BE01685D7F4FCE0101961FD44F
:10118000CE0101965ED4CE010196FAC06BE872E002
:10119000CE0182962DD4E12CF12C173541F11F326E
:1011A00011F58EA19FA1892B11F18AA19BA1FC01B0
:1011B00020812223E1F0009719F00E94171503C047
:1011C00060E070E0CB01F701EE0FFF1FE652FD4F2C
:1011D00071836083FFEFEF1AFF0A6BE872E0CE01C4
:1011E0008296D4D304C0612FCE01829674D38CEA48
:1011F00093E006D9182F183581F66BE372E0CE0123
:101200000196F6D3CE0101961CD4CE010196D3D31C
:10121000CE018296DAC086E190E0A0E0B0E0809353
:10122000E4029093E502A093E602B093E702809176
:10123000DA029091DB029093F1028093F0028091A8
:10124000DC029091DD029093EF028093EE02809198
:10125000DE029091DF029093ED028093EC02809188
:10126000E0029091E1029093EB028093EA02809178
:10127000E2029091E3029093E9028093E80284EE07
:10128000E82E82E0F82E00E010E0F701D1907F0117
:10129000C8010E946118D81621F06D2DC8010E9466
:1012A00069180F5F1F4F0E30110579F76DE372E07B
:1012B00084C019A618A61BA61AA61DA61CA68E01D8
:1012C0000F5F1F4F22E044E060E070E080E491E4B3
:1012D0000E94D713BC01CE01889658D36FE372E009
:1012E000C80186D34CA55DA568A579A5C801C6D25D
:1012F000811102C0C80102D367E372E0CE010196FA
:101300000FD36DE472E00CD36EE572E009D367E3AE
:1013100072E006D36DE472E003D36EE572E000D3B1
:1013200067E372E0FDD26DE472E0FAD26EE572E03E
:10133000F7D267E372E0F4D26DE472E0F1D26EE5C9
:1013400072E0EED267E372E0EBD26DE472E0E8D2D5
:101350006EE572E0E5D2BC01CE01829630D3CE01BB
:10136000019629D3BE016E5D7F4FCE01019627D332
:10137000CE01019666D3CE0101961DD3CE01829691
:101380001AD3CE01889621C064E672E0CE010196A0
:101390002FD3CE01019655D3CE0101960CD364E62E
:1013A00072E08BE395E0F2D211C096D166E672E06E
:1013B0008BE395E0EBD266E672E0CE01019618D39E
:1013C000CE0101963ED3CE010196F5D2AD960FB671
:1013D000F894DEBF0FBECDBFDF91CF911F910F916B
:1013E000FF90EF90DF9008958CEA93E02BD821E0F6
:1013F000892B09F420E0822F08958EE994E022D809
:1014000021E0892B09F420E0822F08951F920F928A
:101410000FB60F9211240BB60F922F933F934F9359
:101420005F936F937F938F939F93AF93BF93EF934C
:10143000FF938CEA93E0C5D8FF91EF91BF91AF91F4
:101440009F918F917F916F915F914F913F912F91DC
:101450000F900BBE0F900FBE0F901F9018951F920C
:101460000F920FB60F9211240BB60F922F938F93FA
:101470009F93EF93FF93E091BC03F091BD038081B4
:10148000E091C203F091C30382FD12C0908180916C
:10149000C5038F5F8F732091C603821751F0E091CF
:1014A000C503F0E0E455FC4F958F8093C50301C060
:1014B0008081FF91EF919F918F912F910F900BBEA3
:1014C0000F900FBE0F901F9018951F920F920FB69E
:1014D0000F9211240BB60F922F933F934F935F936C
:1014E0006F937F938F939F93AF93BF93EF93FF93EC
:1014F0008EE994E066D8FF91EF91BF91AF919F91F3
:101500008F917F916F915F914F913F912F910F90AC
:101510000BBE0F900FBE0F901F9018951F920F9249
:101520000FB60F9211240BB60F922F938F939F93A8
:10153000EF93FF93E091AE04F091AF048081E091CE
:10154000B404F091B50482FD12C090818091B7047B
:101550008F5F8F732091B804821751F0E091B70428
:10156000F0E0E256FB4F958F8093B70401C0808175
:10157000FF91EF919F918F912F910F900BBE0F9044
:101580000FBE0F901F901895CF92DF92EF92FF92AF
:101590000F931F93CF93DF936C017A018B01C0E00F
:1015A000D0E0CE15DF0581F0D8016D918D01D60117
:1015B000ED91FC910190F081E02DC6011995892BE8
:1015C00011F02196EECF7E01C701DF91CF911F91DF
:1015D0000F91FF90EF90DF90CF9008950F931F939E
:1015E000CF93DF93EC0188819981009729F02A81BC
:1015F0003B812617370788F48B016F5F7F4F0E946E
:101600000919009761F0998388831B830A832C81D1
:101610003D81232B11F4FC01108281E001C080E0A8
:10162000DF91CF911F910F910895FC01A089B1899D
:1016300082E08C93A485B5851C92A685B78583E04E
:101640008C93108EA489B58986E08C93A289B38986
:101650008C9180618C93A289B3898C9188608C93E2
:10166000A289B3898C9180688C930288F389E02DDC
:1016700080818F7D80830895CF93DF93DC01ED918E
:10168000FC91EB01A881B981309711F01097C9F452
:10169000109759F0EB012C813D81232B31F08C9177
:1016A00090E091958195910914C0309781F0DC010B
:1016B00014968D919C911597892B49F0808190E02B
:1016C00008C0BD01CF01DF91CF910C94F61980E0E5
:1016D00090E0DF91CF910895CF93DF93C0EAD3E0FC
:1016E00060E08A8553D860E08B85DF91CF914EC84A
:1016F0008F929F92AF92BF92CF92DF92EF92FF9222
:101700006B017C0174D94B015C01C60ED71EE81E2B
:10171000F91E6DD9681579058A059B0528F0C6164E
:10172000D706E806F906A8F7FF90EF90DF90CF9074
:10173000BF90AF909F908F9008950F931F93CF937A
:10174000DF93C82FD62F8091A203861317C0CC2316
:1017500019F010E001E002C011E000E06091A00388
:10176000062E000C770B8091AA037AD8602F809107
:10177000A6030CD8612F8091A70308D88091A503F8
:10178000D8131DC0CC2319F0C0E0D1E002C0C1E0E5
:10179000D0E06091A303062E000C770B8091AB0381
:1017A0005FD86D2F8091A8030E94C6036C2F809193
:1017B000A903DF91CF911F910F910C94C603DF9184
:1017C000CF911F910F91089561E081E0B6DF60E055
:1017D00080E0B3CF60E081E0B0DF61E080E0ADCFDA
:1017E0000F931F93CF93DF93182FEB0160E00E94BC
:1017F000C60383E090E00197F1F761E0812F0E943A
:10180000C60383E290E00197F1F760E0812F0E9428
:10181000C603CE019927FC01EC5CFC4F6491FC01EE
:10182000E251FD4FE491F0E0EE0FFF1FEC52FD4F4F
:101830008591949100E412E42FE030E0462F87D2A6
:10184000611571058105910549F0DC01CB01019617
:10185000A11DB11DBC01CD019F7003C060E070E00F
:10186000CB010E94D31720E030E048E652E40E940A
:101870009918DF91CF911F910F910895EF92FF92E8
:101880000F931F93CF93DF936115710511F480E0DF
:101890001BC041155105B9F07B01EC018C819D8184
:1018A0008A01080F191FB801CE0198DE882379F349
:1018B000288139818C819D81B701820F931F0E94FD
:1018C000FF191D830C8381E0DF91CF911F910F9150
:1018D000FF90EF900895CF93DF931F921F92CDB7A3
:1018E000DEB769831A8241E050E0BE016F5F7F4F2F
:1018F000C5DF0F900F90DF91CF910895CF93DF93C5
:10190000EC0188819981009711F00E948E14198250
:1019100018821D821C821B821A82DF91CF9108954A
:10192000CF93DF93EC016115710559F0FB01019034
:101930000020E9F73197AF01461B570B9FDF81115C
:1019400002C0CE01DBDFCE01DF91CF910895EF928F
:10195000FF920F931F93CF93DF93EC017B018A01DA
:10196000BA013CDE811103C0CE01C8DF07C01D8370
:101970000C83B701888199810E94FF19CE01DF9104
:10198000CF911F910F91FF90EF900895CF93DF9328
:10199000EC016115710551F0FB0101900020E9F7A0
:1019A0003197AF01461B570BD2DF01C0A7DFCE0135
:1019B000DF91CF910895FC0180819181AFC7FB0138
:1019C000DC0111961C921E9213961C921E92129785
:1019D00015961C921E9214978617970741F0608106
:1019E00071816115710519F044815581B0CF089559
:1019F000FC011182108213821282158214826115F9
:101A0000710549F0FB0101900020E9F73197AF0122
:101A1000461B570B9CCF08956115710579F0FB01AA
:101A200001900020E9F73197AF01461B570BDC010D
:101A3000ED91FC910280F381E02D199480E090E01B
:101A400008951F93CF93DF9300D000D0CDB7DEB7BA
:101A5000FC0144815581608171818CEA93E094DDC1
:101A600069E872E08CEA93E0D7DF8CEA93E00E94A9
:101A7000220202973CF16BE872E0CE010196B8DFDA
:101A80008CEA93E00E940002682FCE01019623DFCA
:101A90008CEA93E00E940002682FCE0101961BDFC2
:101AA0008D819E81892B49F067ED72E089819A8151
:101AB0000E94F61911E0892B09F010E0CE01019681
:101AC0007ADF01C010E0812F26960FB6F894DEBFB2
:101AD0000FBECDBFDF91CF911F9108959DCF8F9203
:101AE0009F92AF92BF92EF92FF920F931F93CF936B
:101AF000DF93CDB7DEB7A1970FB6F894DEBF0FBE68
:101B0000CDBF7C01FA01CB0119A2223008F42AE0F2
:101B10008E010F5D1F4F822E912CA12CB12CBF0185
:101B2000A50194010E947718F901CA010150110919
:101B30006A3014F4605D01C0695CD8016C93232B9A
:101B4000242B252B61F7B801C70166DFA1960FB6DC
:101B5000F894DEBF0FBECDBFDF91CF911F910F91E3
:101B6000FF90EF90BF90AF909F908F900895CF928D
:101B7000DF92EF92FF920F931F93CF93DF93EC01CD
:101B80006A017B01E881F9810190F081E02D6DE22D
:101B900019958C0144275527BA014C195D096E0926
:101BA0007F092AE0CE019BDF800F911FDF91CF914B
:101BB0001F910F91FF90EF90DF90CF900895CF93FA
:101BC000DF931F921F92CDB7DEB720914E05309163
:101BD0004F05CE0101962115310519F48255954026
:101BE00018C0AC01421B530BE0915005F091510518
:101BF00080E090E0309759F09C012E5F3F4F80814C
:101C00009181820F931F0280F381E02DF3CF840F27
:101C1000951F9A83898349815A8180918C04909180
:101C20008D04052E000C660B770B77FF02C09FDF3B
:101C300002C02AE054DF0F900F90DF91CF910895FA
:101C4000BF92CF92DF92EF92FF920F931F93CF93A9
:101C5000DF9348E0C42ED12CE12CF12CD2E0C1E07E
:101C60001FEF05EE55ECB52E80919F038111FCCF3F
:101C7000D0939F03C0939E0310939D0310929C03E7
:101C800010929B0310927A0320917A03C601880F69
:101C9000991F822B80937A0380917903813069F4B4
:101CA0001092790380917A038093BB008091BC00ED
:101CB00083FDF8CFB092BC0002C00093BC008091BD
:101CC0009F038230E1F380919D038F3FE1F080918B
:101CD0009D03803211F080919D038FEFC81AD80ABE
:101CE000E80AF80A87E7C816D104E104F10409F00C
:101CF000BBCFDF91CF911F910F91FF90EF90DF90BD
:101D0000CF90BF9008952AE0B701A60180918C047E
:101D100090918D04E4DE6AEA72E080918C049091E7
:101D20008D04DCDEC0934F04D8CF0F931F93CF9365
:101D3000DF93EC0171DE8C0169E872E0CE016CDEAC
:101D4000800F911FDF91CF911F910F910895CF9236
:101D5000DF92EF92FF920F931F93E82FF92F05C0A8
:101D6000015011092109310961F1908196239417DD
:101D7000B9F305C0015011092109310911F1908110
:101D800096239413F7CFC12CD12CE12CF12C0AC04F
:101D90008FEFC81AD80AE80AF80A0C151D052E0597
:101DA0003F0579F080818623841791F36C2D7D2D7A
:101DB0008E2D9F2D1F910F91FF90EF90DF90CF9070
:101DC000089560E070E080E090E01F910F91FF9037
:101DD000EF90DF90CF9008958BE395E0ECDD81E408
:101DE00095E0E9DD87E495E0E6CD789484B58260FE
:101DF00084BD84B5816084BD85B5826085BD85B5AF
:101E0000816085BD80916E00816080936E0010922C
:101E100081008091810082608093810080918100A7
:101E20008160809381008091800081608093800038
:101E30008091B10084608093B1008091B000816096
:101E40008093B00080919100826080939100809196
:101E500091008160809391008091900081608093D7
:101E600090008091A10082608093A1008091A100E8
:101E700081608093A1008091A00081608093A00088
:101E800080912101826080932101809121018160F4
:101E900080932101809120018160809320018091B5
:101EA0007A00846080937A0080917A0082608093C7
:101EB0007A0080917A00816080937A0080917A0024
:101EC000806880937A001092C10010928E04109264
:101ED0008F04109290041092910410924B0410926F
:101EE0004C0410924D0410924E0468EB7BE080E0AD
:101EF00090E0FEDB8EE994E090938D0480938C0457
:101F000094DB0E94F70460934B0470934C0480931D
:101F10004D0490934E0468E672E080918C04909199
:101F20008D04DCDD6AE070E080E090E0E1DB81E0E0
:101F3000809360041092650310926403109263030F
:101F40001092620310929F0380939E031092790374
:101F500061E084E10E94C60361E085E10E94C6035E
:101F60008091B9008E7F8093B9008091B9008D7FF8
:101F70008093B90088E48093B80085E48093BC0026
:101F800083E992E0909361038093600384E992E097
:101F900090935F0380935E030E94F70400914B04CB
:101FA00010914C0420914D0430914E046B017C0142
:101FB000C01AD10AE20AF30A82E3C816D104E10486
:101FC000F104B8F00E94F70460934B0470934C0442
:101FD00080934D0490934E046AE772E080918C04E4
:101FE00090918D047BDD80914F04811120C028DE0B
:101FF0001EC00E94F7044B015C01DC01CB018C196F
:102000009D09AE09BF096C017D0192E3C90ED11C87
:10201000E11CF11C0E94F704681579058A059B05EF
:1020200088F2C616D706E806F906A0F7CBCF61E816
:1020300072E080918C0490918D0450DD61E872E033
:1020400080918C0490918D0449DD61E872E080916B
:102050008C0490918D0442DDB2DD61E872E08091E4
:102060008C0490918D043ADD63E872E080918C04D9
:1020700090918D0433DD6AE070E080E090E038DB21
:102080008EE994E0D2DA8CEA93E0CFDA6CE872E081
:1020900087E495E07BDC67E972E081E495E076DC3B
:1020A0001092660388E08093A6038BE08093A703D9
:1020B0008CE08093A8038DE08093A90389E080934E
:1020C000AA038AE08093AB0361E088E00E94F403F6
:1020D00061E08091A7030E94F40361E08091A8036E
:1020E0000E94F40361E08091A9030E94F40361E07F
:1020F0008091AA030E94F40361E08091AB030E94E7
:10210000F403EADA1092A20381E08093A50380939E
:10211000A1031092A4038CED8093A0038093A303EA
:102120000E947E060E941A070E94830766E672E0FC
:102130008BE395E02BDC94EF892E99249394A12CCA
:10214000B12C0E94F7040091750310917603209141
:10215000770330917803DC01CB01801B910BA20B3C
:10216000B30B86399105A105B10508F4D9C00E94C9
:10217000F7046093750370937603809377039093CD
:10218000780361E070E080E090E0B2DA0E94F7044A
:1021900060934B0470934C0480934D0490934E04D1
:1021A0006AE772E080918C0490918D0497DC8091B5
:1021B0004F04811101C044DD61E070E080E090E0F7
:1021C00097DA61E872E080918C0490918D0486DC4E
:1021D000C0E0D0E010E0C12CD12C760100E01BC2A1
:1021E0002196A1E0CA16D104E104F10409F413C256
:1021F000FE01E257FD4F8491FE01EC5CFC4F7490B0
:10220000FE01E251FD4F6490662009F404C2811181
:102210000E947003E62DF0E0EE0FFF1FEC52FD4F21
:10222000A591B491EC917E2209F4F5C181E0002ED4
:1022300001C0880F0A94EAF7182B0F5F083009F4E1
:10224000ECC1B5E3CB16D104E104F10409F4E5C116
:1022500061E070E080E090E04BDA8FEFC81AD80AB6
:10226000E80AF80AC533D10509F0BACF61E070E099
:1022700080E090E03DDA61E872E080918C0490911A
:102280008D042CDCC0E080917B00877F9C2F987FA1
:10229000892B80937B008C2F8770806480937C00D7
:1022A00080917A00806480937A0080917A0086FD24
:1022B000FCCF209178008091790030E0382B80911C
:1022C0008C0490918D04A901032E000C660B770BF2
:1022D00037FFB7C14CDC6AEA72E080918C049091C0
:1022E0008D04FCDBCF5FC03171F661E872E0809154
:1022F0008C0490918D04F2DB62DC61E872E08091E5
:102300008C0490918D04EADB63E872E080918C0488
:1023100090918D04E3DB61E070E080E090E0E8D92B
:102320000E94F704672B682B692B41F40E94F70485
:10233000623071058105910508F4F0C00E94F70430
:102340000091710310917203209173033091740313
:10235000601771078207930740F4609371037093CD
:10236000720380937303909374030091710310912F
:10237000720320917303309174036B017C01C01AC6
:10238000D10AE20AF30A970186010A3F11052105E5
:10239000310508F4C3C06093710370937203809396
:1023A0007303909374038092580490925904A092FE
:1023B0005A04B0925B0410925C0410925D04109277
:1023C0005E0410925F048091500490915104A0919A
:1023D0005204B09153048093540490935504A093F5
:1023E0005604B09357040E94F7046093500470930E
:1023F000510480935204909353040E94F704609315
:102400004B0470934C0480934D0490934E040E94AF
:10241000F7046B017C0161EA72E080918C04909179
:102420008D045CDB2AE041E050E060E070E08091E8
:102430008C0490918D0453DB68EA72E080918C04E7
:1024400090918D044BDB2AE0B701A60180918C04AA
:1024500090918D0444DB6AEA72E080918C04909143
:102460008D043CDB8091500490915104A091520462
:10247000B0915304B701A601481B590B6A0B7B0BA3
:102480002AE080918C0490918D0429DB6AEA72E045
:1024900080918C0490918D0421DB409150045091E7
:1024A00051046091520470915304809154049091AE
:1024B0005504A0915604B0915704481B590B6A0B60
:1024C0007B0B2AE080918C0490918D0408DB61E8FD
:1024D00072E080918C0490918D0400DB0E94F704DF
:1024E000AB01BC012AE080918C0490918D04F7DA55
:1024F0006CEA72E080918C0490918D0416DC65E0AA
:1025000070E080E090E0F4D80E94F70460935004FB
:102510007093510480935204909353048091660306
:10252000853071F48CEA93E00E942202892B41F0FD
:102530008CEA93E00E9400028B3219F40E941A0781
:102540008FEF8093700380916603833019F4C4D8B1
:102550000E9483070E94F70460936C0370936D03DD
:1025600080936E0390936F03009168031091690349
:1025700020916A0330916B03DC01CB01801B910B2E
:10258000A20BB30B84369105A105B105F8F067E104
:1025900070E086E190E024D969E170E088E190E0A4
:1025A0001FD96BE170E08AE190E01AD980916C0349
:1025B00090916D03A0916E03B0916F0380936803B7
:1025C00090936903A0936A03B0936B0360916703D0
:1025D00080917003611107C0809367030E941D08FA
:1025E00063EB72E008C0681751F0809367030E94A4
:1025F0001D0865EC72E08EE994E097DB09C08EE976
:1026000094E00E94030369E872E08EE994E004DA42
:102610000E942E0296CD80E00ACE412F50E060E06D
:1026200070E02AE080918C0490918D0458DA6AEA77
:1026300072E080918C0490918D0450DA00E010E0FB
:1026400007CE2AE04CDA47CEECEAF3E0138212829E
:1026500088EE93E0A0E0B0E084839583A683B783FF
:102660002AE032E03183208345E351E055874487F7
:1026700044E351E05787468740E351E0518B408B5C
:1026800041E351E0538B428B42E351E0558B448B45
:1026900046E351E0578B468B118E128E138E148EAB
:1026A000EEE9F4E01382128284839583A683B783D4
:1026B0003183208325EC30E03587248724EC30E01B
:1026C0003787268720EC30E0318B208B21EC30E0FF
:1026D000338B228B22EC30E0358B248B26EC30E0E0
:1026E000378B268B118E128E138E148EE9E4F4E054
:1026F0001782108611861286138614861586168612
:102700001786108A118A128A138A148A158A168AE1
:10271000E2E9F4E01382128284839583A683B7836F
:102720008CE192E0918380838EE994E00E94150B06
:1027300061E086E10E94F40360E087E10E94F40317
:1027400061E088E10E94F40360E089E10E94F40303
:1027500061E08AE10E94F40360E08BE10E94F403EF
:1027600061E08CE10E94F40360E08DE10E94F403DB
:1027700061E08EE10E94F40360E08FE10E94F403C7
:1027800061E080E20E94F40360E081E20E94F403D1
:102790006BE872E087E495E02BD96BE872E081E4A6
:1027A00095E026D96BE872E08BE395E021C9EF92C2
:1027B0000F931F93CF93DF93E80147FD02C034E0EE
:1027C00001C034E1042E000C550B57FF03C0519596
:1027D00041955109E32E022F242FAE0186D1CE015F
:1027E000DF91CF911F910F91EF9008950F931F9359
:1027F000CF93DF938230910510F482E090E0E09176
:102800005005F091510520E030E0A0E0B0E03097B5
:1028100019F1408151810281138148175907C8F08D
:102820008417950769F4109731F012960C9312975C
:1028300013961C9327C0009350051093510522C096
:102840002115310519F04217530718F49A01BD01FB
:10285000EF01DF01F801DBCF21153105F9F0281B6D
:10286000390B2430310580F48A819B816115710513
:1028700021F0FB019383828304C0909351058093E0
:102880005005FE01329644C0FE01E20FF31F819312
:10289000919322503109398328833AC020914E0503
:1028A00030914F05232B41F4209102023091030215
:1028B00030934F0520934E05209100023091010284
:1028C0002115310541F42DB73EB7409104025091D6
:1028D0000502241B350BE0914E05F0914F05E217E0
:1028E000F307A0F42E1B3F0B2817390778F0AC0133
:1028F0004E5F5F4F2417350748F04E0F5F1F509310
:102900004F0540934E058193919302C0E0E0F0E0C3
:10291000CF01DF91CF911F910F910895CF93DF9356
:10292000009709F481C0FC01329713821282A091B2
:102930005005B0915105109781F420813181820FAB
:10294000931F20914E0530914F052817390751F5F7
:10295000F0934F05E0934E0567C0ED0120E030E0B5
:10296000CE17DF0740F44A815B819E014115510576
:10297000F1F0EA01F5CFD383C28340815181840F06
:10298000951FC817D90759F488819981840F951F1D
:102990000296918380838A819B8193838283211510
:1029A000310529F4F0935105E09350053DC0E9014C
:1029B000FB83EA8349915991C40FD51FEC17FD079A
:1029C00061F480819181840F951F0296E9019983BA
:1029D0008883828193819B838A83E0E0F0E0129672
:1029E0008D919C911397009719F0FD01DC01F7CFB1
:1029F0008D919C9111979D012E5F3F4F820F931FE8
:102A000020914E0530914F052817390769F430970A
:102A100029F4109251051092500502C013821282BF
:102A2000B0934F05A0934E05DF91CF9108951F936A
:102A3000FC0199278827BC01E89411911032E9F331
:102A4000193010F01E30C8F31B3249F01D3241F42A
:102A5000689405C01CD0610F711D811D911D1191DD
:102A600010531A30B8F33EF49095809570956195A7
:102A70007F4F8F4F9F4F1F910895BB274A3031F4EE
:102A8000992322F4BDE2909581959F4F16C0592F4E
:102A9000482F372F262F660F771F881F991F660F25
:102AA000771F881F991F620F731F841F951F660F62
:102AB000771F881F991F0895BB27FB015527AA2759
:102AC000880F991FAA1FA41710F0A41B83955051BB
:102AD000B9F7A05DAA3308F0A95DA193009779F733
:102AE000B111B1931192CB014EC28F929F92AF92CE
:102AF000BF92CF92DF92EF92FF920F931F93CF93EB
:102B0000DF93CDB7DEB729970FB6F894DEBF0FBEBF
:102B1000CDBF6A01122FB02E2BE3201720F0FF2427
:102B2000F394F00E02C02CE3F22E0F2D27E0AE013D
:102B30004F5F5F4F50D1BC014981842F8970813034
:102B400031F0E1FC06C0E0FE06C090E205C09DE267
:102B500003C09BE201C090E05E2D507143FF3CC07A
:102B6000911102C083E001C084E0811718F4212F85
:102B7000281B01C020E051110BC0F601822F30E26A
:102B8000882319F031938150FBCFC20ED11C20E075
:102B9000992329F0D6019C93F60131966F01C60165
:102BA0000396E2FE0AC03EE4D6013C9341E411964E
:102BB0004C93119712963C9306C03EE6F601308383
:102BC00041E641833283FC01322F40E2332309F492
:102BD00042C041933150FACF42FF44C0911102C02C
:102BE00083E001C084E0811718F4212F281B01C065
:102BF00020E051110BC0F601822F30E2882319F03A
:102C000031938150FBCFC20ED11C20E0992329F0D3
:102C1000D6019C93F60131966F01C6010396E2FE40
:102C20000BC039E4D6013C933EE411963C931197D6
:102C300036E412963C9307C039E6F60130833EE64F
:102C4000318336E63283FC01322F40E2332319F020
:102C500041933150FBCFFC01E20FF11D10828EEF4A
:102C60009FEFA6C021E030E0911102C020E030E0EB
:102C7000161617061CF4FB01319602C0E1E0F0E0E5
:102C80002E0F3F1FBB2021F0EB2DF0E0319602C04C
:102C9000E0E0F0E02E0F3F1FE12FF0E02E173F079E
:102CA0001CF4121B212F01C020E08E2D887159F4D5
:102CB000F601822F30E2882319F031938150FBCF47
:102CC000C20ED11C20E0992329F0D6019C93F60175
:102CD00031966F0151110BC0F601822F90E38823CA
:102CE00019F091938150FBCFC20ED11C20E00F2D23
:102CF000060F9A81342F307144FF03C0913309F4D9
:102D00000150101624F4093018F008E001C001E069
:102D1000AB0177FF02C040E050E0FB01E41BF50B84
:102D2000A1E0B0E0AC0FBD1FEA0FFB1F8EE2A82EA2
:102D30004B01801A91080B2D10E011950195110996
:102D40004F3FBFEF5B0721F4D601AC9211966D01A6
:102D5000641775072CF08416950614F4818101C060
:102D600080E3415051093196D60111967D014017FB
:102D7000510724F0D6018C936701E2CF64177507E1
:102D800039F4963320F4953319F4311101C081E3FD
:102D9000F6018083F701822F90E2882319F0919346
:102DA0008150FBCFF701E20FF11D108280E090E02F
:102DB00029960FB6F894DEBF0FBECDBFDF91CF913D
:102DC0001F910F91FF90EF90DF90CF90BF90AF9049
:102DD0009F908F900895283008F027E03327DA017C
:102DE000990F311D87FD916000966105710539F4D9
:102DF00032602E5F3D9330E32A95E1F708959F3FBF
:102E000030F080387105610509F03C5F3C5F3D930F
:102E1000913008F08068911DDF93CF931F930F933B
:102E2000FF92EF92192F987F9695E92F9695969598
:102E3000E90FFF27E654FE4F99273327EE24FF249E
:102E4000A701E70105900894079428F4360FE71EC0
:102E5000F81E491F511D660F771F881F991F069482
:102E6000A1F70590079428F4E70EF81E491F561F96
:102E7000C11D770F881F991F661F0694A1F7059043
:102E8000079428F4F80E491F561FC71FD11D880F3D
:102E9000991F661F771F0694A1F70590079420F4E9
:102EA000490F561FC71FD81F990F661F771F881F0E
:102EB0000694A9F784911095177041F0D695C7959F
:102EC00057954795F794E7941A95C1F7E0E6F1E036
:102ED00068941590159135916591959105907FE2D3
:102EE0007395E118F10A430B560BC90BD009C0F7D3
:102EF000E10CF11E431F561FC91FD01D7EF4703315
:102F000011F48A95E6CFE894015030F0080F0AF4E6
:102F10000027021708F4202F2395022F7A3328F078
:102F200079E37D932A95E9F710C07D932A9589F678
:102F3000069497956795379517951794E118F10AB8
:102F4000430B560BC90BD00998F023957E917395CE
:102F50007A3308F070E37C932013B8F77E917061A8
:102F60007D9330F0839571E37D9370E32A95E1F7CB
:102F70001124EF90FF900F911F91CF91DF9199272E
:102F800087FD90950895DC01FC01672F71917723EF
:102F9000E1F7329704C07C916D9370836291AE1714
:102FA000BF07C8F30895E89409C097FB3EF49095D5
:102FB0008095709561957F4F8F4F9F4F9923A9F012
:102FC000F92F96E9BB279395F695879577956795A1
:102FD000B795F111F8CFFAF4BB0F11F460FF1BC0E5
:102FE0006F5F7F4F8F4F9F4F16C0882311F096E978
:102FF00011C0772321F09EE8872F762F05C0662326
:1030000071F096E8862F70E060E02AF09A95660FDE
:10301000771F881FDAF7880F9695879597F9089597
:1030200097F99F6780E870E060E008959FEF80EC7B
:10303000089500240A94161617061806090608951E
:1030400000240A9412161306140605060895092E84
:103050000394000C11F4882352F0BB0F40F4BF2BF3
:1030600011F460FF04C06F5F7F4F8F4F9F4F089533
:1030700057FD9058440F551F59F05F3F71F0479529
:10308000880F97FB991F61F09F3F79F0879508950E
:10309000121613061406551FF2CF4695F1DF08C02D
:1030A000161617061806991FF1CF8695710561054A
:1030B00008940895E894BB2766277727CB0197F9F2
:1030C0000895F999FECF92BD81BDF89A992780B5F0
:1030D0000895262FF999FECF1FBA92BD81BD20BD5C
:1030E0000FB6F894FA9AF99A0FBE01960895A1E2E4
:1030F0001A2EAA1BBB1BFD010DC0AA1FBB1FEE1F72
:10310000FF1FA217B307E407F50720F0A21BB30BBC
:10311000E40BF50B661F771F881F991F1A9469F738
:1031200060957095809590959B01AC01BD01CF0194
:1031300008950CD08CCF84DF40F07BDF30F021F499
:103140005F3F19F06DCF5111B6CF70CF91DF98F37B
:103150009923C9F35523B1F3951B550BBB27AA2718
:1031600062177307840738F09F5F5F4F220F331F8A
:10317000441FAA1FA9F333D00E2E3AF0E0E830D056
:1031800091505040E695001CCAF729D0FE2F27D059
:10319000660F771F881FBB1F261737074807AB0727
:1031A000B0E809F0BB0B802DBF01FF2793585F4F9C
:1031B0002AF09E3F510568F033CF7DCF5F3FECF39F
:1031C000983EDCF3869577956795B795F7959F5F61
:1031D000C9F7880F911D9695879597F90895E1E0B5
:1031E000660F771F881FBB1F621773078407BA0714
:1031F00020F0621B730B840BBA0BEE1F88F7E0956F
:103200000895EE0FFF1F881F8BBF0790F691E02DEA
:1032100019946F927F928F929F92AF92BF92CF92AA
:10322000DF92EF92FF920F931F93CF93DF9300975C
:1032300081F4CB01DF91CF911F910F91FF90EF901F
:10324000DF90CF90BF90AF909F908F907F906F90C6
:10325000CDCAFC01E60FF71F9C0122503109E2178D
:10326000F30708F4A5C0EC01D9010D911C91119749
:1032700006171707A8F00530110508F497C0C80114
:1032800004978617970708F491C002501109061B8E
:10329000170B019311936D937C93CF013FDB86C095
:1032A0005B01A01AB10A4C01800E911EA09150053D
:1032B000B0915105612C712CE12CF12C109709F47F
:1032C00046C08D919C911197A815B905B1F56C0177
:1032D00042E0C40ED11CCA14DB0478F14C018A18F8
:1032E0009B08640142E0C40ED11C1296BC90129758
:1032F0001396AC91B5E0CB16D10440F0B282A38313
:1033000091828082D9016D937C9309C00E5F1F4F1B
:10331000800F911FF90191838083EB2DFA2FE11427
:10332000F10431F0D7011396FC93EE9312973EC04F
:10333000F0935105E093500539C06816790608F4FA
:103340003C017D0112960D90BC91A02DB7CF8091CC
:103350004E0590914F0588169906E1F4661677069A
:10336000C8F48091000290910102009741F48DB75A
:103370009EB74091040250910502841B950BE817FB
:10338000F907B0F4F0934F05E0934E05F90171830E
:1033900060830CC0CB012ADA7C01009749F0A801B8
:1033A000BE011BD0CE01BADAC70104C0CE0102C0F3
:1033B00080E090E0DF91CF911F910F91FF90EF900F
:1033C000DF90CF90BF90AF909F908F907F906F9045
:1033D000089581E090E0F89419C0FB01DC0102C07F
:1033E00001900D9241505040D8F70895FB01DC0147
:1033F0008D91019080190110D9F3990B0895FB016B
:10340000DC0101900D920020E1F7089511E0CEEB70
:10341000D1E000E005C0802FFE01F3DE2196011D02
:0E342000CF3BD10780E00807B1F7F894FFCF4B
:10342E00000052058000000000000303C40AF101F1
:10343E004F0322020002140200000000CB02C10260
:10344E00DC029502B902A502960241540050414990
:10345E005241424C45004F2F005800570051005A20
:10346E002F44697374616E6365203A200054656D54
:10347E0070EFBFBD726174757265203A20003231F3
:10348E002E30320041004D00564D4450565F317C77
:10349E00315F564D4450560D0A00564D4450525F02
:1034AE00007C005F564D4450520D0A00434F4E4E65
:1034BE00454354494E4700434F4E4E4543544544B1
:1034CE0000564D4450455F003A323A005F564D4427
:1034DE005045005072656D6965726520636F6D6D44
:1034EE00616E6465006E6F7576656C6C6520636FDA
:0A34FE006D6D616E6465004F4B00B8
:020000023000CC
:10E000000D9489F10D94B2F10D94B2F10D94B2F129
:10E010000D94B2F10D94B2F10D94B2F10D94B2F1F0
:10E020000D94B2F10D94B2F10D94B2F10D94B2F1E0
:10E030000D94B2F10D94B2F10D94B2F10D94B2F1D0
:10E040000D94B2F10D94B2F10D94B2F10D94B2F1C0
:10E050000D94B2F10D94B2F10D94B2F10D94B2F1B0
:10E060000D94B2F10D94B2F10D94B2F10D94B2F1A0
:10E070000D94B2F10D94B2F10D94B2F10D94B2F190
:10E080000D94B2F10D94B2F10D94B2F10D94B2F180
:10E090000D94B2F10D94B2F10D94B2F10D94B2F170
:10E0A0000D94B2F10D94B2F10D94B2F10D94B2F160
:10E0B0000D94B2F10D94B2F10D94B2F10D94B2F150
:10E0C0000D94B2F10D94B2F10D94B2F10D94B2F140
:10E0D0000D94B2F10D94B2F10D94B2F10D94B2F130
:10E0E0000D94B2F141546D656761323536300041AF
:10E0F000726475696E6F206578706C6F72657220DE
:10E1000073746B3530305632206279204D4C530099
:10E11000426F6F746C6F616465723E004875683F52
:10E1200000436F6D70696C6564206F6E203D200048
:10E130004350552054797065202020203D20005FF9
:10E140005F4156525F415243485F5F3D2000415658
:10E1500052204C696243205665723D20004743437C
:10E160002056657273696F6E203D20004350552024
:10E1700049442020202020203D20004C6F7720663D
:10E18000757365202020203D20004869676820665F
:10E190007573652020203D200045787420667573D6
:10E1A00065202020203D20004C6F636B2066757336
:10E1B000652020203D20004D617220203720323024
:10E1C000313300312E362E3800342E332E350056A2
:10E1D00023202020414444522020206F7020636F70
:10E1E00064652020202020696E73747275637469E1
:10E1F0006F6E2061646472202020496E74657272B3
:10E20000757074006E6F20766563746F7200726A49
:10E210006D702020006A6D70200057686174207056
:10E220006F72743A00506F7274206E6F7420737541
:10E2300070706F72746564004D7573742062652030
:10E2400061206C6574746572002000577269747483
:10E25000696E672045450052656164696E672045B7
:10E26000450045452065727220636E743D00504F35
:10E27000525400303D5A65726F2061646472003FF1
:10E280003D43505520737461747300403D454550C3
:10E29000524F4D207465737400423D426C696E6B41
:10E2A000204C454400453D44756D70204545505215
:10E2B0004F4D00463D44756D7020464C415348001B
:10E2C000483D48656C70004C3D4C69737420492F83
:10E2D0004F20506F72747300513D51756974005234
:10E2E0003D44756D702052414D00563D73686F7707
:10E2F00020696E7465727275707420566563746FF0
:10E30000727300593D506F727420626C696E6B00BD
:10E310002A0011241FBECFEFD1E2DEBFCDBF01E046
:10E320000CBF12E0A0E0B2E0EEE1FDEF03E00BBFB6
:10E3300002C007900D92A030B107D9F712E0A0E01B
:10E34000B2E001C01D92AE30B107E1F70F9460F367
:10E350000D948DFE01E20EBF0FEF0DBF11241FBE05
:10E360000D9460F30D9400F020E030E040ED57E0B4
:10E3700005C0FA013197F1F72F5F3F4F2817390792
:10E38000C0F308959C01260F311DC901A0E0B0E043
:10E390002F5F3F4FABBFFC018791882361F08093D3
:10E3A000C6008091C00086FFFCCF8091C0008064D1
:10E3B0008093C000EACF08958DE08093C6008091DD
:10E3C000C00086FFFCCF8091C00080648093C000B5
:10E3D0008AE08093C6008091C00086FFFCCF8091C8
:10E3E000C00080648093C00008950F94C2F10F9420
:10E3F000DCF10895FC019081992359F09093C600B7
:10E400008091C00086FFFCCF8091C0008064809323
:10E41000C0003196992379F70895282F982F929567
:10E420009F70892F805D8A3308F0895F8093C600D2
:10E430008091C00086FFFCCF8091C00080648093F3
:10E44000C000822F8F70982F905D9A3308F0995FEB
:10E450009093C6008091C00086FFFCCF8091C000E1
:10E4600080648093C00008959C01FB01853691056E
:10E470001CF46330710594F0C90164E670E00F94F8
:10E480002EFE605D7F4F6093C6008091C00086FFC6
:10E49000FCCF8091C00080648093C0002B30310598
:10E4A00014F43297B4F0C90164E670E00F942EFEC4
:10E4B0006AE070E00F942EFE605D7F4F6093C600AF
:10E4C0008091C00086FFFCCF8091C0008064809363
:10E4D000C000C9016AE070E00F942EFEC0968093E0
:10E4E000C6008091C00086FFFCCF8091C000806490
:10E4F0008093C00008951F93182F8EE692EE60E07F
:10E500000F94C2F11093C6008091C00086FFFCCF2B
:10E510008091C00080648093C0000F94DCF11F9153
:10E5200008952F923F924F925F926F927F928F92B7
:10E530009F92AF92BF92CF92DF92EF92FF920F9392
:10E540001F93DF93CF93CDB7DEB762970FB6F894E2
:10E55000DEBF0FBECDBF382E622ECA01DB015C01CB
:10E560006D01772420E2222E2E010894411C511CBB
:10E570008BC081E0A81680E0B80681E0C80680E084
:10E58000D80628F0C601AA27BB270F940DF2BB2797
:10E59000AD2D9C2D8B2D0F940DF28A2D0F940DF225
:10E5A0002092C6008091C00086FFFCCF8091C00001
:10E5B00080648093C0009DE29093C6008091C0006B
:10E5C00086FFFCCF8091C00080648093C0002092C1
:10E5D000C6008091C00086FFFCCF8091C00080649F
:10E5E0008093C00019828601750188249924A1E0D6
:10E5F0003A1651F03A1620F0B2E03B1661F409C029
:10E600000BBFF701779007C0C7010F9477FE782EF4
:10E6100002C0F7017080872D0F940DF22092C60082
:10E620008091C00086FFFCCF8091C0008064809301
:10E63000C000872D8052F401EF70F0708F3520F408
:10E64000E40DF51D708204C0E40DF51D8EE280839B
:10E650000894E11CF11C011D111D0894811C911CE2
:10E6600090E18916910409F0C2CF80E190E0A0E02A
:10E67000B0E0A80EB91ECA1EDB1E198AC2010F9493
:10E68000FAF10F94DCF16A94662009F072CF629679
:10E690000FB6F894DEBF0FBECDBFCF91DF911F91B3
:10E6A0000F91FF90EF90DF90CF90BF90AF909F9031
:10E6B0008F907F906F905F904F903F902F90089534
:10E6C0002F923F924F925F926F927F928F929F9282
:10E6D000AF92BF92CF92DF92EF92FF920F931F9370
:10E6E000DF93CF93CDB7DEB7CD53D1400FB6F894BB
:10E6F000DEBF0FBECDBF01E20EBF0FEF0DBF94B75F
:10E70000F894A89514BE80916000886180936000A1
:10E7100010926000789493FF05C0E0910002F091A0
:10E7200001021995279A2F9A8091C00082608093E8
:10E73000C00080E18093C40088E18093C1000000A4
:10E74000EE24FF24870144E0A42EB12CCC24DD2448
:10E7500024C0C5010197F1F70894E11CF11C011DCB
:10E76000111D21E2E2162EE4F20620E0020720E06D
:10E77000120718F031E0C32ED12CC801B70127ECE5
:10E780003BE140E050E00F9441FE611571058105C9
:10E79000910519F485B1805885B98091C00087FD35
:10E7A00003C0C114D104A9F2A6014F5F5F4FC25E3E
:10E7B000DE4F59834883CE51D140C25EDE4F8881FF
:10E7C0009981CE51D140019711F00D9410FEC05D9A
:10E7D000DE4F19821882C053D14060E0C15DDE4F28
:10E7E0001882CF52D14088249924C35DDE4F19820C
:10E7F0001882CD52D140C05EDE4F188219821A8233
:10E800001B82C052D140CE5CDE4F188219821A8220
:10E810001B82C253D140EE24FF2487010BBFF701B6
:10E8200007911691C45CDE4F19830883CC53D14005
:10E830000D940BFEC25EDE4F28813981CE51D1404E
:10E840002130310509F52091C600C25EDE4F1982E4
:10E850001882CE51D14022C02F5F3F4F4F4F5F4FA4
:10E86000213082E138078AE7480780E0580780F0C6
:10E87000C45CDE4FE881F981CC53D140EF5FFF4F9C
:10E8800019F0EE27FF27099420E030E040E050E047
:10E890008091C00087FFE0CF2091C600C35DDE4FAE
:10E8A00048815981CD52D1404F5F5F4FC35DDE4FEC
:10E8B00059834883CD52D140213209F063C64A3092
:10E8C000510508F05FC60894811C911C53E0851621
:10E8D000910409F059C600E010E018C081E280936D
:10E8E000C6008091C00086FFFCCF8091C00080648C
:10E8F0008093C0002F5F3F4F2931310579F70F9486
:10E90000DCF10F5F1F4F0530110519F020E030E0FA
:10E91000E5CF10920A0210920B0210920C02109294
:10E920000D02109206021092070210920802109235
:10E930000902109202021092030210920402109235
:10E9400005028FEE90EE60E00F94F5F180E191EE1C
:10E9500060E00F94C2F18091C00087FFFCCF9091DE
:10E96000C600903608F09F759032B8F09093C600BC
:10E970008091C00086FFFCCF8091C00080648093AE
:10E98000C000A0E2A093C6008091C00086FFFCCF2B
:10E990008091C00080648093C000983409F4D7C18E
:10E9A0009934B8F4923409F459C1933458F490333B
:10E9B00019F1903308F4E3C59F33A1F1903409F0C5
:10E9C000DEC5BDC0953409F470C1963409F0D7C5D1
:10E9D00098C1923509F42BC2933538F49C3409F46C
:10E9E000F5C1913509F0CBC518C2963509F445C279
:10E9F000993509F0C4C567C483E792EE62E00F94CD
:10EA0000F5F110920602109207021092080210927D
:10EA1000090210920A0210920B0210920C0210923C
:10EA20000D0213C18FE792EE62E00F94F5F18FEEC5
:10EA300090EE60E00F94F5F181E291EE60E00F94CA
:10EA4000C2F187EB91EE60E00F94F5F180E391EE77
:10EA500060E00F94C2F184EE90EE60E00F94F5F167
:10EA60008FE391EE60E00F94C2F186E090E061E008
:10EA700070E00F9434F20F94DCF18DE591EE60E0DC
:10EA80000F94C2F189EC91EE60E00F94F5F18EE401
:10EA900091EE60E00F94C2F183EC91EE60E00F9490
:10EAA000F5F18CE691EE60E00F94C2F18EE10F94E7
:10EAB0000DF288E90F940DF281E00F940DF20F949E
:10EAC000DCF18BE791EE60E00F94C2F119E0E0E039
:10EAD000F0E010935700E4918E2F0F940DF20F94F5
:10EAE000DCF18AE891EE60E00F94C2F1E3E0F0E03F
:10EAF00010935700E4918E2F0F940DF20F94DCF1D8
:10EB000089E991EE60E00F94C2F1E2E0F0E0109349
:10EB10005700E4918E2F0F940DF20F94DCF188EAE8
:10EB200091EE60E00F94C2F1E1E0F0E01093570045
:10EB30001491812F0F940DF20F94DCF107CF8BE825
:10EB400092EE62E00F94F5F18BE492EE60E00F94A8
:10EB5000F5F10F94DCF100E010E019C0C8016F2D51
:10EB60000F947FFEFF2031F489E492EE60E00F9471
:10EB7000C2F10BC0F092C6008091C00086FFFCCFAE
:10EB80008091C00080648093C0000F5F1F4FC80158
:10EB900081519F41A0E0B0E0ABBFFC01F790BAE229
:10EBA000FB1621F0E2E000301E07C1F60F94DCF105
:10EBB0000F94DCF187E592EE60E00F94F5F10F948D
:10EBC000DCF1CC24DD2400E010E01EC0C8010F946D
:10EBD00077FEF82E882331F489E492EE60E00F94FA
:10EBE000C2F10BC08093C6008091C00086FFFCCFAD
:10EBF0008091C00080648093C000FE1419F00894D6
:10EC0000C11CD11C0F5F1F4FC80181519F41A0E063
:10EC1000B0E0ABBFFC01E790FAE2EF1621F022E092
:10EC20000030120799F60F94DCF10F94DCF182E6C4
:10EC300092EE60E00F94C2F1C60161E070E00F94C3
:10EC400034F20F94DCF10F94DCF110920202109276
:10EC50000302109204021092050278CE89E992EE26
:10EC600062E00F94F5F1279A2F9A16C02F9880E052
:10EC700090E0E0EDF7E03197F1F7019684369105E9
:10EC8000C1F72F9A80E090E0E0EDF7E03197F1F7DF
:10EC9000019684369105C1F78091C00087FFE6CFC9
:10ECA0008091C00087FFFCCF64C485EA92EE62E0E9
:10ECB0000F94F5F140910202509103026091040219
:10ECC0007091050281E020E10F9491F2809102029F
:10ECD00090910302A0910402B091050280509F4FD1
:10ECE000AF4FBF4F8093020290930302A0930402A0
:10ECF000B093050280509041A040B04008F426CE69
:10ED0000A4CF83EB92EE62E00F94F5F140910602FE
:10ED100050910702609108027091090280E020E1A1
:10ED20000F9491F28091060290910702A09108023F
:10ED3000B091090280509F4FAF4FBF4F80930602A2
:10ED400090930702A0930802B0930902FFCD80ECD4
:10ED500092EE62E00F94F5F183E792EE60E00F949B
:10ED6000F5F18FE792EE60E00F94F5F18BE892EE0B
:10ED700060E00F94F5F189E992EE60E00F94F5F10F
:10ED800085EA92EE60E00F94F5F183EB92EE60E09D
:10ED90000F94F5F180EC92EE60E00F94F5F187ECC2
:10EDA00092EE60E00F94F5F188ED92EE60E00F9442
:10EDB000F5F18FED92EE60E00F94F5F18AEE92EEB0
:10EDC00060E00F94F5F183E093EEBDCD87EC92EE19
:10EDD00062E00F94F5F181E40F947BF282E40F94EA
:10EDE0007BF283E40F947BF284E40F947BF285E45E
:10EDF0000F947BF286E40F947BF287E40F947BF20E
:10EE000088E40F947BF28AE40F947BF28BE40F94F6
:10EE10007BF28CE40F947BF299CD88ED92EE62E068
:10EE20000F94F5F1772473948824992409C48FED05
:10EE300092EE62E00F94F5F140910A0250910B02BC
:10EE400060910C0270910D0282E020E10F9491F22A
:10EE500080910A0290910B02A0910C02B0910D02D8
:10EE600080509F4FAF4FBF4F80930A0290930B0289
:10EE7000A0930C02B0930D0269CD8AEE92EE62E08F
:10EE80000F94F5F184EE90EE60E00F94F5F18FECC5
:10EE900091EE60E00F94F5F1662477244301CC5D98
:10EEA000DE4F19821882C452D140D401C301B695F5
:10EEB000A79597958795CA5DDE4F88839983AA8326
:10EEC000BB83C652D140CC5DDE4FA881B981C4520C
:10EED000D1401196CC5DDE4FB983A883C452D14096
:10EEE000CD0162E070E00F9434F2B0E2B093C6005E
:10EEF0008091C00086FFFCCF8091C0008064809329
:10EF0000C000EDE2E093C6008091C00086FFFCCF18
:10EF10008091C00080648093C000F0E2F093C6004E
:10EF20008091C00086FFFCCF8091C00080648093F8
:10EF3000C000CA5DDE4FE880F9800A811B81C6529D
:10EF4000D140BB27A12F902F8F2D0F940DF2CA5DBA
:10EF5000DE4F8881C652D1400F940DF2B0E2FB2EF5
:10EF6000F092C6008091C00086FFFCCF8091C00067
:10EF700080648093C0000DE30093C6008091C000C0
:10EF800086FFFCCF8091C00080648093C00010E2B7
:10EF90001093C6008091C00086FFFCCF8091C00016
:10EFA00080648093C0008BBEF3012791C65DDE4F65
:10EFB0002883CA52D140A22EBB24CC24DD2408943D
:10EFC000611C711C811C911C8BBEF3018791282E42
:10EFD0003324442455240894611C711C811C911C09
:10EFE0008BBEF3013791C55DDE4F3883CB52D140E4
:10EFF0000894611C711C811C911C8BBEF30147910C
:10F00000C45DDE4F4883CC52D140ADEFEA2EAFEF66
:10F01000FA2EAFEF0A2FAFEF1A2F6E0C7F1C801E57
:10F02000911E142D032DF22CEE24EA0CFB1C0C1D5A
:10F030001D1D0F940DF220E22093C6008091C000A8
:10F0400086FFFCCF8091C00080648093C000C65DC5
:10F05000DE4F8881CA52D1400F940DF230E23093D6
:10F06000C6008091C00086FFFCCF8091C000806404
:10F070008093C000C45DDE4F8881CC52D1400F9494
:10F080000DF240E24093C6008091C00086FFFCCFA5
:10F090008091C00080648093C000C55DDE4F888190
:10F0A000CB52D1400F940DF250E25093C6008091A4
:10F0B000C00086FFFCCF8091C00080648093C000B8
:10F0C0008FEFE8168FEFF80680E0080780E018075A
:10F0D00031F484E092EE60E00F94C2F1DFC0D80119
:10F0E000C7018070907CA070B0708050904CA040A0
:10F0F000B040D1F52FEF3FE340E050E0E222F322B1
:10F1000004231523CA5DDE4FA880B980CA80DB8046
:10F11000C652D140AE0CBF1CC01ED11EAA0CBB1CD7
:10F12000CC1CDD1C8EE092EE60E00F94C2F1BB2798
:10F13000A12F902F8F2D0F940DF28E2D0F940DF285
:10F1400030E23093C6008091C00086FFFCCF8091F2
:10F15000C00080648093C0004EE34093C60080915D
:10F16000C00086FFFCCF87C08EE09EEFA0E0B0E03D
:10F17000E822F9220A231B239CE0E91694E9F90608
:10F1800090E0090790E0190709F088C0C45DDE4FE0
:10F19000A881CC52D140EA2EFF2400E010E0102FCD
:10F1A0000F2DFE2CEE24C55DDE4FB881CB52D14031
:10F1B000EB0EF11C011D111DD601C501817090706F
:10F1C000A070B070DC0199278827E80EF91E0A1F8D
:10F1D0001B1F20EF30E040E050E0A222B322C42207
:10F1E000D52241E1AA0CBB1CCC1CDD1C4A95D1F7F1
:10F1F000EA0CFB1C0C1D1D1D81E090E0A0E0B0E0BE
:10F20000282239224A225B2235E1220C331C441C7D
:10F21000551C3A95D1F7E20CF31C041D151D57013E
:10F220006801AA0CBB1CCC1CDD1C85E192EE60E0E1
:10F230000F94C2F1C801AA27BB270F940DF2BB2778
:10F24000A12F902F8F2D0F940DF28E2D0F940DF274
:10F2500090E29093C6008091C00086FFFCCF809121
:10F26000C00080648093C000AEE3A093C60080918C
:10F27000C00086FFFCCF8091C00080648093C000F6
:10F28000C601AA27BB270F940DF2BB27AD2D9C2DDD
:10F290008B2D0F940DF28A2D0F940DF20F94DCF14B
:10F2A000CC5DDE4FE881F981C452D140F99709F471
:10F2B0004DCBF4E0EF2EF12C012D112D6E0C7F1CA7
:10F2C000801E911EF2CD83E093EE62E00F94F5F183
:10F2D0008AE192EE60E00F94C2F18091C00087FF56
:10F2E000FCCF1091C6001F751093C6008091C0001E
:10F2F00086FFFCCF8091C00080648093C0000F9493
:10F30000DCF1812F81548A3108F036C1163409F4BA
:10F3100095C0173490F4133409F44EC0143430F40B
:10F320001134F1F0123409F01DC130C0143409F465
:10F3300059C0153409F016C16BC01A3409F4C4C0A1
:10F340001B3438F4173409F48FC0183409F00AC19B
:10F35000A1C01B3409F4D2C01C3409F003C1E8C0B9
:10F360008FEF81B90DC082B1809582B980E090E0C5
:10F37000E0EDF7E03197F1F70196883C9105C1F790
:10F380008091C00087FFEFCF12B8EFC08FEF84B934
:10F390000DC085B1809585B980E090E0E0EDF7E0A3
:10F3A0003197F1F70196883C9105C1F78091C00033
:10F3B00087FFEFCF15B8D9C08FEF87B90DC088B1DF
:10F3C000809588B980E090E0E0EDF7E03197F1F7C3
:10F3D0000196883C9105C1F78091C00087FFEFCF6F
:10F3E00018B8C3C08FEF8AB90DC08BB180958BB9A7
:10F3F00080E090E0E0EDF7E03197F1F70196883C8E
:10F400009105C1F78091C00087FFEFCF1BB8ADC059
:10F410008FEF8DB90DC08EB180958EB980E090E0F0
:10F42000E0EDF7E03197F1F70196883C9105C1F7DF
:10F430008091C00087FFEFCF1EB897C08FEF80BBD1
:10F440000DC081B3809581BB80E090E0E0EDF7E0F6
:10F450003197F1F70196883C9105C1F78091C00082
:10F4600087FFEFCF11BA81C08FEF83BB0DC084B38C
:10F47000809584BB80E090E0E0EDF7E03197F1F714
:10F480000196883C9105C1F78091C00087FFEFCFBE
:10F4900014BA6BC08FEF809301010FC080910201FD
:10F4A00080958093020180E090E0E0EDF7E03197F5
:10F4B000F1F70196883C9105C1F78091C00087FF64
:10F4C000EDCF1092020151C08FEF809304010FC065
:10F4D0008091050180958093050180E090E0E0ED4A
:10F4E000F7E03197F1F70196883C9105C1F78091DB
:10F4F000C00087FFEDCF1092050137C08FEF8093DA
:10F5000007010FC08091080180958093080180E079
:10F5100090E0E0EDF7E03197F1F70196883C910536
:10F52000C1F78091C00087FFEDCF109208011DC088
:10F530008FEF80930A010FC080910B01809580931B
:10F540000B0180E090E0E0EDF7E03197F1F70196F4
:10F55000883C9105C1F78091C00087FFEDCF1092E4
:10F560000B0103C085E292EEEEC98091C00087FFD7
:10F57000FCCF8091C600EAC988E392EEE4C98CE131
:10F5800091EEE1C988249924933011F1943028F444
:10F59000913089F09230B8F408C0953061F195301F
:10F5A000F0F0963009F048C043C02B3109F042C951
:10F5B00091E06BE13FC96227C15DDE4F2883CF52E6
:10F5C000D14092E037C9B22FA0E0622793E032C960
:10F5D000822F90E0A82BB92B622794E02BC92E3004
:10F5E00009F039C3622795E0C05DDE4F19821882A9
:10F5F000C053D1401FC9E1E0F0E0EC0FFD1FC05D3A
:10F60000DE4F08811981C053D140E00FF11F2083E4
:10F610000F5F1F4FC05DDE4F19830883C053D14079
:10F6200062270A171B0709F005C9D80196E002C92D
:10F63000261709F010C303C0973009F0FBC87724E0
:10F640009981933109F412C19431C8F4963009F4C8
:10F65000D8C0973050F4923009F406C1933009F4C1
:10F660006DC0913009F059C253C0913109F477C08F
:10F67000923108F0BBC0903109F04FC2F5C098310B
:10F6800009F487C0993150F4953109F4EFC09531F0
:10F6900008F4C6C1963109F040C2C2C19A3109F4DA
:10F6A0006CC09A3108F491C09B3109F45BC09D3164
:10F6B00009F033C29D81903359F48F81882311F46E
:10F6C0009EE11CC0813011F091E018C098E916C08D
:10F6D000892F807591F0903539F4E0E0F0E089E011
:10F6E0008093570094910AC0983539F4E3E0F0E034
:10F6F00089E080935700949101C090E01A821B82A8
:10F700008D818C831D829E831F8227E030E009C299
:10F710001A8288E08B8381E48C8386E58D8382E581
:10F720008E8389E48F8383E5888780E589878FE5E9
:10F730008A8782E38B872BE030E0F3C18A818139AD
:10F7400041F0823941F0803911F48FE005C080E04A
:10F7500003C082E001C08AE01A828B8344C0772410
:10F76000739482C08D81882311F48EE12CC0813086
:10F7700011F081E028C088E926C01A82E1E0F0E0BB
:10F7800089E08093570084918B831C8224E030E0D1
:10F79000C8C18B81803589F48C81883039F4E2E0EE
:10F7A000F0E089E08093570084910DC0E0E0F0E044
:10F7B00089E080935700849106C0E3E0F0E089E09F
:10F7C0008093570084911A82DFCF8D81836C99E0FA
:10F7D000E1E0F0E0082E90935700E89507B600FCB2
:10F7E000FDCF1A821B8223E030E09BC180EC8A832C
:10F7F000CE5CDE4F188219821A821B82C253D1401E
:10F800008EC18A8190E0A0E0B0E0582F44273327D2
:10F8100022278B8190E0A0E0B0E0DC0199278827C7
:10F82000282B392B4A2B5B2B8D8190E0A0E0B0E098
:10F83000282B392B4A2B5B2B8C8190E0A0E0B0E089
:10F84000BA2FA92F982F8827282B392B4A2B5B2BCF
:10F85000220F331F441F551FC05EDE4F288339839C
:10F860004A835B83C052D1401A8259C13A81C95C34
:10F87000DE4F3883C753D140CA5CDE4F1882C6536F
:10F88000D1408B81C82EDD24CA5CDE4F488159816E
:10F89000C653D140C42AD52A933109F082C0CE5C28
:10F8A000DE4F88819981AA81BB81C253D1408050AB
:10F8B000904CA340B04030F583E0CE5CDE4FE88052
:10F8C000F9800A811B81C253D140F70100935B008C
:10F8D00080935700E89507B600FCFDCFCE5CDE4F65
:10F8E000088119812A813B81C253D14000501F4FAA
:10F8F0002F4F3F4FCE5CDE4F088319832A833B8313
:10F90000C253D140C05EDE4F488159816A817B81FC
:10F91000C052D140DE011B9631E08C9111962C91A2
:10F9200011971296C75CDE4F2883C953D140C85C3B
:10F93000DE4F1882C853D14090E0C85CDE4FE881AA
:10F94000F981C853D1408E2B9F2B0C01FA01609393
:10F950005B0030935700E89511244E5F5F4F6F4F67
:10F960007F4F0EEFE02E0FEFF02ECE0CDF1CC114F8
:10F97000D10499F685E0C05EDE4F088119812A81A5
:10F980003B81C052D140F80120935B008093570027
:10F99000E89507B600FCFDCF81E180935700E8951C
:10F9A00035C0C05EDE4F88819981AA81BB81C0527B
:10F9B000D140B695A795979587957C018601ABE0D8
:10F9C000AA2EB12CAC0EBD1E0BC0D5016D915D01F0
:10F9D000C7010F947FFE0894E11CF11C01501040F8
:10F9E0000115110591F7A60160E070E0440F551F65
:10F9F000661F771FC05EDE4FE880F9800A811B8199
:10FA0000C052D1404E0D5F1D601F711F1A82C05E33
:10FA1000DE4F488359836A837B83C052D1407FC0C5
:10FA2000FA80C55CDE4FF882CB53D140C65CDE4F16
:10FA30001882CA53D1408B81C82EDD24C65CDE4FAC
:10FA400008811981CA53D140C02AD12A1A828981DA
:10FA5000BE016D5F7F4F843121F59601C05EDE4FA0
:10FA6000E880F9800A811B81C052D1400BBFF701A9
:10FA700087919691DB018C9311969C936E5F7F4FDB
:10FA8000D801C7010296A11DB11DC05EDE4F88835B
:10FA90009983AA83BB83C052D14022503040F1F6F3
:10FAA00036C0C05EDE4F288139814A815B81C052F9
:10FAB000D1400894C108D108760100E010E0089414
:10FAC000C11CD11C0894E11CF11C011D111DE20E8A
:10FAD000F31E041F151F21BDBB27A52F942F832FB5
:10FAE00082BD2F5F3F4F4F4F5F4FF89A80B5DB01CC
:10FAF0008D93BD012E153F054007510761F7C05E8C
:10FB0000DE4F288339834A835B83C052D1409601FC
:10FB10002D5F3F4FFB01108204C080EC8A8322E0FE
:10FB200030E08BE18093C6008091C00086FFFCCF5F
:10FB30008091C00080648093C000C15DDE4FF88179
:10FB4000CF52D140F093C6008091C00086FFFCCF19
:10FB50008091C00080648093C000432F3093C60022
:10FB60008091C00086FFFCCF8091C00080648093AC
:10FB7000C000922F2093C6008091C00086FFFCCF6A
:10FB80008091C00080648093C0008EE08093C600A6
:10FB90008091C00086FFFCCF8091C000806480937C
:10FBA000C00065E1C15DDE4FE880CF52D1406E25D7
:10FBB00069276427FE01319610C090819093C6009A
:10FBC0008091C00086FFFCCF31968091C000806498
:10FBD0008093C0006927215030402115310569F715
:10FBE0006093C6008091C00086FFFCCF8091C0006A
:10FBF00080648093C00085B1805885B9772081F4F6
:10FC0000C15DDE4F0881CF52D1400F5FC15DDE4F35
:10FC10000883CF52D14090E0A0E0B0E00D941AF4F8
:10FC200027982F9880E090E020ED37E0F901319798
:10FC3000F1F7019684369105C9F700008091C00064
:10FC40008D7F8093C00081E180935700E895EE2777
:10FC5000FF270994FFCF90E00D941AF497FB092E2B
:10FC600007260AD077FD04D02ED006D000201AF443
:10FC7000709561957F4F0895F6F7909581959F4F08
:10FC80000895A1E21A2EAA1BBB1BFD010DC0AA1FDD
:10FC9000BB1FEE1FFF1FA217B307E407F50720F0F5
:10FCA000A21BB30BE40BF50B661F771F881F991F70
:10FCB0001A9469F760957095809590959B01AC01B9
:10FCC000BD01CF010895AA1BBB1B51E107C0AA1FAC
:10FCD000BB1FA617B70710F0A61BB70B881F991FED
:10FCE0005A95A9F780959095BC01CD010895F99991
:10FCF000FECF92BD81BDF89A992780B50895262F31
:10FD0000F999FECF1FBA92BD81BD20BD0FB6F89400
:0EFD1000FA9AF99A0FBE01960895F894FFCF63
:040000033000E000E9
:00000001FF