:100000000C94FA000C9422010C9422010C94A2048A
:100010000C94A2040C94A2040C9422010C942201CE
:100020000C9422010C9422010C9422010C942201C4
:100030000C9422010C9422010C9422010C942201B4
:100040000C9458040C9422010C9404030C94DE02CA
:100050000C9422010C9422010C9422010C94220194
:100060000C9422010C942201370C460B620C1D0BE0
:10007000620C1A0B260B380B620C2F0B620C4B0B0D
:100080004C0C620C620C620C620C410B500B620C4B
:10009000620C620C620C620C620C5B0B00407A100A
:1000A000F35A00A0724E18090010A5D4E80000E829
:1000B0007648170000E40B54020000CA9A3B000087
:1000C00000E1F505000080969800000040420F0016
:1000D0000000A08601000000102700000000E803D7
:1000E000000000006400000000000A0000000000A2
:1000F0000100000000002C76D888DC674F0823DF61
:10010000C1DFAE59E1B1B796E5E3E453C63AE65133
:10011000997696E8E6C28426EB898C9B62ED407C5A
:100120006FFCEFBC9C9F40F2BAA56FA5F490055AF6
:100130002AF75C936B6CF9676DC11BFCE0E40D471B
:10014000FEF520E6B500D0ED902E0300943577053E
:100150000080841E080000204E0A000000C80C33F6
:100160003333330F986E12831141EF8D2114893B85
:10017000E65516CFFEE6DB18D1844B381BF77C1D05
:10018000901DA4BBE424203284725E228100C9F158
:1001900024ECA1E53D2700000000240027002A00F0
:1001A0000000000800020100000304070000000036
:1001B00000000000000000002300260029000000CD
:1001C0000000250028002B00040404040404040497
:1001D00002020202020203030303030301020408F2
:1001E00010204080010204081020010204081020A1
:1001F0005B0D260911241FBECFEFD8E0DEBFCDBFB7
:1002000023E0A8ECB1E001C01D92A636B207E1F7E9
:1002100011E0A0E0B1E0E6E0FBE202C005900D9243
:10022000A83CB107D9F710E0C9EFD0E004C021978E
:10023000FE010E945713C83FD107C9F70E94520917
:100240000C9476150C9400000895FC01538D448D98
:10025000252F30E0842F90E0821B930B541710F071
:10026000CF96089501970895FC01918D828D98177E
:1002700061F0828DDF01A80FB11D5D968C91928D8A
:100280009F5F9F73928F90E008958FEF9FEF089587
:10029000FC01918D828D981731F0828DE80FF11D50
:1002A000858D90E008958FEF9FEF0895FC01918D6B
:1002B000228D892F90E0805C9F4F821B91098F7364
:1002C0009927089581E392E00E94560121E0892B4D
:1002D00009F420E0822F0895FC01848DDF01A80F2E
:1002E000B11DA35ABF4F2C91848D90E001968F735E
:1002F0009927848FA689B7892C93A089B1898C917D
:10030000837080648C93938D848D981306C00288CB
:10031000F389E02D80818F7D80830895EF92FF9295
:100320000F931F93CF93DF93EC0181E0888F9B8D18
:100330008C8D981305C0E889F989808185FD26C0D8
:10034000F62E0B8D10E00F5F1F4F0F731127E02E5D
:100350008C8DE8120CC00FB607FCFACFE889F9893A
:10036000808185FFF5CFCE010E946C01F1CF8B8D8E
:10037000FE01E80FF11DE35AFF4FF0829FB7F8949A
:100380000B8FEA89FB89808180620AC09FB7F8944D
:10039000EE89FF896083E889F989808183708064B0
:1003A00080839FBF81E090E0DF91CF911F910F91FB
:1003B000FF90EF900895CF93DF93EC01888D882311
:1003C000C9F0EA89FB89808185FD05C0A889B989C2
:1003D0008C9186FD0FC00FB607FCF5CF808185FF9D
:1003E000F2CFA889B9898C9185FFEDCFCE010E940B
:1003F0006C01E7CFDF91CF91089580E090E0892BE9
:1004000029F00E94620181110C94000008953FB709
:10041000F89480910D0290910E02A0910F02B0917C
:10042000100226B5A89B05C02F3F19F00196A11D0B
:10043000B11D3FBFBA2FA92F982F8827820F911D7A
:10044000A11DB11DBC01CD0142E0660F771F881FC1
:10045000991F4A95D1F708952FB7F8946091090232
:1004600070910A0280910B0290910C022FBF0895A7
:1004700020911803309119032817390771F49091CE
:10048000160380911703981741F0E0911603F0E0EE
:10049000E853FE4F808190E008958FEF9FEF08951D
:1004A0001F93CF93DF93DC015C968D919C915D97B8
:1004B000009739F421E030E013963C932E93129785
:1004C0003BC05196ED91FC91529750962C915097CC
:1004D000322F30951FB75E964C915E97742F7270D5
:1004E00041FD6095F8944081772311F0422B01C0C3
:1004F00043234083EC012197F1F748E0508160FFEE
:1005000002C0522B01C053235083EC012197F1F715
:100510006695415099F78081772319F08323808372
:1005200002C0282B20831FBF5C968D919C915D9704
:100530000197F1F781E090E0DF91CF911F9108954D
:1005400020911803309119032817390771F480910D
:1005500017032091160390E0805C9F4F821B910946
:1005600060E470E00E944313089580E090E00895F5
:10057000209118033091190328173907B9F4909185
:10058000160380911703981789F0E0911603F0E0A5
:10059000E853FE4F80812091160330E02F5F3F4FDC
:1005A0002F7333272093160390E008958FEF9FEF6A
:1005B000089580E090E008950E9458151F920F92D0
:1005C0000FB60F9211242F933F934F935F936F9326
:1005D0007F938F939F93AF93BF93EF93FF9381E3A9
:1005E00092E00E946C01FF91EF91BF91AF919F91BA
:1005F0008F917F916F915F914F913F912F910F90CC
:100600000FBE0F901F9018951F920F920FB60F926A
:1006100011242F938F939F93EF93FF93E0914102C7
:10062000F09142028081E0914702F091480282FD00
:1006300012C0908180914A028F5F8F7320914B028C
:10064000821751F0E0914A02F0E0EF5CFD4F958F88
:1006500080934A0201C08081FF91EF919F918F9119
:100660002F910F900FBE0F901F90189590E0FC01F6
:10067000E056FE4F2491FC01E452FE4F3491FC0100
:10068000E853FE4FE491EE2309F43CC0222339F1F4
:10069000233091F038F42130A9F0223001F584B5EF
:1006A0008F7D12C0273091F02830A1F02430B9F4AA
:1006B000809180008F7D03C0809180008F77809330
:1006C00080000DC084B58F7784BD09C08091B000D3
:1006D0008F7703C08091B0008F7D8093B000F0E0F1
:1006E000EE0FFF1FE254FE4FA591B4919FB7F8940F
:1006F000611104C08C913095382302C0EC913E2BDF
:100700003C939FBF0895CF93DF9390E0FC01E452A8
:10071000FE4F2491FC01E853FE4F8491882361F140
:1007200090E0880F991FFC01EA56FE4FC591D491C5
:10073000FC01E254FE4FA591B491611109C09FB72D
:10074000F8948881209582238883EC912E230BC016
:10075000623061F49FB7F8948881322F30958323FB
:100760008883EC912E2B2C939FBF06C08FB7F894F3
:10077000E8812E2B28838FBFDF91CF9108951F939F
:10078000CF93DF93182FEB0161E00E948303209742
:1007900011F460E004C0CF3FD10539F461E0812F4E
:1007A000DF91CF911F910C943603E12FF0E0E056DA
:1007B000FE4FE491E330F9F048F4E130B9F0E23073
:1007C000A1F584B5806284BDC8BD34C0E730E9F0CE
:1007D000E83019F1E43049F580918000806280931F
:1007E0008000D0938B00C0938A0024C084B58068B9
:1007F00084BDC7BD1FC08091800080688093800049
:10080000D0938900C093880015C08091B0008068A3
:100810008093B000C093B3000DC08091B00080629F
:100820008093B000C093B40005C0C038D1050CF06F
:10083000B5CFAFCFDF91CF911F9108958F929F9247
:10084000AF92BF92CF92DF92EF92FF926B017C0149
:100850000E9407024B015C01C114D104E104F104C0
:10086000F1F00E940702DC01CB0188199909AA095D
:10087000BB09883E9340A105B10570F321E0C21A7F
:10088000D108E108F10888EE880E83E0981EA11CCB
:10089000B11CC114D104E104F10419F7DDCFFF90BC
:1008A000EF90DF90CF90BF90AF909F908F90089582
:1008B0001F920F920FB60F9211242F933F938F9395
:1008C0009F93AF93BF938091090290910A02A091E8
:1008D0000B02B0910C023091080223E0230F2D3758
:1008E00020F40196A11DB11D05C026E8230F029634
:1008F000A11DB11D209308028093090290930A0262
:10090000A0930B02B0930C0280910D0290910E0205
:10091000A0910F02B09110020196A11DB11D80930C
:100920000D0290930E02A0930F02B0931002BF919C
:10093000AF919F918F913F912F910F900FBE0F908C
:100940001F9018951F920F920FB60F9211242F939C
:100950003F934F935F936F937F938F939F93AF9347
:10096000BF93EF93FF93E0911803F0911903309731
:1009700009F451C0968DA685B785858591FF04C081
:100980009C91892329F447C09C91892309F043C095
:10099000A389B4899C918589809589238C938689C4
:1009A00097890197F1F7608D718DA685B78555857B
:1009B00038E020E0CB010197F1F7822F90E0959588
:1009C0008795282F4C91452309F02068315091F7E5
:1009D000868D81FD20958091170390E001968F739D
:1009E000992730911603381749F0A0911703B0E00A
:1009F000A853BE4F2C938093170303C0868D81604C
:100A0000868F828D938D0197F1F7A389B4899C918C
:100A10008589892B8C93FF91EF91BF91AF919F9125
:100A20008F917F916F915F914F913F912F910F9097
:100A30000FBE0F901F901895CF93DF93DC01ED91BF
:100A4000FC91EB01A881B981309711F01097C9F49E
:100A5000109759F0EB012C813D81232B31F08C91C3
:100A600090E091958195910914C0309781F0DC0157
:100A700014968D919C911597892B49F0808190E077
:100A800008C0BD01CF01DF91CF910C94661580E0C5
:100A900090E0DF91CF910895CF93DF93C5E2D2E04C
:100AA00060E08A850E94360360E08B85DF91CF91FC
:100AB0000C943603E1E3F2E0A089B18982E08C93E3
:100AC000A485B5851C92A685B7858FEC8C93108E76
:100AD000A489B58986E08C93A289B3898C918061C1
:100AE0008C93A289B3898C9188608C93A289B389F5
:100AF0008C9180688C930288F389E02D80818F7DB2
:100B000080830895CF93DF93BC0181E392E00E943C
:100B1000CC08EC0169E371E081E392E00E94CC082B
:100B20008C0F9D1FDF91CF9108951F93CF93DF937B
:100B300000D000D000D0CDB7DEB7FC014481558194
:100B40006081718186E293E00E94CF0669E371E0E3
:100B500086E293E00E94CC0864EF71E080E090E0D0
:100B60000E941E0486E293E00E94A00202975CF1BC
:100B70006BE371E0CE0101960E94340886E293E0B7
:100B80000E94B802682FCE0101960E94B90786E242
:100B900093E00E94B802682FCE0101960E94B90727
:100BA0008D819E81892B49F069EB71E089819A8161
:100BB0000E94661511E0892B09F010E0CE01019624
:100BC0000E942F0801C010E0812F26960FB6F894DE
:100BD000DEBF0FBECDBFDF91CF911F9108951F9350
:100BE000CF93DF9300D000D000D0CDB7DEB786E240
:100BF00093E00E94A002892B29F086E293E00E94F4
:100C0000B802F5CF6CEB71E0CE0101960E9434087A
:100C1000CE0101960E949505182FCE0101960E94E3
:100C20002F08812F26960FB6F894DEBF0FBECDBFDA
:100C3000DF91CF911F910895DF92EF92FF920F9372
:100C40001F93CF93DF9300D000D000D0CDB7DEB795
:100C500085E0F82E93E0E92E24E0D22E8091450322
:100C6000853009F48DC086E293E00E94A002892BB2
:100C700009F46CC086E293E00E94B802182F8B3210
:100C800079F586E293E00E94A0020A97D4F36BE321
:100C900071E0CE0101960E9434080AE086E293E0FA
:100CA0000E94B802182F682FCE0101960E94B90742
:100CB0000150A1F72D813E8180914A0390914B0311
:100CC0002817390749F466E473E0CE0101960E94C3
:100CD0001C05892B09F44EC0CE0101960E942F08F5
:100CE000133409F0BBCF86E293E00E94A00208977C
:100CF000D4F36BE371E0CE0101960E94340863E403
:100D0000CE0101960E94B90718E086E293E00E94A6
:100D1000B802682FCE0101960E94B9071150A9F7B9
:100D20002D813E81809150039091510328173907FE
:100D300041F46CE473E0CE0101960E941C05892BFE
:100D4000E1F0CE0101960E942F0888CF0E94EF05A6
:100D5000882319F0E092450381CF68EC70E080E0D1
:100D600090E00E941E040E94EF058111F3CFF092E3
:100D7000450374CFD0924503AFCFF0924503E1CF46
:100D800026960FB6F894DEBF0FBECDBFDF91CF9190
:100D90001F910F91FF90EF90DF9008950895CF92EB
:100DA000DF92EF92FF920F931F93CF93DF936C012B
:100DB0007A018B01C0E0D0E0CE15DF0581F0D801CB
:100DC0006D918D01D601ED91FC910190F081E02DA6
:100DD000C6010995892B11F02196EECF7E01C7013E
:100DE000DF91CF911F910F91FF90EF90DF90CF9007
:100DF00008950F931F93CF93DF93C82FD62F809121
:100E0000270286131AC0CC2319F010E001E002C0BB
:100E100011E000E060912502062E000C770B809116
:100E20002F020E94BF03602F80912B020E94360385
:100E3000612F80912C020E94360380912A02D813E0
:100E40001EC0CC2319F0C0E0D1E002C0C1E0D0E068
:100E500060912802062E000C770B809130020E94D0
:100E6000BF036D2F80912D020E9436036C2F80915D
:100E70002E02DF91CF911F910F910C943603DF91D9
:100E8000CF911F910F9108950F931F93CF93DF93ED
:100E9000EC0188819981009729F02A813B812617EE
:100EA000370788F48B016F5F7F4F0E949214009781
:100EB00061F0998388831B830A832C813D81232BD6
:100EC00011F4FC01108281E001C080E0DF91CF913C
:100ED0001F910F91089561E081E00E94F90660E0A2
:100EE00080E00C94F90661E080E00E94F90660E081
:100EF00080E00C94F90660E081E00E94F90661E070
:100F000080E00C94F90661E081E00E94F90660E05F
:100F100081E00C94F906EF92FF920F931F93CF9309
:100F2000DF936115710511F480E01CC04115510576
:100F3000C1F07B01EC018C819D818A01080F191F92
:100F4000B801CE010E944407882371F328813981BA
:100F50008C819D81B701820F931F0E946F151D83A5
:100F60000C8381E0DF91CF911F910F91FF90EF9063
:100F70000895CF93DF9300D0CDB7DEB769831A828F
:100F800041E050E0BE016F5F7F4F0E948B070F90E2
:100F90000F90DF91CF910895CF93DF93EC0188817B
:100FA0009981009711F00E940914198218821D82FC
:100FB0001C821B821A82DF91CF910895CF93DF9319
:100FC000EC016115710561F0FB0101900020E9F76A
:100FD0003197AF01461B570B0E948B07811103C04D
:100FE000CE010E94CC07CE01DF91CF910895EF9200
:100FF000FF920F931F93CF93DF93EC017B018A0144
:10100000BA010E944407811104C0CE010E94CC079E
:1010100007C01D830C83B701888199810E946F15D9
:10102000CE01DF91CF911F910F91FF90EF90089526
:10103000CF93DF93EC016115710559F0FB0101902D
:101040000020E9F73197AF01461B570B0E94F707C5
:1010500002C00E94CC07CE01DF91CF910895FC0120
:10106000808191810C940914FC01118210821382F9
:101070001282158214826115710551F0FB010190F5
:101080000020E9F73197AF01461B570B0C94F70787
:1010900008950F931F93CF93DF9300D000D000D01B
:1010A000CDB7DEB703E080914503833009F469C012
:1010B00086E293E00E94A002892B09F44EC086E2EA
:1010C00093E00E94B802182F682F81E392E00E94FB
:1010D0008E011B3241F786E293E00E94A002892B29
:1010E000D1F386E293E00E94B802182F682F81E3C3
:1010F00092E00E948E011035B1F686E293E00E94E4
:10110000A0020797D4F36BE371E0CE0101960E9431
:10111000340860E5CE0101960E94B90717E086E227
:1011200093E00E94B802682FCE0101960E94B90791
:101130001150A9F78D819E81892B51F06FEB71E0E1
:1011400089819A810E946615892B11F400934503C9
:10115000CE0101960E942F08A6CF0E94EF0588239A
:1011600019F0009345039FCF68EC70E080E090E0B9
:101170000E941E040E94EF058111F3CF85E0809349
:10118000450326960FB6F894DEBF0FBECDBFDF91A4
:10119000CF911F910F9108956115710579F0FB01B1
:1011A00001900020E9F73197AF01461B570BDC0196
:1011B000ED91FC910280F381E02D099480E090E0B4
:1011C0000895CF92DF92EF92FF920F931F93E82F33
:1011D000F92F05C0015011092109310961F19081F0
:1011E00096239417B9F305C001501109210931095B
:1011F00011F1908196239413F7CFC12CD12CE12CBF
:10120000F12C0AC08FEFC81AD80AE80AF80A0C15A0
:101210001D052E053F0579F080818623841791F303
:101220006C2D7D2D8E2D9F2D1F910F91FF90EF9096
:10123000DF90CF90089560E070E080E090E01F9133
:101240000F91FF90EF90DF90CF9008958AE193E0A7
:101250000E942F0880E293E00E942F088CE493E024
:101260000E942F0886E493E00E942F088CE191E011
:10127000909327038093260380911803909119037C
:101280008652934071F4E0913903F0913A039081D2
:1012900080913B03809589238083109219031092DB
:1012A00018030895CF93DF93CDB7DEB7A7970FB696
:1012B000F894DEBF0FBECDBF789484B5826084BD44
:1012C00084B5816084BD85B5826085BD85B581604A
:1012D00085BD80916E00816080936E0010928100C8
:1012E0008091810082608093810080918100816083
:1012F0008093810080918000816080938000809144
:10130000B10084608093B1008091B00081608093CF
:10131000B00080917A00846080937A0080917A0096
:10132000826080937A0080917A00816080937A0055
:1013300080917A00806880937A001092C1001092A8
:1013400012031092130310921403109215031092BB
:10135000D0021092D1021092D2021092D3020E94B7
:101360002C026B017C014B015C0128EB820E2BE00F
:10137000921EA11CB11C0E942C026C157D058E05CD
:101380009F0528F086169706A806B906A0F781E300
:1013900092E090931103809310030E945A050E94DB
:1013A0002C026093D0027093D1028093D20290936A
:1013B000D3026AE271E080911003909111030E94C0
:1013C000CC080E942C026B017C014B015C013AE0CD
:1013D000830E911CA11CB11C0E942C026C157D0572
:1013E0008E059F0528F086169706A806B906A0F771
:1013F00011E01093E4020E945A0588E080932B02CA
:101400008BE080932C028CE080932D028DE0809302
:101410002E0289E080932F028AE08093300261E0FF
:1014200088E00E94830361E080912C020E94830384
:1014300061E080912D020E94830361E080912E0281
:101440000E94830361E080912F020E94830361E088
:10145000809130020E9483030E944C051092270263
:1014600010932A02109326021092290284EB809393
:101470002502809328020E9449088CE391E00E9493
:10148000820585E491E00E9482050E941C0686E6A2
:1014900091E00E94820585E491E00E94820593E23A
:1014A000892E912C5E0142E2A40EB11C24E6322E5C
:1014B00034EB232E0E942C026B017C0180912102CF
:1014C00090912202A0912302B0912402A7019601DB
:1014D000281B390B4A0B5B0B283C31054105510594
:1014E00008F464C0C0922102D0922202E09223024A
:1014F000F092240260E0809152030E94360383E060
:1015000090E00197F1F761E0809152030E94360369
:10151000C4010197F1F760E0809152030E94360305
:1015200080915403909155039927FC01E452FE4F9A
:101530006491FC01E853FE4FE491F0E0EE0FFF1FD1
:10154000EC54FE4F8591949100E412E42FE030E0DA
:10155000462F0E94E108611571058105910549F04A
:10156000DC01CB010196A11DB11DBC01CD019F7015
:1015700003C060E070E0CB010E9478112091560317
:101580003091570340915803509159030E94CC1257
:1015900020E030E040E05FE30E94D7116093190241
:1015A00070931A0280931B0290931C0280911D027B
:1015B00090911E02A0911F02B0912002A7019601F6
:1015C000281B390B4A0B5B0B2233310541055105B2
:1015D00008F46EC2C0921D02D0921E02E0921F0259
:1015E000F092200280914503853009F06BC186E2BC
:1015F00093E00E94A002892B09F464C186E293E083
:101600000E94B8028B3219F40E9449085BC18F3FD7
:1016100009F458C1082E000C990BAA0BBB0BFC0156
:10162000E154F109EA31F10508F04CC1EC5CFF4FDF
:101630000C9457130E947B0718C0309228020E9416
:101640007B072092280267EB71E030C130922502BF
:101650000E947B07209225026DEA71E027C130923B
:1016600028020E946B07209228026FE671E01EC1DB
:10167000309225020E946B072092250261E771E0FB
:1016800015C10E94830763E771E010C10E946B07D8
:1016900065E771E00BC10E94730767E771E006C15F
:1016A0000E944C0569E771E08AE193E00E94180806
:1016B00069E771E0FBC06091190270911A02809194
:1016C0001B0290911C021BA21AA21DA21CA21FA207
:1016D0001EA28E010F5F1F4F22E044E00E941F0FE9
:1016E000BC01C5010E94180880912003909121033C
:1016F0000097C9F06AA17BA16115710591F0409135
:101700002203509123032EA13FA14217530748F013
:101710000E946F158EA19FA19093250380932403AF
:1017200018C00E9409148AA19BA190932103809361
:1017300020038CA19DA190932303809322038EA16B
:101740009FA190932503809324031BA21AA21DA29C
:101750001CA21FA21EA2C5010E942F086BE771E008
:10176000CE0101960E943408409124035091250334
:101770006091200370912103CE0101960E948B0796
:10178000811104C0CE0101960E94CC0767E871E088
:10179000CE0101960E94DE0769E871E00E94DE0733
:1017A0006AE971E00E94DE0767E871E00E94DE07E7
:1017B00069E871E00E94DE076AE971E00E94DE07D5
:1017C00067E871E00E94DE0769E871E00E94DE07C9
:1017D0006AE971E00E94DE0767E871E00E94DE07B7
:1017E00069E871E00E94DE076AE971E00E94DE07A5
:1017F00067E871E00E94DE0769E871E00E94DE0799
:101800006AE971E00E94DE071BA21AA21DA21CA2B7
:101810001FA21EA28A159B0559F0FC0160817181EF
:101820006115710529F044815581C5010E94F707B2
:10183000CE0101960E942F081A8219821C821B82F7
:101840001E821D826AA17BA16115710531F04EA136
:101850005FA1CE0101960E94F707CE0101960E947A
:101860009505CE0101960E942F08C50129C060EAA6
:1018700071E0CE0101960E943408CE0101960E94CB
:101880009505CE0101960E942F0860EA71E08AE179
:1018900093E00E94180816C00E944C0562EA71E0AD
:1018A0008AE193E00E94180862EA71E0CE01019695
:1018B0000E943408CE0101960E949505CE01019642
:1018C0000E942F0880914503833021F40E944C052B
:1018D0000E941C0680911E0390911F03892B09F41E
:1018E000E7C060EA71E080911A0390911B030E94A7
:1018F0006615892B09F0DCC00E942C026B017C016B
:101900004090190250901A0260901B0270901C02C5
:1019100020E030E046E153E4C301B2010E943E13EF
:10192000181614F50E9483078091150290911602F3
:10193000A0911702B0911802A7019601281B390B3C
:101940004A0B5B0B243631054105510568F40E94B2
:101950002C026B017C016093150270931602809338
:10196000170290931802E0CF20E030E046E153E404
:10197000C301B2010E947111181664F120E030E039
:1019800048E452E4C301B2010E943E1387FD22C025
:101990000E947B078091150290911602A091170278
:1019A000B0911802A7019601281B390B4A0B5B0B5B
:1019B000243631054105510568F40E942C026B0163
:1019C0007C01609315027093160280931702909326
:1019D0001802E0CF20E030E044E452E4C301B20159
:1019E0000E947111181674F120E030E040EF51E4CC
:1019F000C301B2010E943E1387FD24C00E947307F9
:101A00008091110290911202A0911302B0911402E0
:101A1000A7019601281B390B4A0B5B0BDA01C901A0
:101A2000843F9140A105B10568F40E942C026B012E
:101A30007C016093110270931202809313029093C1
:101A40001402DECF20E030E048EE51E4C301B201E1
:101A50000E947111181664F120E030E040E85FE365
:101A6000C301B2010E943E1387FD22C00E946B0792
:101A70008091110290911202A0911302B091140270
:101A8000C81AD90AEA0AFB0A44EFC41641E0D40690
:101A9000E104F10468F40E942C026B017C01609364
:101AA0001102709312028093130290931402E0CFFC
:101AB0000E94FD01FFCCCF92DF92EF92FF92109235
:101AC00034021092330298EEC92E93E0D92EE12C05
:101AD000F12CC0923502D0923602E0923702F09299
:101AE00038028AE091E0909332028093310285ECD3
:101AF00090E090933E0280933D0284EC90E09093BE
:101B0000400280933F0280EC90E0909342028093E9
:101B1000410281EC90E0909344028093430282EC76
:101B200090E0909346028093450286EC90E090937B
:101B300048028093470210924A0210924B02109280
:101B40004C0210924D021092D4021092D5021092C3
:101B5000D6021092D7021092D8021092D902109297
:101B6000DA021092DB021092DC021092DD02109277
:101B7000DE021092DF021092E0021092E102109257
:101B8000E2021092E30261E085E00E94830360E0DC
:101B900083E00E94830385E090E090935303809359
:101BA000520383E090E0909355038093540385E8BB
:101BB0009CEFACEDB1E48093560390935703A09350
:101BC0005803B09359038CE993E5ACE8B2E48093F1
:101BD0005A0390935B03A0935C03B0935D03109250
:101BE000290310922803C0922A03D0922B03E0927B
:101BF0002C03F0922D038CE191E0909327038093C6
:101C0000260310923D0310923C0310923F03109262
:101C10003E0310924103109240031092430310922E
:101C20004203609144036E7F6D7F60934403669529
:101C3000617081E0682784E00E94360361E084E0FF
:101C40000E948303E0EEF1E0E491E0933603ECECD4
:101C5000F1E0E491F0E0EE0FFF1FE254FE4F8591BA
:101C60009491909338038093370360E082E00E9460
:101C700083038091440381FD04C061E082E00E94FF
:101C8000360382E080933203EEEDF1E0E491E093DD
:101C90003303EAECF1E0E491F0E0EE0FFF1FEC54C7
:101CA000FE4F8591949190933503809334036BE3B9
:101CB00071E086E493E00E9434086BE371E08CE409
:101CC00093E00E94340864EA71E086E493E00E94A5
:101CD00018086FEA71E08CE493E00E9418081092F3
:101CE0004503109241031092400310923F0310925B
:101CF0003E0310923D0310923C038DE991E09093D6
:101D000043038093420390913203963108F058C008
:101D10002DEB30E030933D0320933C032BE931E081
:101D200030933F0320933E032CE231E03093410394
:101D30002093400340916800983058F031E09E3085
:101D400008F430E021E0822F01C0880F3A95EAF7CD
:101D500001C084E0842B80936800983038F09E3076
:101D600040F0963148F020E030E008C02DE630E049
:101D700005C02BE630E002C02CE630E030933A0399
:101D800020933903983030F481E001C0880F9A9590
:101D9000EAF70EC0292F30E09E3018F428503109A0
:101DA00002C02E50310981E001C0880F2A95EAF760
:101DB00080933B0380914203909143030197F1F795
:101DC0008091400390914103892B49F1E0911803E0
:101DD000F091190383E0E632F80709F1309739F002
:101DE000A389B4899C918589809589238C9380915E
:101DF00044038E7F809344031092170310921603BE
:101E000086E293E09093190380931803E0913903DD
:101E1000F0913A03908180913B03892B80836BE39F
:101E200071E080E293E00E94340862EA71E08AE1A6
:101E300093E0FF90EF90DF90CF900C943408EF92F6
:101E40000F931F93CF93DF93E80147FD02C034E067
:101E500001C034E1042E000C550B57FF03C051950F
:101E600041955109E32E022F242FAE010E943F0F0E
:101E7000CE01DF91CF911F910F91EF900895A9E0CE
:101E8000B0E0E5E4FFE00C949B126A01122FB02E43
:101E90002BE3201720F0FF24F394F00E02C02CE374
:101EA000F22E0F2D27E0AE014F5F5F4F0E94991079
:101EB000BC014981842F8970813031F0E1FC06C07A
:101EC000E0FE06C090E205C09DE203C09BE201C0B7
:101ED00090E05E2D507143FF3CC0911102C083E041
:101EE00001C084E0811718F4212F281B01C020E0D5
:101EF00051110BC0F601822F30E2882319F0319383
:101F00008150FBCFC20ED11C20E0992329F0D601CD
:101F10009C93F60131966F01C6010396E2FE0AC05A
:101F20003EE4D6013C9341E411964C9311971296EE
:101F30003C9306C03EE6F601308341E6418332839E
:101F4000FC01322F40E2332309F442C04193315067
:101F5000FACF42FF44C0911102C083E001C084E087
:101F6000811718F4212F281B01C020E051110BC04C
:101F7000F601822F30E2882319F031938150FBCF94
:101F8000C20ED11C20E0992329F0D6019C93F601C2
:101F900031966F01C6010396E2FE0BC039E4D6010B
:101FA0003C933EE411963C93119736E412963C9391
:101FB00007C039E6F60130833EE6318336E63283E8
:101FC000FC01322F40E2332319F041933150FBCF13
:101FD000FC01E20FF11D10828EEF9FEFA6C021E001
:101FE00030E0911102C020E030E0161617061CF414
:101FF000FB01319602C0E1E0F0E02E0F3F1FBB2055
:1020000021F0EB2DF0E0319602C0E0E0F0E02E0F81
:102010003F1FE12FF0E02E173F071CF4121B212F6A
:1020200001C020E08E2D887159F4F601822F30E234
:10203000882319F031938150FBCFC20ED11C20E0D0
:10204000992329F0D6019C93F60131966F01511125
:102050000BC0F601822F90E3882319F091938150F1
:10206000FBCFC20ED11C20E00F2D060F9A81342F1A
:10207000307144FF03C0913309F40150101624F469
:10208000093018F008E001C001E0AB0177FF02C0A1
:1020900040E050E0FB01E41BF50BA1E0B0E0AC0F29
:1020A000BD1FEA0FFB1F8EE2A82E4B01801A91087C
:1020B0000B2D10E01195019511094F3FBFEF5B0704
:1020C00021F4D601AC9211966D01641775072CF0BE
:1020D0008416950614F4818101C080E341505109B2
:1020E0003196D60111967D014017510724F0D60193
:1020F0008C936701E2CF6417750739F4963320F4A7
:10210000953319F4311101C081E3F6018083F701A1
:10211000822F90E2882319F091938150FBCFF70131
:10212000E20FF11D108280E090E02996ECE00C9423
:10213000B712283008F027E03327DA01990F311D54
:1021400087FD916000966105710539F432602E5F5C
:102150003D9330E32A95E1F708959F3F30F08038B2
:102160007105610509F03C5F3C5F3D93913008F0DB
:102170008068911DDF93CF931F930F93FF92EF928F
:10218000192F987F9695E92F96959695E90FFF2739
:10219000EA50FF4F99273327EE24FF24A701E701D8
:1021A00005900894079428F4360FE71EF81E491F7F
:1021B000511D660F771F881F991F0694A1F7059080
:1021C000079428F4E70EF81E491F561FC11D770F0C
:1021D000881F991F661F0694A1F70590079428F49D
:1021E000F80E491F561FC71FD11D880F991F661F64
:1021F000771F0694A1F70590079420F4490F561F06
:10220000C71FD81F990F661F771F881F0694A9F74D
:1022100084911095177041F0D695C79557954795BD
:10222000F794E7941A95C1F7ECE9F0E068941590FB
:10223000159135916591959105907FE27395E1181F
:10224000F10A430B560BC90BD009C0F7E10CF11E84
:10225000431F561FC91FD01D7EF4703311F48A9599
:10226000E6CFE894015030F0080F0AF40027021777
:1022700008F4202F2395022F7A3328F079E37D93F9
:102280002A95E9F710C07D932A9589F606949795CB
:102290006795379517951794E118F10A430B560B7C
:1022A000C90BD00998F023957E9173957A3308F085
:1022B00070E37C932013B8F77E9170617D9330F0CA
:1022C000839571E37D9370E32A95E1F71124EF90F4
:1022D000FF900F911F91CF91DF91992787FD9095E6
:1022E00008950E94B31108F481E00895E89409C0AC
:1022F00097FB3EF490958095709561957F4F8F4F39
:102300009F4F9923A9F0F92F96E9BB279395F6954E
:10231000879577956795B795F111F8CFFAF4BB0FCC
:1023200011F460FF1BC06F5F7F4F8F4F9F4F16C030
:10233000882311F096E911C0772321F09EE8872FBA
:10234000762F05C0662371F096E8862F70E060E076
:102350002AF09A95660F771F881FDAF7880F9695EF
:10236000879597F90895990F0008550FAA0BE0E893
:10237000FEEF16161706E807F907C0F01216130647
:10238000E407F50798F0621B730B840B950B39F487
:102390000A2661F0232B242B252B21F408950A26ED
:1023A00009F4A140A6958FEF811D811D08950E941B
:1023B000EA110C945B120E944D1238F00E945412E4
:1023C00020F0952311F00C9444120C944A1211241D
:1023D0000C948F120E946C1270F3959FC1F3950FAD
:1023E00050E0551F629FF001729FBB27F00DB11D99
:1023F000639FAA27F00DB11DAA1F649F6627B00D29
:10240000A11D661F829F2227B00DA11D621F739F11
:10241000B00DA11D621F839FA00D611D221F749F1F
:102420003327A00D611D231F849F600D211D822F66
:10243000762F6A2F11249F5750409AF0F1F088238D
:102440004AF0EE0FFF1FBB1F661F771F881F9150BA
:102450005040A9F79E3F510580F00C9444120C9413
:102460008F125F3FE4F3983ED4F386957795679596
:10247000B795F795E7959F5FC1F7FE2B880F911DE4
:102480009695879597F9089597F99F6780E870E08A
:1024900060E008959FEF80EC089500240A941616DA
:1024A000170618060906089500240A941216130642
:1024B000140605060895092E0394000C11F48823D0
:1024C00052F0BB0F40F4BF2B11F460FF04C06F5FEC
:1024D0007F4F8F4F9F4F089557FD9058440F551FC2
:1024E00059F05F3F71F04795880F97FB991F61F096
:1024F0009F3F79F087950895121613061406551F0D
:10250000F2CF4695F1DF08C0161617061806991F78
:10251000F1CF86957105610508940895E894BB276D
:1025200066277727CB0197F908952F923F924F9214
:102530005F926F927F928F929F92AF92BF92CF9253
:10254000DF92EF92FF920F931F93CF93DF93CDB75C
:10255000DEB7CA1BDB0B0FB6F894DEBF0FBECDBFD4
:1025600009942A88398848885F846E847D848C84A5
:102570009B84AA84B984C884DF80EE80FD800C81AE
:102580001B81AA81B981CE0FD11D0FB6F894DEBF91
:102590000FBECDBFED0108950E94E0120C945B12B6
:1025A0000E94541258F00E944D1240F029F45F3FEF
:1025B00029F00C94441251110C948F120C944A126D
:1025C0000E946C1268F39923B1F3552391F3951B84
:1025D000550BBB27AA2762177307840738F09F5F44
:1025E0005F4F220F331F441FAA1FA9F335D00E2EB1
:1025F0003AF0E0E832D091505040E695001CCAF71E
:102600002BD0FE2F29D0660F771F881FBB1F2617E0
:1026100037074807AB07B0E809F0BB0B802DBF01B7
:10262000FF2793585F4F3AF09E3F510578F00C9486
:1026300044120C948F125F3FE4F3983ED4F38695D6
:1026400077956795B795F7959F5FC9F7880F911DA7
:102650009695879597F90895E1E0660F771F881F93
:10266000BB1F621773078407BA0720F0621B730B46
:10267000840BBA0BEE1F88F7E09508950E94B31102
:1026800008F48FEF089597FB072E16F4009407D0F7
:1026900077FD09D00E945D1307FC05D03EF49095AC
:1026A00081959F4F0895709561957F4F0895EE0F26
:1026B000FF1F0590F491E02D0994AA1BBB1B51E16B
:1026C00007C0AA1FBB1FA617B70710F0A61BB70BA2
:1026D000881F991F5A95A9F780959095BC01CD0147
:1026E00008950F931F93CF93DF938230910510F4D9
:1026F00082E090E0E0916403F091650320E030E037
:10270000A0E0B0E0309719F140815181028113813E
:1027100048175907C8F08417950769F4109731F0E6
:1027200012960C93129713961C9327C00093640380
:102730001093650322C02115310519F04217530784
:1027400018F49A01BD01EF01DF01F801DBCF21157B
:102750003105F9F0281B390B2430310580F48A81CA
:102760009B816115710521F0FB019383828304C075
:102770009093650380936403FE01329644C0FE018A
:10278000E20FF31F819391932250310939832883FB
:102790003AC02091620330916303232B41F42091CE
:1027A000020130910301309363032093620320916F
:1027B0000001309101012115310541F42DB73EB7DB
:1027C0004091040150910501241B350BE0916203F7
:1027D000F0916303E217F307A0F42E1B3F0B2817B9
:1027E000390778F0AC014E5F5F4F2417350748F08A
:1027F0004E0F5F1F50936303409362038193919345
:1028000002C0E0E0F0E0CF01DF91CF911F910F9186
:102810000895CF93DF93009709F481C0FC013297AC
:1028200013821282A0916403B0916503109781F422
:1028300020813181820F931F2091620330916303C5
:102840002817390751F5F0936303E093620367C0DB
:10285000ED0120E030E0CE17DF0740F44A815B81D4
:102860009E0141155105F1F0EA01F5CFD383C283F2
:1028700040815181840F951FC817D90759F4888169
:102880009981840F951F0296918380838A819B8111
:10289000938382832115310529F4F0936503E09336
:1028A00064033DC0E901FB83EA8349915991C40F58
:1028B000D51FEC17FD0761F480819181840F951F6E
:1028C0000296E90199838883828193819B838A831D
:1028D000E0E0F0E012968D919C911397009719F02B
:1028E000FD01DC01F7CF8D919C9111979D012E5F29
:1028F0003F4F820F931F209162033091630328178B
:10290000390769F4309729F4109265031092640333
:1029100002C013821282B0936303A0936203DF911B
:10292000CF910895A0E0B0E0E8E9F4E10C949912A9
:10293000EC01009721F4CB010E947113B4C0FC019B
:10294000E60FF71F9C0122503109E217F30708F444
:10295000A8C0D9010D911C91119706171707B0F067
:102960000530110508F49BC0C80104978617970726
:1029700008F495C002501109061B170B019311931F
:102980006D937C93CF010E94091489C05B01A01A4A
:10299000B10A4C01800E911EA0916403B0916503B1
:1029A000612C712CE12CF12C109709F446C08D910B
:1029B0009C911197A815B905B1F56C0142E0C40EC0
:1029C000D11CCA14DB0478F14C018A189B086401FD
:1029D00042E0C40ED11C1296BC9012971396AC9193
:1029E000B5E0CB16D10440F0B282A38391828082FD
:1029F000D9016D937C9309C00E5F1F4F800F911F0B
:102A0000F90191838083EB2DFA2FE114F10431F069
:102A1000D7011396FC93EE93129741C0F093650390
:102A2000E09364033CC06816790608F43C017D011C
:102A300012960D90BC91A02DB7CF8091620390911A
:102A4000630388169906E1F466167706C8F4809148
:102A5000000190910101009741F48DB79EB740911C
:102A6000040150910501841B950BE817F907C8F480
:102A7000F0936303E0936203F901718360830FC0F5
:102A8000CB010E9471137C01009759F0A801BE018F
:102A90000E945D15CE010E940914C70104C0CE0139
:102AA00002C080E090E0CDB7DEB7EEE00C94B51246
:102AB00081E090E0F8940C947615FB01DC0102C0F3
:102AC00001900D9241505040D8F70895FB01DC0170
:102AD0008D91019080190110D9F3990B0895FB0194
:102AE000DC0101900D920020E1F7089510E0C9EF9C
:102AF000D0E004C0FE010E9457132196CA3FD107BF
:062B0000C9F7F894FFCFB5
:102B0600000066038000000000008E01CF0625014C
:102B1600DB01560134014801000000005002CF06D7
:102B2600D9022401A002B8023802564D4450565F1D
:102B3600317C315F564D4450560D0A007061697202
:102B460061626C65002A2D2D2D2D2D2D2D2D2D2DFF
:102B56002D2D2D2D2D2D2D2D2D2D2D2D2D2D2D2D9F
:102B66002D2D2D2D2A00636F6E6E656374650046EC
:102B7600004800520042004C0053004469737461DF
:102B86006E6365203A20002F0054656D70EFBFBD5F
:102B9600726174757265203A200032312E3032002F
:102BA60041004D00434F4E4E454354494E47004366
:102BB6004F4E4E4543544544004F4B004154005040
:082BC60041495241424C450017
:107E0000112484B714BE81FFF0D085E080938100F7
:107E100082E08093C00088E18093C10086E0809377
:107E2000C20080E18093C4008EE0C9D0259A86E02C
:107E300020E33CEF91E0309385002093840096BBD3
:107E4000B09BFECF1D9AA8958150A9F7CC24DD24C4
:107E500088248394B5E0AB2EA1E19A2EF3E0BF2EE7
:107E6000A2D0813461F49FD0082FAFD0023811F036
:107E7000013811F484E001C083E08DD089C08234E0
:107E800011F484E103C0853419F485E0A6D080C0E4
:107E9000853579F488D0E82EFF2485D0082F10E0AE
:107EA000102F00270E291F29000F111F8ED06801E7
:107EB0006FC0863521F484E090D080E0DECF843638
:107EC00009F040C070D06FD0082F6DD080E0C81688
:107ED00080E7D80618F4F601B7BEE895C0E0D1E017
:107EE00062D089930C17E1F7F0E0CF16F0E7DF06D8
:107EF00018F0F601B7BEE89568D007B600FCFDCFD4
:107F0000A601A0E0B1E02C9130E011968C91119780
:107F100090E0982F8827822B932B1296FA010C0160
:107F200087BEE89511244E5F5F4FF1E0A038BF0790
:107F300051F7F601A7BEE89507B600FCFDCF97BE46
:107F4000E89526C08437B1F42ED02DD0F82E2BD052
:107F50003CD0F601EF2C8F010F5F1F4F84911BD097
:107F6000EA94F801C1F70894C11CD11CFA94CF0C13
:107F7000D11C0EC0853739F428D08EE10CD085E9AC
:107F80000AD08FE07ACF813511F488E018D01DD067
:107F900080E101D065CF982F8091C00085FFFCCF94
:107FA0009093C60008958091C00087FFFCCF809118
:107FB000C00084FD01C0A8958091C6000895E0E648
:107FC000F0E098E1908380830895EDDF803219F02E
:107FD00088E0F5DFFFCF84E1DECF1F93182FE3DFCA
:107FE0001150E9F7F2DF1F91089580E0E8DFEE27F6
:047FF000FF270994CA
:027FFE00040479
:0400000300007E007B
:00000001FF