:10000000BEC10000EDC10000EBC10000E9C100006D
:10001000E7C10000E5C10000E3C10000E1C100004C
:10002000DFC10000DDC10000DBC10000D9C100005C
:10003000D7C10000D5C10000D3C10000D1C100006C
:10004000CFC10000CDC10000CBC10000C9C100007C
:10005000C7C10000C5C10000C3C10000A3C50000A6
:10006000BFC10000D6C30000ABC30000B9C100008F
:10007000B7C10000B5C10000B3C10000B1C10000AC
:10008000AFC10000ADC10000ABC10000A9C10000BC
:10009000A7C10000A5C10000A3C10000CDC500009C
:1000A0009FC100009DC100009BC1000099C10000DC
:1000B00097C1000095C1000093C1000091C10000EC
:1000C0008FC100008DC100008BC1000089C10000FC
:1000D00087C1000085C100003DC3000012C30000BD
:1000E0007FC100001510B20E2B108F0E2B108C0E3E
:1000F000950EA50E2B109B0E2B10B50E20102B105D
:10010000BD0E2B10640FAF0EB90E2B102B102B1041
:10011000220F2B102B10670F5A045D044C0450045F
:1001200056049404610465046B046F047304790439
:100130007D048104940487048B048F0426052B0519
:1001400030053A054405BD054E0556055E056805B2
:1001500072057C058B059505BD059F05A905B305B1
:1001600000407A10F35A00A0724E18090010A5D46E
:10017000E80000E87648170000E40B54020000CACB
:100180009A3B000000E1F505000080969800000011
:1001900040420F000000A086010000001027000070
:1001A0000000E803000000006400000000000A00F6
:1001B000000000000100000000002C76D888DC67F9
:1001C0004F0823DFC1DFAE59E1B1B796E5E3E45351
:1001D000C63AE651997696E8E6C28426EB898C9B6E
:1001E00062ED407C6FFCEFBC9C9F40F2BAA56FA50E
:1001F000F490055A2AF75C936B6CF9676DC11BFC90
:10020000E0E40D47FEF520E6B500D0ED902E0300AA
:10021000943577050080841E080000204E0A0000F7
:1002200000C80C333333330F986E12831141EF8DB6
:100230002114893BE65516CFFEE6DB18D1844B38F6
:100240001BF77C1D901DA4BBE424203284725E2227
:100250008100C9F124ECA1E53D2700000A0B020949
:100260000C0D0E0807030401000000000000000050
:10027000000000000000000000000000000000007E
:10028000000000000000121110000000000000003B
:10029000000000000000000000000000000000005E
:1002A000000020002300260029002C002F0032002F
:1002B0000001000003010601090105050505070508
:1002C00008080808020202020A0A080804040404D2
:1002D00001010101010101010303030303030303FE
:1002E000040707070C0C0C0C0C0C0C0C020202028D
:1002F00006060606060606060B0B0B0B0B0B0B0B76
:100300000102102020080810204010204080020127
:10031000020108040201010204081020408080400C
:10032000201008040201800402018040201008040B
:1003300002010804020101020408102040800102A9
:1003400004081020408000002100240027002A001B
:100350002D003000330001010000040107010A01F3
:1003600000002200250028002B002E003100340060
:1003700002010000050108010B01C711BF11112482
:100380001FBECFEFD1E2DEBFCDBF00E00CBF12E059
:10039000A0E0B2E0E8E6F2E300E00BBF02C00790A5
:1003A0000D92A83BB107D9F725E0A8EBB2E001C058
:1003B0001D92AB33B207E1F711E0CEEBD1E000E0E4
:1003C00006C021970109802FFE010E941E18CD3B17
:1003D000D10780E00807A9F70E94650B0C94231948
:1003E0000FCEFC01538D448D252F30E0842F90E0FB
:1003F000821B930B541710F0CF9608950197089520
:10040000FC01918D828D981761F0828DDF01A80F1C
:10041000B11D5D968C91928D9F5F9F73928F90E03E
:1004200008958FEF9FEF0895FC01918D828D9817AD
:1004300031F0828DE80FF11D858D90E008958FEFEA
:100440009FEF0895FC01918D228D892F90E0805CB3
:100450009F4F821B91098F73992708958CE893E031
:10046000F1DF21E0892B09F420E0822F089589E251
:1004700094E0E8DF21E0892B09F420E0822F089541
:10048000FC01848DDF01A80FB11DA35ABF4F2C9131
:10049000848D90E001968F739927848FA689B78900
:1004A0002C93A089B1898C91837080648C93938DF7
:1004B000848D981306C00288F389E02D80818F7D9A
:1004C00080830895EF92FF920F931F93CF93DF9352
:1004D000EC0181E0888F9B8D8C8D981305C0E88995
:1004E000F989808185FD25C0F62E0B8D10E00F5F08
:1004F0001F4F0F731127E02E8C8DE8120BC00FB623
:1005000007FCFACFE889F989808185FFF5CFCE0114
:10051000B7DFF2CF8B8DFE01E80FF11DE35AFF4FDD
:10052000F0829FB7F8940B8FEA89FB898081806203
:100530000AC09FB7F894EE89FF896083E889F9893A
:1005400080818370806480839FBF81E090E0DF9131
:10055000CF911F910F91FF90EF900895CF93DF936C
:10056000EC01888D8823C1F0EA89FB89808185FDB3
:1005700005C0A889B9898C9186FD0EC00FB607FC0D
:10058000F5CF808185FFF2CFA889B9898C9185FF4D
:10059000EDCFCE0175DFE8CFDF91CF91089580E0F8
:1005A00090E0892B19F063DF811120C080E090E09A
:1005B000892B41F080E090E0892B21F00E9400001F
:1005C000811117C080E090E0892B41F080E090E03D
:1005D000892B21F00E94000081110EC080E090E084
:1005E000892B79F03BDF81110AC008950E94000039
:1005F000DDCF0E940000E6CF0E940000EFCF0C94F8
:100600000000089585ED8093BC008091BC0084FDBE
:10061000FCCF10927F03089540912D03262F30E0E8
:10062000240F311D21323105DCF420917F03243069
:10063000C9F4FC0180E090E0861758F430912D0356
:100640002191DC01A35FBC4FA30FB11D2C93019638
:10065000F3CF80912D03680F60932D0380E0089500
:1006600081E0089582E00895089508950895E09145
:10067000BF028091BE02E81730F4F0E0E351FD4F75
:10068000808190E008958FEF9FEF08959091BF02D1
:100690008091BE02981750F4E92FF0E0E351FD4F2E
:1006A000208130E09F5F9093BF0202C02FEF3FEFA9
:1006B000C90108958091BE0290E02091BF02821B83
:1006C00091090895CF93DF93CB01EA01642FA4DF52
:1006D000CE01DF91CF910895CF93DF931F92CDB7D5
:1006E000DEB7698361E0CE01019696DF81E090E09C
:1006F0000F90DF91CF91089580E090E008950E94DF
:1007000006191F920F920FB60F9211240BB60F927B
:100710002F933F934F935F936F937F938F939F9309
:10072000AF93BF93EF93FF938CE893E0A9DEFF9123
:10073000EF91BF91AF919F918F917F916F915F9159
:100740004F913F912F910F900BBE0F900FBE0F90C6
:100750001F9018951F920F920FB60F9211240BB68F
:100760000F922F938F939F93EF93FF93E0919C03AE
:10077000F0919D038081E091A203F091A30382FD9B
:1007800012C090818091A5038F5F8F732091A60383
:10079000821751F0E091A503F0E0E457FC4F958FEC
:1007A0008093A50301C08081FF91EF919F918F916C
:1007B0002F910F900BBE0F900FBE0F901F901895AA
:1007C0001F920F920FB60F9211240BB60F922F9318
:1007D0003F934F935F936F937F938F939F93AF93C9
:1007E000BF93EF93FF9389E294E04ADEFF91EF918C
:1007F000BF91AF919F918F917F916F915F914F9139
:100800003F912F910F900BBE0F900FBE0F901F9036
:1008100018951F920F920FB60F9211240BB60F92DC
:100820002F938F939F93EF93FF93E0913904F0916F
:100830003A048081E0913F04F091400482FD12C0AF
:100840009081809142048F5F8F73209143048217BF
:1008500051F0E0914204F0E0E75DFB4F958F80930B
:10086000420401C08081FF91EF919F918F912F9160
:100870000F900BBE0F900FBE0F901F90189590E039
:10088000FC013197E231F10508F04EC08827E457AA
:10089000FF4F8F4F0C941E18809180008F7703C0FC
:1008A000809180008F7D80938000089580918000EA
:1008B000877FF9CF84B58F7702C084B58F7D84BDE3
:1008C00008958091B0008F7703C08091B0008F7D34
:1008D0008093B0000895809190008F7707C0809139
:1008E00090008F7D03C080919000877F809390005F
:1008F00008958091A0008F7707C08091A0008F7D20
:1009000003C08091A000877F8093A000089580910C
:1009100020018F7707C0809120018F7D03C08091D7
:100920002001877F8093200108951F93CF93DF9349
:10093000282F30E0F901E65AFD4F8491F901E0508B
:10094000FD4FD491F901E654FD4FC491CC23B9F089
:10095000162F811194DFEC2FF0E0EE0FFF1FE05A0D
:10096000FC4FA591B4919FB7F894111104C08C91DC
:10097000D095D82302C0EC91DE2BDC939FBFDF9192
:10098000CF911F910895CF93DF9390E0FC01E05049
:10099000FD4F2491FC01E654FD4F8491882361F1C1
:1009A00090E0880F991FFC01EA5BFC4FC591D49140
:1009B000FC01E05AFC4FA591B491611109C09FB7A9
:1009C000F8948881209582238883EC912E230BC094
:1009D000623061F49FB7F8948881322F3095832379
:1009E0008883EC912E2B2C939FBF06C08FB7F89471
:1009F000E8812E2B28838FBFDF91CF9108951F931D
:100A0000CF93DF93182FEB0161E0BDDF209711F446
:100A100060E004C0CF3FD10531F461E0812FDF9168
:100A2000CF911F9182CFE12FF0E0E65AFD4FE49184
:100A30008E2F90E0FC013197E231F10508F09DC066
:100A40008827E256FF4F8F4F0C941E1884B580689C
:100A500084BDC7BD97C084B5806284BDC8BD92C047
:100A600080918000806880938000D0938900C0933B
:100A7000880088C080918000806280938000D0933D
:100A80008B00C0938A007EC0809180008860809334
:100A90008000D0938D00C0938C0074C08091B00012
:100AA00080688093B000C093B3006CC08091B000A8
:100AB00080628093B000C093B40064C080919000C5
:100AC000806880939000D0939900C09398005AC09A
:100AD00080919000806280939000D0939B00C0939F
:100AE0009A0050C080919000886080939000D093CD
:100AF0009D00C0939C0046C08091A00080688093B8
:100B0000A0008091A0008F7B8093A000D093A900CB
:100B1000C093A80037C08091A00080628093A0009D
:100B2000D093AB00C093AA002DC08091A000886034
:100B30008093A000D093AD00C093AC0023C08091FF
:100B40002001806880932001D0932901C09328015F
:100B500019C080912001806280932001D0932B01E5
:100B6000C0932A010FC080912001886080932001EA
:100B7000D0932D01C0932C0105C0C038D1050CF0D5
:100B80004CCF46CFDF91CF911F9108952FB7F894A6
:100B900060915503709156038091570390915803CB
:100BA0002FBF08951F920F920FB60F9211242F930B
:100BB0003F938F939F93AF93BF93809155039091F1
:100BC0005603A0915703B09158033091540323E08A
:100BD000230F2D3720F40196A11DB11D05C026E875
:100BE000230F0296A11DB11D20935403809355033A
:100BF00090935603A0935703B093580380915003EA
:100C000090915103A0915203B09153030196A11DFD
:100C1000B11D8093500390935103A0935203B0935E
:100C20005303BF91AF919F918F913F912F910F905F
:100C30000FBE0F901F9018951F920F920FB60F9234
:100C400011240BB60F922F933F934F935F936F93A3
:100C50007F938F939F93AF93BF93EF93FF93809175
:100C6000B900887F803609F49CC068F5883209F4A1
:100C70005BC090F4803109F454C038F4882309F43F
:100C8000F6C0883009F44DC0F5C0883109F44CC075
:100C9000803209F45DC0EEC0803409F468C048F4C5
:100CA000803309F455C0883309F0E4C080937D0394
:100CB000D8C0803509F44FC0883509F45DC0883448
:100CC00009F0D8C0D6C0883909F4C7C0A8F488375D
:100CD00009F467C038F4883609F463C0803709F432
:100CE00060C0C8C0883809F4B8C0803909F45FC052
:100CF000803809F0BFC05BC0803B09F486C038F47F
:100D0000803A09F466C0883A09F47FC0B3C0803CD9
:100D100009F4A7C0883C09F4A4C0883B09F48AC040
:100D2000A9C080915A0310C090917C0380917B03ED
:100D3000981770F5E0917C0381E08E0F80937C031F
:100D4000F0E0E55AFC4F80818093BB0085EC86C0C3
:100D500080937D038EC0E0917C0381E08E0F8093B1
:100D60007C038091BB00F0E0E55AFC4F80839091BA
:100D70007C0380917B036EC0E0917C0381E08E0F49
:100D800080937C038091BB00F0E0E55AFC4F8083A8
:100D900080917E0381116DC081E08093590384EAC4
:100DA00061C083E080937F0310924F03CFCF809187
:100DB0004F03803208F051C0E0914F0381E08E0F65
:100DC00080934F038091BB00F0E0E15DFC4F808396
:100DD000BDCF85EC8093BC0010927F0380914F03C0
:100DE000803230F4E0914F03F0E0E15DFC4F10827F
:100DF00060914F0370E0E091B802F091B9028FE288
:100E000093E0199510924F0335C084E080937F03DF
:100E100010922E0310922D03E091BA02F091BB02C2
:100E2000199580912D03811105C081E080932D03D8
:100E300010920D03E0912E0381E08E0F80932E031C
:100E4000F0E0E35FFC4F80818093BB0090912E0324
:100E500080912D03981708F479CF85E88093BC0022
:100E600009C085EC8093BC0010927F0303C01092F0
:100E70007D03C8DBFF91EF91BF91AF919F918F915F
:100E80007F916F915F914F913F912F910F900BBE8A
:100E90000F900FBE0F901F901895FF920F931F9306
:100EA000CF93DF9386E190E0A0E0B0E08093DF0293
:100EB0009093E002A093E102B093E2028091C0021D
:100EC0009091C1029093EC028093EB028091C20258
:100ED0009091C3029093EA028093E9028091C40248
:100EE0009091C5029093E8028093E7028091C60238
:100EF0009091C7029093E6028093E5028091C80228
:100F00009091C9029093E4028093E3020FED12E006
:100F1000C0E0D0E0F801F1908F01CE010E947A1775
:100F2000F81621F06F2DCE010E9482172196CE3047
:100F3000D10581F765EB72E08CE893E0DF91CF910A
:100F40001F910F91FF9030C18091DF029091E002DC
:100F5000A091E102B091E2024697A105B105F1F03E
:100F600081E090E09093EC028093EB0282E090E0CD
:100F70009093EA028093E90283E090E09093E80284
:100F80008093E70284E090E09093E6028093E5028C
:100F900085E090E09093E4028093E3024091EB02BD
:100FA0005091EC025093C1024093C002052E000CF8
:100FB000660B770B77FF04C089E294E099D204C0F6
:100FC0002AE089E294E0D7D16BE472E089E294E010
:100FD00022D38091E9029091EA029093C302809318
:100FE000C2028091E7029091E8029093C50280933B
:100FF000C4028091E5029091E6029093C70280932B
:10100000C6028091E3029091E4029093C90280931A
:10101000C80243CFCF93C82F8CE893E0F1D98C1747
:10102000D9F3CF91089508950F931F93CF93DF9332
:10103000C82FD62F80918203861317C0CC2319F0B6
:1010400010E001E002C011E000E060918003062E94
:10105000000C770B80918A03D2DC602F809186038D
:1010600064DC612F8091870360DC80918503D81355
:101070001BC0CC2319F0C0E0D1E002C0C1E0D0E039
:1010800060918303062E000C770B80918B03B7DCF5
:101090006D2F8091880349DC6C2F80918903DF914B
:1010A000CF911F910F9141CCDF91CF911F910F9163
:1010B00008950F931F93CF93DF93EC01888199815B
:1010C000009729F02A813B812617370788F48B0186
:1010D0006F5F7F4F0E942618009761F09983888385
:1010E0001B830A832C813D81232B11F4FC01108288
:1010F00081E001C080E0DF91CF911F910F910895B1
:10110000FC01A089B18982E08C93A485B5851C92ED
:10111000A685B7858FEC8C93108EA489B58986E05F
:101120008C93A289B3898C9180618C93A289B389B5
:101130008C9188608C93A289B3898C9180688C9300
:101140000288F389E02D80818F7D8083089561E09E
:1011500081E06ADF60E080E067CF61E080E064DF2B
:1011600060E080E061CF60E081E05EDF61E080E030
:101170005BCF61E081E058DF60E081E055CFCF9345
:10118000DF93FC0144815581608171818CE893E09B
:1011900018D2EC016BE472E08CE893E03CD28C0F47
:1011A0009D1FDF91CF9108950F931F93CF93DF93EE
:1011B000EC0131D28C016BE472E0CE012CD2800FB5
:1011C000911FDF91CF911F910F910895CF93DF93DE
:1011D000C0E8D3E060E08A85A8DB60E08B85DF9122
:1011E000CF91A3CB8F929F92AF92BF92CF92DF927B
:1011F000EF92FF926B017C01C9DC4B015C01C60ED2
:10120000D71EE81EF91EC2DC681579058A059B0504
:1012100028F0C616D706E806F906A8F7FF90EF9063
:10122000DF90CF90BF90AF909F908F900895F3C1C3
:10123000EF92FF920F931F93CF93DF936115710588
:1012400011F480E01BC041155105B9F07B01EC01A0
:101250008C819D818A01080F191FB801CE0129DFF9
:10126000882379F3288139818C819D81B701820F90
:10127000931F0E941C191D830C8381E0DF91CF9185
:101280001F910F91FF90EF900895CF93DF93EC01A2
:1012900088819981009711F00E941C13198218828D
:1012A0001D821C821B821A82DF91CF910895CF93F9
:1012B000DF93EC016115710559F0FB0101900020ED
:1012C000E9F73197AF01461B570BB2DF811102C01E
:1012D000CE01DBDFCE01DF91CF910895EF92FF9237
:1012E0000F931F93CF93DF93EC017B018A01BA0127
:1012F000E0DE811103C0CE01C8DF07C01D830C836F
:10130000B701888199810E941C19CE01DF91CF918C
:101310001F910F91FF90EF900895CF93DF93EC0111
:101320006115710551F0FB0101900020E9F731973B
:10133000AF01461B570BD2DF01C0A7DFCE01DF9103
:10134000CF910895FC01808191810C941C13FC01C4
:101350001182108213821282158214826115710526
:1013600049F0FB0101900020E9F73197AF01461BDE
:10137000570BB4CF08958F929F92AF92BF92EF9286
:10138000FF920F931F93CF93DF93CDB7DEB7A19753
:101390000FB6F894DEBF0FBECDBF7C01FA01CB01C2
:1013A00019A2223008F42AE08E010F5D1F4F822E11
:1013B000912CA12CB12CBF01A50194010E94901782
:1013C000F901CA01015011096A3014F4605D01C0CD
:1013D000695CD8016C93232B242B252B61F7B80172
:1013E000C70119D1A1960FB6F894DEBF0FBECDBFCD
:1013F000DF91CF911F910F91FF90EF90BF90AF9031
:101400009F908F900895BF92CF92DF92EF92FF92BC
:101410000F931F93CF93DF9348E0C42ED12CE12C80
:10142000F12CD2E0C1E01FEF05EE55ECB52E809116
:101430007F038111FCCFD0937F03C0937E03109371
:101440007D0310927C0310927B0310925A0320912B
:101450005A03C601880F991F822B80935A038091EB
:101460005903813069F41092590380915A03809393
:10147000BB008091BC0083FDF8CFB092BC0002C0DD
:101480000093BC0080917F038230E1F380917D0363
:101490008F3FE1F080917D03803211F080917D03D8
:1014A0008FEFC81AD80AE80AF80A87E7C816D104E5
:1014B000E104F10409F0BBCFDF91CF911F910F91AF
:1014C000FF90EF90DF90CF90BF9008952AE0B70192
:1014D000A6018091090590910A054DDF61E872E04F
:1014E0008091090590910A05A2DEC093CC04D8CF63
:1014F000CF92DF92EF92FF920F931F93CF93DF93E0
:10150000EC016A017B01E881F9810190F081E02D15
:101510006DE219958C0144275527BA014C195D09D4
:101520006E097F092AE0CE0126DF800F911FDF912F
:10153000CF911F910F91FF90EF90DF90CF90089582
:10154000CF93DF931F921F92CDB7DEB7209137055F
:1015500030913805CE0101962115310519F48B53D0
:10156000954018C0AC01421B530BE0913905F09136
:101570003A0580E090E0309759F09C012E5F3F4F94
:1015800080819181820F931F0280F381E02DF3CF40
:10159000840F951F9A83898349815A818091090517
:1015A00090910A05052E000C660B770B77FF02C0A1
:1015B0009FDF02C02AE0DFDE0F900F90DF91CF9116
:1015C0000895CF92DF92EF92FF920F931F93CF93E4
:1015D000DF936C017A018B01C0E0D0E0CE15DF050E
:1015E00081F0D8016D918D01D601ED91FC910190B2
:1015F000F081E02DC6011995892B11F02196EECFCF
:101600007E01C701DF91CF911F910F91FF90EF9065
:10161000DF90CF9008956115710579F0FB0101907D
:101620000020E9F73197AF01461B570BDC01ED9124
:10163000FC910280F381E02D199480E090E0089500
:10164000CF92DF92EF92FF920F931F93E82FF92F23
:1016500005C0015011092109310961F190819623DA
:101660009417B9F305C0015011092109310911F18D
:10167000908196239413F7CFC12CD12CE12CF12C1F
:101680000AC08FEFC81AD80AE80AF80A0C151D0517
:101690002E053F0579F080818623841791F36C2D08
:1016A0007D2D8E2D9F2D1F910F91FF90EF90DF903C
:1016B000CF90089560E070E080E090E01F910F917E
:1016C000FF90EF90DF90CF900895CF93DF93CDB749
:1016D000DEB7E3970FB6F894DEBF0FBECDBF7894A8
:1016E00084B5826084BD84B5816084BD85B5826027
:1016F00085BD85B5816085BD80916E0081608093D8
:101700006E00109281008091810082608093810040
:101710008091810081608093810080918000816050
:10172000809380008091B10084608093B1008091AB
:10173000B00081608093B0008091910082608093BE
:101740009100809191008160809391008091900040
:101750008160809390008091A10082608093A100BD
:101760008091A10081608093A1008091A0008160A0
:101770008093A0008091210182608093210180915B
:1017800021018160809321018091200181608093FB
:10179000200180917A00846080937A0080917A00A1
:1017A000826080937A0080917A00816080937A00D1
:1017B00080917A00806880937A001092C100109224
:1017C0000B0510920C0510920D0510920E0510924B
:1017D000C8041092C9041092CA041092CB0468EB9A
:1017E0007BE080E090E0FEDC89E294E090930A05E3
:1017F0008093090585DCCAD96093C8047093C90435
:101800008093CA049093CB046AE272E08091090548
:1018100090910A050CDD6AE070E080E090E0E2DC87
:1018200081E08093DD041092BF021092BE021092FC
:10183000BD021092BC0210927F0380937E0310922F
:10184000590361E084E171D861E085E16ED880914F
:10185000B9008E7F8093B9008091B9008D7F80930D
:10186000B90088E48093B80085E48093BC0084E3E9
:1018700093E09093BB028093BA0285E393E0909348
:10188000B9028093B80282D90091C8041091C904AA
:101890002091CA043091CB04DC01CB01801B910B59
:1018A000A20BB30B82339105A105B10568F442E3A5
:1018B00050E060E070E06A017B01C81AD90AEA0AC8
:1018C000FB0AC701B6018EDC61D96093C80470932E
:1018D000C9048093CA049093CB046CE372E08091B6
:1018E000090590910A05A3DC8091CC04811101C007
:1018F0008ADD63E472E08091090590910A0597DC26
:1019000063E472E08091090590910A0590DC63E43C
:1019100072E08091090590910A0589DC11DE63E48B
:1019200072E08091090590910A0581DC65E472E01E
:101930008091090590910A057ADC6AE070E080E008
:1019400090E050DC89E294E0DBDB8CE893E0D8DBCC
:1019500088E0809386038BE0809387038CE08093FC
:1019600088038DE08093890389E080938A038AE06D
:1019700080938B0361E088E006D861E08091870363
:1019800002D861E0809188030E94C30461E08091E5
:1019900089030E94C30461E080918A030E94C3040A
:1019A00061E080918B030E94C30410DC10928203DB
:1019B00081E080938503809381031092840384EBFC
:1019C0008093800380938303BFDA6EE472E089E240
:1019D00094E0EADB67E572E089E294E0E5DB68E742
:1019E00072E089E294E0E0DB67E572E089E294E08E
:1019F000DBDB53E0852E912C5E0102E2A00EB11CD0
:101A0000C5D80091DB021091DC022091DD023091FB
:101A1000DE02DC01CB01801B910BA20BB30B8639DC
:101A20009105A105B10508F4D9C0B0D86093DB02D7
:101A30007093DC028093DD029093DE0261E070E03F
:101A400080E090E0CFDBA2D86093C8047093C90413
:101A50008093CA049093CB046CE372E080910905F3
:101A600090910A05E4DB8091CC04811101C0CBDCAC
:101A700061E070E080E090E0B5DB63E472E08091CB
:101A8000090590910A05D3DB00E010E0E12CF12C70
:101A9000412C512C320158C40F5F1F4F21E04216D8
:101AA00051046104710409F44FC4F801E65AFD4F72
:101AB0008491F801E050FD4FD490F801E654FD4FB9
:101AC000C490CC2009F440C481110E943F04EC2D45
:101AD000F0E0EE0FFF1FE056FD4FA591B491EC91A1
:101AE000DE2209F431C481E00E2C01C0880F0A9473
:101AF000EAF7F82AE39438E0E31609F427C485E30B
:101B0000481651046104710409F420C461E070E0D6
:101B100080E090E067DBEFEF4E1A5E0A6E0A7E0A05
:101B20000533110509F0B8CF61E070E080E090E086
:101B300059DB63E472E08091090590910A0577DB37
:101B400010E080917B00877F912F987F892B809375
:101B50007B00812F8770806480937C0080917A0065
:101B6000806480937A0080917A0086FDFCCF20917A
:101B700078008091790030E0382B809109059091B0
:101B80000A05A901032E000C660B770B37FFF3C380
:101B9000AFDC61E872E08091090590910A0547DBAE
:101BA0001F5F103171F663E472E080910905909136
:101BB0000A053DDBC5DC63E472E080910905909184
:101BC0000A0535DB65E472E08091090590910A050C
:101BD0002EDB61E070E080E090E004DB0E94C6054F
:101BE0006093D7027093D8028093D9029093DA025F
:101BF0000091D3021091D4022091D5023091D602E7
:101C00006B017C01C01AD10AE20AF30A970186012E
:101C1000083C11052105310508F463C06093D30227
:101C20007093D4028093D5029093D60260E08091A5
:101C300027050E949504C4010197F1F761E08091A6
:101C400027050E94950483E290E00197F1F760E098
:101C5000809127050E9495048091290590912A057D
:101C60009927FC01E050FD4F6491FC01E654FD4FC3
:101C7000E491F0E0EE0FFF1FE056FD4F8591949147
:101C800000E412E42FE030E0462FDADC6115710544
:101C90008105910549F0DC01CB010196A11DB11D23
:101CA000BC01CD019F7003C060E070E0CB010E94D9
:101CB000671620912B0530912C0540912D055091F0
:101CC0002E050E94B21720E030E040E05FE30E9462
:101CD000C6166093CB027093CC028093CD02909392
:101CE000CE028CE893E00E9400028093CA028F3FEC
:101CF00009F4B1C1082E000C990BAA0BBB0BFC0117
:101D0000E154F109EA31F10508F0A5C18827EE5840
:101D1000FF4F8F4F0C941E1826DA86E428C084E605
:101D20008093830320DA84E40BC084E680938003ED
:101D30001ADA87E40FC084E68093830308DA8AE422
:101D400069D984EB8093830386C184E68093800302
:101D5000FED988E45FD984EB809380037CC109DAE3
:101D600082E505C0F4D982E402C0F7D98CE452D9E7
:101D700072C12CDA63E872E05FC1E6D86DE472E00C
:101D8000CE018896E4DA42E050E065E872E0CE01E8
:101D900088964EDA00EC12E09AECE92E92E0F92EE9
:101DA0002FE2D22EF801819191918F011BA21AA2EC
:101DB0001DA21CA21FA21EA24AE0BE016F5F7F4FA0
:101DC000EAD4BE016F5F7F4FC501A7DA1A8219827C
:101DD0001C821B821E821D826AA17BA16115710576
:101DE00029F04EA15FA1CE01019678DADEA61FA6EA
:101DF00041E050E0BE01625D7F4FCE01019618DAEE
:101E0000811103C0CE01019640DA4D815E81698166
:101E10007A81CE0188960CDACE01019693DAC5015B
:101E200091DAE016F10609F0BDCF41E050E068E834
:101E300072E0CE018896FCD9CE018896A0D9CE0159
:101E40008896F1C06DE472E0CE01019680DA00E080
:101E500010E087E5873551F18F3201F58D819E8144
:101E6000892B21F189819A81FC0120812223F1F0C3
:101E7000009711F06AD403C060E070E0CB01F80174
:101E8000EE0FFF1FE054FD4F718360830F5F1F4F04
:101E90006DE472E0CE01019640DA08C08AA31BA26D
:101EA00041E050E0B501CE010196C2D98CE893E043
:101EB0000E940002883571F66AE872E08CE893E0CF
:101EC00073D9CE010196AFC00E944D07C4C0609186
:101ED000CB027091CC028091CD029091CE021BA2D8
:101EE0001AA21DA21CA21FA21EA28E010F5F1F4FCD
:101EF00022E044E0EAD2BC01C5010FDA809121055D
:101F0000909122050097C1F06AA17BA1611571052E
:101F100091F040912305509124052EA13FA1421735
:101F2000530748F00E941C198EA19FA1909326058B
:101F30008093250517C080D38AA19BA19093220589
:101F4000809321058CA19DA1909324058093230566
:101F50008EA19FA190932605809325051BA21AA20E
:101F60001DA21CA21FA21EA2C501ECD96CE872E042
:101F7000CE010196ECD9409125055091260560913E
:101F8000210570912205CE01019652D9811103C01D
:101F9000CE0101967AD966E872E0CE01019687D922
:101FA0006AE972E084D96BEA72E081D966E872E08E
:101FB0007ED96AE972E07BD96BEA72E078D966E88B
:101FC00072E075D96AE972E072D96BEA72E06FD992
:101FD00066E872E06CD96AE972E069D96BEA72E08E
:101FE00066D966E872E063D96AE972E060D96BEAA3
:101FF00072E05DD91BA21AA21DA21CA21FA21EA2E2
:102000008A159B0551F0FC01608171816115710594
:1020100021F044815581C50161D9CE01019692D943
:10202000C501ADD8C5018ED916C061EB72E08CE850
:1020300093E0BAD861EB72E08BE195E06ED90BC00A
:10204000C5D863EB72E08BE195E067D963EB72E092
:102050008CE893E0A9D880911F0590912005892BE9
:1020600009F46FC161EB72E080911B0590911C0532
:102070000E941319892B09F064C10E94C6052B0127
:102080003C016093D7027093D8028093D902909359
:10209000DA026093CF027093D0028093D1029093C2
:1020A000D2026091C8027091C902072E000C880B01
:1020B000990B0DD668AB79AB8AAB9BABC090CB02CA
:1020C000D090CC02E090CD02F090CE02A701960114
:1020D000F8D587FF1DC08091D7029091D802A091BA
:1020E000D902B091DA0284199509A609B709883C8A
:1020F0009105A105B10560F40E94C6056093D70261
:102100007093D8028093D9029093DA0232D8E3CF49
:10211000A701960168A979A98AA99BA98BD787FDF0
:102120002EC06091C6027091C702072E000C880B6A
:10213000990BCDD59B01AC01C701B6017BD787FDBB
:102140001EC08091D7029091D802A091D902B0917F
:10215000DA0284199509A609B709883C9105A105F9
:10216000B10568F40E94C6056093D7027093D80247
:102170008093D9029093DA020E94B308E2CF609173
:10218000C6027091C70261507109072E000C880BBE
:10219000990B9DD59B01AC01C701B60192D51816CC
:1021A00074F16091C4027091C502072E000C880B77
:1021B000990B8DD59B01AC01C701B6013BD787FDBB
:1021C0001EC08091D7029091D802A091D902B091FF
:1021D000DA0284199509A609B709883C9105A10579
:1021E000B10568F40E94C6056093D7027093D802C7
:1021F0008093D9029093DA020E94B308E2CF6091F3
:10220000C4027091C50261507109072E000C880B41
:10221000990B5DD59B01AC01C701B60152D51816CB
:1022200054F16091C2027091C302072E000C880B1A
:10223000990B4DD59B01AC01C701B601FBD687FDBB
:102240001AC08091D7029091D802A091D902B09182
:10225000DA02843F9140A105B10568F40E94C605E9
:102260006093D7027093D8028093D9029093DA02D8
:102270000E94AD08E6CF6091C2027091C302615026
:102280007109072E000C880B990B21D59B01AC011D
:10229000C701B60116D5181654F16091C0027091AD
:1022A000C102072E000C880B990B11D59B01AC01C4
:1022B000C701B601BFD687FD1AC08091D7029091A1
:1022C000D802A091D902B091DA02843F9140A105D1
:1022D000B10568F40E94C6056093D7027093D802D6
:1022E0008093D9029093DA020E94A708E6CF60910A
:1022F000C0027091C102072E000C880B990BE7D425
:102300009B01AC01C701B601DCD487FF1AC08091E4
:10231000D7029091D802A091D902B091DA02843FFD
:102320009140A105B10568F40E94C6056093D702EB
:102330007093D8028093D9029093DA020E94A70882
:10234000E6CF0E94CF025CCB80E0CECB4F2D50E099
:1023500060E070E02AE08091090590910A050BD8B1
:1023600061E872E08091090590910A050E941709C1
:10237000E12CF12CCBCB2AE00E94BB090ACC8BE1EB
:1023800095E00E94A20981E295E00C94A209ECE894
:10239000F3E01382128288EE93E0A0E0B0E0848341
:1023A0009583A683B7832AE032E03183208345E317
:1023B00051E05587448744E351E05787468740E31F
:1023C00051E0518B408B41E351E0538B428B42E310
:1023D00051E0558B448B46E351E0578B468B118E71
:1023E000128E138E148EE9E2F4E01382128284833B
:1023F0009583A683B7833183208325EC30E035872E
:10240000248724EC30E03787268720EC30E0318BBE
:10241000208B21EC30E0338B228B22EC30E0358BAB
:10242000248B26EC30E0378B268B118E128E138E88
:10243000148EE6ECF4E0178210861186128613865D
:102440001486158616861786108A118A128A138AB0
:10245000148A158A168AEFE0F5E0138212828483CB
:102460009583A683B7838CE192E09183808361E0BA
:1024700085E00E94C30460E083E00E94C304E7E2B9
:10248000F5E085E090E09183808383E090E09383A2
:10249000828385E89CEFACEDB1E484839583A683C9
:1024A000B7838CE993E5ACE8B2E480879187A28793
:1024B000B3876DE472E081E295E00E94A70963EBC7
:1024C00072E08BE195E00C94A709EF920F931F93B4
:1024D000CF93DF93E80147FD02C034E001C034E14F
:1024E000042E000C550B57FF03C05195419551091F
:1024F000E32E022F242FAE0186D1CE01DF91CF91A2
:102500001F910F91EF9008950F931F93CF93DF9337
:102510008230910510F482E090E0E0913905F0916D
:102520003A0520E030E0A0E0B0E0309719F14081BA
:1025300051810281138148175907C8F08417950704
:1025400069F4109731F012960C93129713961C931E
:1025500027C00093390510933A0522C02115310593
:1025600019F04217530718F49A01BD01EF01DF017A
:10257000F801DBCF21153105F9F0281B390B243088
:10258000310580F48A819B816115710521F0FB0181
:102590009383828304C090933A0580933905FE01AA
:1025A000329644C0FE01E20FF31F819391932250B3
:1025B0003109398328833AC0209137053091380595
:1025C000232B41F42091020230910302309338050D
:1025D0002093370520910002309101022115310529
:1025E00041F42DB73EB74091040250910502241BDF
:1025F000350BE0913705F0913805E217F307A0F4A9
:102600002E1B3F0B2817390778F0AC014E5F5F4F48
:102610002417350748F04E0F5F1F5093380540933D
:1026200037058193919302C0E0E0F0E0CF01DF91A4
:10263000CF911F910F910895CF93DF93009709F4E5
:1026400081C0FC01329713821282A0913905B091AA
:102650003A05109781F420813181820F931F2091D8
:102660003705309138052817390751F5F0933805AB
:10267000E093370567C0ED0120E030E0CE17DF07BB
:1026800040F44A815B819E0141155105F1F0EA0158
:10269000F5CFD383C28340815181840F951FC81722
:1026A000D90759F488819981840F951F02969183E7
:1026B00080838A819B81938382832115310529F44C
:1026C000F0933A05E09339053DC0E901FB83EA83C5
:1026D00049915991C40FD51FEC17FD0761F4808112
:1026E0009181840F951F0296E901998388838281E5
:1026F00093819B838A83E0E0F0E012968D919C9118
:102700001397009719F0FD01DC01F7CF8D919C9193
:1027100011979D012E5F3F4F820F931F2091370528
:10272000309138052817390769F4309729F4109249
:102730003A051092390502C013821282B09338050F
:10274000A0933705DF91CF9108951F93FC0199273E
:102750008827BC01E89411911032E9F3193010F088
:102760001E30C8F31B3249F01D3241F4689405C095
:102770001CD0610F711D811D911D119110531A30D4
:10278000B8F33EF490958095709561957F4F8F4F8B
:102790009F4F1F910895BB274A3031F4992322F4AB
:1027A000BDE2909581959F4F16C0592F482F372F26
:1027B000262F660F771F881F991F660F771F881FA8
:1027C000991F620F731F841F951F660F771F881F45
:1027D000991F0895BB27FB015527AA27880F991F2A
:1027E000AA1FA41710F0A41B83955051B9F7A05D40
:1027F000AA3308F0A95DA193009779F7B111B193BD
:102800001192CB014EC28F929F92AF92BF92CF9204
:10281000DF92EF92FF920F931F93CF93DF93CDB789
:10282000DEB729970FB6F894DEBF0FBECDBF6A01A1
:10283000122FB02E2BE3201720F0FF24F394F00E7C
:1028400002C02CE3F22E0F2D27E0AE014F5F5F4F49
:1028500050D1BC014981842F8970813031F0E1FC75
:1028600006C0E0FE06C090E205C09DE203C09BE208
:1028700001C090E05E2D507143FF3CC0911102C039
:1028800083E001C084E0811718F4212F281B01C0C8
:1028900020E051110BC0F601822F30E2882319F09D
:1028A00031938150FBCFC20ED11C20E0992329F037
:1028B000D6019C93F60131966F01C6010396E2FEA4
:1028C0000AC03EE4D6013C9341E411964C93119723
:1028D00012963C9306C03EE6F601308341E6418302
:1028E0003283FC01322F40E2332309F442C041938A
:1028F0003150FACF42FF44C0911102C083E001C0C1
:1029000084E0811718F4212F281B01C020E0511109
:102910000BC0F601822F30E2882319F031938150E9
:10292000FBCFC20ED11C20E0992329F0D6019C9345
:10293000F60131966F01C6010396E2FE0BC039E441
:10294000D6013C933EE411963C93119736E41296DF
:102950003C9307C039E6F60130833EE6318336E624
:102960003283FC01322F40E2332319F0419331507E
:10297000FBCFFC01E20FF11D10828EEF9FEFA6C08E
:1029800021E030E0911102C020E030E01616170679
:102990001CF4FB01319602C0E1E0F0E02E0F3F1F76
:1029A000BB2021F0EB2DF0E0319602C0E0E0F0E03A
:1029B0002E0F3F1FE12FF0E02E173F071CF4121BD4
:1029C000212F01C020E08E2D887159F4F601822F4D
:1029D00030E2882319F031938150FBCFC20ED11C15
:1029E00020E0992329F0D6019C93F60131966F01DE
:1029F00051110BC0F601822F90E3882319F09193B7
:102A00008150FBCFC20ED11C20E00F2D060F9A8102
:102A1000342F307144FF03C0913309F40150101674
:102A200024F4093018F008E001C001E0AB0177FFA1
:102A300002C040E050E0FB01E41BF50BA1E0B0E078
:102A4000AC0FBD1FEA0FFB1F8EE2A82E4B01801AB0
:102A500091080B2D10E01195019511094F3FBFEF23
:102A60005B0721F4D601AC9211966D0164177507CE
:102A70002CF08416950614F4818101C080E3415046
:102A800051093196D60111967D014017510724F066
:102A9000D6018C936701E2CF6417750739F496333A
:102AA00020F4953319F4311101C081E3F6018083DC
:102AB000F701822F90E2882319F091938150FBCF88
:102AC000F701E20FF11D108280E090E029960FB629
:102AD000F894DEBF0FBECDBFDF91CF911F910F9154
:102AE000FF90EF90DF90CF90BF90AF909F908F902E
:102AF0000895283008F027E03327DA01990F311DB7
:102B000087FD916000966105710539F432602E5F92
:102B10003D9330E32A95E1F708959F3F30F08038E8
:102B20007105610509F03C5F3C5F3D93913008F011
:102B30008068911DDF93CF931F930F93FF92EF92C5
:102B4000192F987F9695E92F96959695E90FFF276F
:102B5000E654FE4F99273327EE24FF24A701E7010F
:102B600005900894079428F4360FE71EF81E491FB5
:102B7000511D660F771F881F991F0694A1F70590B6
:102B8000079428F4E70EF81E491F561FC11D770F42
:102B9000881F991F661F0694A1F70590079428F4D3
:102BA000F80E491F561FC71FD11D880F991F661F9A
:102BB000771F0694A1F70590079420F4490F561F3C
:102BC000C71FD81F990F661F771F881F0694A9F784
:102BD00084911095177041F0D695C79557954795F4
:102BE000F794E7941A95C1F7E0E6F1E06894159040
:102BF000159135916591959105907FE27395E11856
:102C0000F10A430B560BC90BD009C0F7E10CF11EBA
:102C1000431F561FC91FD01D7EF4703311F48A95CF
:102C2000E6CFE894015030F0080F0AF400270217AD
:102C300008F4202F2395022F7A3328F079E37D932F
:102C40002A95E9F710C07D932A9589F60694979501
:102C50006795379517951794E118F10A430B560BB2
:102C6000C90BD00998F023957E9173957A3308F0BB
:102C700070E37C932013B8F77E9170617D9330F000
:102C8000839571E37D9370E32A95E1F71124EF902A
:102C9000FF900F911F91CF91DF91992787FD90951C
:102CA0000895DC01FC01672F71917723E1F73297DA
:102CB00004C07C916D9370836291AE17BF07C8F317
:102CC000089540D008F481E00895E89409C097FB86
:102CD0003EF490958095709561957F4F8F4F9F4FF3
:102CE0009923A9F0F92F96E9BB279395F695879537
:102CF00077956795B795F111F8CFFAF4BB0F11F4FA
:102D000060FF1BC06F5F7F4F8F4F9F4F16C08823A0
:102D100011F096E911C0772321F09EE8872F762FD6
:102D200005C0662371F096E8862F70E060E02AF017
:102D30009A95660F771F881FDAF7880F9695879503
:102D400097F90895990F0008550FAA0BE0E8FEEFD8
:102D500016161706E807F907C0F012161306E4075F
:102D6000F50798F0621B730B840B950B39F40A2658
:102D700061F0232B242B252B21F408950A2609F436
:102D8000A140A6958FEF811D811D08950BD078C0BD
:102D900069D028F06ED018F0952309F05AC05FC0B2
:102DA0001124A2C07ED0A0F3959FD1F3950F50E0DF
:102DB000551F629FF001729FBB27F00DB11D639FED
:102DC000AA27F00DB11DAA1F649F6627B00DA11D93
:102DD000661F829F2227B00DA11D621F739FB00D39
:102DE000A11D621F839FA00D611D221F749F3327A9
:102DF000A00D611D231F849F600D211D822F762F42
:102E00006A2F11249F5750408AF0E1F088234AF03E
:102E1000EE0FFF1FBB1F661F771F881F915050408A
:102E2000A9F79E3F510570F014C05EC05F3FECF300
:102E3000983EDCF3869577956795B795F795E79576
:102E40009F5FC1F7FE2B880F911D9695879597F987
:102E5000089597F99F6780E870E060E008959FEF1C
:102E600080EC089500240A94161617061806090621
:102E7000089500240A9412161306140605060895F0
:102E8000092E0394000C11F4882352F0BB0F40F478
:102E9000BF2B11F460FF04C06F5F7F4F8F4F9F4FB8
:102EA000089557FD9058440F551F59F05F3F71F03A
:102EB0004795880F97FB991F61F09F3F79F08795A1
:102EC0000895121613061406551FF2CF4695F1DF2A
:102ED00008C0161617061806991FF1CF86957105BA
:102EE000610508940895E894BB2766277727CB01EE
:102EF00097F90895F999FECF92BD81BDF89A992767
:102F000080B50895262FF999FECF1FBA92BD81BDD5
:102F100020BD0FB6F894FA9AF99A0FBE019608955B
:102F2000A1E21A2EAA1BBB1BFD010DC0AA1FBB1FCD
:102F3000EE1FFF1FA217B307E407F50720F0A21B3F
:102F4000B30BE40BF50B661F771F881F991F1A94AC
:102F500069F760957095809590959B01AC01BD01D6
:102F6000CF0108950CD08CCF84DF40F07BDF30F0B0
:102F700021F45F3F19F06DCF5111B6CF70CF91DFC3
:102F800098F39923C9F35523B1F3951B550BBB2730
:102F9000AA2762177307840738F09F5F5F4F220FDD
:102FA000331F441FAA1FA9F333D00E2E3AF0E0E8D6
:102FB00030D091505040E695001CCAF729D0FE2F22
:102FC00027D0660F771F881FBB1F261737074807B4
:102FD000AB07B0E809F0BB0B802DBF01FF2793586A
:102FE0005F4F2AF09E3F510568F033CF7DCF5F3FA2
:102FF000ECF3983EDCF3869577956795B795F79552
:103000009F5FC9F7880F911D9695879597F9089549
:10301000E1E0660F771F881FBB1F621773078407E5
:10302000BA0720F0621B730B840BBA0BEE1F88F7F4
:10303000E095089587DE08F48FEF0895EE0FFF1FE7
:10304000881F8BBF0790F691E02D19946F927F92A5
:103050008F929F92AF92BF92CF92DF92EF92FF92A8
:103060000F931F93CF93DF93009781F4CB01DF91F0
:10307000CF911F910F91FF90EF90DF90CF90BF9075
:10308000AF909F908F907F906F903ECAFC01E60FAB
:10309000F71F9C0122503109E217F30708F4A5C07D
:1030A000EC01D9010D911C91119706171707A8F093
:1030B0000530110508F497C0C801049786179707D3
:1030C00008F491C002501109061B170B01931193CC
:1030D0006D937C93CF01B0DA86C05B01A01AB10A70
:1030E0004C01800E911EA0913905B0913A05612CDA
:1030F000712CE12CF12C109709F446C08D919C9114
:103100001197A815B905B1F56C0142E0C40ED11CA8
:10311000CA14DB0478F14C018A189B08640142E070
:10312000C40ED11C1296BC9012971396AC91B5E0C8
:10313000CB16D10440F0B282A38391828082D90160
:103140006D937C9309C00E5F1F4F800F911FF90193
:1031500091838083EB2DFA2FE114F10431F0D70134
:103160001396FC93EE9312973EC0F0933A05E093CA
:10317000390539C06816790608F43C017D011296BC
:103180000D90BC91A02DB7CF809137059091380557
:1031900088169906E1F466167706C8F48091000255
:1031A00090910102009741F48DB79EB740910402BF
:1031B00050910502841B950BE817F907B0F4F093C2
:1031C0003805E0933705F901718360830CC0CB01AA
:1031D0009BD97C01009749F0A801BE011BD0CE010C
:1031E0002BDAC70104C0CE0102C080E090E0DF917D
:1031F000CF911F910F91FF90EF90DF90CF90BF90F4
:10320000AF909F908F907F906F90089581E090E0B5
:10321000F89419C0FB01DC0102C001900D924150ED
:103220005040D8F70895FB01DC018D910190801981
:103230000110D9F3990B0895FB01DC0101900D9267
:103240000020E1F7089511E0CEEBD1E000E005C0E9
:10325000802FFE01F3DE2196011DCF3BD10780E0D8
:083260000807B1F7F894FFCF55
:1032680000003B058000000000006202E10AF10155
:10327800AE02220200021402000000006C03620386
:103288007C0336035A0346033703564D4450565FB2
:10329800317C315F564D4450560D0A00564D44500E
:1032A800525F007C005F564D4450520D0A00706119
:1032B800697261626C65002A2D2D2D2D2D2D2D2D05
:1032C8002D2D2D2D2D2D2D2D2D2D2D2D2D2D2D2D26
:1032D8002D2D2D2D2D2D2A00636F6E6E656374655F
:1032E800003A0053004F2F00580057005A2F4469E6
:1032F8007374616E6365203A200054656D70EFBF8A
:10330800BD726174757265203A200032312E3032F8
:083318000041004D00510000CE
:020000023000CC
:10E000000D9489F10D94B2F10D94B2F10D94B2F129
:10E010000D94B2F10D94B2F10D94B2F10D94B2F1F0
:10E020000D94B2F10D94B2F10D94B2F10D94B2F1E0
:10E030000D94B2F10D94B2F10D94B2F10D94B2F1D0
:10E040000D94B2F10D94B2F10D94B2F10D94B2F1C0
:10E050000D94B2F10D94B2F10D94B2F10D94B2F1B0
:10E060000D94B2F10D94B2F10D94B2F10D94B2F1A0
:10E070000D94B2F10D94B2F10D94B2F10D94B2F190
:10E080000D94B2F10D94B2F10D94B2F10D94B2F180
:10E090000D94B2F10D94B2F10D94B2F10D94B2F170
:10E0A0000D94B2F10D94B2F10D94B2F10D94B2F160
:10E0B0000D94B2F10D94B2F10D94B2F10D94B2F150
:10E0C0000D94B2F10D94B2F10D94B2F10D94B2F140
:10E0D0000D94B2F10D94B2F10D94B2F10D94B2F130
:10E0E0000D94B2F141546D656761323536300041AF
:10E0F000726475696E6F206578706C6F72657220DE
:10E1000073746B3530305632206279204D4C530099
:10E11000426F6F746C6F616465723E004875683F52
:10E1200000436F6D70696C6564206F6E203D200048
:10E130004350552054797065202020203D20005FF9
:10E140005F4156525F415243485F5F3D2000415658
:10E1500052204C696243205665723D20004743437C
:10E160002056657273696F6E203D20004350552024
:10E1700049442020202020203D20004C6F7720663D
:10E18000757365202020203D20004869676820665F
:10E190007573652020203D200045787420667573D6
:10E1A00065202020203D20004C6F636B2066757336
:10E1B000652020203D20004D617220203720323024
:10E1C000313300312E362E3800342E332E350056A2
:10E1D00023202020414444522020206F7020636F70
:10E1E00064652020202020696E73747275637469E1
:10E1F0006F6E2061646472202020496E74657272B3
:10E20000757074006E6F20766563746F7200726A49
:10E210006D702020006A6D70200057686174207056
:10E220006F72743A00506F7274206E6F7420737541
:10E2300070706F72746564004D7573742062652030
:10E2400061206C6574746572002000577269747483
:10E25000696E672045450052656164696E672045B7
:10E26000450045452065727220636E743D00504F35
:10E27000525400303D5A65726F2061646472003FF1
:10E280003D43505520737461747300403D454550C3
:10E29000524F4D207465737400423D426C696E6B41
:10E2A000204C454400453D44756D70204545505215
:10E2B0004F4D00463D44756D7020464C415348001B
:10E2C000483D48656C70004C3D4C69737420492F83
:10E2D0004F20506F72747300513D51756974005234
:10E2E0003D44756D702052414D00563D73686F7707
:10E2F00020696E7465727275707420566563746FF0
:10E30000727300593D506F727420626C696E6B00BD
:10E310002A0011241FBECFEFD1E2DEBFCDBF01E046
:10E320000CBF12E0A0E0B2E0EEE1FDEF03E00BBFB6
:10E3300002C007900D92A030B107D9F712E0A0E01B
:10E34000B2E001C01D92AE30B107E1F70F9460F367
:10E350000D948DFE01E20EBF0FEF0DBF11241FBE05
:10E360000D9460F30D9400F020E030E040ED57E0B4
:10E3700005C0FA013197F1F72F5F3F4F2817390792
:10E38000C0F308959C01260F311DC901A0E0B0E043
:10E390002F5F3F4FABBFFC018791882361F08093D3
:10E3A000C6008091C00086FFFCCF8091C0008064D1
:10E3B0008093C000EACF08958DE08093C6008091DD
:10E3C000C00086FFFCCF8091C00080648093C000B5
:10E3D0008AE08093C6008091C00086FFFCCF8091C8
:10E3E000C00080648093C00008950F94C2F10F9420
:10E3F000DCF10895FC019081992359F09093C600B7
:10E400008091C00086FFFCCF8091C0008064809323
:10E41000C0003196992379F70895282F982F929567
:10E420009F70892F805D8A3308F0895F8093C600D2
:10E430008091C00086FFFCCF8091C00080648093F3
:10E44000C000822F8F70982F905D9A3308F0995FEB
:10E450009093C6008091C00086FFFCCF8091C000E1
:10E4600080648093C00008959C01FB01853691056E
:10E470001CF46330710594F0C90164E670E00F94F8
:10E480002EFE605D7F4F6093C6008091C00086FFC6
:10E49000FCCF8091C00080648093C0002B30310598
:10E4A00014F43297B4F0C90164E670E00F942EFEC4
:10E4B0006AE070E00F942EFE605D7F4F6093C600AF
:10E4C0008091C00086FFFCCF8091C0008064809363
:10E4D000C000C9016AE070E00F942EFEC0968093E0
:10E4E000C6008091C00086FFFCCF8091C000806490
:10E4F0008093C00008951F93182F8EE692EE60E07F
:10E500000F94C2F11093C6008091C00086FFFCCF2B
:10E510008091C00080648093C0000F94DCF11F9153
:10E5200008952F923F924F925F926F927F928F92B7
:10E530009F92AF92BF92CF92DF92EF92FF920F9392
:10E540001F93DF93CF93CDB7DEB762970FB6F894E2
:10E55000DEBF0FBECDBF382E622ECA01DB015C01CB
:10E560006D01772420E2222E2E010894411C511CBB
:10E570008BC081E0A81680E0B80681E0C80680E084
:10E58000D80628F0C601AA27BB270F940DF2BB2797
:10E59000AD2D9C2D8B2D0F940DF28A2D0F940DF225
:10E5A0002092C6008091C00086FFFCCF8091C00001
:10E5B00080648093C0009DE29093C6008091C0006B
:10E5C00086FFFCCF8091C00080648093C0002092C1
:10E5D000C6008091C00086FFFCCF8091C00080649F
:10E5E0008093C00019828601750188249924A1E0D6
:10E5F0003A1651F03A1620F0B2E03B1661F409C029
:10E600000BBFF701779007C0C7010F9477FE782EF4
:10E6100002C0F7017080872D0F940DF22092C60082
:10E620008091C00086FFFCCF8091C0008064809301
:10E63000C000872D8052F401EF70F0708F3520F408
:10E64000E40DF51D708204C0E40DF51D8EE280839B
:10E650000894E11CF11C011D111D0894811C911CE2
:10E6600090E18916910409F0C2CF80E190E0A0E02A
:10E67000B0E0A80EB91ECA1EDB1E198AC2010F9493
:10E68000FAF10F94DCF16A94662009F072CF629679
:10E690000FB6F894DEBF0FBECDBFCF91DF911F91B3
:10E6A0000F91FF90EF90DF90CF90BF90AF909F9031
:10E6B0008F907F906F905F904F903F902F90089534
:10E6C0002F923F924F925F926F927F928F929F9282
:10E6D000AF92BF92CF92DF92EF92FF920F931F9370
:10E6E000DF93CF93CDB7DEB7CD53D1400FB6F894BB
:10E6F000DEBF0FBECDBF01E20EBF0FEF0DBF94B75F
:10E70000F894A89514BE80916000886180936000A1
:10E7100010926000789493FF05C0E0910002F091A0
:10E7200001021995279A2F9A8091C00082608093E8
:10E73000C00080E18093C40088E18093C1000000A4
:10E74000EE24FF24870144E0A42EB12CCC24DD2448
:10E7500024C0C5010197F1F70894E11CF11C011DCB
:10E76000111D21E2E2162EE4F20620E0020720E06D
:10E77000120718F031E0C32ED12CC801B70127ECE5
:10E780003BE140E050E00F9441FE611571058105C9
:10E79000910519F485B1805885B98091C00087FD35
:10E7A00003C0C114D104A9F2A6014F5F5F4FC25E3E
:10E7B000DE4F59834883CE51D140C25EDE4F8881FF
:10E7C0009981CE51D140019711F00D9410FEC05D9A
:10E7D000DE4F19821882C053D14060E0C15DDE4F28
:10E7E0001882CF52D14088249924C35DDE4F19820C
:10E7F0001882CD52D140C05EDE4F188219821A8233
:10E800001B82C052D140CE5CDE4F188219821A8220
:10E810001B82C253D140EE24FF2487010BBFF701B6
:10E8200007911691C45CDE4F19830883CC53D14005
:10E830000D940BFEC25EDE4F28813981CE51D1404E
:10E840002130310509F52091C600C25EDE4F1982E4
:10E850001882CE51D14022C02F5F3F4F4F4F5F4FA4
:10E86000213082E138078AE7480780E0580780F0C6
:10E87000C45CDE4FE881F981CC53D140EF5FFF4F9C
:10E8800019F0EE27FF27099420E030E040E050E047
:10E890008091C00087FFE0CF2091C600C35DDE4FAE
:10E8A00048815981CD52D1404F5F5F4FC35DDE4FEC
:10E8B00059834883CD52D140213209F063C64A3092
:10E8C000510508F05FC60894811C911C53E0851621
:10E8D000910409F059C600E010E018C081E280936D
:10E8E000C6008091C00086FFFCCF8091C00080648C
:10E8F0008093C0002F5F3F4F2931310579F70F9486
:10E90000DCF10F5F1F4F0530110519F020E030E0FA
:10E91000E5CF10920A0210920B0210920C02109294
:10E920000D02109206021092070210920802109235
:10E930000902109202021092030210920402109235
:10E9400005028FEE90EE60E00F94F5F180E191EE1C
:10E9500060E00F94C2F18091C00087FFFCCF9091DE
:10E96000C600903608F09F759032B8F09093C600BC
:10E970008091C00086FFFCCF8091C00080648093AE
:10E98000C000A0E2A093C6008091C00086FFFCCF2B
:10E990008091C00080648093C000983409F4D7C18E
:10E9A0009934B8F4923409F459C1933458F490333B
:10E9B00019F1903308F4E3C59F33A1F1903409F0C5
:10E9C000DEC5BDC0953409F470C1963409F0D7C5D1
:10E9D00098C1923509F42BC2933538F49C3409F46C
:10E9E000F5C1913509F0CBC518C2963509F445C279
:10E9F000993509F0C4C567C483E792EE62E00F94CD
:10EA0000F5F110920602109207021092080210927D
:10EA1000090210920A0210920B0210920C0210923C
:10EA20000D0213C18FE792EE62E00F94F5F18FEEC5
:10EA300090EE60E00F94F5F181E291EE60E00F94CA
:10EA4000C2F187EB91EE60E00F94F5F180E391EE77
:10EA500060E00F94C2F184EE90EE60E00F94F5F167
:10EA60008FE391EE60E00F94C2F186E090E061E008
:10EA700070E00F9434F20F94DCF18DE591EE60E0DC
:10EA80000F94C2F189EC91EE60E00F94F5F18EE401
:10EA900091EE60E00F94C2F183EC91EE60E00F9490
:10EAA000F5F18CE691EE60E00F94C2F18EE10F94E7
:10EAB0000DF288E90F940DF281E00F940DF20F949E
:10EAC000DCF18BE791EE60E00F94C2F119E0E0E039
:10EAD000F0E010935700E4918E2F0F940DF20F94F5
:10EAE000DCF18AE891EE60E00F94C2F1E3E0F0E03F
:10EAF00010935700E4918E2F0F940DF20F94DCF1D8
:10EB000089E991EE60E00F94C2F1E2E0F0E0109349
:10EB10005700E4918E2F0F940DF20F94DCF188EAE8
:10EB200091EE60E00F94C2F1E1E0F0E01093570045
:10EB30001491812F0F940DF20F94DCF107CF8BE825
:10EB400092EE62E00F94F5F18BE492EE60E00F94A8
:10EB5000F5F10F94DCF100E010E019C0C8016F2D51
:10EB60000F947FFEFF2031F489E492EE60E00F9471
:10EB7000C2F10BC0F092C6008091C00086FFFCCFAE
:10EB80008091C00080648093C0000F5F1F4FC80158
:10EB900081519F41A0E0B0E0ABBFFC01F790BAE229
:10EBA000FB1621F0E2E000301E07C1F60F94DCF105
:10EBB0000F94DCF187E592EE60E00F94F5F10F948D
:10EBC000DCF1CC24DD2400E010E01EC0C8010F946D
:10EBD00077FEF82E882331F489E492EE60E00F94FA
:10EBE000C2F10BC08093C6008091C00086FFFCCFAD
:10EBF0008091C00080648093C000FE1419F00894D6
:10EC0000C11CD11C0F5F1F4FC80181519F41A0E063
:10EC1000B0E0ABBFFC01E790FAE2EF1621F022E092
:10EC20000030120799F60F94DCF10F94DCF182E6C4
:10EC300092EE60E00F94C2F1C60161E070E00F94C3
:10EC400034F20F94DCF10F94DCF110920202109276
:10EC50000302109204021092050278CE89E992EE26
:10EC600062E00F94F5F1279A2F9A16C02F9880E052
:10EC700090E0E0EDF7E03197F1F7019684369105E9
:10EC8000C1F72F9A80E090E0E0EDF7E03197F1F7DF
:10EC9000019684369105C1F78091C00087FFE6CFC9
:10ECA0008091C00087FFFCCF64C485EA92EE62E0E9
:10ECB0000F94F5F140910202509103026091040219
:10ECC0007091050281E020E10F9491F2809102029F
:10ECD00090910302A0910402B091050280509F4FD1
:10ECE000AF4FBF4F8093020290930302A0930402A0
:10ECF000B093050280509041A040B04008F426CE69
:10ED0000A4CF83EB92EE62E00F94F5F140910602FE
:10ED100050910702609108027091090280E020E1A1
:10ED20000F9491F28091060290910702A09108023F
:10ED3000B091090280509F4FAF4FBF4F80930602A2
:10ED400090930702A0930802B0930902FFCD80ECD4
:10ED500092EE62E00F94F5F183E792EE60E00F949B
:10ED6000F5F18FE792EE60E00F94F5F18BE892EE0B
:10ED700060E00F94F5F189E992EE60E00F94F5F10F
:10ED800085EA92EE60E00F94F5F183EB92EE60E09D
:10ED90000F94F5F180EC92EE60E00F94F5F187ECC2
:10EDA00092EE60E00F94F5F188ED92EE60E00F9442
:10EDB000F5F18FED92EE60E00F94F5F18AEE92EEB0
:10EDC00060E00F94F5F183E093EEBDCD87EC92EE19
:10EDD00062E00F94F5F181E40F947BF282E40F94EA
:10EDE0007BF283E40F947BF284E40F947BF285E45E
:10EDF0000F947BF286E40F947BF287E40F947BF20E
:10EE000088E40F947BF28AE40F947BF28BE40F94F6
:10EE10007BF28CE40F947BF299CD88ED92EE62E068
:10EE20000F94F5F1772473948824992409C48FED05
:10EE300092EE62E00F94F5F140910A0250910B02BC
:10EE400060910C0270910D0282E020E10F9491F22A
:10EE500080910A0290910B02A0910C02B0910D02D8
:10EE600080509F4FAF4FBF4F80930A0290930B0289
:10EE7000A0930C02B0930D0269CD8AEE92EE62E08F
:10EE80000F94F5F184EE90EE60E00F94F5F18FECC5
:10EE900091EE60E00F94F5F1662477244301CC5D98
:10EEA000DE4F19821882C452D140D401C301B695F5
:10EEB000A79597958795CA5DDE4F88839983AA8326
:10EEC000BB83C652D140CC5DDE4FA881B981C4520C
:10EED000D1401196CC5DDE4FB983A883C452D14096
:10EEE000CD0162E070E00F9434F2B0E2B093C6005E
:10EEF0008091C00086FFFCCF8091C0008064809329
:10EF0000C000EDE2E093C6008091C00086FFFCCF18
:10EF10008091C00080648093C000F0E2F093C6004E
:10EF20008091C00086FFFCCF8091C00080648093F8
:10EF3000C000CA5DDE4FE880F9800A811B81C6529D
:10EF4000D140BB27A12F902F8F2D0F940DF2CA5DBA
:10EF5000DE4F8881C652D1400F940DF2B0E2FB2EF5
:10EF6000F092C6008091C00086FFFCCF8091C00067
:10EF700080648093C0000DE30093C6008091C000C0
:10EF800086FFFCCF8091C00080648093C00010E2B7
:10EF90001093C6008091C00086FFFCCF8091C00016
:10EFA00080648093C0008BBEF3012791C65DDE4F65
:10EFB0002883CA52D140A22EBB24CC24DD2408943D
:10EFC000611C711C811C911C8BBEF3018791282E42
:10EFD0003324442455240894611C711C811C911C09
:10EFE0008BBEF3013791C55DDE4F3883CB52D140E4
:10EFF0000894611C711C811C911C8BBEF30147910C
:10F00000C45DDE4F4883CC52D140ADEFEA2EAFEF66
:10F01000FA2EAFEF0A2FAFEF1A2F6E0C7F1C801E57
:10F02000911E142D032DF22CEE24EA0CFB1C0C1D5A
:10F030001D1D0F940DF220E22093C6008091C000A8
:10F0400086FFFCCF8091C00080648093C000C65DC5
:10F05000DE4F8881CA52D1400F940DF230E23093D6
:10F06000C6008091C00086FFFCCF8091C000806404
:10F070008093C000C45DDE4F8881CC52D1400F9494
:10F080000DF240E24093C6008091C00086FFFCCFA5
:10F090008091C00080648093C000C55DDE4F888190
:10F0A000CB52D1400F940DF250E25093C6008091A4
:10F0B000C00086FFFCCF8091C00080648093C000B8
:10F0C0008FEFE8168FEFF80680E0080780E018075A
:10F0D00031F484E092EE60E00F94C2F1DFC0D80119
:10F0E000C7018070907CA070B0708050904CA040A0
:10F0F000B040D1F52FEF3FE340E050E0E222F322B1
:10F1000004231523CA5DDE4FA880B980CA80DB8046
:10F11000C652D140AE0CBF1CC01ED11EAA0CBB1CD7
:10F12000CC1CDD1C8EE092EE60E00F94C2F1BB2798
:10F13000A12F902F8F2D0F940DF28E2D0F940DF285
:10F1400030E23093C6008091C00086FFFCCF8091F2
:10F15000C00080648093C0004EE34093C60080915D
:10F16000C00086FFFCCF87C08EE09EEFA0E0B0E03D
:10F17000E822F9220A231B239CE0E91694E9F90608
:10F1800090E0090790E0190709F088C0C45DDE4FE0
:10F19000A881CC52D140EA2EFF2400E010E0102FCD
:10F1A0000F2DFE2CEE24C55DDE4FB881CB52D14031
:10F1B000EB0EF11C011D111DD601C501817090706F
:10F1C000A070B070DC0199278827E80EF91E0A1F8D
:10F1D0001B1F20EF30E040E050E0A222B322C42207
:10F1E000D52241E1AA0CBB1CCC1CDD1C4A95D1F7F1
:10F1F000EA0CFB1C0C1D1D1D81E090E0A0E0B0E0BE
:10F20000282239224A225B2235E1220C331C441C7D
:10F21000551C3A95D1F7E20CF31C041D151D57013E
:10F220006801AA0CBB1CCC1CDD1C85E192EE60E0E1
:10F230000F94C2F1C801AA27BB270F940DF2BB2778
:10F24000A12F902F8F2D0F940DF28E2D0F940DF274
:10F2500090E29093C6008091C00086FFFCCF809121
:10F26000C00080648093C000AEE3A093C60080918C
:10F27000C00086FFFCCF8091C00080648093C000F6
:10F28000C601AA27BB270F940DF2BB27AD2D9C2DDD
:10F290008B2D0F940DF28A2D0F940DF20F94DCF14B
:10F2A000CC5DDE4FE881F981C452D140F99709F471
:10F2B0004DCBF4E0EF2EF12C012D112D6E0C7F1CA7
:10F2C000801E911EF2CD83E093EE62E00F94F5F183
:10F2D0008AE192EE60E00F94C2F18091C00087FF56
:10F2E000FCCF1091C6001F751093C6008091C0001E
:10F2F00086FFFCCF8091C00080648093C0000F9493
:10F30000DCF1812F81548A3108F036C1163409F4BA
:10F3100095C0173490F4133409F44EC0143430F40B
:10F320001134F1F0123409F01DC130C0143409F465
:10F3300059C0153409F016C16BC01A3409F4C4C0A1
:10F340001B3438F4173409F48FC0183409F00AC19B
:10F35000A1C01B3409F4D2C01C3409F003C1E8C0B9
:10F360008FEF81B90DC082B1809582B980E090E0C5
:10F37000E0EDF7E03197F1F70196883C9105C1F790
:10F380008091C00087FFEFCF12B8EFC08FEF84B934
:10F390000DC085B1809585B980E090E0E0EDF7E0A3
:10F3A0003197F1F70196883C9105C1F78091C00033
:10F3B00087FFEFCF15B8D9C08FEF87B90DC088B1DF
:10F3C000809588B980E090E0E0EDF7E03197F1F7C3
:10F3D0000196883C9105C1F78091C00087FFEFCF6F
:10F3E00018B8C3C08FEF8AB90DC08BB180958BB9A7
:10F3F00080E090E0E0EDF7E03197F1F70196883C8E
:10F400009105C1F78091C00087FFEFCF1BB8ADC059
:10F410008FEF8DB90DC08EB180958EB980E090E0F0
:10F42000E0EDF7E03197F1F70196883C9105C1F7DF
:10F430008091C00087FFEFCF1EB897C08FEF80BBD1
:10F440000DC081B3809581BB80E090E0E0EDF7E0F6
:10F450003197F1F70196883C9105C1F78091C00082
:10F4600087FFEFCF11BA81C08FEF83BB0DC084B38C
:10F47000809584BB80E090E0E0EDF7E03197F1F714
:10F480000196883C9105C1F78091C00087FFEFCFBE
:10F4900014BA6BC08FEF809301010FC080910201FD
:10F4A00080958093020180E090E0E0EDF7E03197F5
:10F4B000F1F70196883C9105C1F78091C00087FF64
:10F4C000EDCF1092020151C08FEF809304010FC065
:10F4D0008091050180958093050180E090E0E0ED4A
:10F4E000F7E03197F1F70196883C9105C1F78091DB
:10F4F000C00087FFEDCF1092050137C08FEF8093DA
:10F5000007010FC08091080180958093080180E079
:10F5100090E0E0EDF7E03197F1F70196883C910536
:10F52000C1F78091C00087FFEDCF109208011DC088
:10F530008FEF80930A010FC080910B01809580931B
:10F540000B0180E090E0E0EDF7E03197F1F70196F4
:10F55000883C9105C1F78091C00087FFEDCF1092E4
:10F560000B0103C085E292EEEEC98091C00087FFD7
:10F57000FCCF8091C600EAC988E392EEE4C98CE131
:10F5800091EEE1C988249924933011F1943028F444
:10F59000913089F09230B8F408C0953061F195301F
:10F5A000F0F0963009F048C043C02B3109F042C951
:10F5B00091E06BE13FC96227C15DDE4F2883CF52E6
:10F5C000D14092E037C9B22FA0E0622793E032C960
:10F5D000822F90E0A82BB92B622794E02BC92E3004
:10F5E00009F039C3622795E0C05DDE4F19821882A9
:10F5F000C053D1401FC9E1E0F0E0EC0FFD1FC05D3A
:10F60000DE4F08811981C053D140E00FF11F2083E4
:10F610000F5F1F4FC05DDE4F19830883C053D14079
:10F6200062270A171B0709F005C9D80196E002C92D
:10F63000261709F010C303C0973009F0FBC87724E0
:10F640009981933109F412C19431C8F4963009F4C8
:10F65000D8C0973050F4923009F406C1933009F4C1
:10F660006DC0913009F059C253C0913109F477C08F
:10F67000923108F0BBC0903109F04FC2F5C098310B
:10F6800009F487C0993150F4953109F4EFC09531F0
:10F6900008F4C6C1963109F040C2C2C19A3109F4DA
:10F6A0006CC09A3108F491C09B3109F45BC09D3164
:10F6B00009F033C29D81903359F48F81882311F46E
:10F6C0009EE11CC0813011F091E018C098E916C08D
:10F6D000892F807591F0903539F4E0E0F0E089E011
:10F6E0008093570094910AC0983539F4E3E0F0E034
:10F6F00089E080935700949101C090E01A821B82A8
:10F700008D818C831D829E831F8227E030E009C299
:10F710001A8288E08B8381E48C8386E58D8382E581
:10F720008E8389E48F8383E5888780E589878FE5E9
:10F730008A8782E38B872BE030E0F3C18A818139AD
:10F7400041F0823941F0803911F48FE005C080E04A
:10F7500003C082E001C08AE01A828B8344C0772410
:10F76000739482C08D81882311F48EE12CC0813086
:10F7700011F081E028C088E926C01A82E1E0F0E0BB
:10F7800089E08093570084918B831C8224E030E0D1
:10F79000C8C18B81803589F48C81883039F4E2E0EE
:10F7A000F0E089E08093570084910DC0E0E0F0E044
:10F7B00089E080935700849106C0E3E0F0E089E09F
:10F7C0008093570084911A82DFCF8D81836C99E0FA
:10F7D000E1E0F0E0082E90935700E89507B600FCB2
:10F7E000FDCF1A821B8223E030E09BC180EC8A832C
:10F7F000CE5CDE4F188219821A821B82C253D1401E
:10F800008EC18A8190E0A0E0B0E0582F44273327D2
:10F8100022278B8190E0A0E0B0E0DC0199278827C7
:10F82000282B392B4A2B5B2B8D8190E0A0E0B0E098
:10F83000282B392B4A2B5B2B8C8190E0A0E0B0E089
:10F84000BA2FA92F982F8827282B392B4A2B5B2BCF
:10F85000220F331F441F551FC05EDE4F288339839C
:10F860004A835B83C052D1401A8259C13A81C95C34
:10F87000DE4F3883C753D140CA5CDE4F1882C6536F
:10F88000D1408B81C82EDD24CA5CDE4F488159816E
:10F89000C653D140C42AD52A933109F082C0CE5C28
:10F8A000DE4F88819981AA81BB81C253D1408050AB
:10F8B000904CA340B04030F583E0CE5CDE4FE88052
:10F8C000F9800A811B81C253D140F70100935B008C
:10F8D00080935700E89507B600FCFDCFCE5CDE4F65
:10F8E000088119812A813B81C253D14000501F4FAA
:10F8F0002F4F3F4FCE5CDE4F088319832A833B8313
:10F90000C253D140C05EDE4F488159816A817B81FC
:10F91000C052D140DE011B9631E08C9111962C91A2
:10F9200011971296C75CDE4F2883C953D140C85C3B
:10F93000DE4F1882C853D14090E0C85CDE4FE881AA
:10F94000F981C853D1408E2B9F2B0C01FA01609393
:10F950005B0030935700E89511244E5F5F4F6F4F67
:10F960007F4F0EEFE02E0FEFF02ECE0CDF1CC114F8
:10F97000D10499F685E0C05EDE4F088119812A81A5
:10F980003B81C052D140F80120935B008093570027
:10F99000E89507B600FCFDCF81E180935700E8951C
:10F9A00035C0C05EDE4F88819981AA81BB81C0527B
:10F9B000D140B695A795979587957C018601ABE0D8
:10F9C000AA2EB12CAC0EBD1E0BC0D5016D915D01F0
:10F9D000C7010F947FFE0894E11CF11C01501040F8
:10F9E0000115110591F7A60160E070E0440F551F65
:10F9F000661F771FC05EDE4FE880F9800A811B8199
:10FA0000C052D1404E0D5F1D601F711F1A82C05E33
:10FA1000DE4F488359836A837B83C052D1407FC0C5
:10FA2000FA80C55CDE4FF882CB53D140C65CDE4F16
:10FA30001882CA53D1408B81C82EDD24C65CDE4FAC
:10FA400008811981CA53D140C02AD12A1A828981DA
:10FA5000BE016D5F7F4F843121F59601C05EDE4FA0
:10FA6000E880F9800A811B81C052D1400BBFF701A9
:10FA700087919691DB018C9311969C936E5F7F4FDB
:10FA8000D801C7010296A11DB11DC05EDE4F88835B
:10FA90009983AA83BB83C052D14022503040F1F6F3
:10FAA00036C0C05EDE4F288139814A815B81C052F9
:10FAB000D1400894C108D108760100E010E0089414
:10FAC000C11CD11C0894E11CF11C011D111DE20E8A
:10FAD000F31E041F151F21BDBB27A52F942F832FB5
:10FAE00082BD2F5F3F4F4F4F5F4FF89A80B5DB01CC
:10FAF0008D93BD012E153F054007510761F7C05E8C
:10FB0000DE4F288339834A835B83C052D1409601FC
:10FB10002D5F3F4FFB01108204C080EC8A8322E0FE
:10FB200030E08BE18093C6008091C00086FFFCCF5F
:10FB30008091C00080648093C000C15DDE4FF88179
:10FB4000CF52D140F093C6008091C00086FFFCCF19
:10FB50008091C00080648093C000432F3093C60022
:10FB60008091C00086FFFCCF8091C00080648093AC
:10FB7000C000922F2093C6008091C00086FFFCCF6A
:10FB80008091C00080648093C0008EE08093C600A6
:10FB90008091C00086FFFCCF8091C000806480937C
:10FBA000C00065E1C15DDE4FE880CF52D1406E25D7
:10FBB00069276427FE01319610C090819093C6009A
:10FBC0008091C00086FFFCCF31968091C000806498
:10FBD0008093C0006927215030402115310569F715
:10FBE0006093C6008091C00086FFFCCF8091C0006A
:10FBF00080648093C00085B1805885B9772081F4F6
:10FC0000C15DDE4F0881CF52D1400F5FC15DDE4F35
:10FC10000883CF52D14090E0A0E0B0E00D941AF4F8
:10FC200027982F9880E090E020ED37E0F901319798
:10FC3000F1F7019684369105C9F700008091C00064
:10FC40008D7F8093C00081E180935700E895EE2777
:10FC5000FF270994FFCF90E00D941AF497FB092E2B
:10FC600007260AD077FD04D02ED006D000201AF443
:10FC7000709561957F4F0895F6F7909581959F4F08
:10FC80000895A1E21A2EAA1BBB1BFD010DC0AA1FDD
:10FC9000BB1FEE1FFF1FA217B307E407F50720F0F5
:10FCA000A21BB30BE40BF50B661F771F881F991F70
:10FCB0001A9469F760957095809590959B01AC01B9
:10FCC000BD01CF010895AA1BBB1B51E107C0AA1FAC
:10FCD000BB1FA617B70710F0A61BB70B881F991FED
:10FCE0005A95A9F780959095BC01CD010895F99991
:10FCF000FECF92BD81BDF89A992780B50895262F31
:10FD0000F999FECF1FBA92BD81BD20BD0FB6F89400
:0EFD1000FA9AF99A0FBE01960895F894FFCF63
:040000033000E000E9
:00000001FF