:1000000027C1000055C1000053C1000051C10000CC
:100010004FC100004DC100004BC1000049C10000AC
:1000200047C1000045C1000043C1000041C10000BC
:100030003FC100003DC100003BC1000039C10000CC
:1000400037C1000035C1000033C1000031C10000DC
:100050002FC100002DC100002BC10000EDC4000025
:1000600027C1000030C2000086C2000021C100008C
:100070001FC100001DC100001BC1000019C100000C
:1000800017C1000015C1000013C1000011C100001C
:100090000FC100000DC100000BC1000009C100002C
:1000A00007C1000005C1000003C1000001C100003C
:1000B000FFC00000FDC00000FBC00000F9C0000050
:1000C000F7C00000F5C00000F3C00000F1C0000060
:1000D000EFC00000EDC00000C0C10000F3C0000090
:1000E000E7C000006C036F035E0362036803A603AE
:1000F000730377037D03810385038B038F039303CE
:10010000A60399039D03A10338043D0442044C0453
:100110005604CF046004680470047A0484048E04D6
:100120009D04A704CF04B104BB04C50400000A0B5E
:1001300002090C0D0E080703040100000000000076
:1001400000000000000000000000000000000000AF
:10015000000000000000000012111000000000006C
:10016000000000000000000000000000000000008F
:10017000000000002100240027002A002D0030008C
:10018000330001010000040107010A010000220000
:10019000250028002B002E00310034000201000051
:1001A000050108010B0100002000230026002900A2
:1001B0002C002F003200000100000301060109019C
:1001C00005050505070508080808020202020A0AD3
:1001D00008080404040401010101010101010303F1
:1001E000030303030303040707070C0C0C0C0C0C9C
:1001F0000C0C0202020206060606060606060B0B99
:100200000B0B0B0B0B0B01021020200808102040D9
:1002100010204080020102010804020101020408CA
:100220001020408080402010080402018004020158
:1002300080402010080402010804020101020408A1
:10024000102040800102040810204080BE0FB50F2E
:1002500011241FBECFEFD1E2DEBFCDBF00E00CBF47
:1002600024E0AEEDB2E001C01D92AE3BB207E1F773
:1002700012E0A0E0B2E0EAEEF7E200E00BBF02C05D
:1002800007900D92AE3DB107D9F711E0C7E2D1E07A
:1002900000E006C021970109802FFE010E94BE11D7
:1002A000C632D10780E00807A9F71BD70C94E413E6
:1002B000A7CE89E193E064D021E0892B09F420E006
:1002C000822F08951F920F920FB60F9211240BB632
:1002D0000F922F933F934F935F936F937F938F93DF
:1002E0009F93AF93BF93EF93FF9389E193E021D165
:1002F000FF91EF91BF91AF919F918F917F916F91FE
:100300005F914F913F912F910F900BBE0F900FBEB9
:100310000F901F901895089580E090E00895FC01DB
:10032000538D448D252F30E0842F90E0821B930B5A
:10033000541710F0CF96089501970895FC01918D00
:10034000828D981761F0828DDF01A80FB11D5D9637
:100350008C91928D9F5F9F73928F90E008958FEFA5
:100360009FEF0895FC01918D828D981731F0828D59
:10037000E80FF11D858D90E008958FEF9FEF0895B0
:10038000FC01918D228D892F90E0805C9F4F821B14
:1003900091098F73992708958CEF93E0F1DF21E0A5
:1003A000892B09F420E0822F089580E090E0892BCA
:1003B00019F0F2DF811120C080E090E0892B41F03C
:1003C00080E090E0892B21F00E940000811117C08D
:1003D00080E090E0892B41F080E090E0892B21F0D3
:1003E0000E94000081110EC080E090E0892B79F01E
:1003F00060DF81110AC008950E940000DDCF0E94D5
:100400000000E6CF0E940000EFCF0C94000008959A
:100410003FB7F8948091090390910A03A0910B03D0
:10042000B0910C0326B5A89B05C02F3F19F001968B
:10043000A11DB11D3FBFBA2FA92F982F8827820F6A
:10044000911DA11DB11DBC01CD0142E0660F771FBA
:10045000881F991F4A95D1F708951F920F920FB6E2
:100460000F9211240BB60F922F938F939F93EF93BC
:10047000FF93E0912903F0912A038081E0912F03FB
:10048000F091300382FD12C09081809132038F5F22
:100490008F7320913303821751F0E0913203F0E023
:1004A000E75EFC4F958F8093320301C08081FF91FE
:1004B000EF919F918F912F910F900BBE0F900FBED8
:1004C0000F901F9018951F920F920FB60F92112444
:1004D0000BB60F922F938F939F93EF93FF93E0911F
:1004E0000C04F0910D048081E0911204F09113044A
:1004F00082FD12C09081809115048F5F8F732091CF
:100500001604821751F0E0911504F0E0E450FC4F1E
:10051000958F8093150401C08081FF91EF919F9189
:100520008F912F910F900BBE0F900FBE0F901F90C9
:100530001895FC01848DDF01A80FB11DA35ABF4F90
:100540002C91848D90E001968F739927848FA689D2
:10055000B7892C93A089B1898C91837080648C9326
:10056000938D848D981306C00288F389E02D8081D5
:100570008F7D808308951F920F920FB60F921124E2
:100580000BB60F922F933F934F935F936F937F938D
:100590008F939F93AF93BF93EF93FF938CEF93E071
:1005A000C8DFFF91EF91BF91AF919F918F917F91A4
:1005B0006F915F914F913F912F910F900BBE0F90D4
:1005C0000FBE0F901F901895EF92FF920F931F93FD
:1005D000CF93DF93EC0181E0888F9B8D8C8D9813F6
:1005E00005C0E889F989808185FD25C0F62E0B8D2F
:1005F00010E00F5F1F4F0F731127E02E8C8DE81254
:100600000BC00FB607FCFACFE889F989808185FF16
:10061000F5CFCE018EDFF2CF8B8DFE01E80FF11DFD
:10062000E35AFF4FF0829FB7F8940B8FEA89FB895A
:10063000808180620AC09FB7F894EE89FF89608349
:10064000E889F98980818370806480839FBF81E01D
:1006500090E0DF91CF911F910F91FF90EF9008955F
:10066000CF93DF93EC01888D8823C1F0EA89FB8961
:10067000808185FD05C0A889B9898C9186FD0EC051
:100680000FB607FCF5CF808185FFF2CFA889B98925
:100690008C9185FFEDCFCE014CDFE8CFDF91CF917C
:1006A000089590E0FC013197E231F10508F04EC069
:1006B0008827EE58FF4F8F4F0C94BE118091800019
:1006C0008F7703C0809180008F7D80938000089594
:1006D00080918000877FF9CF84B58F7702C084B581
:1006E0008F7D84BD08958091B0008F7703C0809185
:1006F000B0008F7D8093B0000895809190008F7737
:1007000007C0809190008F7D03C080919000877F0B
:100710008093900008958091A0008F7707C080910A
:10072000A0008F7D03C08091A000877F8093A000F0
:100730000895809120018F7707C0809120018F7DDF
:1007400003C080912001877F8093200108951F932B
:10075000CF93DF93282F30E0F901E45DFE4F8491C1
:10076000F901EA5FFD4FD491F901E054FE4FC491C5
:10077000CC23B9F0162F811194DFEC2FF0E0EE0FAF
:10078000FF1FE457FE4FA591B4919FB7F894111144
:1007900004C08C91D095D82302C0EC91DE2BDC9361
:1007A0009FBFDF91CF911F910895CF93DF9390E08A
:1007B000FC01EA5FFD4F2491FC01E054FE4F84915F
:1007C000882361F190E0880F991FFC01EE58FE4FDD
:1007D000C591D491FC01E457FE4FA591B4916111EC
:1007E00009C09FB7F8948881209582238883EC9173
:1007F0002E230BC0623061F49FB7F8948881322FAA
:10080000309583238883EC912E2B2C939FBF06C0B9
:100810008FB7F894E8812E2B28838FBFDF91CF917B
:1008200008951F93CF93DF93182FEB0161E0BDDF95
:10083000209711F460E004C0CF3FD10531F461E0AE
:10084000812FDF91CF911F9182CFE12FF0E0E45D06
:10085000FE4FE4918E2F90E0FC013197E231F105DB
:1008600008F09DC08827EC57FF4F8F4F0C94BE11A6
:1008700084B5806884BDC7BD97C084B5806284BDDF
:10088000C8BD92C080918000806880938000D09322
:100890008900C093880088C0809180008062809326
:1008A0008000D0938B00C0938A007EC0809180002E
:1008B000886080938000D0938D00C0938C0074C0BA
:1008C0008091B00080688093B000C093B3006CC08A
:1008D0008091B00080628093B000C093B40064C087
:1008E00080919000806880939000D0939900C0938D
:1008F00098005AC080919000806280939000D093BD
:100900009B00C0939A0050C08091900088608093B3
:100910009000D0939D00C0939C0046C08091A000A1
:1009200080688093A0008091A0008F7B8093A000BE
:10093000D093A900C093A80037C08091A000806226
:100940008093A000D093AB00C093AA002DC08091EB
:10095000A00088608093A000D093AD00C093AC004D
:1009600023C080912001806880932001D0932901C9
:10097000C093280119C080912001806280932001DA
:10098000D0932B01C0932A010FC080912001886071
:1009900080932001D0932D01C0932C0105C0C03855
:1009A000D1050CF04CCF46CFDF91CF911F91089528
:1009B0008F929F92AF92BF92CF92DF92EF92FF926F
:1009C0006B017C0125DD4B015C01C114D104E10404
:1009D000F104E9F01DDDDC01CB0188199909AA09B0
:1009E000BB09883E9340A105B10578F321E0C21A06
:1009F000D108E108F10888EE880E83E0981EA11C5A
:100A0000B11CC114D104E104F10421F7DECFFF9041
:100A1000EF90DF90CF90BF90AF909F908F90089510
:100A20002FB7F89460910503709106038091070336
:100A3000909108032FBF08951F920F920FB60F9247
:100A400011242F933F938F939F93AF93BF938091E4
:100A5000050390910603A0910703B091080330911C
:100A6000040323E0230F2D3720F40196A11DB11DAF
:100A700005C026E8230F0296A11DB11D2093040393
:100A80008093050390930603A0930703B093080394
:100A90008091090390910A03A0910B03B0910C037C
:100AA0000196A11DB11D8093090390930A03A093A1
:100AB0000B03B0930C03BF91AF919F918F913F9126
:100AC0002F910F900FBE0F901F9018951F93CF93EB
:100AD000DF93CDB7DEB72C970FB6F894DEBF0FBE0D
:100AE000CDBF89E193E04CDC892B21F089E193E0D3
:100AF00025DCF7CF67ED72E0CE01079699D24B85E2
:100B00005C856F81788589E193E03ED069E372E08E
:100B100089E193E0F8D089E193E032DC02972CF18F
:100B20006BE372E0CE01019683D289E193E006DCAB
:100B3000682FCE0101961DD289E193E0FFDB682F7B
:100B4000CE01019616D28D819E81892B49F06AEDE6
:100B500072E089819A810E94D41311E0892B09F0F7
:100B600010E0CE0101965FD201C010E0CE010796E1
:100B70005AD2812F2C960FB6F894DEBF0FBECDBF90
:100B8000DF91CF911F910895CF92DF92EF92FF9264
:100B90000F931F93CF93DF936C017A018B01C0E019
:100BA000D0E0CE15DF0581F0D8016D918D01D60121
:100BB000ED91FC910190F081E02DC6011995892BF2
:100BC00011F02196EECF7E01C701DF91CF911F91E9
:100BD0000F91FF90EF90DF90CF9008950E94C71380
:100BE0000F931F93CF93DF93EC0188819981009736
:100BF00029F02A813B812617370788F48B016F5F24
:100C00007F4F0E94E712009761F0998388831B83CE
:100C10000A832C813D81232B11F4FC01108281E099
:100C200001C080E0DF91CF911F910F910895FC01E9
:100C3000A089B18982E08C93A485B5851C92A68594
:100C4000B78580E18C93108EA489B58986E08C935A
:100C5000A289B3898C9180618C93A289B3898C918C
:100C600088608C93A289B3898C9180688C93028868
:100C7000F389E02D80818F7D808308950F931F93EA
:100C8000CF93DF93C82FD62F80910F03861317C001
:100C9000CC2319F010E001E002C011E000E0609107
:100CA0000D03062E000C770B80911703BADD602F21
:100CB000809113034CDD612F8091140348DD8091F6
:100CC0001203D8131BC0CC2319F0C0E0D1E002C03E
:100CD000C1E0D0E060911003062E000C770B8091EC
:100CE00018039FDD6D2F8091150331DD6C2F8091EE
:100CF0001603DF91CF911F910F9129CDDF91CF91F5
:100D00001F910F9108956115710549F0FB01019044
:100D10000020E9F73197AF01461B570B35CF80E034
:100D200090E00895CF93DF93BC018CEF93E0EBDF6D
:100D3000EC0169E372E08CEF93E0E5DF8C0F9D1F1F
:100D4000DF91CF9108958F929F92AF92BF920F93B0
:100D50001F93CF93DF93CDB7DEB7A1970FB6F8946B
:100D6000DEBF0FBECDBF19A2423008F44AE08E01AB
:100D70000F5D1F4F842E912CA12CB12CA501940145
:100D80000E943011E62FB901CA0101501109EA3061
:100D900014F4E05D01C0E95CD801EC93232B242B13
:100DA000252B61F7B8018CEF93E0ADDFA1960FB66C
:100DB000F894DEBF0FBECDBFDF91CF911F910F9191
:100DC000BF90AF909F908F900895CF92DF92EF9257
:100DD000FF92CF93DF936C01990FEE08FF08F7FEA7
:100DE00011C06DE28CEF93E0EFDBEC016627772713
:100DF000CB016C197D098E099F094AE0A4DFC80F59
:100E0000D91F05C04AE0C701B6019DDFEC0169E3C7
:100E100072E08CEF93E077DF8C0F9D1FDF91CF9115
:100E2000FF90EF90DF90CF900895BC018CEF93E09E
:100E30006ACF0F931F93CF93DF93182FEB0160E0DE
:100E400086DC83E090E00197F1F761E0812F7FDCA1
:100E500083E290E00197F1F760E0812F78DCCE012A
:100E60009927FC01EA5FFD4F6491FC01E054FE4FBD
:100E7000E491F0E0EE0FFF1FEA55FE4F859194914B
:100E800000E412E42FE030E0462FE6D06115710552
:100E90008105910549F0DC01CB010196A11DB11D31
:100EA000BC01CD019F7003C060E070E0CB010E94E7
:100EB000761020E030E048E652E40E945211DF91C3
:100EC000CF911F910F9108958F929F92AF92BF92F1
:100ED000CF92DF92EF92FF926B017C01A1DD4B017B
:100EE0005C01C60ED71EE81EF91E9ADD681579054D
:100EF0008A059B0528F0C616D706E806F906A8F766
:100F0000FF90EF90DF90CF90BF90AF909F908F9029
:100F10000895CF93DF93DC01ED91FC91EB01A88163
:100F2000B981309711F01097C9F4109759F0EB017F
:100F30002C813D81232B31F08C9190E0919581950E
:100F4000910914C0309781F0DC0114968D919C9129
:100F50001597892B49F0808190E008C0BD01CF0131
:100F6000DF91CF910C94D41380E090E0DF91CF918A
:100F70000895EF92FF920F931F93CF93DF931F92E9
:100F80001F92CDB7DEB78C0169831A82FC01E48021
:100F9000F580FFEFEF1AFF0AB70122DE882381F008
:100FA000F8012081318184819581BE016F5F7F4F7F
:100FB000820F931F0E94DD13F801F582E48281E025
:100FC0000F900F90DF91CF911F910F91FF90EF90B5
:100FD0000895EF92FF920F931F93CF93DF93EC014D
:100FE0007B018A01BA01FCDD2881398181110DC0A4
:100FF0002115310519F0C9010E945E12198218826B
:101000001D821C821B821A8206C01D830C83B701BD
:10101000C9010E94DD13CE01DF91CF911F910F9185
:10102000FF90EF900895FC01808191810C945E12F5
:10103000FC011182108213821282158214826115C2
:10104000710549F0FB0101900020E9F73197AF01EC
:10105000461B570BBECF0895CF92DF92EF92FF92BF
:101060000F931F93E82FF92F05C001501109210993
:10107000310961F1908196239417B9F305C00150AD
:1010800011092109310911F1908196239413F7CFA9
:10109000C12CD12CE12CF12C0AC08FEFC81AD80A30
:1010A000E80AF80A0C151D052E053F0579F0808128
:1010B0008623841791F36C2D7D2D8E2D9F2D1F91EE
:1010C0000F91FF90EF90DF90CF90089560E070E077
:1010D00080E090E01F910F91FF90EF90DF90CF9014
:1010E0000895CF93DF93CDB7DEB7ED970FB6F894A1
:1010F000DEBF0FBECDBF789484B5826084BD84B559
:10110000816084BD85B5826085BD85B5816085BD02
:1011100080916E00816080936E00109281008091BA
:101120008100826080938100809181008160809342
:101130008100809180008160809380008091B10067
:1011400084608093B1008091B00081608093B00092
:1011500080919100826080939100809191008160E4
:1011600080939100809190008160809390008091A5
:10117000A10082608093A1008091A1008160809392
:10118000A1008091A00081608093A0008091210146
:1011900082608093210180912101816080932101EF
:1011A0008091200181608093200180917A00846089
:1011B00080937A0080917A00826080937A00809197
:1011C0007A00816080937A0080917A0080688093B1
:1011D0007A001092C1001092F8031092F903109255
:1011E000FA031092FB031092B8031092B903109205
:1011F000BA031092BB0314DC6B017C014B015C0150
:1012000028EB820E2BE0921EA11CB11C09DC6C1590
:101210007D058E059F0528F086169706A806B90657
:10122000A8F760ED77E080E090E0C2DB8CEF93E020
:10123000FEDC88E192E0F9DD6AE070E080E090E0B9
:1012400043DE11E01093CC038AE292E0EEDD81E30D
:1012500092E0EBDD81E392E0E8DD81E392E0E5DD21
:1012600081E392E0E2DD83E392E0DFDD6AE070E0BB
:1012700080E090E029DE8CEF93E0D9DC89E193E017
:10128000D6DC4AE050E06CE372E085EA94E0A1DE4F
:1012900049E050E067E472E08FE994E09ADE109252
:1012A000EC0288E0809313038BE0809314038CE0BE
:1012B000809315038DE08093160389E080931703D4
:1012C0008AE08093180361E088E06FDA61E0809142
:1012D00014036BDA61E08091150367DA61E08091B5
:1012E000160363DA61E0809117035FDA61E08091B1
:1012F00018035BDA60E08091170329DA60E08091DF
:10130000180325DA10920F031093120310930E03A3
:10131000109211038CED80930D038093100381E5EF
:1013200092E000DD4EEDE42E42E0F42E00E010E00D
:10133000C8018ED7D7018D937D010F5F1F4F0E30EF
:101340001105B1F78091DE029091DF02A091E002D9
:10135000B091E1024697A105B10569F18FE592E0F0
:10136000E1DC86E190E0A0E0B0E08093DE029093C3
:10137000DF02A093E002B093E1028AE090E0909354
:10138000EB028093EA028EE190E09093E902809371
:10139000E80282E390E09093E7028093E60286E41D
:1013A00090E09093E5028093E40284E690E09093CD
:1013B000E3028093E2028DE692E0B4DC8091EA02DF
:1013C0009091EB029093EF028093EE028091E802FD
:1013D0009091E9029093F1028093F0028091E602ED
:1013E0009091E7029093F3028093F2028091E402DD
:1013F0009091E5029093F5028093F4028091E202CD
:101400009091E3029093F7028093F60203E08091BB
:10141000EC02833039F495E0F92E23E0E22E34E03B
:10142000D32E71C089E193E00E94C001892B09F499
:1014300048C089E193E00E949E01182F682F8CEF2D
:1014400093E0C2D81B3219F789E193E00E94C001F2
:10145000892BD1F389E193E00E949E01182F682F18
:101460008CEF93E0B1D8103591F689E193E00E94BA
:10147000C0010797D4F36BE372E0CE010196D8DD8B
:1014800060E5CE01019675DD17E089E193E00E94E9
:101490009E01682FCE0101966CDD1150B1F78D8150
:1014A0009E81892B51F06EE772E089819A810E94BA
:1014B000D413892B11F40093EC02CE010196B3DD15
:1014C000A6CF04DB882319F00093EC02A0CF68ECD0
:1014D00070E080E090E06CDAF9DA8111F5CF85E018
:1014E0008093EC027CC089E193E00E94C001892BCB
:1014F00009F469C089E193E00E949E01182F8B32A4
:1015000039F0133489F18091EC02853061F767C0BE
:1015100089E193E00E94C0010A97D4F36BE372E083
:10152000CE01019685DD0AE089E193E00E949E01EB
:10153000182F682FCE0101961CDD0150A9F72D81CF
:101540003E818091A9049091AA042817390741F49B
:1015500065EA74E0CE010196DCDC892B09F4E4C471
:10156000CE01019660DDCDCF89E193E00E94C001FC
:101570000897D4F36BE372E0CE01019659DD63E482
:10158000CE010196F6DC18E089E193E00E949E010D
:10159000682FCE010196EDDC1150B1F72D813E810F
:1015A0008091A3049091A4042817390741F46FE9AE
:1015B00074E0CE010196ADDC892B09F4B8C4CE01EC
:1015C000019631DDA0CF82DA882319F0E092EC0297
:1015D0009ACF7CDA8111FACFF092EC0294CF41E0FD
:1015E00050E067E872E089E994E0F3DC19DA0091F1
:1015F0000003109101032091020330910303DC01E9
:10160000CB01801B910BA20BB30B86399105A10571
:10161000B10508F488C004DA6093000370930103F5
:10162000809302039093030361E070E080E090E018
:101630004BDC8AE292E0F9DB81E392E0F6DB00E04A
:1016400010E0F12CE12C812C912C540173C40F5F1C
:101650001F4FB1E08B169104A104B10409F46AC4D0
:10166000F801E45DFE4F8491F801EA5FFD4FC490FC
:10167000F801E054FE4FD490DD2009F45BC48111E1
:1016800010D8ED2DF0E0EE0FFF1FEA55FE4FA591AB
:10169000B491EC91CE2209F44DC481E00E2C01C02E
:1016A000880F0A94EAF7F82AE394E8E0EE1609F4C2
:1016B00043C4F5E38F169104A104B10409F43CC4BA
:1016C000AFD92B013C019B01AC012F5F3F4F4F4F26
:1016D0005F4F2DA33EA34FA358A7A2D9641575054C
:1016E0008605970508F036C43FEF831A930AA30ACC
:1016F000B30A0533110509F0AACF61E070E080E07C
:1017000090E0E2DB81E392E090DB81E392E08DDB2D
:1017100081E392E08ADB83E392E087DB61E070E0C3
:1017200080E090E0D1DB7CD96093FC027093FD02F5
:101730008093FE029093FF020091F8021091F9024B
:101740002091FA023091FB02DC01CB01801B910B4E
:10175000A20BB30B843F9140A105B10508F4E1C38E
:1017600067E170E086E190E064DB6CAB7DAB8EAB53
:101770009FAB69E170E088E190E05BDB6EA77FA73B
:1017800088AB99AB6BE170E08AE190E052DB6DA32E
:1017900079A78AA79BA76DE170E08CE190E049DB17
:1017A0001B014C016FE170E08EE190E042DBF62E10
:1017B000072F182FA92E61E270E080E290E039DB5C
:1017C000B62EC72ED82EE92E8CA99DA9AEA9BFA9E9
:1017D00089839A83AB83BC838EA59FA5A8A9B9A949
:1017E0008D839E83AF83B8878DA199A5AAA5BBA53C
:1017F00089879A87AB87BC87C101D4018D879E8773
:10180000AF87B88B8F2D902FA12FBA2D898B9A8BF4
:10181000AB8BBC8B8B2D9C2DAD2DBE2D8D8B9E8BC4
:10182000AF8BB88FDE011196B9AFA8AFFE017996E4
:10183000FDA7ECA721E030E03BAB2AABA8ADB9ADEA
:101840004D905D906D907D90B9AFA8AF6091F6021C
:101850007091F702072E000C880B990B49D46AAFE0
:101860007BAF8CAF9DAF9B01AC01C301B20182D5B0
:10187000181634F421E030E0ECA5FDA53183208377
:101880002AAD3BAD4CAD5DADC301B2012BD41816F2
:10189000B4F06091F4027091F502072E000C880BF1
:1018A000990B26D49B01AC01C301B20163D5181674
:1018B00034F4E2E0F0E0ACA5BDA5ED93FC936091BB
:1018C000F4027091F502072E000C880B990B10D4CE
:1018D0009B01AC01C301B20105D41816B4F06091AC
:1018E000F2027091F302072E000C880B990B00D4C2
:1018F0009B01AC01C301B2013DD5181634F4E3E0FD
:10190000F0E0ACA5BDA5ED93FC936091F20270915F
:10191000F302072E000C880B990BEAD39B01AC0154
:10192000C301B201DFD31816B4F06091F0027091D8
:10193000F102072E000C880B990BDAD39B01AC0146
:10194000C301B20117D5181634F4E4E0F0E0ACA5F9
:10195000BDA5ED93FC936091F0027091F102072E0A
:10196000000C880B990BC4D39B01AC01C301B201DD
:10197000B9D31816B4F06091EE027091EF02072E01
:10198000000C880B990BB4D39B01AC01C301B201CD
:10199000F1D4181634F4E5E0F0E0ACA5BDA5ED9364
:1019A000FC936091EE027091EF02072E000C880B01
:1019B000990B9ED39B01AC01C301B20193D31816BE
:1019C00034F0E6E1F0E0ACA5BDA5ED93FC93ACA549
:1019D000BDA56D907D90BDA7ACA7B4E06B1671045A
:1019E0005CF08BE892E021DA8AA99BA9EED988E91C
:1019F00092E01BDAC301E9D9EAA9FBA93196FBAB56
:101A0000EAAB379709F01ACF2B2D3C2D4D2D5E2DCB
:101A10006F2D702F812F9A2D65D387FD05C0BB2DAB
:101A2000AC2DFD2DEE2D04C0BF2DA02FF12FEA2DE2
:101A30009101A4016B2F7A2F8F2F9E2F9BD4181604
:101A400084F02B2D3C2D4D2D5E2D6F2D702F812F71
:101A50009A2D48D387FD0AC0BB2DAC2DFD2DEE2D50
:101A600009C0B22DA32DF82DE92D04C0BF2DA02F44
:101A7000F12FEA2D2DA139A54AA55BA56B2F7A2F51
:101A80008F2F9E2F77D418166CF12B2D3C2D4D2DBA
:101A90005E2D6F2D702F812F9A2D24D387FD05C0C9
:101AA000BB2DAC2DFD2DEE2D04C0BF2DA02FF12F91
:101AB000EA2D9101A4016B2F7A2F8F2F9E2F5AD4DC
:101AC0001816ACF02B2D3C2D4D2D5E2D6F2D702F4B
:101AD000812F9A2D07D387FD0FC0BB2DAC2DFD2D77
:101AE000EE2D0EC0BDA1A9A5FAA5EBA509C0B22D8A
:101AF000A32DF82DE92D04C0BF2DA02FF12FEA2D25
:101B00002EA53FA548A959A96B2F7A2F8F2F9E2F5D
:101B100031D418160CF46EC02B2D3C2D4D2D5E2D9E
:101B20006F2D702F812F9A2DDDD287FD05C0BB2D23
:101B3000AC2DFD2DEE2D04C0BF2DA02FF12FEA2DD1
:101B40009101A4016B2F7A2F8F2F9E2F13D418167B
:101B500084F02B2D3C2D4D2D5E2D6F2D702F812F60
:101B60009A2DC0D287FD0AC0BB2DAC2DFD2DEE2DC8
:101B700009C0B22DA32DF82DE92D04C0BF2DA02F33
:101B8000F12FEA2D2DA139A54AA55BA56B2F7A2F40
:101B90008F2F9E2FEFD3181694F12B2D3C2D4D2D0A
:101BA0005E2D6F2D702F812F9A2D9CD287FD05C041
:101BB000BB2DAC2DFD2DEE2D04C0BF2DA02FF12F80
:101BC000EA2D9101A4016B2F7A2F8F2F9E2FD2D354
:101BD0001816D4F02B2D3C2D4D2D5E2D6F2D702F12
:101BE000812F9A2D7FD287FD14C0BB2DAC2DFD2DEA
:101BF000EE2D13C0BEA5AFA5F8A9E9A90EC0BDA1E1
:101C0000A9A5FAA5EBA509C0B22DA32DF82DE92DA4
:101C100004C0BF2DA02FF12FEA2D2CA93DA94EA95C
:101C20005FA96B2F7A2F8F2F9E2FA4D318164CF4F9
:101C300020E030E048E452E46CA97DA98EA99FA978
:101C400015C12B2D3C2D4D2D5E2D6F2D702F812F0D
:101C50009A2D48D287FD05C0BB2DAC2DFD2DEE2D54
:101C600004C0BF2DA02FF12FEA2D9101A4016B2FED
:101C70007A2F8F2F9E2F7ED3181684F02B2D3C2D7C
:101C80004D2D5E2D6F2D702F812F9A2D2BD287FD1C
:101C90000AC0BB2DAC2DFD2DEE2D09C0B22DA32DFC
:101CA000F82DE92D04C0BF2DA02FF12FEA2D2DA175
:101CB00039A54AA55BA56B2F7A2F8F2F9E2F5AD35C
:101CC00018166CF12B2D3C2D4D2D5E2D6F2D702F88
:101CD000812F9A2D07D287FD05C0BB2DAC2DFD2D80
:101CE000EE2D04C0BF2DA02FF12FEA2D9101A401EC
:101CF0006B2F7A2F8F2F9E2F3DD31816ACF02B2DE4
:101D00003C2D4D2D5E2D6F2D702F812F9A2DEAD1F8
:101D100087FD0FC0BB2DAC2DFD2DEE2D0EC0BDA13E
:101D2000A9A5FAA5EBA509C0B22DA32DF82DE92D83
:101D300004C0BF2DA02FF12FEA2D2EA53FA548A945
:101D400059A96B2F7A2F8F2F9E2F14D318164CF46E
:101D500020E030E048E452E46EA57FA588A999A967
:101D600085C02B2D3C2D4D2D5E2D6F2D702F812F7D
:101D70009A2DB8D187FD05C0BB2DAC2DFD2DEE2DC4
:101D800004C0BF2DA02FF12FEA2D9101A4016B2FCC
:101D90007A2F8F2F9E2FEED2181684F02B2D3C2DEC
:101DA0004D2D5E2D6F2D702F812F9A2D9BD187FD8C
:101DB00041C0BB2DAC2DFD2DEE2D04C0B22DA32DA9
:101DC000F82DE92D2DA139A54AA55BA56B2F7A2FFA
:101DD0008F2F9E2FCFD218164CF420E030E048E42D
:101DE00052E46DA179A58AA59BA540C02B2D3C2D61
:101DF0004D2D5E2D6F2D702F812F9A2D73D187FD64
:101E000024C02B2D3C2D4D2D5E2DB101C4016AD176
:101E100087FF07C020E030E048E452E4B101C4018C
:101E200025C020E030E048E452E46B2D7C2D8D2D60
:101E30009E2D1CC02DA139A54AA55BA56F2D702F25
:101E4000812F9A2D97D2181644F22F2D302F412F23
:101E50005A2DB101C40146D187FDDCCF20E030E02E
:101E600048E452E46F2D702F812F9A2D3BD187FFCC
:101E700048C088EA92E00E949206898D9A8D049764
:101E800044F48B8D9C8D049724F48D8D9E8D049746
:101E900064F088EA92E00E9492061092ED0261E0FE
:101EA00081E00E943E0660E017C08F8D98A10497E4
:101EB00044F489A19AA1049724F48BA19CA10497CE
:101EC0007CF08BEB92E00E9492061092ED0260E0B3
:101ED00081E00E943E0661E080E00E943E0611C063
:101EE0008091ED0281110DC081E08093ED0260E0F0
:101EF000809117030E94A70360E0809118030E945D
:101F0000A7038091FC029091FD02A091FE02B09186
:101F1000FF028093F8029093F902A093FA02B09323
:101F2000FB020E94D50162CBD092EC0219CBF09259
:101F3000EC0245CB80E0B2CB6F2D70E080E090E00A
:101F40004AE00E94A30689E892E00E941507E12C6E
:101F5000F12CB6CB2DA13EA14FA158A526173707CE
:101F60004807590708F0B9CBBFCB89E994E05BD8A3
:101F70008FE994E058D885EA94E055C8E9E1F3E0A8
:101F80001382128248EE53E060E070E04483558390
:101F9000668377838AE092E09183808325E331E052
:101FA0003587248724E331E03787268720E331E033
:101FB000318B208B21E331E0338B228B22E331E024
:101FC000358B248B26E331E0378B268B118E128ED6
:101FD000138E148EECEFF3E0138212824483558348
:101FE000668377839183808385EC90E095878487EF
:101FF00084EC90E09787868780EC90E0918B808BD3
:1020000081EC90E0938B828B82EC90E0958B848BBB
:1020100086EC90E0978B868B118E128E138E148E29
:10202000E6EBF3E01682178210861186128613867D
:102030001486158616861786108A118A128A138AC4
:10204000148A158A8CEF93E00E94170661E086E1FE
:102050000E94D50360E087E10E94D50361E088E13A
:102060000E94D50360E089E10E94D50361E08AE126
:102070000E94D50360E08BE10E94D50361E08CE112
:102080000E94D50360E08DE10E94D50361E08EE1FE
:102090000E94D50360E08FE10E94D50361E080E2F9
:1020A0000E94D50360E081E20E94D503ECEAF4E0EF
:1020B00086E386838BE0878386E0808781E085875F
:1020C0006BE372E085EA94E00E9418086BE372E02B
:1020D0008FE994E00E9418086BE372E089E994E0CC
:1020E0000C94180840D008F481E00895E89409C0E1
:1020F00097FB3EF490958095709561957F4F8F4F3B
:102100009F4F9923A9F0F92F96E9BB279395F69550
:10211000879577956795B795F111F8CFFAF4BB0FCE
:1021200011F460FF1BC06F5F7F4F8F4F9F4F16C032
:10213000882311F096E911C0772321F09EE8872FBC
:10214000762F05C0662371F096E8862F70E060E078
:102150002AF09A95660F771F881FDAF7880F9695F1
:10216000879597F90895990F0008550FAA0BE0E895
:10217000FEEF16161706E807F907C0F01216130649
:10218000E407F50798F0621B730B840B950B39F489
:102190000A2661F0232B242B252B21F408950A26EF
:1021A00009F4A140A6958FEF811D811D089597F92F
:1021B0009F6780E870E060E008959FEF80EC0895ED
:1021C00000240A9416161706180609060895002416
:1021D0000A9412161306140605060895092E039490
:1021E000000C11F4882352F0BB0F40F4BF2B11F404
:1021F00060FF04C06F5F7F4F8F4F9F4F089557FD63
:102200009058440F551F59F05F3F71F04795880F64
:1022100097FB991F61F09F3F79F0879508951216FB
:1022200013061406551FF2CF4695F1DF08C01616A7
:1022300017061806991FF1CF869571056105089458
:102240000895E894BB2766277727CB0197F908956F
:10225000F999FECF92BD81BDF89A992780B508956E
:10226000A1E21A2EAA1BBB1BFD010DC0AA1FBB1F9A
:10227000EE1FFF1FA217B307E407F50720F0A21B0C
:10228000B30BE40BF50B661F771F881F991F1A9479
:1022900069F760957095809590959B01AC01BD01A3
:1022A000CF0108950CD09ACF92DF40F089DF30F053
:1022B00021F45F3F19F07BCF5111C4CF7ECF9FDF58
:1022C00098F39923C9F35523B1F3951B550BBB27FD
:1022D000AA2762177307840738F09F5F5F4F220FAA
:1022E000331F441FAA1FA9F333D00E2E3AF0E0E8A3
:1022F00030D091505040E695001CCAF729D0FE2FEF
:1023000027D0660F771F881FBB1F26173707480780
:10231000AB07B0E809F0BB0B802DBF01FF27935836
:102320005F4F2AF09E3F510568F041CF8BCF5F3F52
:10233000ECF3983EDCF3869577956795B795F7951E
:102340009F5FC9F7880F911D9695879597F9089516
:10235000E1E0660F771F881FBB1F621773078407B2
:10236000BA0720F0621B730B840BBA0BEE1F88F7C1
:10237000E0950895F8DE08F48FEF0895EE0FFF1F43
:10238000881F8BBF0790F691E02D19940F931F9330
:10239000CF93DF938230910510F482E090E0E091DA
:1023A000BC04F091BD0420E030E0A0E0B0E0309744
:1023B00019F1408151810281138148175907C8F0F2
:1023C0008417950769F4109731F012960C931297C1
:1023D00013961C9327C00093BC041093BD0422C025
:1023E0002115310519F04217530718F49A01BD0160
:1023F000EF01DF01F801DBCF21153105F9F0281BD2
:10240000390B2430310580F48A819B816115710577
:1024100021F0FB019383828304C09093BD048093D9
:10242000BC04FE01329644C0FE01E20FF31F81930B
:10243000919322503109398328833AC02091BA04FC
:102440003091BB04232B41F420910202309103020E
:102450003093BB042093BA04209100023091010212
:102460002115310541F42DB73EB74091040250913A
:102470000502241B350BE091BA04F091BB04E2176E
:10248000F307A0F42E1B3F0B2817390778F0AC0197
:102490004E5F5F4F2417350748F04E0F5F1F509374
:1024A000BB044093BA048193919302C0E0E0F0E052
:1024B000CF01DF91CF911F910F910895CF93DF93BB
:1024C000009709F481C0FC01329713821282A09117
:1024D000BC04B091BD04109781F420813181820F3A
:1024E000931F2091BA043091BB042817390751F586
:1024F000F093BB04E093BA0467C0ED0120E030E044
:10250000CE17DF0740F44A815B819E0141155105DA
:10251000F1F0EA01F5CFD383C28340815181840F6A
:10252000951FC817D90759F488819981840F951F81
:102530000296918380838A819B8193838283211574
:10254000310529F4F093BD04E093BC043DC0E901DA
:10255000FB83EA8349915991C40FD51FEC17FD07FE
:1025600061F480819181840F951F0296E90199831E
:102570008883828193819B838A83E0E0F0E01296D6
:102580008D919C911397009719F0FD01DC01F7CF15
:102590008D919C9111979D012E5F3F4F820F931F4C
:1025A0002091BA043091BB042817390769F4309799
:1025B00029F41092BD041092BC0402C0138212824E
:1025C000B093BB04A093BA04DF91CF9108956F92AA
:1025D0007F928F929F92AF92BF92CF92DF92EF92B3
:1025E000FF920F931F93CF93DF93009781F4CB015A
:1025F000DF91CF911F910F91FF90EF90DF90CF90DF
:10260000BF90AF909F908F907F906F90BFCEFC0156
:10261000E60FF71F9C0122503109E217F30708F477
:10262000A5C0EC01D9010D911C9111970617170750
:10263000A8F00530110508F497C0C8010497861763
:10264000970708F491C002501109061B170B01935C
:1026500011936D937C93CF0131DF86C05B01A01A8B
:10266000B10A4C01800E911EA091BC04B091BD0432
:10267000612C712CE12CF12C109709F446C08D913E
:102680009C911197A815B905B1F56C0142E0C40EF3
:10269000D11CCA14DB0478F14C018A189B08640130
:1026A00042E0C40ED11C1296BC9012971396AC91C6
:1026B000B5E0CB16D10440F0B282A3839182808230
:1026C000D9016D937C9309C00E5F1F4F800F911F3E
:1026D000F90191838083EB2DFA2FE114F10431F09D
:1026E000D7011396FC93EE9312973EC0F093BD046E
:1026F000E093BC0439C06816790608F43C017D01FA
:1027000012960D90BC91A02DB7CF8091BA049091F4
:10271000BB0488169906E1F466167706C8F4809122
:10272000000290910102009741F48DB79EB740914D
:10273000040250910502841B950BE817F907B0F4C9
:10274000F093BB04E093BA04F901718360830CC079
:10275000CB011CDE7C01009749F0A801BE011BD013
:10276000CE01ACDEC70104C0CE0102C080E090E023
:10277000DF91CF911F910F91FF90EF90DF90CF905D
:10278000BF90AF909F908F907F906F90089581E061
:1027900090E0F89419C0FB01DC0102C001900D9299
:1027A00041505040D8F70895FB01DC018D91019014
:1027B00080190110D9F3990B0895FB01DC010190F8
:1027C0000D920020E1F7089511E0C7E2D1E000E0AA
:1027D00005C0802FFE01D2DD2196011DC832D10730
:0A27E00080E00807B1F7F894FFCF7E
:1027EA000000BE04800000000000E402C4058F015E
:1027FA003003C0019E01B201564D4450565F317CF0
:10280A00315F564D4450560D0A00564D4450525FA2
:10281A00007C005F564D4450520D0A00434F4E4E05
:10282A00454354494E4700434F4E4E454354454451
:10283A00006368617267657220706172616D00453C
:10284A007272657572207374727563740075706440
:10285A006174652074616220706172616D0050411B
:10286A00495241424C45004D003A0043617074653B
:10287A007572204EC2B02000416C65727465206C7E
:10288A006576656C203A2000456E7472C3A965208E
:10289A0064616E73202D3530636D00456E7472C3AA
:1028AA00A9652064616E73202D3530636D204172F5
:0E28BA007269C3A87265004154004F4B0000C4
:020000023000CC
:10E000000D9489F10D94B2F10D94B2F10D94B2F129
:10E010000D94B2F10D94B2F10D94B2F10D94B2F1F0
:10E020000D94B2F10D94B2F10D94B2F10D94B2F1E0
:10E030000D94B2F10D94B2F10D94B2F10D94B2F1D0
:10E040000D94B2F10D94B2F10D94B2F10D94B2F1C0
:10E050000D94B2F10D94B2F10D94B2F10D94B2F1B0
:10E060000D94B2F10D94B2F10D94B2F10D94B2F1A0
:10E070000D94B2F10D94B2F10D94B2F10D94B2F190
:10E080000D94B2F10D94B2F10D94B2F10D94B2F180
:10E090000D94B2F10D94B2F10D94B2F10D94B2F170
:10E0A0000D94B2F10D94B2F10D94B2F10D94B2F160
:10E0B0000D94B2F10D94B2F10D94B2F10D94B2F150
:10E0C0000D94B2F10D94B2F10D94B2F10D94B2F140
:10E0D0000D94B2F10D94B2F10D94B2F10D94B2F130
:10E0E0000D94B2F141546D656761323536300041AF
:10E0F000726475696E6F206578706C6F72657220DE
:10E1000073746B3530305632206279204D4C530099
:10E11000426F6F746C6F616465723E004875683F52
:10E1200000436F6D70696C6564206F6E203D200048
:10E130004350552054797065202020203D20005FF9
:10E140005F4156525F415243485F5F3D2000415658
:10E1500052204C696243205665723D20004743437C
:10E160002056657273696F6E203D20004350552024
:10E1700049442020202020203D20004C6F7720663D
:10E18000757365202020203D20004869676820665F
:10E190007573652020203D200045787420667573D6
:10E1A00065202020203D20004C6F636B2066757336
:10E1B000652020203D20004D617220203720323024
:10E1C000313300312E362E3800342E332E350056A2
:10E1D00023202020414444522020206F7020636F70
:10E1E00064652020202020696E73747275637469E1
:10E1F0006F6E2061646472202020496E74657272B3
:10E20000757074006E6F20766563746F7200726A49
:10E210006D702020006A6D70200057686174207056
:10E220006F72743A00506F7274206E6F7420737541
:10E2300070706F72746564004D7573742062652030
:10E2400061206C6574746572002000577269747483
:10E25000696E672045450052656164696E672045B7
:10E26000450045452065727220636E743D00504F35
:10E27000525400303D5A65726F2061646472003FF1
:10E280003D43505520737461747300403D454550C3
:10E29000524F4D207465737400423D426C696E6B41
:10E2A000204C454400453D44756D70204545505215
:10E2B0004F4D00463D44756D7020464C415348001B
:10E2C000483D48656C70004C3D4C69737420492F83
:10E2D0004F20506F72747300513D51756974005234
:10E2E0003D44756D702052414D00563D73686F7707
:10E2F00020696E7465727275707420566563746FF0
:10E30000727300593D506F727420626C696E6B00BD
:10E310002A0011241FBECFEFD1E2DEBFCDBF01E046
:10E320000CBF12E0A0E0B2E0EEE1FDEF03E00BBFB6
:10E3300002C007900D92A030B107D9F712E0A0E01B
:10E34000B2E001C01D92AE30B107E1F70F9460F367
:10E350000D948DFE01E20EBF0FEF0DBF11241FBE05
:10E360000D9460F30D9400F020E030E040ED57E0B4
:10E3700005C0FA013197F1F72F5F3F4F2817390792
:10E38000C0F308959C01260F311DC901A0E0B0E043
:10E390002F5F3F4FABBFFC018791882361F08093D3
:10E3A000C6008091C00086FFFCCF8091C0008064D1
:10E3B0008093C000EACF08958DE08093C6008091DD
:10E3C000C00086FFFCCF8091C00080648093C000B5
:10E3D0008AE08093C6008091C00086FFFCCF8091C8
:10E3E000C00080648093C00008950F94C2F10F9420
:10E3F000DCF10895FC019081992359F09093C600B7
:10E400008091C00086FFFCCF8091C0008064809323
:10E41000C0003196992379F70895282F982F929567
:10E420009F70892F805D8A3308F0895F8093C600D2
:10E430008091C00086FFFCCF8091C00080648093F3
:10E44000C000822F8F70982F905D9A3308F0995FEB
:10E450009093C6008091C00086FFFCCF8091C000E1
:10E4600080648093C00008959C01FB01853691056E
:10E470001CF46330710594F0C90164E670E00F94F8
:10E480002EFE605D7F4F6093C6008091C00086FFC6
:10E49000FCCF8091C00080648093C0002B30310598
:10E4A00014F43297B4F0C90164E670E00F942EFEC4
:10E4B0006AE070E00F942EFE605D7F4F6093C600AF
:10E4C0008091C00086FFFCCF8091C0008064809363
:10E4D000C000C9016AE070E00F942EFEC0968093E0
:10E4E000C6008091C00086FFFCCF8091C000806490
:10E4F0008093C00008951F93182F8EE692EE60E07F
:10E500000F94C2F11093C6008091C00086FFFCCF2B
:10E510008091C00080648093C0000F94DCF11F9153
:10E5200008952F923F924F925F926F927F928F92B7
:10E530009F92AF92BF92CF92DF92EF92FF920F9392
:10E540001F93DF93CF93CDB7DEB762970FB6F894E2
:10E55000DEBF0FBECDBF382E622ECA01DB015C01CB
:10E560006D01772420E2222E2E010894411C511CBB
:10E570008BC081E0A81680E0B80681E0C80680E084
:10E58000D80628F0C601AA27BB270F940DF2BB2797
:10E59000AD2D9C2D8B2D0F940DF28A2D0F940DF225
:10E5A0002092C6008091C00086FFFCCF8091C00001
:10E5B00080648093C0009DE29093C6008091C0006B
:10E5C00086FFFCCF8091C00080648093C0002092C1
:10E5D000C6008091C00086FFFCCF8091C00080649F
:10E5E0008093C00019828601750188249924A1E0D6
:10E5F0003A1651F03A1620F0B2E03B1661F409C029
:10E600000BBFF701779007C0C7010F9477FE782EF4
:10E6100002C0F7017080872D0F940DF22092C60082
:10E620008091C00086FFFCCF8091C0008064809301
:10E63000C000872D8052F401EF70F0708F3520F408
:10E64000E40DF51D708204C0E40DF51D8EE280839B
:10E650000894E11CF11C011D111D0894811C911CE2
:10E6600090E18916910409F0C2CF80E190E0A0E02A
:10E67000B0E0A80EB91ECA1EDB1E198AC2010F9493
:10E68000FAF10F94DCF16A94662009F072CF629679
:10E690000FB6F894DEBF0FBECDBFCF91DF911F91B3
:10E6A0000F91FF90EF90DF90CF90BF90AF909F9031
:10E6B0008F907F906F905F904F903F902F90089534
:10E6C0002F923F924F925F926F927F928F929F9282
:10E6D000AF92BF92CF92DF92EF92FF920F931F9370
:10E6E000DF93CF93CDB7DEB7CD53D1400FB6F894BB
:10E6F000DEBF0FBECDBF01E20EBF0FEF0DBF94B75F
:10E70000F894A89514BE80916000886180936000A1
:10E7100010926000789493FF05C0E0910002F091A0
:10E7200001021995279A2F9A8091C00082608093E8
:10E73000C00080E18093C40088E18093C1000000A4
:10E74000EE24FF24870144E0A42EB12CCC24DD2448
:10E7500024C0C5010197F1F70894E11CF11C011DCB
:10E76000111D21E2E2162EE4F20620E0020720E06D
:10E77000120718F031E0C32ED12CC801B70127ECE5
:10E780003BE140E050E00F9441FE611571058105C9
:10E79000910519F485B1805885B98091C00087FD35
:10E7A00003C0C114D104A9F2A6014F5F5F4FC25E3E
:10E7B000DE4F59834883CE51D140C25EDE4F8881FF
:10E7C0009981CE51D140019711F00D9410FEC05D9A
:10E7D000DE4F19821882C053D14060E0C15DDE4F28
:10E7E0001882CF52D14088249924C35DDE4F19820C
:10E7F0001882CD52D140C05EDE4F188219821A8233
:10E800001B82C052D140CE5CDE4F188219821A8220
:10E810001B82C253D140EE24FF2487010BBFF701B6
:10E8200007911691C45CDE4F19830883CC53D14005
:10E830000D940BFEC25EDE4F28813981CE51D1404E
:10E840002130310509F52091C600C25EDE4F1982E4
:10E850001882CE51D14022C02F5F3F4F4F4F5F4FA4
:10E86000213082E138078AE7480780E0580780F0C6
:10E87000C45CDE4FE881F981CC53D140EF5FFF4F9C
:10E8800019F0EE27FF27099420E030E040E050E047
:10E890008091C00087FFE0CF2091C600C35DDE4FAE
:10E8A00048815981CD52D1404F5F5F4FC35DDE4FEC
:10E8B00059834883CD52D140213209F063C64A3092
:10E8C000510508F05FC60894811C911C53E0851621
:10E8D000910409F059C600E010E018C081E280936D
:10E8E000C6008091C00086FFFCCF8091C00080648C
:10E8F0008093C0002F5F3F4F2931310579F70F9486
:10E90000DCF10F5F1F4F0530110519F020E030E0FA
:10E91000E5CF10920A0210920B0210920C02109294
:10E920000D02109206021092070210920802109235
:10E930000902109202021092030210920402109235
:10E9400005028FEE90EE60E00F94F5F180E191EE1C
:10E9500060E00F94C2F18091C00087FFFCCF9091DE
:10E96000C600903608F09F759032B8F09093C600BC
:10E970008091C00086FFFCCF8091C00080648093AE
:10E98000C000A0E2A093C6008091C00086FFFCCF2B
:10E990008091C00080648093C000983409F4D7C18E
:10E9A0009934B8F4923409F459C1933458F490333B
:10E9B00019F1903308F4E3C59F33A1F1903409F0C5
:10E9C000DEC5BDC0953409F470C1963409F0D7C5D1
:10E9D00098C1923509F42BC2933538F49C3409F46C
:10E9E000F5C1913509F0CBC518C2963509F445C279
:10E9F000993509F0C4C567C483E792EE62E00F94CD
:10EA0000F5F110920602109207021092080210927D
:10EA1000090210920A0210920B0210920C0210923C
:10EA20000D0213C18FE792EE62E00F94F5F18FEEC5
:10EA300090EE60E00F94F5F181E291EE60E00F94CA
:10EA4000C2F187EB91EE60E00F94F5F180E391EE77
:10EA500060E00F94C2F184EE90EE60E00F94F5F167
:10EA60008FE391EE60E00F94C2F186E090E061E008
:10EA700070E00F9434F20F94DCF18DE591EE60E0DC
:10EA80000F94C2F189EC91EE60E00F94F5F18EE401
:10EA900091EE60E00F94C2F183EC91EE60E00F9490
:10EAA000F5F18CE691EE60E00F94C2F18EE10F94E7
:10EAB0000DF288E90F940DF281E00F940DF20F949E
:10EAC000DCF18BE791EE60E00F94C2F119E0E0E039
:10EAD000F0E010935700E4918E2F0F940DF20F94F5
:10EAE000DCF18AE891EE60E00F94C2F1E3E0F0E03F
:10EAF00010935700E4918E2F0F940DF20F94DCF1D8
:10EB000089E991EE60E00F94C2F1E2E0F0E0109349
:10EB10005700E4918E2F0F940DF20F94DCF188EAE8
:10EB200091EE60E00F94C2F1E1E0F0E01093570045
:10EB30001491812F0F940DF20F94DCF107CF8BE825
:10EB400092EE62E00F94F5F18BE492EE60E00F94A8
:10EB5000F5F10F94DCF100E010E019C0C8016F2D51
:10EB60000F947FFEFF2031F489E492EE60E00F9471
:10EB7000C2F10BC0F092C6008091C00086FFFCCFAE
:10EB80008091C00080648093C0000F5F1F4FC80158
:10EB900081519F41A0E0B0E0ABBFFC01F790BAE229
:10EBA000FB1621F0E2E000301E07C1F60F94DCF105
:10EBB0000F94DCF187E592EE60E00F94F5F10F948D
:10EBC000DCF1CC24DD2400E010E01EC0C8010F946D
:10EBD00077FEF82E882331F489E492EE60E00F94FA
:10EBE000C2F10BC08093C6008091C00086FFFCCFAD
:10EBF0008091C00080648093C000FE1419F00894D6
:10EC0000C11CD11C0F5F1F4FC80181519F41A0E063
:10EC1000B0E0ABBFFC01E790FAE2EF1621F022E092
:10EC20000030120799F60F94DCF10F94DCF182E6C4
:10EC300092EE60E00F94C2F1C60161E070E00F94C3
:10EC400034F20F94DCF10F94DCF110920202109276
:10EC50000302109204021092050278CE89E992EE26
:10EC600062E00F94F5F1279A2F9A16C02F9880E052
:10EC700090E0E0EDF7E03197F1F7019684369105E9
:10EC8000C1F72F9A80E090E0E0EDF7E03197F1F7DF
:10EC9000019684369105C1F78091C00087FFE6CFC9
:10ECA0008091C00087FFFCCF64C485EA92EE62E0E9
:10ECB0000F94F5F140910202509103026091040219
:10ECC0007091050281E020E10F9491F2809102029F
:10ECD00090910302A0910402B091050280509F4FD1
:10ECE000AF4FBF4F8093020290930302A0930402A0
:10ECF000B093050280509041A040B04008F426CE69
:10ED0000A4CF83EB92EE62E00F94F5F140910602FE
:10ED100050910702609108027091090280E020E1A1
:10ED20000F9491F28091060290910702A09108023F
:10ED3000B091090280509F4FAF4FBF4F80930602A2
:10ED400090930702A0930802B0930902FFCD80ECD4
:10ED500092EE62E00F94F5F183E792EE60E00F949B
:10ED6000F5F18FE792EE60E00F94F5F18BE892EE0B
:10ED700060E00F94F5F189E992EE60E00F94F5F10F
:10ED800085EA92EE60E00F94F5F183EB92EE60E09D
:10ED90000F94F5F180EC92EE60E00F94F5F187ECC2
:10EDA00092EE60E00F94F5F188ED92EE60E00F9442
:10EDB000F5F18FED92EE60E00F94F5F18AEE92EEB0
:10EDC00060E00F94F5F183E093EEBDCD87EC92EE19
:10EDD00062E00F94F5F181E40F947BF282E40F94EA
:10EDE0007BF283E40F947BF284E40F947BF285E45E
:10EDF0000F947BF286E40F947BF287E40F947BF20E
:10EE000088E40F947BF28AE40F947BF28BE40F94F6
:10EE10007BF28CE40F947BF299CD88ED92EE62E068
:10EE20000F94F5F1772473948824992409C48FED05
:10EE300092EE62E00F94F5F140910A0250910B02BC
:10EE400060910C0270910D0282E020E10F9491F22A
:10EE500080910A0290910B02A0910C02B0910D02D8
:10EE600080509F4FAF4FBF4F80930A0290930B0289
:10EE7000A0930C02B0930D0269CD8AEE92EE62E08F
:10EE80000F94F5F184EE90EE60E00F94F5F18FECC5
:10EE900091EE60E00F94F5F1662477244301CC5D98
:10EEA000DE4F19821882C452D140D401C301B695F5
:10EEB000A79597958795CA5DDE4F88839983AA8326
:10EEC000BB83C652D140CC5DDE4FA881B981C4520C
:10EED000D1401196CC5DDE4FB983A883C452D14096
:10EEE000CD0162E070E00F9434F2B0E2B093C6005E
:10EEF0008091C00086FFFCCF8091C0008064809329
:10EF0000C000EDE2E093C6008091C00086FFFCCF18
:10EF10008091C00080648093C000F0E2F093C6004E
:10EF20008091C00086FFFCCF8091C00080648093F8
:10EF3000C000CA5DDE4FE880F9800A811B81C6529D
:10EF4000D140BB27A12F902F8F2D0F940DF2CA5DBA
:10EF5000DE4F8881C652D1400F940DF2B0E2FB2EF5
:10EF6000F092C6008091C00086FFFCCF8091C00067
:10EF700080648093C0000DE30093C6008091C000C0
:10EF800086FFFCCF8091C00080648093C00010E2B7
:10EF90001093C6008091C00086FFFCCF8091C00016
:10EFA00080648093C0008BBEF3012791C65DDE4F65
:10EFB0002883CA52D140A22EBB24CC24DD2408943D
:10EFC000611C711C811C911C8BBEF3018791282E42
:10EFD0003324442455240894611C711C811C911C09
:10EFE0008BBEF3013791C55DDE4F3883CB52D140E4
:10EFF0000894611C711C811C911C8BBEF30147910C
:10F00000C45DDE4F4883CC52D140ADEFEA2EAFEF66
:10F01000FA2EAFEF0A2FAFEF1A2F6E0C7F1C801E57
:10F02000911E142D032DF22CEE24EA0CFB1C0C1D5A
:10F030001D1D0F940DF220E22093C6008091C000A8
:10F0400086FFFCCF8091C00080648093C000C65DC5
:10F05000DE4F8881CA52D1400F940DF230E23093D6
:10F06000C6008091C00086FFFCCF8091C000806404
:10F070008093C000C45DDE4F8881CC52D1400F9494
:10F080000DF240E24093C6008091C00086FFFCCFA5
:10F090008091C00080648093C000C55DDE4F888190
:10F0A000CB52D1400F940DF250E25093C6008091A4
:10F0B000C00086FFFCCF8091C00080648093C000B8
:10F0C0008FEFE8168FEFF80680E0080780E018075A
:10F0D00031F484E092EE60E00F94C2F1DFC0D80119
:10F0E000C7018070907CA070B0708050904CA040A0
:10F0F000B040D1F52FEF3FE340E050E0E222F322B1
:10F1000004231523CA5DDE4FA880B980CA80DB8046
:10F11000C652D140AE0CBF1CC01ED11EAA0CBB1CD7
:10F12000CC1CDD1C8EE092EE60E00F94C2F1BB2798
:10F13000A12F902F8F2D0F940DF28E2D0F940DF285
:10F1400030E23093C6008091C00086FFFCCF8091F2
:10F15000C00080648093C0004EE34093C60080915D
:10F16000C00086FFFCCF87C08EE09EEFA0E0B0E03D
:10F17000E822F9220A231B239CE0E91694E9F90608
:10F1800090E0090790E0190709F088C0C45DDE4FE0
:10F19000A881CC52D140EA2EFF2400E010E0102FCD
:10F1A0000F2DFE2CEE24C55DDE4FB881CB52D14031
:10F1B000EB0EF11C011D111DD601C501817090706F
:10F1C000A070B070DC0199278827E80EF91E0A1F8D
:10F1D0001B1F20EF30E040E050E0A222B322C42207
:10F1E000D52241E1AA0CBB1CCC1CDD1C4A95D1F7F1
:10F1F000EA0CFB1C0C1D1D1D81E090E0A0E0B0E0BE
:10F20000282239224A225B2235E1220C331C441C7D
:10F21000551C3A95D1F7E20CF31C041D151D57013E
:10F220006801AA0CBB1CCC1CDD1C85E192EE60E0E1
:10F230000F94C2F1C801AA27BB270F940DF2BB2778
:10F24000A12F902F8F2D0F940DF28E2D0F940DF274
:10F2500090E29093C6008091C00086FFFCCF809121
:10F26000C00080648093C000AEE3A093C60080918C
:10F27000C00086FFFCCF8091C00080648093C000F6
:10F28000C601AA27BB270F940DF2BB27AD2D9C2DDD
:10F290008B2D0F940DF28A2D0F940DF20F94DCF14B
:10F2A000CC5DDE4FE881F981C452D140F99709F471
:10F2B0004DCBF4E0EF2EF12C012D112D6E0C7F1CA7
:10F2C000801E911EF2CD83E093EE62E00F94F5F183
:10F2D0008AE192EE60E00F94C2F18091C00087FF56
:10F2E000FCCF1091C6001F751093C6008091C0001E
:10F2F00086FFFCCF8091C00080648093C0000F9493
:10F30000DCF1812F81548A3108F036C1163409F4BA
:10F3100095C0173490F4133409F44EC0143430F40B
:10F320001134F1F0123409F01DC130C0143409F465
:10F3300059C0153409F016C16BC01A3409F4C4C0A1
:10F340001B3438F4173409F48FC0183409F00AC19B
:10F35000A1C01B3409F4D2C01C3409F003C1E8C0B9
:10F360008FEF81B90DC082B1809582B980E090E0C5
:10F37000E0EDF7E03197F1F70196883C9105C1F790
:10F380008091C00087FFEFCF12B8EFC08FEF84B934
:10F390000DC085B1809585B980E090E0E0EDF7E0A3
:10F3A0003197F1F70196883C9105C1F78091C00033
:10F3B00087FFEFCF15B8D9C08FEF87B90DC088B1DF
:10F3C000809588B980E090E0E0EDF7E03197F1F7C3
:10F3D0000196883C9105C1F78091C00087FFEFCF6F
:10F3E00018B8C3C08FEF8AB90DC08BB180958BB9A7
:10F3F00080E090E0E0EDF7E03197F1F70196883C8E
:10F400009105C1F78091C00087FFEFCF1BB8ADC059
:10F410008FEF8DB90DC08EB180958EB980E090E0F0
:10F42000E0EDF7E03197F1F70196883C9105C1F7DF
:10F430008091C00087FFEFCF1EB897C08FEF80BBD1
:10F440000DC081B3809581BB80E090E0E0EDF7E0F6
:10F450003197F1F70196883C9105C1F78091C00082
:10F4600087FFEFCF11BA81C08FEF83BB0DC084B38C
:10F47000809584BB80E090E0E0EDF7E03197F1F714
:10F480000196883C9105C1F78091C00087FFEFCFBE
:10F4900014BA6BC08FEF809301010FC080910201FD
:10F4A00080958093020180E090E0E0EDF7E03197F5
:10F4B000F1F70196883C9105C1F78091C00087FF64
:10F4C000EDCF1092020151C08FEF809304010FC065
:10F4D0008091050180958093050180E090E0E0ED4A
:10F4E000F7E03197F1F70196883C9105C1F78091DB
:10F4F000C00087FFEDCF1092050137C08FEF8093DA
:10F5000007010FC08091080180958093080180E079
:10F5100090E0E0EDF7E03197F1F70196883C910536
:10F52000C1F78091C00087FFEDCF109208011DC088
:10F530008FEF80930A010FC080910B01809580931B
:10F540000B0180E090E0E0EDF7E03197F1F70196F4
:10F55000883C9105C1F78091C00087FFEDCF1092E4
:10F560000B0103C085E292EEEEC98091C00087FFD7
:10F57000FCCF8091C600EAC988E392EEE4C98CE131
:10F5800091EEE1C988249924933011F1943028F444
:10F59000913089F09230B8F408C0953061F195301F
:10F5A000F0F0963009F048C043C02B3109F042C951
:10F5B00091E06BE13FC96227C15DDE4F2883CF52E6
:10F5C000D14092E037C9B22FA0E0622793E032C960
:10F5D000822F90E0A82BB92B622794E02BC92E3004
:10F5E00009F039C3622795E0C05DDE4F19821882A9
:10F5F000C053D1401FC9E1E0F0E0EC0FFD1FC05D3A
:10F60000DE4F08811981C053D140E00FF11F2083E4
:10F610000F5F1F4FC05DDE4F19830883C053D14079
:10F6200062270A171B0709F005C9D80196E002C92D
:10F63000261709F010C303C0973009F0FBC87724E0
:10F640009981933109F412C19431C8F4963009F4C8
:10F65000D8C0973050F4923009F406C1933009F4C1
:10F660006DC0913009F059C253C0913109F477C08F
:10F67000923108F0BBC0903109F04FC2F5C098310B
:10F6800009F487C0993150F4953109F4EFC09531F0
:10F6900008F4C6C1963109F040C2C2C19A3109F4DA
:10F6A0006CC09A3108F491C09B3109F45BC09D3164
:10F6B00009F033C29D81903359F48F81882311F46E
:10F6C0009EE11CC0813011F091E018C098E916C08D
:10F6D000892F807591F0903539F4E0E0F0E089E011
:10F6E0008093570094910AC0983539F4E3E0F0E034
:10F6F00089E080935700949101C090E01A821B82A8
:10F700008D818C831D829E831F8227E030E009C299
:10F710001A8288E08B8381E48C8386E58D8382E581
:10F720008E8389E48F8383E5888780E589878FE5E9
:10F730008A8782E38B872BE030E0F3C18A818139AD
:10F7400041F0823941F0803911F48FE005C080E04A
:10F7500003C082E001C08AE01A828B8344C0772410
:10F76000739482C08D81882311F48EE12CC0813086
:10F7700011F081E028C088E926C01A82E1E0F0E0BB
:10F7800089E08093570084918B831C8224E030E0D1
:10F79000C8C18B81803589F48C81883039F4E2E0EE
:10F7A000F0E089E08093570084910DC0E0E0F0E044
:10F7B00089E080935700849106C0E3E0F0E089E09F
:10F7C0008093570084911A82DFCF8D81836C99E0FA
:10F7D000E1E0F0E0082E90935700E89507B600FCB2
:10F7E000FDCF1A821B8223E030E09BC180EC8A832C
:10F7F000CE5CDE4F188219821A821B82C253D1401E
:10F800008EC18A8190E0A0E0B0E0582F44273327D2
:10F8100022278B8190E0A0E0B0E0DC0199278827C7
:10F82000282B392B4A2B5B2B8D8190E0A0E0B0E098
:10F83000282B392B4A2B5B2B8C8190E0A0E0B0E089
:10F84000BA2FA92F982F8827282B392B4A2B5B2BCF
:10F85000220F331F441F551FC05EDE4F288339839C
:10F860004A835B83C052D1401A8259C13A81C95C34
:10F87000DE4F3883C753D140CA5CDE4F1882C6536F
:10F88000D1408B81C82EDD24CA5CDE4F488159816E
:10F89000C653D140C42AD52A933109F082C0CE5C28
:10F8A000DE4F88819981AA81BB81C253D1408050AB
:10F8B000904CA340B04030F583E0CE5CDE4FE88052
:10F8C000F9800A811B81C253D140F70100935B008C
:10F8D00080935700E89507B600FCFDCFCE5CDE4F65
:10F8E000088119812A813B81C253D14000501F4FAA
:10F8F0002F4F3F4FCE5CDE4F088319832A833B8313
:10F90000C253D140C05EDE4F488159816A817B81FC
:10F91000C052D140DE011B9631E08C9111962C91A2
:10F9200011971296C75CDE4F2883C953D140C85C3B
:10F93000DE4F1882C853D14090E0C85CDE4FE881AA
:10F94000F981C853D1408E2B9F2B0C01FA01609393
:10F950005B0030935700E89511244E5F5F4F6F4F67
:10F960007F4F0EEFE02E0FEFF02ECE0CDF1CC114F8
:10F97000D10499F685E0C05EDE4F088119812A81A5
:10F980003B81C052D140F80120935B008093570027
:10F99000E89507B600FCFDCF81E180935700E8951C
:10F9A00035C0C05EDE4F88819981AA81BB81C0527B
:10F9B000D140B695A795979587957C018601ABE0D8
:10F9C000AA2EB12CAC0EBD1E0BC0D5016D915D01F0
:10F9D000C7010F947FFE0894E11CF11C01501040F8
:10F9E0000115110591F7A60160E070E0440F551F65
:10F9F000661F771FC05EDE4FE880F9800A811B8199
:10FA0000C052D1404E0D5F1D601F711F1A82C05E33
:10FA1000DE4F488359836A837B83C052D1407FC0C5
:10FA2000FA80C55CDE4FF882CB53D140C65CDE4F16
:10FA30001882CA53D1408B81C82EDD24C65CDE4FAC
:10FA400008811981CA53D140C02AD12A1A828981DA
:10FA5000BE016D5F7F4F843121F59601C05EDE4FA0
:10FA6000E880F9800A811B81C052D1400BBFF701A9
:10FA700087919691DB018C9311969C936E5F7F4FDB
:10FA8000D801C7010296A11DB11DC05EDE4F88835B
:10FA90009983AA83BB83C052D14022503040F1F6F3
:10FAA00036C0C05EDE4F288139814A815B81C052F9
:10FAB000D1400894C108D108760100E010E0089414
:10FAC000C11CD11C0894E11CF11C011D111DE20E8A
:10FAD000F31E041F151F21BDBB27A52F942F832FB5
:10FAE00082BD2F5F3F4F4F4F5F4FF89A80B5DB01CC
:10FAF0008D93BD012E153F054007510761F7C05E8C
:10FB0000DE4F288339834A835B83C052D1409601FC
:10FB10002D5F3F4FFB01108204C080EC8A8322E0FE
:10FB200030E08BE18093C6008091C00086FFFCCF5F
:10FB30008091C00080648093C000C15DDE4FF88179
:10FB4000CF52D140F093C6008091C00086FFFCCF19
:10FB50008091C00080648093C000432F3093C60022
:10FB60008091C00086FFFCCF8091C00080648093AC
:10FB7000C000922F2093C6008091C00086FFFCCF6A
:10FB80008091C00080648093C0008EE08093C600A6
:10FB90008091C00086FFFCCF8091C000806480937C
:10FBA000C00065E1C15DDE4FE880CF52D1406E25D7
:10FBB00069276427FE01319610C090819093C6009A
:10FBC0008091C00086FFFCCF31968091C000806498
:10FBD0008093C0006927215030402115310569F715
:10FBE0006093C6008091C00086FFFCCF8091C0006A
:10FBF00080648093C00085B1805885B9772081F4F6
:10FC0000C15DDE4F0881CF52D1400F5FC15DDE4F35
:10FC10000883CF52D14090E0A0E0B0E00D941AF4F8
:10FC200027982F9880E090E020ED37E0F901319798
:10FC3000F1F7019684369105C9F700008091C00064
:10FC40008D7F8093C00081E180935700E895EE2777
:10FC5000FF270994FFCF90E00D941AF497FB092E2B
:10FC600007260AD077FD04D02ED006D000201AF443
:10FC7000709561957F4F0895F6F7909581959F4F08
:10FC80000895A1E21A2EAA1BBB1BFD010DC0AA1FDD
:10FC9000BB1FEE1FFF1FA217B307E407F50720F0F5
:10FCA000A21BB30BE40BF50B661F771F881F991F70
:10FCB0001A9469F760957095809590959B01AC01B9
:10FCC000BD01CF010895AA1BBB1B51E107C0AA1FAC
:10FCD000BB1FA617B70710F0A61BB70B881F991FED
:10FCE0005A95A9F780959095BC01CD010895F99991
:10FCF000FECF92BD81BDF89A992780B50895262F31
:10FD0000F999FECF1FBA92BD81BD20BD0FB6F89400
:0EFD1000FA9AF99A0FBE01960895F894FFCF63
:040000033000E000E9
:00000001FF