:100000000C94FA000C9422010C9422010C945606D4
:100010000C9456060C9456060C9422010C94220162
:100020000C9422010C9422010C9422010C942201C4
:100030000C9422010C9422010C9422010C942201B4
:100040000C94DE040C9422010C9473030C944D0365
:100050000C9422010C9422010C9422010C94220194
:100060000C9428050C9422012E1298105912671036
:10007000591264107210881059127D1059129D1077
:1000800043125912AD10591263119310A210591254
:1000900059125912241159125912681100407A103C
:1000A000F35A00A0724E18090010A5D4E80000E829
:1000B0007648170000E40B54020000CA9A3B000087
:1000C00000E1F505000080969800000040420F0016
:1000D0000000A08601000000102700000000E803D7
:1000E000000000006400000000000A0000000000A2
:1000F0000100000000002C76D888DC674F0823DF61
:10010000C1DFAE59E1B1B796E5E3E453C63AE65133
:10011000997696E8E6C28426EB898C9B62ED407C5A
:100120006FFCEFBC9C9F40F2BAA56FA5F490055AF6
:100130002AF75C936B6CF9676DC11BFCE0E40D471B
:10014000FEF520E6B500D0ED902E0300943577053E
:100150000080841E080000204E0A000000C80C33F6
:100160003333330F986E12831141EF8D2114893B85
:10017000E65516CFFEE6DB18D1844B381BF77C1D05
:10018000901DA4BBE424203284725E228100C9F158
:1001900024ECA1E53D270000000800020100000357
:1001A0000407000000000000000000000000240020
:1001B00027002A000000000023002600290000007C
:1001C0000000250028002B00040404040404040497
:1001D00002020202020203030303030301020408F2
:1001E00010204080010204081020010204081020A1
:1001F0001A14EE1311241FBECFEFD8E0DEBFCDBF1F
:1002000011E0A0E0B1E0EAEFF9E302C005900D9241
:10021000A83FB107D9F724E0A8EFB1E001C01D92D3
:10022000A235B207E1F710E0C9EFD0E004C0219792
:10023000FE010E94F21BC83FD107C9F70E94440D7E
:100240000C94F01C0C940000FC01538D448D252F60
:1002500030E0842F90E0821B930B541710F0CF9660
:10026000089501970895FC01918D828D981761F092
:10027000828DDF01A80FB11D5D968C91928D9F5FDD
:100280009F73928F90E008958FEF9FEF0895FC0188
:10029000918D828D981731F0828DE80FF11D858D3B
:1002A00090E008958FEF9FEF0895FC01918D228DCE
:1002B000892F90E0805C9F4F821B91098F73992753
:1002C000089589EE92E00E94550121E0892B09F4FE
:1002D00020E0822F0895FC01848DDF01A80FB11D5D
:1002E000A35ABF4F2C91848D90E001968F7399276C
:1002F000848FA689B7892C93A089B1898C9183704A
:1003000080648C93938D848D981306C00288F38942
:10031000E02D80818F7D80830895EF92FF920F936F
:100320001F93CF93DF93EC0181E0888F9B8D8C8DA1
:10033000981305C0E889F989808185FD26C0F62ECD
:100340000B8D10E00F5F1F4F0F731127E02E8C8D68
:10035000E8120CC00FB607FCFACFE889F989808152
:1003600085FFF5CFCE010E946B01F1CF8B8DFE0191
:10037000E80FF11DE35AFF4FF0829FB7F8940B8FFF
:10038000EA89FB89808180620AC09FB7F894EE8970
:10039000FF896083E889F989808183708064808324
:1003A0009FBF81E090E0DF91CF911F910F91FF906F
:1003B000EF900895CF93DF93EC01888D8823C9F0E7
:1003C000EA89FB89808185FD05C0A889B9898C915E
:1003D00086FD0FC00FB607FCF5CF808185FFF2CFF9
:1003E000A889B9898C9185FFEDCFCE010E946B0160
:1003F000E7CFDF91CF91089580E090E0892B29F03D
:100400000E94610181110C94000008953FB7F89497
:100410008091D9029091DA02A091DB02B091DC02C6
:1004200026B5A89B05C02F3F19F00196A11DB11D4F
:100430003FBFBA2FA92F982F8827820F911DA11D8A
:10044000B11DBC01CD0142E0660F771F881F991FC7
:100450004A95D1F7089585ED8093BC008091BC004A
:1004600084FDFCCF10924D0408954091B102262FD7
:1004700030E0240F311D21323105DCF420914D0490
:100480002430C9F4FC0180E090E0861758F43091E4
:10049000B1022191DC01AF56BD4FA30FB11D2C93CA
:1004A0000196F3CF8091B102680F6093B10280E0B2
:1004B000089581E0089582E00895089508950895CB
:1004C000E091FF018091FE01E81730F4F0E0EF5871
:1004D000FD4F808190E008958FEF9FEF08959091F8
:1004E000FF018091FE01981750F4E92FF0E0EF58DA
:1004F000FD4F208130E09F5F9093FF0102C02FEFFE
:100500003FEFC90108958091FE0190E02091FF0125
:10051000821B91090895CF93DF93CB01EA01642FE9
:100520000E943502CE01DF91CF910895CF93DF93E2
:100530001F92CDB7DEB7698361E0CE0101960E94BC
:10054000350281E090E00F90DF91CF9108952091E6
:10055000DD033091DE032817390771F49091DB0336
:100560008091DC03981741F0E091DB03F0E0EF5C51
:10057000FD4F808190E008958FEF9FEF08951F93C6
:10058000CF93DF93DC015C968D919C915D970097F2
:1005900039F421E030E013963C932E9312973BC040
:1005A0005196ED91FC91529750962C915097322F85
:1005B00030951FB75E964C915E97742F727041FD17
:1005C0006095F8944081772311F0422B01C04323BA
:1005D0004083EC012197F1F748E0508160FF02C0B1
:1005E000522B01C053235083EC012197F1F76695FC
:1005F000415099F78081772319F08323808302C0CB
:10060000282B20831FBF5C968D919C915D9701974D
:10061000F1F781E090E0DF91CF911F910895209153
:10062000DD033091DE032817390771F48091DC0374
:100630002091DB0390E0805C9F4F821B910960E476
:1006400070E00E94DE1B089580E090E00895209104
:10065000DD033091DE0328173907B9F49091DB03ED
:100660008091DC03981789F0E091DB03F0E0EF5C08
:10067000FD4F80812091DB0330E02F5F3F4F2F73D0
:1006800033272093DB0390E008958FEF9FEF0895C9
:1006900080E090E008950E94D21C1F920F920FB646
:1006A0000F9211242F933F934F935F936F937F93F8
:1006B0008F939F93AF93BF93EF93FF9389EE92E055
:1006C0000E946B01FF91EF91BF91AF919F918F912C
:1006D0007F916F915F914F913F912F910F900FBE3E
:1006E0000F901F9018951F920F920FB60F92112422
:1006F0002F938F939F93EF93FF93E091F902F091E3
:10070000FA028081E091FF02F091000382FD12C0A5
:100710009081809102038F5F8F7320910303821772
:1007200051F0E0910203F0E0E751FD4F958F809387
:10073000020301C08081FF91EF919F918F912F91D2
:100740000F900FBE0F901F901895833081F028F402
:10075000813099F08230A1F008958730A9F0883077
:10076000B9F08430D1F4809180008F7D03C08091F6
:1007700080008F7780938000089584B58F7702C0C2
:1007800084B58F7D84BD08958091B0008F7703C0BC
:100790008091B0008F7D8093B00008951F93CF9318
:1007A000DF93282F30E0F901EA56FE4F8491F901DA
:1007B000E452FE4FD491F901E853FE4FC491CC238B
:1007C000C1F0162F81110E94A503EC2FF0E0EE0F6F
:1007D000FF1FE254FE4FA591B4919FB7F8941111F9
:1007E00004C08C91D095D82302C0EC91DE2BDC9311
:1007F0009FBFDF91CF911F910895CF93DF9390E03A
:10080000FC01E452FE4F2491FC01E853FE4F849119
:10081000882361F190E0880F991FFC01E655FE4F97
:10082000C591D491FC01E254FE4FA591B4916111A0
:1008300009C09FB7F8948881209582238883EC9122
:100840002E230BC0623061F49FB7F8948881322F59
:10085000309583238883EC912E2B2C939FBF06C069
:100860008FB7F894E8812E2B28838FBFDF91CF912B
:1008700008951F93CF93DF93182FEB0161E00E943F
:10088000FD03209711F460E004C0CF3FD10539F497
:1008900061E0812FDF91CF911F910C94CE03E12F66
:1008A000F0E0EA56FE4FE491E330F9F048F4E1302D
:1008B000B9F0E230A1F584B5806284BDC8BD34C012
:1008C000E730E9F0E83019F1E43049F58091800033
:1008D000806280938000D0938B00C0938A0024C0F4
:1008E00084B5806884BDC7BD1FC0809180008068CA
:1008F00080938000D0938900C093880015C08091B8
:10090000B00080688093B000C093B3000DC08091A8
:10091000B00080628093B000C093B40005C0C038BE
:10092000D1050CF0B5CFAFCFDF91CF911F910895D6
:100930008F929F92AF92BF92CF92DF92EF92FF92EF
:100940006B017C010E9406024B015C01C114D104C1
:10095000E104F104F1F00E940602DC01CB018819E8
:100960009909AA09BB09883E9340A105B10570F316
:1009700021E0C21AD108E108F10888EE880E83E070
:10098000981EA11CB11CC114D104E104F10419F793
:10099000DDCFFF90EF90DF90CF90BF90AF909F9012
:1009A0008F9008952FB7F8946091D5027091D60278
:1009B0008091D7029091D8022FBF08951F920F9275
:1009C0000FB60F9211242F933F938F939F93AF9362
:1009D000BF938091D5029091D602A091D702B09199
:1009E000D8023091D40223E0230F2D3720F4019652
:1009F000A11DB11D05C026E8230F0296A11DB11D42
:100A00002093D4028093D5029093D602A093D7026C
:100A1000B093D8028091D9029091DA02A091DB02C2
:100A2000B091DC020196A11DB11D8093D902909373
:100A3000DA02A093DB02B093DC02BF91AF919F91E9
:100A40008F913F912F910F900FBE0F901F9018958F
:100A50001F920F920FB60F9211242F933F934F9333
:100A60005F936F937F938F939F93AF93BF93EF9316
:100A7000FF938091B900887F803609F49CC068F5A7
:100A8000883209F45BC090F4803109F454C038F422
:100A9000882309F4F6C0883009F44DC0F6C08831C7
:100AA00009F44CC0803209F45DC0EFC0803409F411
:100AB00068C048F4803309F455C0883309F0E5C0B4
:100AC00080934B04D8C0803509F44FC0883509F4B1
:100AD0005DC0883409F0D9C0D6C0883909F4C7C0D0
:100AE000A8F4883709F467C038F4883609F463C07D
:100AF000803709F460C0C9C0883809F4B8C08039AB
:100B000009F45FC0803809F0C0C05BC0803B09F4C5
:100B100086C038F4803A09F466C0883A09F47FC088
:100B2000B4C0803C09F4A7C0883C09F4A4C0883B49
:100B300009F48AC0AAC08091280410C090914A0488
:100B400080914904981770F5E0914A0481E08E0F76
:100B500080934A04F0E0E75DFB4F80818093BB0007
:100B600085EC86C080934B048EC0E0914A0481E0FE
:100B70008E0F80934A048091BB00F0E0E75DFB4F4D
:100B8000808390914A04809149046EC0E0914A04A8
:100B900081E08E0F80934A048091BB00F0E0E75D16
:100BA000FB4F808380914C0481116DC081E0809364
:100BB000270484EA61C083E080934D041092D3023D
:100BC000CFCF8091D302803208F051C0E091D302A0
:100BD00081E08E0F8093D3028091BB00F0E0ED5452
:100BE000FD4F8083BDCF85EC8093BC0010924D04F7
:100BF0008091D302803230F4E091D302F0E0ED54E2
:100C0000FD4F10826091D30270E0E091F801F09105
:100C1000F90183EB92E009951092D30236C084E08B
:100C200080934D041092B2021092B102E091FA0149
:100C3000F091FB0109958091B102811105C081E01D
:100C40008093B10210929102E091B20281E08E0F86
:100C50008093B202F0E0EF56FD4F80818093BB009D
:100C60009091B2028091B102981708F479CF85E88B
:100C70008093BC000AC085EC8093BC0010924D04A8
:100C800004C010924B040E942B02FF91EF91BF9180
:100C9000AF919F918F917F916F915F914F913F9114
:100CA0002F910F900FBE0F901F9018951F920F92CB
:100CB0000FB60F9211242F933F934F935F936F932F
:100CC0007F938F939F93AF93BF93EF93FF93E091A5
:100CD000DD03F091DE03309709F451C0968DA685AF
:100CE000B785858591FF04C09C91892329F447C06D
:100CF0009C91892309F043C0A389B4899C9185897B
:100D0000809589238C93868997890197F1F7608D67
:100D1000718DA685B785558538E020E0CB01019718
:100D2000F1F7822F90E095958795282F4C914523D8
:100D300009F02068315091F7868D81FD20958091D2
:100D4000DC0390E001968F7399273091DB0338170D
:100D500049F0A091DC03B0E0AF5CBD4F2C938093D1
:100D6000DC0303C0868D8160868F828D938D019711
:100D7000F1F7A389B4899C918589892B8C93FF9184
:100D8000EF91BF91AF919F918F917F916F915F9103
:100D90004F913F912F910F900FBE0F901F9018957C
:100DA000FF920F931F93CF93DF9386E190E0A0E033
:100DB000B0E08093230290932402A0932502B09385
:100DC000260280910002909101029093300280935C
:100DD0002F02809102029091030290932E02809341
:100DE0002D02809104029091050290932C02809331
:100DF0002B02809106029091070290932A02809321
:100E00002902809108029091090290932802809310
:100E1000270203E212E0C0E0D0E0F801F1908F0178
:100E2000CE010E94F81AF81621F06F2DCE010E9413
:100E3000001B2196CE30D10581F7DF91CF911F9114
:100E40000F91FF9008950F931F93CF93DF9303E2C9
:100E500012E0C0E0D0E0CE010E94F81AF8018193C0
:100E60008F012196CE30D105B1F780912302909168
:100E70002402A0912502B09126024697A105B10552
:100E8000F1F081E090E09093300280932F0282E0B5
:100E900090E090932E0280932D0283E090E0909357
:100EA0002C0280932B0284E090E090932A0280939E
:100EB000290285E090E090932802809327024091D8
:100EC0002F02509130025093010240930002052EF0
:100ED000000C660B770B89EE92E00E946C086DE5C2
:100EE00071E089EE92E00E942A0C80912D0290918F
:100EF0002E02909303028093020280912B02909124
:100F00002C02909305028093040280912902909113
:100F10002A02909307028093060280912702909103
:100F200028029093090280930802DF91CF911F91CC
:100F30000F910C94D006CF93DF93DC01ED91FC91DF
:100F4000EB01A881B981309711F01097C9F410977F
:100F500059F0EB012C813D81232B31F08C9190E0F5
:100F600091958195910914C0309781F0DC01149618
:100F70008D919C911597892B49F0808190E008C054
:100F8000BD01CF01DF91CF910C94E01C80E090E097
:100F9000DF91CF9108950F931F93CF93DF93C82FC5
:100FA000D62F8091DF0286131AC0CC2319F010E0EF
:100FB00001E002C011E000E06091DD02062E000CAD
:100FC000770B8091E7020E943904602F8091E30241
:100FD0000E94CE03612F8091E4020E94CE03809193
:100FE000E202D8131EC0CC2319F0C0E0D1E002C049
:100FF000C1E0D0E06091E002062E000C770B8091FA
:10100000E8020E9439046D2F8091E5020E94CE0310
:101010006C2F8091E602DF91CF911F910F910C947C
:10102000CE03DF91CF911F910F910895CF93DF935E
:10103000CDEDD2E060E08A850E94CE0360E08B8532
:10104000DF91CF910C94CE03E9EEF2E0A089B18953
:1010500082E08C93A485B5851C92A685B7858FEC1C
:101060008C93108EA489B58986E08C93A289B3896C
:101070008C9180618C93A289B3898C9188608C93C8
:10108000A289B3898C9180688C930288F389E02DC2
:1010900080818F7D8083089561E081E00E94CB078D
:1010A00060E080E00C94CB0761E080E00E94CB0719
:1010B00060E080E00C94CB0760E081E00E94CB0709
:1010C00061E080E00C94CB0761E081E00E94CB07F7
:1010D00060E081E00C94CB07CF92DF92EF92FF9219
:1010E0000F931F93CF93DF9377FF21C06A017B019A
:1010F000EC01E881F9810190F081E02D6DE2099524
:101100008C0144275527BA014C195D096E097F09E6
:101110002AE0CE010E943F0C800F911FDF91CF91FA
:101120001F910F91FF90EF90DF90CF9008952AE0EC
:10113000DF91CF911F910F91FF90EF90DF90CF90B3
:101140000C943F0CCF93DF93BC0189EE92E00E9498
:101150002A0CEC016DE571E089EE92E00E942A0C08
:101160008C0F9D1FDF91CF9108958F929F92AF9228
:10117000BF92CF92DF92EF92FF926B017C010E94AF
:10118000D2044B015C01C60ED71EE81EF91E0E9458
:10119000D204681579058A059B0528F0C616D7067E
:1011A000E806F906A0F7FF90EF90DF90CF90BF9090
:1011B000AF909F908F9008950C942A0C1F93CF931B
:1011C000DF9300D000D000D0CDB7DEB7FC01448162
:1011D0005581608171818BEE93E00E94A60A6DE5D6
:1011E00071E08BEE93E00E942A0C64EF71E080E0E6
:1011F00090E00E9498048BEE93E00E940F03029708
:101200003CF16FE571E0CE0101960E94150C8BEE6A
:1012100093E00E942703682FCE0101960E94800B65
:101220008BEE93E00E942703682FCE0101960E9467
:10123000800B68EE71E0CE0101960E94330B11E045
:10124000811101C010E0CE0101960E94F60B01C091
:1012500010E0812F26960FB6F894DEBF0FBECDBFEB
:10126000DF91CF911F9108951F93CF93DF9300D00B
:1012700000D000D0CDB7DEB78BEE93E00E940F0315
:10128000892B29F08BEE93E00E942703F5CF6BEEBC
:1012900071E0CE0101960E94150CCE0101960E94CC
:1012A000DE08182FCE0101960E94F60B812F26969C
:1012B0000FB6F894DEBF0FBECDBFDF91CF911F9167
:1012C0000895DF92EF92FF920F931F93CF93DF93D6
:1012D00000D000D000D0CDB7DEB785E0F82E93E087
:1012E000E92E24E0D22E80910A04853009F48DC0C5
:1012F0008BEE93E00E940F03892B09F46CC08BEEF8
:1013000093E00E942703182F8B3279F58BEE93E040
:101310000E940F030A97D4F36FE571E0CE010196A6
:101320000E94150C0AE08BEE93E00E942703182F11
:10133000682FCE0101960E94800B0150A1F72D81EC
:101340003E8180910F04909110042817390749F4C9
:101350006BE074E0CE0101960E949B07892B09F493
:101360004EC0CE0101960E94F60B133409F0BBCF9C
:101370008BEE93E00E940F030897D4F36FE571E0C2
:10138000CE0101960E94150C63E4CE0101960E94E5
:10139000800B18E08BEE93E00E942703682FCE01AC
:1013A00001960E94800B1150A9F72D813E818091FA
:1013B0001504909116042817390741F461E174E08F
:1013C000CE0101960E949B07892BE1F0CE01019688
:1013D0000E94F60B88CF0E943409882319F0E0920E
:1013E0000A0481CF68EC70E080E090E00E949804ED
:1013F0000E9434098111F3CFF0920A0474CFD09285
:101400000A04AFCFF0920A04E1CF26960FB6F89403
:10141000DEBF0FBECDBFDF91CF911F910F91FF9027
:10142000EF90DF9008950F931F93CF93DF9300D039
:1014300000D000D0CDB7DEB703E080910A0483303E
:1014400009F464C08BEE93E00E940F03892B09F42A
:1014500049C08BEE93E00E942703182F682F89EE76
:1014600092E00E948D011B3241F78BEE93E00E94C7
:101470000F03892BD1F38BEE93E00E942703182FE3
:10148000682F89EE92E00E948D011035B1F68BEE47
:1014900093E00E940F030797D4F36FE571E0CE014C
:1014A00001960E94150C60E5CE0101960E94800B0A
:1014B00017E08BEE93E00E942703682FCE01019680
:1014C0000E94800B1150A9F76EEE71E0CE010196DB
:1014D0000E94330B811100930A04CE0101960E94F1
:1014E000F60BABCF0E943409882319F000930A044D
:1014F000A4CF68EC70E080E090E00E9498040E9425
:1015000034098111F3CF85E080930A0426960FB643
:10151000F894DEBF0FBECDBFDF91CF911F910F9129
:10152000089580910A04853071F48BEE93E00E9457
:101530000F03892B41F08BEE93E00E9427038B323F
:1015400019F40E94130A8FEF08950895CF92DF9245
:10155000EF92FF920F931F93CF93DF936C017A0169
:101560008B01C0E0D0E0CE15DF0581F0D8016D9190
:101570008D01D601ED91FC910190F081E02DC60125
:101580000995892B11F02196EECF7E01C701DF91DD
:10159000CF911F910F91FF90EF90DF90CF90089522
:1015A0000F931F93CF93DF93EC018881998100976C
:1015B00029F02A813B812617370788F48B016F5F5A
:1015C0007F4F0E940C1C009761F0998388831B83D6
:1015D0000A832C813D81232B11F4FC01108281E0D0
:1015E00001C080E0DF91CF911F910F910895CF93BB
:1015F000DF9300D0CDB7DEB720914E0430914F0479
:10160000CE0101962115310519F48255944018C078
:10161000AC01421B530BE0915004F091510480E067
:1016200090E0309759F09C012E5F3F4F808191816F
:10163000820F931F0280F381E02DF3CF840F951F5B
:101640009A83898349815A81052E000C660B770B9A
:101650008091C9039091CA030E946C080F900F906B
:10166000DF91CF910895FC0124813581232B31F442
:1016700021E061157105A1F0FB0108C0FC0180812A
:1016800091816115710531F421E0FC01808188238D
:1016900039F005C00E94E01C21E0892B09F020E010
:1016A000822F0895EF92FF920F931F93CF93DF93B2
:1016B0006115710511F480E01CC041155105C1F0A0
:1016C0007B01EC018C819D818A01080F191FB801F3
:1016D000CE010E94D00A882371F3288139818C8140
:1016E0009D81B701820F931F0E94E91C1D830C830B
:1016F00081E0DF91CF911F910F91FF90EF900895BE
:10170000CF93DF9300D0CDB7DEB769831A8241E073
:1017100050E0BE016F5F7F4F0E94520B0F900F9001
:10172000DF91CF910895CF93DF93EC018881998168
:10173000009711F00E94A816198218821D821C823F
:101740001B821A82DF91CF910895CF93DF93EC0132
:101750006115710561F0FB0101900020E9F73197F7
:10176000AF01461B570B0E94520B811103C0CE01E3
:101770000E94930BCE01DF91CF910895EF92FF92DB
:101780000F931F93CF93DF93EC017B018A01BA0182
:101790000E94D00A811104C0CE010E94930B07C0A1
:1017A0001D830C83B701888199810E94E91CCE01B9
:1017B000DF91CF911F910F91FF90EF900895CF93FC
:1017C000DF93EC016115710559F0FB0101900020D8
:1017D000E9F73197AF01461B570B0E94BE0B02C0C1
:1017E0000E94930BCE01DF91CF910895FC0180817F
:1017F00091810C94A816FB01DC0111961C921E929B
:1018000013961C921E92129715961C921E92149774
:101810008617970749F0608171816115710521F084
:10182000448155810C94BE0B0895FC0111821082F5
:1018300013821282158214826115710551F0FB0129
:1018400001900020E9F73197AF01461B570B0C942C
:10185000BE0B08956115710579F0FB010190002020
:10186000E9F73197AF01461B570BDC01ED91FC9175
:101870000280F381E02D099480E090E008958F923A
:101880009F92AF92BF92EF92FF920F931F93CF93CD
:10189000DF93CDB7DEB7A1970FB6F894DEBF0FBECA
:1018A000CDBF7C01FA01CB0119A2223008F42AE055
:1018B0008E010F5D1F4F822E912CA12CB12CBF01E8
:1018C000A50194010E940E1BF901CA0101501109E2
:1018D0006A3014F4605D01C0695CD8016C93232BFD
:1018E000242B252B61F7B801C7010E942A0CA19671
:1018F0000FB6F894DEBF0FBECDBFDF91CF911F9121
:101900000F91FF90EF90BF90AF909F908F900895B0
:10191000BF92CF92DF92EF92FF920F931F93CF93DC
:10192000DF9348E0C42ED12CE12CF12CD2E0C1E0B1
:101930001FEF05EE55ECB52E80914D048111FCCFC3
:10194000D0934D04C0934C0410934B0410924A045E
:10195000109249041092280420912804C601880F8F
:10196000991F822B8093280480912704813069F489
:1019700010922704809128048093BB008091BC00C2
:1019800083FDF8CFB092BC0002C00093BC008091F0
:101990004D048230E1F380914B048F3FE1F0809160
:1019A0004B04803211F080914B048FEFC81AD80A93
:1019B000E80AF80A87E7C816D104E104F10409F03F
:1019C000BBCFDF91CF911F910F91FF90EF90DF90F0
:1019D000CF90BF9008952AE0B701A6018091C90376
:1019E0009091CA030E943F0C63E971E08091C903A2
:1019F0009091CA030E94DC08C0938C03D6CFCF928B
:101A0000DF92EF92FF920F931F93E82FF92F05C0FB
:101A1000015011092109310961F190819623941730
:101A2000B9F305C0015011092109310911F1908163
:101A300096239413F7CFC12CD12CE12CF12C0AC0A2
:101A40008FEFC81AD80AE80AF80A0C151D052E05EA
:101A50003F0579F080818623841791F36C2D7D2DCD
:101A60008E2D9F2D1F910F91FF90EF90DF90CF90C3
:101A7000089560E070E080E090E01F910F91FF908A
:101A8000EF90DF90CF900895CF93DF93CDB7DEB77F
:101A9000AD970FB6F894DEBF0FBECDBF789484B576
:101AA000826084BD84B5816084BD85B5826085BD5A
:101AB00085B5816085BD80916E00816080936E00E8
:101AC00010928100809181008260809381008091DA
:101AD000810081608093810080918000816080938B
:101AE00080008091B10084608093B1008091B0004B
:101AF00081608093B00080917A00846080937A0046
:101B000080917A00826080937A0080917A0081606F
:101B100080937A0080917A00806880937A00109296
:101B2000C1001092CB031092CC031092CD031092FF
:101B3000CE03109288031092890310928A031092A8
:101B40008B0368EB7BE080E090E00E94B50889EEB3
:101B500092E09093CA038093C9030E9424080E94D4
:101B6000D204609388037093890380938A039093CF
:101B70008B036CE371E08091C9039091CA030E94CA
:101B8000DC086AE070E080E090E00E94B50881E047
:101B900080939D031092FF011092FE011092FD01AF
:101BA0001092FC0110924D0480934C041092270473
:101BB00061E082E10E94CE0361E083E10E94CE03F6
:101BC0008091B9008E7F8093B9008091B9008D7F9C
:101BD0008093B90088E48093B80085E48093BC00CA
:101BE0008DE592E09093FB018093FA018EE592E0FF
:101BF0009093F9018093F8010E94D2040091880328
:101C00001091890320918A0330918B03DC01CB0171
:101C1000801B910BA20BB30B82339105A105B1057B
:101C200070F442E350E060E070E08A019B01081B21
:101C3000190B2A0B3B0BC901B8010E94B5080E9481
:101C4000D204609388037093890380938A039093EE
:101C50008B036EE471E08091C9039091CA030E94E6
:101C6000DC0880918C03811102C00E94880C65E51C
:101C700071E08091C9039091CA030E94DC0865E578
:101C800071E08091C9039091CA030E94DC0865E568
:101C900071E08091C9039091CA030E94DC080E9400
:101CA000F70A65E571E08091C9039091CA030E942B
:101CB000DC0867E571E08091C9039091CA030E9436
:101CC000DC086AE070E080E090E00E94B5080E94C5
:101CD000240888E08093E3028BE08093E4028CE0A8
:101CE0008093E5028DE08093E60289E08093E7022D
:101CF0008AE08093E80261E088E00E94FD0361E0F1
:101D00008091E4020E94FD0361E08091E5020E945F
:101D1000FD0361E08091E6020E94FD0361E0809195
:101D2000E7020E94FD0361E08091E8020E94FD034A
:101D30000E9416081092DF0281E08093E2028093F5
:101D4000DE021092E10284EB8093DD028093E002D8
:101D50000E9423070E94130A80E691E00E94A208D5
:101D600089E691E00E94A2080E9461098AE891E058
:101D70000E94A20889E691E00E94A20843E0242E76
:101D8000312C0E94D20400911F0210912002209158
:101D9000210230912202DC01CB01801B910BA20BAE
:101DA000B30B86399105A105B10508F4DEC00E9488
:101DB000D20460931F0270932002809321029093BB
:101DC000220261E070E080E090E00E94B5080E948D
:101DD000D204609388037093890380938A0390935D
:101DE0008B036EE471E08091C9039091CA030E9455
:101DF000DC0880918C03811102C00E94880C61E094
:101E000070E080E090E00E94B50865E571E08091A7
:101E1000C9039091CA030E94DC0800E010E0E12CA5
:101E2000F12C412C512C3201C1C40F5F1F4F21E016
:101E3000421651046104710409F4B8C4F801EA5669
:101E4000FE4F8491F801E452FE4FD490F801E8531C
:101E5000FE4FC490CC2009F4A9C481110E94A503AF
:101E6000EC2DF0E0EE0FFF1FEC54FE4FA591B49166
:101E7000EC91DE2209F49AC481E00E2C01C0880F97
:101E80000A94EAF7F82AE39438E0E31609F490C4D8
:101E90004DE0441651046104710409F489C461E001
:101EA00070E080E090E00E94B5085FEF451A550AA7
:101EB000650A750A0D30110509F0B7CF61E070E0D1
:101EC00080E090E00E94B50865E571E08091C9036B
:101ED0009091CA030E94DC0810E0812F80648093F7
:101EE0007C0080917A00806480937A0080917A00EF
:101EF00086FDFCCF409178008091790050E0582B0E
:101F0000052E000C660B770B8091C9039091CA03D4
:101F10000E946C0863E971E08091C9039091CA0343
:101F20000E94DC081F5F1630C1F665E571E0809104
:101F3000C9039091CA030E94DC080E94F70A65E574
:101F400071E08091C9039091CA030E94DC0867E5A3
:101F500071E08091C9039091CA030E94DC0861E09E
:101F600070E080E090E00E94B5080E94D2046B010E
:101F70007C0180911B0290911C02A0911D02B091E6
:101F80001E0297018601081B190B2A0B3B0B083C0C
:101F900011052105310508F464C0C0921B02D092DE
:101FA0001C02E0921D02F0921E0260E08091170474
:101FB0000E94CE03C1010197F1F761E080911704FF
:101FC0000E94CE0383E290E00197F1F760E08091F8
:101FD00017040E94CE038091190490911A04992746
:101FE000FC01E452FE4F6491FC01E853FE4FE49182
:101FF000F0E0EE0FFF1FEC54FE4F8591949100E44A
:1020000012E42FE030E0462F0E94FF0C61157105AD
:102010008105910549F0DC01CB010196A11DB11D9F
:10202000BC01CD019F7003C060E070E0CB010E9455
:10203000DB1920911B0430911C0440911D04509128
:102040001E040E94671B20E030E040E05FE30E9436
:102050003A1A6093130270931402809315029093BE
:1020600016028091170290911802A0911902B09166
:102070001A02A7019601281B390B4A0B5B0B22336E
:1020800031054105510508F48EC3C0921702D09264
:102090001802E0921902F0921A020E94910A8093AB
:1020A0000A028F3F09F405C2082E000C990BAA0BF7
:1020B000BB0BFC01E154F109EA31F10508F0F9C16B
:1020C000EC5CFF4F0C94F21B0E945C081EC084E67F
:1020D0008093E0020E945C0884EB8093E00266EE4D
:1020E00071E0DBC184E68093DD020E945C0884EB32
:1020F0008093DD026CED71E0D0C184E68093E00254
:102100000E944C0884EB8093E00265E971E0C5C150
:1021100084E68093DD020E944C0884EB8093DD020C
:1021200067E971E0BAC10E94640869E971E0B5C16C
:102130000E944C086BE971E0B0C10E9454086DE93F
:1021400071E0ABC10E9416086FE971E08FED93E07A
:102150000E94DF0B6FE971E0A0C10E9423076FE5C9
:1021600071E0CE0188960E94150C42E050E061EAD1
:1021700071E0CE0188960E94520B00E012E09AE0D6
:10218000E92E92E0F92EF801819191918F011BA225
:102190001AA21DA21CA21FA21EA24AE0BE016F5FCE
:1021A0007F4F0E945817BE016F5F7F4FCE0182960E
:1021B0000E94DF0B1A8219821C821B821E821D82E2
:1021C0006AA17BA16115710531F04EA15FA1CE011D
:1021D00001960E94BE0B6FE2CE0101960E94800B19
:1021E000811104C0CE0101960E94930B4D815E8146
:1021F00069817A81CE0188960E94520BCE010196A8
:102200000E94F60BCE0182960E94F60BE016F106B4
:1022100009F0B9CF41E050E064EA71E0CE01889660
:102220000E94520BBE01685D7F4FCE0101960E9455
:10223000FB0BCE0101960E94DE08CE0101960E94A2
:10224000F60BCE01889633C16FE571E0CE01829620
:102250000E94150C00E010E00E94910A883561F19F
:102260008735D1F38F3211F56FE571E0CE0182969B
:102270000E94330B8111F0CF8AA19BA1009719F026
:102280000E94311703C060E070E0CB01F801EE0F4F
:10229000FF1FE050FE4F718360830F5F1F4F6FE59C
:1022A00071E0CE0182960E94DF0BD6CF682FCE015F
:1022B00082960E94800BD0CF66EA71E0CE01019633
:1022C0000E94150CC0C00E94D00668EA71E0E5C00B
:1022D0006091130270911402809115029091160280
:1022E0001BA21AA21DA21CA21FA21EA28E010F5F7A
:1022F0001F4F22E044E00E94F015BC01CE018296FF
:102300000E94DF0B8091E5039091E6030097C9F0EE
:102310006AA17BA16115710591F04091E70350918D
:10232000E8032EA13FA14217530748F00E94E91C81
:102330008EA19FA19093EA038093E90318C00E94A5
:10234000A8168AA19BA19093E6038093E5038CA134
:102350009DA19093E8038093E7038EA19FA19093A2
:10236000EA038093E9031BA21AA21DA21CA21FA2CA
:102370001EA2CE0182960E94F60B6AEA71E0CE019F
:1023800001960E94150C4091E9035091EA03609177
:10239000E5037091E603CE0101960E94520B811174
:1023A00004C0CE0101960E94930B62EA71E0CE0157
:1023B00001960E94A50B68EB71E00E94A50B69ECE9
:1023C00071E00E94A50B62EA71E00E94A50B68EB28
:1023D00071E00E94A50B69EC71E00E94A50B62EA16
:1023E00071E00E94A50B68EB71E00E94A50B69ECFF
:1023F00071E00E94A50B62EA71E00E94A50B68EBF8
:1024000071E00E94A50B69EC71E00E94A50B62EAE5
:1024100071E00E94A50B68EB71E00E94A50B69ECCE
:1024200071E00E94A50BBC01CE0182960E94FB0BBD
:10243000CE0101960E94F60BBE016E5D7F4FCE016C
:1024400001960E94FB0BCE0101960E94DE08CE0190
:1024500001960E94F60BCE01829629C06FEC71E0C6
:10246000CE0101960E94150CCE0101960E94DE0855
:10247000CE0101960E94F60B6FEC71E08FED93E0B8
:102480000E94DF0B16C00E94160861ED71E08FED0F
:1024900093E00E94DF0B61ED71E0CE0101960E9496
:1024A000150CCE0101960E94DE08CE0101960E9415
:1024B000F60B80910A04833021F40E9416080E94D2
:1024C00061096FEC71E08FED93E00E94330B88237C
:1024D00009F469C10E94D2046B017C016091080279
:1024E00070910902072E000C880B990B0E94DB19D2
:1024F0004B015C0140901302509014026090150251
:1025000070901602A30192010E94D41987FF22C085
:102510000E94640880910F0290911002A091110214
:10252000B091120297018601081B190B2A0B3B0B75
:10253000043611052105310568F40E94D2046B01AF
:102540007C0160930F0270931002809311029093AC
:102550001202E0CFA3019201C501B4010E94D91B70
:1025600087FD34C06091060270910702072E000CAF
:10257000880B990B0E94DB199B01AC01C301B201CE
:102580000E94D91B87FD22C00E945C0880910F0227
:1025900090911002A0911102B0911202A701960130
:1025A000281B390B4A0B5B0B2436310541055105BD
:1025B00068F40E94D2046B017C0160930F02709357
:1025C00010028093110290931202E0CF60910602F4
:1025D0007091070261507109072E000C880B990B4E
:1025E0000E94DB199B01AC01C301B2010E94D41906
:1025F0001816A4F16091040270910502072E000CD8
:10260000880B990B0E94DB199B01AC01C301B2013D
:102610000E94D91B87FD22C00E945C0880910F0296
:1026200090911002A0911102B091120297018601BF
:10263000081B190B2A0B3B0B04361105210531052C
:1026400068F40E94D2046B017C0160930F027093C6
:1026500010028093110290931202E0CF6091040265
:102660007091050261507109072E000C880B990BBF
:102670000E94DB199B01AC01C301B2010E94D41975
:102680001816B4F16091020270910302072E000C3B
:10269000880B990B0E94DB199B01AC01C301B201AD
:1026A0000E94D91B87FD24C00E94540880910B0210
:1026B00090910C02A0910D02B0910E02A70196011B
:1026C000281B390B4A0B5B0BDA01C901843F91408F
:1026D000A105B10568F40E94D2046B017C016093EE
:1026E0000B0270930C0280930D0290930E02DECFCA
:1026F000609102027091030261507109072E000C73
:10270000880B990B0E94DB199B01AC01C301B2013C
:102710000E94D4191816A4F1609100027091010270
:10272000072E000C880B990B0E94DB199B01AC0152
:10273000C301B2010E94D91B87FD22C00E944C0830
:1027400080910B0290910C02A0910D02B0910E02AB
:10275000C81AD90AEA0AFB0A44EFC41641E0D406B3
:10276000E104F10468F40E94D2046B017C016093DF
:102770000B0270930C0280930D0290930E02E0CF37
:102780006091000270910102072E000C880B990BDA
:102790000E94DB199B01AC01C301B2010E94D41954
:1027A00087FD0E944C080E94FC01EBCA80E065CBCB
:1027B0004F2D50E060E070E02AE08091C9039091D5
:1027C000CA030E943F0C63E971E08091C9039091B4
:1027D000CA030E94DC08E12CF12C61CB8FED93E061
:1027E0000E94F60B85EE93E00E94F60B81E194E0E7
:1027F0000E94F60B8BE094E00E94F60B8EE291E0D3
:102800009093EC038093EB038091DD039091DE03C2
:102810008B5E934071F4E091FE03F091FF03908191
:10282000809100048095892380831092DE031092AA
:10283000DD030895CF92DF92EF92FF921092EC02A7
:102840001092EB0298EEC92E93E0D92EE12CF12CD8
:10285000C092ED02D092EE02E092EF02F092F0020E
:102860008AE091E09093EA028093E90285EC90E09F
:102870009093F6028093F50284EC90E09093F80236
:102880008093F70280EC90E09093FA028093F90233
:1028900081EC90E09093FC028093FB0282EC90E04C
:1028A0009093FE028093FD0286EC90E090930003EB
:1028B0008093FF021092020310920303109204030C
:1028C0001092050310928D0310928E0310928F03C5
:1028D000109290031092910310929203109293031E
:1028E00010929403109295031092960310929703FE
:1028F000109298031092990310929A0310929B03DE
:1029000010929C031092D2031092D103C092D30371
:10291000D092D403E092D503F092D6038CE191E0FB
:102920009093D0038093CF0361E085E00E94FD0384
:1029300060E083E00E94FD0385E090E0909318043E
:102940008093170483E090E090931A048093190415
:1029500085E89CEFACEDB1E480931B0490931C04DC
:10296000A0931D04B0931E048CE993E5ACE8B2E497
:1029700080931F0490932004A0932104B093220419
:102980001092EE031092ED03C092EF03D092F00389
:10299000E092F103F092F2038EE291E09093EC0367
:1029A0008093EB031092020410920104109204042D
:1029B0001092030410920604109205041092080469
:1029C00010920704609109046E7F6D7F6093090483
:1029D0006695617081E0682784E00E94CE0361E023
:1029E00084E00E94FD03E0EEF1E0E491E093FB035C
:1029F000ECECF1E0E491F0E0EE0FFF1FE254FE4F4B
:102A0000859194919093FD038093FC0360E082E0B4
:102A10000E94FD038091090481FD04C061E082E011
:102A20000E94CE0382E08093F703EEEDF1E0E491A3
:102A3000E093F803EAECF1E0E491F0E0EE0FFF1F21
:102A4000EC54FE4F859194919093FA038093F9038F
:102A50006FE571E08BE094E00E94150C6FE571E08A
:102A600081E194E00E94150C63ED71E08BE094E04D
:102A70000E94DF0B6EED71E081E194E00E94DF0BBC
:102A800010920A0410920604109205041092040495
:102A90001092030410920204109201048DE991E057
:102AA00090930804809307049091F703963108F0FF
:102AB00058C02DEB30E030930204209301042BE941
:102AC00031E030930404209303042CE231E030938E
:102AD00006042093050440916800983058F031E0D6
:102AE0009E3008F430E021E0822F01C0880F3A9533
:102AF000EAF701C084E0842B80936800983038F0B6
:102B00009E3040F0963148F020E030E008C02DE6DD
:102B100030E005C02BE630E002C02CE630E0309318
:102B2000FF032093FE03983030F481E001C0880F4A
:102B30009A95EAF70EC0292F30E09E3018F42850FD
:102B4000310902C02E50310981E001C0880F2A9559
:102B5000EAF780930004809107049091080401979C
:102B6000F1F78091050490910604892B49F1E091D9
:102B7000DD03F091DE0383E0EB3EF80709F13097C7
:102B800039F0A389B4899C918589809589238C9398
:102B9000809109048E7F809309041092DC031092C7
:102BA000DB038BEE93E09093DE038093DD03E091F3
:102BB000FE03F091FF03908180910004892B8083B4
:102BC0006FE571E085EE93E00E94150C61ED71E018
:102BD0008FED93E0FF90EF90DF90CF900C94150C69
:102BE000EF920F931F93CF93DF93E80147FD02C04D
:102BF00034E001C034E1042E000C550B57FF03C034
:102C0000519541955109E32E022F242FAE010E94C8
:102C10009217CE01DF91CF911F910F91EF90089500
:102C20000F931F93CF93DF938230910510F482E0CE
:102C300090E0E0915004F091510420E030E0A0E0F9
:102C4000B0E0309719F1408151810281138148171A
:102C50005907C8F08417950769F4109731F0129658
:102C60000C93129713961C9327C000935004109353
:102C7000510422C02115310519F04217530718F4E9
:102C80009A01BD01EF01DF01F801DBCF211531050C
:102C9000F9F0281B390B2430310580F48A819B819F
:102CA0006115710521F0FB019383828304C0909329
:102CB000510480935004FE01329644C0FE01E20F9D
:102CC000F31F8193919322503109398328833AC0AD
:102CD00020914E0430914F04232B41F420910201A6
:102CE0003091030130934F0420934E042091000152
:102CF000309101012115310541F42DB73EB74091C6
:102D0000040150910501241B350BE0914E04F09114
:102D10004F04E217F307A0F42E1B3F0B28173907C7
:102D200078F0AC014E5F5F4F2417350748F04E0F27
:102D30005F1F50934F0440934E048193919302C0C0
:102D4000E0E0F0E0CF01DF91CF911F910F91089566
:102D5000CF93DF93009709F481C0FC01329713826F
:102D60001282A0915004B0915104109781F42081F7
:102D70003181820F931F20914E0430914F04281708
:102D8000390751F5F0934F04E0934E0467C0ED010D
:102D900020E030E0CE17DF0740F44A815B819E01DE
:102DA00041155105F1F0EA01F5CFD383C28340818B
:102DB0005181840F951FC817D90759F488819981CB
:102DC000840F951F0296918380838A819B819383D0
:102DD00082832115310529F4F0935104E0935004C6
:102DE0003DC0E901FB83EA8349915991C40FD51F86
:102DF000EC17FD0761F480819181840F951F029685
:102E0000E90199838883828193819B838A83E0E0AF
:102E1000F0E012968D919C911397009719F0FD01A7
:102E2000DC01F7CF8D919C9111979D012E5F3F4F53
:102E3000820F931F20914E0430914F0428173907B9
:102E400069F4309729F4109251041092500402C092
:102E500013821282B0934F04A0934E04DF91CF915E
:102E600008951F93FC0199278827BC01E8941191CC
:102E70001032E9F3193010F01E30C8F31B3251F054
:102E80001D3249F4689406C00E946317610F711DDA
:102E9000811D911D119110531A30B0F33EF490959D
:102EA0008095709561957F4F8F4F9F4F1F9108952B
:102EB000BB274A3031F4992322F4BDE290958195E5
:102EC0009F4F0C947917592F482F372F262F660FB5
:102ED000771F881F991F660F771F881F991F620F22
:102EE000731F841F951F660F771F881F991F0895F2
:102EF000BB27FB015527AA27880F991FAA1FA417D4
:102F000010F0A41B83955051B9F7A05DAA3308F0C7
:102F1000A95DA193009779F7B111B1931192CB01FB
:102F20000C94C419A9E0B0E0E8E9F7E10C94361B71
:102F30006A01122FB02E2BE3201720F0FF24F39408
:102F4000F00E02C02CE3F22E0F2D27E0AE014F5FF2
:102F50005F4F0E94EC18BC014981842F8970813039
:102F600031F0E1FC06C0E0FE06C090E205C09DE243
:102F700003C09BE201C090E05E2D507143FF3CC056
:102F8000911102C083E001C084E0811718F4212F61
:102F9000281B01C020E051110BC0F601822F30E246
:102FA000882319F031938150FBCFC20ED11C20E051
:102FB000992329F0D6019C93F60131966F01C60141
:102FC0000396E2FE0AC03EE4D6013C9341E411962A
:102FD0004C93119712963C9306C03EE6F60130835F
:102FE00041E641833283FC01322F40E2332309F46E
:102FF00042C041933150FACF42FF44C0911102C008
:1030000083E001C084E0811718F4212F281B01C040
:1030100020E051110BC0F601822F30E2882319F015
:1030200031938150FBCFC20ED11C20E0992329F0AF
:10303000D6019C93F60131966F01C6010396E2FE1C
:103040000BC039E4D6013C933EE411963C931197B2
:1030500036E412963C9307C039E6F60130833EE62B
:10306000318336E63283FC01322F40E2332319F0FC
:1030700041933150FBCFFC01E20FF11D10828EEF26
:103080009FEFA6C021E030E0911102C020E030E0C7
:10309000161617061CF4FB01319602C0E1E0F0E0C1
:1030A0002E0F3F1FBB2021F0EB2DF0E0319602C028
:1030B000E0E0F0E02E0F3F1FE12FF0E02E173F077A
:1030C0001CF4121B212F01C020E08E2D887159F4B1
:1030D000F601822F30E2882319F031938150FBCF23
:1030E000C20ED11C20E0992329F0D6019C93F60151
:1030F00031966F0151110BC0F601822F90E38823A6
:1031000019F091938150FBCFC20ED11C20E00F2DFE
:10311000060F9A81342F307144FF03C0913309F4B4
:103120000150101624F4093018F008E001C001E045
:10313000AB0177FF02C040E050E0FB01E41BF50B60
:10314000A1E0B0E0AC0FBD1FEA0FFB1F8EE2A82E7E
:103150004B01801A91080B2D10E011950195110972
:103160004F3FBFEF5B0721F4D601AC9211966D0182
:10317000641775072CF08416950614F4818101C03C
:1031800080E3415051093196D60111967D014017D7
:10319000510724F0D6018C936701E2CF64177507BD
:1031A00039F4963320F4953319F4311101C081E3D9
:1031B000F6018083F701822F90E2882319F0919322
:1031C0008150FBCFF701E20FF11D108280E090E00B
:1031D0002996ECE00C94521B283008F027E03327A6
:1031E000DA01990F311D87FD916000966105710527
:1031F00039F432602E5F3D9330E32A95E1F708956C
:103200009F3F30F080387105610509F03C5F3C5FFD
:103210003D93913008F08068911DDF93CF931F9309
:103220000F93FF92EF92192F987F9695E92F96951D
:103230009695E90FFF27EA50FF4F99273327EE2491
:10324000FF24A701E70105900894079428F4360F9E
:10325000E71EF81E491F511D660F771F881F991F13
:103260000694A1F70590079428F4E70EF81E491F6D
:10327000561FC11D770F881F991F661F0694A1F75F
:103280000590079428F4F80E491F561FC71FD11D3B
:10329000880F991F661F771F0694A1F70590079462
:1032A00020F4490F561FC71FD81F990F661F771F9D
:1032B000881F0694A9F784911095177041F0D69550
:1032C000C79557954795F794E7941A95C1F7ECE998
:1032D000F0E0689415901591359165919591059060
:1032E0007FE27395E118F10A430B560BC90BD00925
:1032F000C0F7E10CF11E431F561FC91FD01D7EF4FD
:10330000703311F48A95E6CFE894015030F0080F3D
:103310000AF40027021708F4202F2395022F7A338E
:1033200028F079E37D932A95E9F710C07D932A95DB
:1033300089F6069497956795379517951794E11830
:10334000F10A430B560BC90BD00998F023957E91D7
:1033500073957A3308F070E37C932013B8F77E916D
:1033600070617D9330F0839571E37D9370E32A95CE
:10337000E1F71124EF90FF900F911F91CF91DF9112
:10338000992787FD90950895DC01FC01672F7191C5
:103390007723E1F7329704C07C916D93708362913B
:1033A000AE17BF07C8F308950E94161A08F481E00B
:1033B0000895E89409C097FB3EF490958095709528
:1033C00061957F4F8F4F9F4F9923A9F0F92F96E971
:1033D000BB279395F695879577956795B795F111E6
:1033E000F8CFFAF4BB0F11F460FF1BC06F5F7F4F83
:1033F0008F4F9F4F16C0882311F096E911C0772395
:1034000021F09EE8872F762F05C0662371F096E89D
:10341000862F70E060E02AF09A95660F771F881F6C
:10342000DAF7880F9695879597F90895990F000810
:10343000550FAA0BE0E8FEEF16161706E807F90786
:10344000C0F012161306E407F50798F0621B730B21
:10345000840B950B39F40A2661F0232B242B252BA2
:1034600021F408950A2609F4A140A6958FEF811D45
:10347000811D08950E944D1A0C94BE1A0E94B01A24
:1034800038F00E94B71A20F0952311F00C94A71A77
:103490000C94AD1A11240C94F21A0E94CF1A70F3F6
:1034A000959FC1F3950F50E0551F629FF001729FE9
:1034B000BB27F00DB11D639FAA27F00DB11DAA1FF8
:1034C000649F6627B00DA11D661F829F2227B00D45
:1034D000A11D621F739FB00DA11D621F839FA00DD0
:1034E000611D221F749F3327A00D611D231F849F20
:1034F000600D211D822F762F6A2F11249F57504077
:103500009AF0F1F088234AF0EE0FFF1FBB1F661FF1
:10351000771F881F91505040A9F79E3F510580F0BA
:103520000C94A71A0C94F21A5F3FE4F3983ED4F37C
:10353000869577956795B795F795E7959F5FC1F75E
:10354000FE2B880F911D9695879597F9089597F909
:103550009F6780E870E060E008959FEF80EC089539
:1035600000240A9416161706180609060895002462
:103570000A9412161306140605060895092E0394DC
:10358000000C11F4882352F0BB0F40F4BF2B11F450
:1035900060FF04C06F5F7F4F8F4F9F4F089557FDAF
:1035A0009058440F551F59F05F3F71F04795880FB1
:1035B00097FB991F61F09F3F79F087950895121648
:1035C00013061406551FF2CF4695F1DF08C01616F4
:1035D00017061806991FF1CF8695710561050894A5
:1035E0000895E894BB2766277727CB0197F90895BC
:1035F000F999FECF92BD81BDF89A992780B50895BB
:10360000262FF999FECF1FBA92BD81BD20BD0FB6FE
:10361000F894FA9AF99A0FBE01960895A1E21A2E2B
:10362000AA1BBB1BFD010DC0AA1FBB1FEE1FFF1F66
:10363000A217B307E407F50720F0A21BB30BE40BB6
:10364000F50B661F771F881F991F1A9469F76095FD
:103650007095809590959B01AC01BD01CF010895B7
:103660002F923F924F925F926F927F928F929F9292
:10367000AF92BF92CF92DF92EF92FF920F931F9380
:10368000CF93DF93CDB7DEB7CA1BDB0B0FB6F89431
:10369000DEBF0FBECDBF09942A88398848885F8471
:1036A0006E847D848C849B84AA84B984C884DF80E2
:1036B000EE80FD800C811B81AA81B981CE0FD11DC6
:1036C0000FB6F894DEBF0FBECDBFED0108950E9486
:1036D0007B1B0C94BE1A0E94B71A58F00E94B01AB5
:1036E00040F029F45F3F29F00C94A71A51110C9473
:1036F000F21A0C94AD1A0E94CF1A68F39923B1F311
:10370000552391F3951B550BBB27AA276217730707
:10371000840738F09F5F5F4F220F331F441FAA1F9B
:10372000A9F335D00E2E3AF0E0E832D09150504057
:10373000E695001CCAF72BD0FE2F29D0660F771F05
:10374000881FBB1F261737074807AB07B0E809F0EB
:10375000BB0B802DBF01FF2793585F4F3AF09E3F70
:10376000510578F00C94A71A0C94F21A5F3FE4F319
:10377000983ED4F3869577956795B795F7959F5FB3
:10378000C9F7880F911D9695879597F90895E1E0FF
:10379000660F771F881FBB1F621773078407BA075E
:1037A00020F0621B730B840BBA0BEE1F88F7E095B9
:1037B00008950E94161A08F48FEF089597FB072EBC
:1037C00016F4009407D077FD09D00E94F81B07FC7F
:1037D00005D03EF4909581959F4F08957095619521
:1037E0007F4F0895EE0FFF1F0590F491E02D09948F
:1037F000AA1BBB1B51E107C0AA1FBB1FA617B70717
:1038000010F0A61BB70B881F991F5A95A9F7809532
:103810009095BC01CD010895A0E0B0E0E2E1FCE1AB
:103820000C94341BEC01009721F4CB010E9410167C
:10383000B4C0FC01E60FF71F9C0122503109E217CA
:10384000F30708F4A8C0D9010D911C911197061730
:103850001707B0F00530110508F49BC0C8010497A4
:103860008617970708F495C002501109061B170B1D
:10387000019311936D937C93CF010E94A81689C088
:103880005B01A01AB10A4C01800E911EA091500458
:10389000B0915104612C712CE12CF12C109709F49A
:1038A00046C08D919C911197A815B905B1F56C0191
:1038B00042E0C40ED11CCA14DB0478F14C018A1812
:1038C0009B08640142E0C40ED11C1296BC90129772
:1038D0001396AC91B5E0CB16D10440F0B282A3832D
:1038E00091828082D9016D937C9309C00E5F1F4F36
:1038F000800F911FF90191838083EB2DFA2FE11442
:10390000F10431F0D7011396FC93EE93129741C066
:10391000F0935104E09350043CC06816790608F413
:103920003C017D0112960D90BC91A02DB7CF8091E6
:103930004E0490914F0488169906E1F466167706B6
:10394000C8F48091000190910101009741F48DB776
:103950009EB74091040150910501841B950BE81717
:10396000F907C8F4F0934F04E0934E04F901718312
:1039700060830FC0CB010E9410167C01009759F0A4
:10398000A801BE010E94D71CCE010E94A816C70143
:1039900004C0CE0102C080E090E0CDB7DEB7EEE01B
:1039A0000C94501B81E090E0F8940C94F01CFB0107
:1039B000DC0102C001900D9241505040D8F70895AB
:1039C000FB01DC018D91019080190110D9F3990B55
:1039D0000895FB01DC0101900D920020E1F70895AC
:1039E00010E0C9EFD0E004C0FE010E94F21B219656
:0A39F000CA3FD107C9F7F894FFCFD2
:1039FA00000052048000000000008D01A60A240184
:103A0A00DA015501330147010000000096028B02DA
:103A1A0048035F0283026F02600200000000BF02D7
:103A2A00A60A48035F020F032703A702564D445014
:103A3A00565F317C315F564D4450560D0A00564D43
:103A4A004450525F007C005F564D4450520D0A00AC
:103A5A007061697261626C65002A2D2D2D2D2D2DE4
:103A6A002D2D2D2D2D2D2D2D2D2D2D2D2D2D2D2D7C
:103A7A002D2D2D2D2D2D2D2D2A00636F6E6E656334
:103A8A007465003A0046004800520042004C005358
:103A9A00004F2F005800570051005A2F4469737481
:103AAA00616E6365203A200054656D70EFBFBD7288
:103ABA006174757265203A200032312E303200412D
:103ACA00004D00434F4E4E454354494E4700434F25
:103ADA004E4E4543544544004F4B0041540050411B
:083AEA00495241424C45000025
:107E0000112484B714BE81FFF0D085E080938100F7
:107E100082E08093C00088E18093C10086E0809377
:107E2000C20080E18093C4008EE0C9D0259A86E02C
:107E300020E33CEF91E0309385002093840096BBD3
:107E4000B09BFECF1D9AA8958150A9F7CC24DD24C4
:107E500088248394B5E0AB2EA1E19A2EF3E0BF2EE7
:107E6000A2D0813461F49FD0082FAFD0023811F036
:107E7000013811F484E001C083E08DD089C08234E0
:107E800011F484E103C0853419F485E0A6D080C0E4
:107E9000853579F488D0E82EFF2485D0082F10E0AE
:107EA000102F00270E291F29000F111F8ED06801E7
:107EB0006FC0863521F484E090D080E0DECF843638
:107EC00009F040C070D06FD0082F6DD080E0C81688
:107ED00080E7D80618F4F601B7BEE895C0E0D1E017
:107EE00062D089930C17E1F7F0E0CF16F0E7DF06D8
:107EF00018F0F601B7BEE89568D007B600FCFDCFD4
:107F0000A601A0E0B1E02C9130E011968C91119780
:107F100090E0982F8827822B932B1296FA010C0160
:107F200087BEE89511244E5F5F4FF1E0A038BF0790
:107F300051F7F601A7BEE89507B600FCFDCF97BE46
:107F4000E89526C08437B1F42ED02DD0F82E2BD052
:107F50003CD0F601EF2C8F010F5F1F4F84911BD097
:107F6000EA94F801C1F70894C11CD11CFA94CF0C13
:107F7000D11C0EC0853739F428D08EE10CD085E9AC
:107F80000AD08FE07ACF813511F488E018D01DD067
:107F900080E101D065CF982F8091C00085FFFCCF94
:107FA0009093C60008958091C00087FFFCCF809118
:107FB000C00084FD01C0A8958091C6000895E0E648
:107FC000F0E098E1908380830895EDDF803219F02E
:107FD00088E0F5DFFFCF84E1DECF1F93182FE3DFCA
:107FE0001150E9F7F2DF1F91089580E0E8DFEE27F6
:047FF000FF270994CA
:027FFE00040479
:0400000300007E007B
:00000001FF