:100000000C94FA000C9422010C9422010C945606D4
:100010000C9456060C9456060C9422010C94220162
:100020000C9422010C9422010C9422010C942201C4
:100030000C9422010C9422010C9422010C942201B4
:100040000C94DE040C9422010C9473030C944D0365
:100050000C9422010C9422010C9422010C94220194
:100060000C9428050C942201B7122111E212F01011
:10007000E212ED10FB101111E2120611E21226112C
:10008000CC12E2123611E212EC111C112B11E21209
:10009000E212E212AD11E212E212F11100407A1006
:1000A000F35A00A0724E18090010A5D4E80000E829
:1000B0007648170000E40B54020000CA9A3B000087
:1000C00000E1F505000080969800000040420F0016
:1000D0000000A08601000000102700000000E803D7
:1000E000000000006400000000000A0000000000A2
:1000F0000100000000002C76D888DC674F0823DF61
:10010000C1DFAE59E1B1B796E5E3E453C63AE65133
:10011000997696E8E6C28426EB898C9B62ED407C5A
:100120006FFCEFBC9C9F40F2BAA56FA5F490055AF6
:100130002AF75C936B6CF9676DC11BFCE0E40D471B
:10014000FEF520E6B500D0ED902E0300943577053E
:100150000080841E080000204E0A000000C80C33F6
:100160003333330F986E12831141EF8D2114893B85
:10017000E65516CFFEE6DB18D1844B381BF77C1D05
:10018000901DA4BBE424203284725E228100C9F158
:1001900024ECA1E53D270000000800020100000357
:1001A0000407000000000000000000000000240020
:1001B00027002A000000000023002600290000007C
:1001C0000000250028002B00040404040404040497
:1001D00002020202020203030303030301020408F2
:1001E00010204080010204081020010204081020A1
:1001F000A314771411241FBECFEFD8E0DEBFCDBF0C
:1002000012E0A0E0B1E0ECE0FBE302C005900D924B
:10021000A639B107D9F724E0A6E9B2E001C01D92E2
:10022000A03FB207E1F710E0C9EFD0E004C021978A
:10023000FE010E947B1CC83FD107C9F70E94CD0D6B
:100240000C94791D0C940000FC01538D448D252FD6
:1002500030E0842F90E0821B930B541710F0CF9660
:10026000089501970895FC01918D828D981761F092
:10027000828DDF01A80FB11D5D968C91928D9F5FDD
:100280009F73928F90E008958FEF9FEF0895FC0188
:10029000918D828D981731F0828DE80FF11D858D3B
:1002A00090E008958FEF9FEF0895FC01918D228DCE
:1002B000892F90E0805C9F4F821B91098F73992753
:1002C000089587E893E00E94550121E0892B09F405
:1002D00020E0822F0895FC01848DDF01A80FB11D5D
:1002E000A35ABF4F2C91848D90E001968F7399276C
:1002F000848FA689B7892C93A089B1898C9183704A
:1003000080648C93938D848D981306C00288F38942
:10031000E02D80818F7D80830895EF92FF920F936F
:100320001F93CF93DF93EC0181E0888F9B8D8C8DA1
:10033000981305C0E889F989808185FD26C0F62ECD
:100340000B8D10E00F5F1F4F0F731127E02E8C8D68
:10035000E8120CC00FB607FCFACFE889F989808152
:1003600085FFF5CFCE010E946B01F1CF8B8DFE0191
:10037000E80FF11DE35AFF4FF0829FB7F8940B8FFF
:10038000EA89FB89808180620AC09FB7F894EE8970
:10039000FF896083E889F989808183708064808324
:1003A0009FBF81E090E0DF91CF911F910F91FF906F
:1003B000EF900895CF93DF93EC01888D8823C9F0E7
:1003C000EA89FB89808185FD05C0A889B9898C915E
:1003D00086FD0FC00FB607FCF5CF808185FFF2CFF9
:1003E000A889B9898C9185FFEDCFCE010E946B0160
:1003F000E7CFDF91CF91089580E090E0892B29F03D
:100400000E94610181110C94000008953FB7F89497
:100410008091770390917803A0917903B0917A034A
:1004200026B5A89B05C02F3F19F00196A11DB11D4F
:100430003FBFBA2FA92F982F8827820F911DA11D8A
:10044000B11DBC01CD0142E0660F771F881F991FC7
:100450004A95D1F7089585ED8093BC008091BC004A
:1004600084FDFCCF1092EB04089540914F03262F9A
:1004700030E0240F311D21323105DCF42091EB04F2
:100480002430C9F4FC0180E090E0861758F43091E4
:100490004F032191DC01A15DBC4FA30FB11D2C9333
:1004A0000196F3CF80914F03680F60934F0380E074
:1004B000089581E0089582E00895089508950895CB
:1004C000E0919D0280919C02E81730F4F0E0E15F3A
:1004D000FC4F808190E008958FEF9FEF08959091F9
:1004E0009D0280919C02981750F4E92FF0E0E15FA3
:1004F000FC4F208130E09F5F90939D0202C02FEF60
:100500003FEFC901089580919C0290E020919D02E7
:10051000821B91090895CF93DF93CB01EA01642FE9
:100520000E943502CE01DF91CF910895CF93DF93E2
:100530001F92CDB7DEB7698361E0CE0101960E94BC
:10054000350281E090E00F90DF91CF9108952091E6
:100550007B0430917C042817390771F49091790459
:1005600080917A04981741F0E0917904F0E0E1532A
:10057000FD4F808190E008958FEF9FEF08951F93C6
:10058000CF93DF93DC015C968D919C915D970097F2
:1005900039F421E030E013963C932E9312973BC040
:1005A0005196ED91FC91529750962C915097322F85
:1005B00030951FB75E964C915E97742F727041FD17
:1005C0006095F8944081772311F0422B01C04323BA
:1005D0004083EC012197F1F748E0508160FF02C0B1
:1005E000522B01C053235083EC012197F1F76695FC
:1005F000415099F78081772319F08323808302C0CB
:10060000282B20831FBF5C968D919C915D9701974D
:10061000F1F781E090E0DF91CF911F910895209153
:100620007B0430917C042817390771F480917A0497
:100630002091790490E0805C9F4F821B910960E4D7
:1006400070E00E94671C089580E090E0089520917A
:100650007B0430917C0428173907B9F49091790410
:1006600080917A04981789F0E0917904F0E0E153E1
:10067000FD4F80812091790430E02F5F3F4F2F7331
:1006800033272093790490E008958FEF9FEF08952A
:1006900080E090E008950E945B1D1F920F920FB6BC
:1006A0000F9211242F933F934F935F936F937F93F8
:1006B0008F939F93AF93BF93EF93FF9387E893E05C
:1006C0000E946B01FF91EF91BF91AF919F918F912C
:1006D0007F916F915F914F913F912F910F900FBE3E
:1006E0000F901F9018951F920F920FB60F92112422
:1006F0002F938F939F93EF93FF93E0919703F09144
:1007000098038081E0919D03F0919E0382FD12C0C9
:1007100090818091A0038F5F8F732091A103821736
:1007200051F0E091A003F0E0E957FC4F958F8093E2
:10073000A00301C08081FF91EF919F918F912F9134
:100740000F900FBE0F901F901895833081F028F402
:10075000813099F08230A1F008958730A9F0883077
:10076000B9F08430D1F4809180008F7D03C08091F6
:1007700080008F7780938000089584B58F7702C0C2
:1007800084B58F7D84BD08958091B0008F7703C0BC
:100790008091B0008F7D8093B00008951F93CF9318
:1007A000DF93282F30E0F901EA56FE4F8491F901DA
:1007B000E452FE4FD491F901E853FE4FC491CC238B
:1007C000C1F0162F81110E94A503EC2FF0E0EE0F6F
:1007D000FF1FE254FE4FA591B4919FB7F8941111F9
:1007E00004C08C91D095D82302C0EC91DE2BDC9311
:1007F0009FBFDF91CF911F910895CF93DF9390E03A
:10080000FC01E452FE4F2491FC01E853FE4F849119
:10081000882361F190E0880F991FFC01E655FE4F97
:10082000C591D491FC01E254FE4FA591B4916111A0
:1008300009C09FB7F8948881209582238883EC9122
:100840002E230BC0623061F49FB7F8948881322F59
:10085000309583238883EC912E2B2C939FBF06C069
:100860008FB7F894E8812E2B28838FBFDF91CF912B
:1008700008951F93CF93DF93182FEB0161E00E943F
:10088000FD03209711F460E004C0CF3FD10539F497
:1008900061E0812FDF91CF911F910C94CE03E12F66
:1008A000F0E0EA56FE4FE491E330F9F048F4E1302D
:1008B000B9F0E230A1F584B5806284BDC8BD34C012
:1008C000E730E9F0E83019F1E43049F58091800033
:1008D000806280938000D0938B00C0938A0024C0F4
:1008E00084B5806884BDC7BD1FC0809180008068CA
:1008F00080938000D0938900C093880015C08091B8
:10090000B00080688093B000C093B3000DC08091A8
:10091000B00080628093B000C093B40005C0C038BE
:10092000D1050CF0B5CFAFCFDF91CF911F910895D6
:100930008F929F92AF92BF92CF92DF92EF92FF92EF
:100940006B017C010E9406024B015C01C114D104C1
:10095000E104F104F1F00E940602DC01CB018819E8
:100960009909AA09BB09883E9340A105B10570F316
:1009700021E0C21AD108E108F10888EE880E83E070
:10098000981EA11CB11CC114D104E104F10419F793
:10099000DDCFFF90EF90DF90CF90BF90AF909F9012
:1009A0008F9008952FB7F89460917303709174033A
:1009B00080917503909176032FBF08951F920F9237
:1009C0000FB60F9211242F933F938F939F93AF9362
:1009D000BF938091730390917403A0917503B091BC
:1009E00076033091720323E0230F2D3720F4019614
:1009F000A11DB11D05C026E8230F0296A11DB11D42
:100A0000209372038093730390937403A0937503F0
:100A1000B09376038091770390917803A091790346
:100A2000B0917A030196A11DB11D80937703909335
:100A30007803A0937903B0937A03BF91AF919F910C
:100A40008F913F912F910F900FBE0F901F9018958F
:100A50001F920F920FB60F9211242F933F934F9333
:100A60005F936F937F938F939F93AF93BF93EF9316
:100A7000FF938091B900887F803609F49CC068F5A7
:100A8000883209F45BC090F4803109F454C038F422
:100A9000882309F4F6C0883009F44DC0F6C08831C7
:100AA00009F44CC0803209F45DC0EFC0803409F411
:100AB00068C048F4803309F455C0883309F0E5C0B4
:100AC0008093E904D8C0803509F44FC0883509F413
:100AD0005DC0883409F0D9C0D6C0883909F4C7C0D0
:100AE000A8F4883709F467C038F4883609F463C07D
:100AF000803709F460C0C9C0883809F4B8C08039AB
:100B000009F45FC0803809F0C0C05BC0803B09F4C5
:100B100086C038F4803A09F466C0883A09F47FC088
:100B2000B4C0803C09F4A7C0883C09F4A4C0883B49
:100B300009F48AC0AAC08091C60410C09091E8044C
:100B40008091E704981770F5E091E80481E08E0F3A
:100B50008093E804F0E0E953FB4F80818093BB0071
:100B600085EC86C08093E9048EC0E091E80481E0C2
:100B70008E0F8093E8048091BB00F0E0E953FB4FB7
:100B800080839091E8048091E7046EC0E091E804CE
:100B900081E08E0F8093E8048091BB00F0E0E95380
:100BA000FB4F80838091EA0481116DC081E08093C6
:100BB000C50484EA61C083E08093EB041092710362
:100BC000CFCF80917103803208F051C0E091710362
:100BD00081E08E0F809371038091BB00F0E0EF5AAB
:100BE000FC4F8083BDCF85EC8093BC001092EB045A
:100BF00080917103803230F4E0917103F0E0EF5A9C
:100C0000FC4F10826091710370E0E0919602F091C8
:100C1000970281E593E009951092710336C084E054
:100C20008093EB041092500310924F03E0919802CE
:100C3000F0919902099580914F03811105C081E0DF
:100C400080934F0310922F03E091500381E08E0FA9
:100C500080935003F0E0E15DFC4F80818093BB0006
:100C60009091500380914F03981708F479CF85E84D
:100C70008093BC000AC085EC8093BC001092EB040A
:100C800004C01092E9040E942B02FF91EF91BF91E2
:100C9000AF919F918F917F916F915F914F913F9114
:100CA0002F910F900FBE0F901F9018951F920F92CB
:100CB0000FB60F9211242F933F934F935F936F932F
:100CC0007F938F939F93AF93BF93EF93FF93E091A5
:100CD0007B04F0917C04309709F451C0968DA68571
:100CE000B785858591FF04C09C91892329F447C06D
:100CF0009C91892309F043C0A389B4899C9185897B
:100D0000809589238C93868997890197F1F7608D67
:100D1000718DA685B785558538E020E0CB01019718
:100D2000F1F7822F90E095958795282F4C914523D8
:100D300009F02068315091F7868D81FD20958091D2
:100D40007A0490E001968F739927309179043817CF
:100D500049F0A0917A04B0E0A153BD4F2C93809349
:100D60007A0403C0868D8160868F828D938D019772
:100D7000F1F7A389B4899C918589892B8C93FF9184
:100D8000EF91BF91AF919F918F917F916F915F9103
:100D90004F913F912F910F900FBE0F901F9018957C
:100DA000FF920F931F93CF93DF9386E190E0A0E033
:100DB000B0E08093C1029093C202A093C302B093AB
:100DC000C40280919E0290919F029093CE028093E4
:100DD000CD028091A0029091A1029093CC028093C9
:100DE000CB028091A2029091A3029093CA028093B9
:100DF000C9028091A4029091A5029093C8028093A9
:100E0000C7028091A6029091A7029093C602809398
:100E1000C50201EC12E0C0E0D0E0F801F1908F01D2
:100E2000CE010E94811BF81621F06F2DCE010E9489
:100E3000891B2196CE30D10581F783ED91E00E9488
:100E4000DF0881EF91E00E94DF0880919E0290917F
:100E50009F020E94280988EF91E00E94DF0880919C
:100E6000A0029091A1020E9428098FEF91E00E94B8
:100E7000DF088091A2029091A3020E94280986E0D7
:100E800092E00E94DF088091A4029091A5020E9446
:100E900028098DE092E00E94DF088091A6029091DF
:100EA000A7020E94280986E192E00E94DF086DE512
:100EB00071E087E893E0DF91CF911F910F91FF9050
:100EC0000C94B30C0F931F93CF93DF9301EC12E0BC
:100ED000C0E0D0E0CE010E94811BF80181938F0118
:100EE0002196CE30D105B1F78091C1029091C20216
:100EF000A091C302B091C4024697A105B105F1F0DB
:100F000081E090E09093CE028093CD0282E090E069
:100F10009093CC028093CB0283E090E09093CA023E
:100F20008093C90284E090E09093C8028093C70246
:100F300085E090E09093C6028093C5028091CD0237
:100F40009091CE0290939F0280939E020E94280966
:100F50008091CB029091CC029093A1028093A00249
:100F60008091C9029091CA029093A3028093A20239
:100F70008091C7029091C8029093A5028093A40229
:100F80008091C5029091C6029093A7028093A60219
:100F90000E94D00687E392E00E94DF0881EF91E093
:100FA0000E94DF0880919E0290919F020E94280972
:100FB00088EF91E00E94DF088091A0029091A10249
:100FC0000E9428098FEF91E00E94DF088091A20221
:100FD0009091A3020E94280986E092E00E94DF0817
:100FE0008091A4029091A5020E9428098DE092E0D0
:100FF0000E94DF088091A6029091A7020E94280912
:1010000085E592E00E94DF086DE571E087E893E0F6
:10101000DF91CF911F910F910C94B30CCF93DF937D
:10102000DC01ED91FC91EB01A881B981309711F0C1
:101030001097C9F4109759F0EB012C813D81232BB7
:1010400031F08C9190E091958195910914C0309781
:1010500081F0DC0114968D919C911597892B49F0B4
:10106000808190E008C0BD01CF01DF91CF910C9449
:10107000691D80E090E0DF91CF9108950F931F9359
:10108000CF93DF93C82FD62F80917D0386131AC08C
:10109000CC2319F010E001E002C011E000E0609103
:1010A0007B03062E000C770B809185030E94390488
:1010B000602F809181030E94CE03612F8091820373
:1010C0000E94CE0380918003D8131EC0CC2319F058
:1010D000C0E0D1E002C0C1E0D0E060917E03062E06
:1010E000000C770B809186030E9439046D2F80914C
:1010F00083030E94CE036C2F80918403DF91CF91F4
:101100001F910F910C94CE03DF91CF911F910F91FE
:101110000895CF93DF93CBE7D3E060E08A850E9408
:10112000CE0360E08B85DF91CF910C94CE03E7E88E
:10113000F3E0A089B18982E08C93A485B5851C92E7
:10114000A685B7858FEC8C93108EA489B58986E02F
:101150008C93A289B3898C9180618C93A289B38985
:101160008C9188608C93A289B3898C9180688C93D0
:101170000288F389E02D80818F7D8083089561E06E
:1011800081E00E943E0860E080E00C943E0861E04F
:1011900080E00E943E0860E080E00C943E0860E041
:1011A00081E00E943E0861E080E00C943E0861E02E
:1011B00081E00E943E0860E081E00C943E08CF93FD
:1011C000DF93BC0187E893E00E94B30CEC016DE56E
:1011D00071E087E893E00E94B30C8C0F9D1FDF91B4
:1011E000CF910895CF92DF92EF92FF920F931F93CA
:1011F000CF93DF9377FF21C06A017B01EC01E88187
:10120000F9810190F081E02D6DE209958C01442770
:101210005527BA014C195D096E097F092AE0CE01F4
:101220000E94C80C800F911FDF91CF911F910F91E9
:10123000FF90EF90DF90CF9008952AE0DF91CF915B
:101240001F910F91FF90EF90DF90CF900C94C80CFE
:10125000CF93DF93AC01990F660B770B87E893E090
:101260000E94F208EC016DE571E087E893E00E94CE
:10127000B30C8C0F9D1FDF91CF9108958F929F9299
:10128000AF92BF92CF92DF92EF92FF926B017C01FF
:101290000E94D2044B015C01C60ED71EE81EF91E47
:1012A0000E94D204681579058A059B0528F0C616A8
:1012B000D706E806F906A0F7FF90EF90DF90CF90F1
:1012C000BF90AF909F908F9008950C94B30C1F9394
:1012D000CF93DF9300D000D000D0CDB7DEB7FC01B4
:1012E000448155816081718189E894E00E942F0BCF
:1012F0006DE571E089E894E00E94B30C64EF71E061
:1013000080E090E00E94980489E894E00E940F0336
:1013100002973CF16FE571E0CE0101960E949E0CB0
:1013200089E894E00E942703682FCE0101960E946D
:10133000090C89E894E00E942703682FCE010196EA
:101340000E94090C67E872E0CE0101960E94BC0B76
:1013500011E0811101C010E0CE0101960E947F0CC6
:1013600001C010E0812F26960FB6F894DEBF0FBEA5
:10137000CDBFDF91CF911F9108951F93CF93DF933E
:1013800000D000D000D0CDB7DEB789E894E00E944D
:101390000F03892B29F089E894E00E942703F5CFF9
:1013A0006AE872E0CE0101960E949E0CCE01019681
:1013B0000E946709182FCE0101960E947F0C812F91
:1013C00026960FB6F894DEBF0FBECDBFDF91CF914A
:1013D0001F910895DF92EF92FF920F931F93CF9387
:1013E000DF9300D000D000D0CDB7DEB785E0F82E77
:1013F00093E0E92E24E0D22E8091A804853009F4F0
:101400008DC089E894E00E940F03892B09F46CC019
:1014100089E894E00E942703182F8B3279F589E838
:1014200094E00E940F030A97D4F36FE571E0CE01B8
:1014300001960E949E0C0AE089E894E00E9427032E
:10144000182F682FCE0101960E94090C0150A1F7B8
:101450002D813E818091AD049091AE04281739070B
:1014600049F469EA74E0CE0101960E940E08892BC6
:1014700009F44EC0CE0101960E947F0C133409F08E
:10148000BBCF89E894E00E940F030897D4F36FE57F
:1014900071E0CE0101960E949E0C63E4CE0101969C
:1014A0000E94090C18E089E894E00E942703682F45
:1014B000CE0101960E94090C1150A9F72D813E81A1
:1014C0008091B3049091B4042817390741F46FEA6E
:1014D00074E0CE0101960E940E08892BE1F0CE0146
:1014E00001960E947F0C88CF0E94BD09882319F0C5
:1014F000E092A80481CF68EC70E080E090E00E9468
:1015000098040E94BD098111F3CFF092A80474CF12
:10151000D092A804AFCFF092A804E1CF26960FB6E0
:10152000F894DEBF0FBECDBFDF91CF911F910F9119
:10153000FF90EF90DF9008950F931F93CF93DF9369
:1015400000D000D000D0CDB7DEB703E08091A80472
:10155000833009F464C089E894E00E940F03892B6A
:1015600009F449C089E894E00E942703182F682FE6
:1015700087E893E00E948D011B3241F789E894E0EF
:101580000E940F03892BD1F389E894E00E9427037E
:10159000182F682F87E893E00E948D011035B1F66F
:1015A00089E894E00E940F030797D4F36FE571E098
:1015B000CE0101960E949E0C60E5CE0101960E942C
:1015C000090C17E089E894E00E942703682FCE01F8
:1015D00001960E94090C1150A9F76DE872E0CE0146
:1015E00001960E94BC0B81110093A804CE010196C4
:1015F0000E947F0CABCF0E94BD09882319F0009395
:10160000A804A4CF68EC70E080E090E00E94980409
:101610000E94BD098111F3CF85E08093A80426962E
:101620000FB6F894DEBF0FBECDBFDF91CF911F91F3
:101630000F9108958091A804853071F489E894E0B1
:101640000E940F03892B41F089E894E00E94270350
:101650008B3219F40E949C0A8FEF08950895CF925F
:10166000DF92EF92FF920F931F93CF93DF936C0162
:101670007A018B01C0E0D0E0CE15DF0581F0D80102
:101680006D918D01D601ED91FC910190F081E02DDD
:10169000C6010995892B11F02196EECF7E01C70175
:1016A000DF91CF911F910F91FF90EF90DF90CF903E
:1016B00008950F931F93CF93DF93EC018881998155
:1016C000009729F02A813B812617370788F48B0180
:1016D0006F5F7F4F0E94951C009761F0998388830C
:1016E0001B830A832C813D81232B11F4FC01108282
:1016F00081E001C080E0DF91CF911F910F910895AB
:10170000CF93DF9300D0CDB7DEB72091EC043091BA
:10171000ED04CE0101962115310519F4805F944046
:1017200018C0AC01421B530BE091EE04F091EF04A2
:1017300080E090E0309759F09C012E5F3F4F808110
:101740009181820F931F0280F381E02DF3CF840FEC
:10175000951F9A83898349815A81052E000C660B57
:10176000770B80916704909168040E94F2080F90B3
:101770000F90DF91CF910895FC0124813581232BB7
:1017800031F421E061157105A1F0FB0108C0FC01F5
:10179000808191816115710531F421E0FC01808126
:1017A000882339F005C00E94691D21E0892B09F0CA
:1017B00020E0822F0895EF92FF920F931F93CF9313
:1017C000DF936115710511F480E01CC041155105CE
:1017D000C1F07B01EC018C819D818A01080F191FEA
:1017E000B801CE010E94590B882371F328813981F9
:1017F0008C819D81B701820F931F0E94721D1D83F2
:101800000C8381E0DF91CF911F910F91FF90EF90BA
:101810000895CF93DF9300D0CDB7DEB769831A82E6
:1018200041E050E0BE016F5F7F4F0E94DB0B0F90E5
:101830000F90DF91CF910895CF93DF93EC018881D2
:101840009981009711F00E943117198218821D8228
:101850001C821B821A82DF91CF910895CF93DF9370
:10186000EC016115710561F0FB0101900020E9F7C1
:101870003197AF01461B570B0E94DB0B811103C050
:10188000CE010E941C0CCE01DF91CF910895EF9202
:10189000FF920F931F93CF93DF93EC017B018A019B
:1018A000BA010E94590B811104C0CE010E941C0C88
:1018B00007C01D830C83B701888199810E94721D26
:1018C000CE01DF91CF911F910F91FF90EF9008957E
:1018D000CF93DF93EC016115710559F0FB01019085
:1018E0000020E9F73197AF01461B570B0E94470CC8
:1018F00002C00E941C0CCE01DF91CF910895FC0123
:10190000808191810C943117FB01DC0111961C92AE
:101910001E9213961C921E92129715961C921E925E
:1019200014978617970749F06081718161157105D9
:1019300021F0448155810C94470C0895FC011182DB
:10194000108213821282158214826115710551F082
:10195000FB0101900020E9F73197AF01461B570BBF
:101960000C94470C08956115710579F0FB01019005
:101970000020E9F73197AF01461B570BDC01ED91D1
:10198000FC910280F381E02D099480E090E00895BD
:101990008F929F92AF92BF92EF92FF920F931F93FD
:1019A000CF93DF93CDB7DEB7A1970FB6F894DEBF24
:1019B0000FBECDBF7C01FA01CB0119A2223008F481
:1019C0002AE08E010F5D1F4F822E912CA12CB12C8D
:1019D000BF01A50194010E94971BF901CA010150A2
:1019E00011096A3014F4605D01C0695CD8016C9320
:1019F000232B242B252B61F7B801C7010E94B30CC0
:101A0000A1960FB6F894DEBF0FBECDBFDF91CF9188
:101A10001F910F91FF90EF90BF90AF909F908F908C
:101A20000895BF92CF92DF92EF92FF920F931F9390
:101A3000CF93DF9348E0C42ED12CE12CF12CD2E0DF
:101A4000C1E01FEF05EE55ECB52E8091EB0481113E
:101A5000FCCFD093EB04C093EA041093E9041092F6
:101A6000E8041092E7041092C6042091C604C6014F
:101A7000880F991F822B8093C6048091C504813002
:101A800069F41092C5048091C6048093BB008091D4
:101A9000BC0083FDF8CFB092BC0002C00093BC0034
:101AA0008091EB048230E1F38091E9048F3FE1F013
:101AB0008091E904803211F08091E9048FEFC81A17
:101AC000D80AE80AF80A87E7C816D104E104F10445
:101AD00009F0BBCFDF91CF911F910F91FF90EF9055
:101AE000DF90CF90BF9008952AE0B701A6018091C2
:101AF0006704909168040E94C80C63E971E08091CA
:101B00006704909168040E946509C0932A04D6CFA7
:101B1000CF92DF92EF92FF920F931F93E82FF92F4E
:101B200005C0015011092109310961F19081962305
:101B30009417B9F305C0015011092109310911F1B8
:101B4000908196239413F7CFC12CD12CE12CF12C4A
:101B50000AC08FEFC81AD80AE80AF80A0C151D0542
:101B60002E053F0579F080818623841791F36C2D33
:101B70007D2D8E2D9F2D1F910F91FF90EF90DF9067
:101B8000CF90089560E070E080E090E01F910F91A9
:101B9000FF90EF90DF90CF900895CF93DF93CDB774
:101BA000DEB7AD970FB6F894DEBF0FBECDBF789409
:101BB00084B5826084BD84B5816084BD85B5826052
:101BC00085BD85B5816085BD80916E008160809303
:101BD0006E0010928100809181008260809381006C
:101BE000809181008160809381008091800081607C
:101BF000809380008091B10084608093B1008091D7
:101C0000B00081608093B00080917A0084608093FE
:101C10007A0080917A00826080937A0080917A00C5
:101C2000816080937A0080917A00806880937A0046
:101C30001092C1001092690410926A0410926B0411
:101C400010926C041092260410922704109228041B
:101C50001092290468EB7BE080E090E00E943E094E
:101C600087E893E090936804809367040E94970844
:101C70000E94D20460932604709327048093280462
:101C8000909329046CE371E080916704909168045B
:101C90000E9465096AE070E080E090E00E943E09E1
:101CA00081E080933B0410929D0210929C0210925E
:101CB0009B0210929A021092EB048093EA04109215
:101CC000C50461E082E10E94CE0361E083E10E94ED
:101CD000CE038091B9008E7F8093B9008091B900C6
:101CE0008D7F8093B90088E48093B80085E4809369
:101CF000BC008DE592E090939902809398028EE566
:101D000092E090939702809396020E94D2040091F1
:101D10002604109127042091280430912904DC0125
:101D2000CB01801B910BA20BB30B82339105A10554
:101D3000B10570F442E350E060E070E08A019B017D
:101D4000081B190B2A0B3B0BC901B8010E943E0965
:101D50000E94D20460932604709327048093280481
:101D6000909329046EE471E0809167049091680477
:101D70000E94650980912A04811102C00E94110D00
:101D800065E571E080916704909168040E9465099F
:101D900065E571E080916704909168040E9465098F
:101DA00065E571E080916704909168040E9465097F
:101DB0000E94800B65E571E0809167049091680452
:101DC0000E94650967E571E080916704909168045D
:101DD0000E9465096AE070E080E090E00E943E09A0
:101DE0000E94970888E0809381038BE080938203B0
:101DF0008CE0809383038DE08093840389E080935B
:101E000085038AE08093860361E088E00E94FD03F9
:101E100061E0809182030E94FD0361E08091830371
:101E20000E94FD0361E0809184030E94FD0361E054
:101E3000809185030E94FD0361E0809186030E94EA
:101E4000FD030E94890810927D0381E08093800346
:101E500080937C0310927F0384EB80937B038093B9
:101E60007E030E9462070E949C0A80E691E00E9425
:101E7000DF0889E691E00E94DF080E94EA098AE80B
:101E800091E00E94DF0889E691E00E94DF0843E0CC
:101E9000242E312C0E94D2040091BD021091BE026A
:101EA0002091BF023091C002DC01CB01801B910B5D
:101EB000A20BB30B86399105A105B10508F4DEC06C
:101EC0000E94D2046093BD027093BE028093BF0251
:101ED0009093C00261E070E080E090E00E943E09D3
:101EE0000E94D204609326047093270480932804F0
:101EF000909329046EE471E08091670490916804E6
:101F00000E94650980912A04811102C00E94110D6E
:101F100061E070E080E090E00E943E0965E571E0DC
:101F200080916704909168040E94650900E010E0C8
:101F3000E12CF12C412C512C3201C1C40F5F1F4FF9
:101F400021E0421651046104710409F4B8C4F80197
:101F5000EA56FE4F8491F801E452FE4FD490F80106
:101F6000E853FE4FC490CC2009F4A9C481110E940B
:101F7000A503EC2DF0E0EE0FFF1FEC54FE4FA591F2
:101F8000B491EC91DE2209F49AC481E00E2C01C0D8
:101F9000880F0A94EAF7F82AE39438E0E31609F484
:101FA00090C44DE0441651046104710409F489C4DD
:101FB00061E070E080E090E00E943E095FEF451A2A
:101FC000550A650A750A0D30110509F0B7CF61E0B1
:101FD00070E080E090E00E943E0965E571E080914C
:101FE0006704909168040E94650910E0812F806465
:101FF00080937C0080917A00806480937A00809145
:102000007A0086FDFCCF409178008091790050E005
:10201000582B052E000C660B770B8091670490916E
:1020200068040E94F20863E971E08091670490916E
:1020300068040E9465091F5F1630C1F665E571E00E
:1020400080916704909168040E9465090E94800B4A
:1020500065E571E080916704909168040E946509CC
:1020600067E571E080916704909168040E946509BA
:1020700061E070E080E090E00E943E090E94D2049E
:102080006B017C018091B9029091BA02A091BB02D0
:10209000B091BC0297018601081B190B2A0B3B0B60
:1020A000083C11052105310508F464C0C092B9024D
:1020B000D092BA02E092BB02F092BC0260E0809142
:1020C000B5040E94CE03C1010197F1F761E0809150
:1020D000B5040E94CE0383E290E00197F1F760E03F
:1020E0008091B5040E94CE038091B7049091B8040A
:1020F0009927FC01E452FE4F6491FC01E853FE4F26
:10210000E491F0E0EE0FFF1FEC54FE4F85919491A7
:1021100000E412E42FE030E0462F0E94880D6115A4
:1021200071058105910549F0DC01CB010196A11DE6
:10213000B11DBC01CD019F7003C060E070E0CB0118
:102140000E94641A2091B9043091BA044091BB04F2
:102150005091BC040E94F01B20E030E040E05FE3BF
:102160000E94C31A6093B1027093B2028093B302CB
:102170009093B4028091B5029091B602A091B702FB
:10218000B091B802A7019601281B390B4A0B5B0BD3
:10219000223331054105510508F48EC3C092B502C2
:1021A000D092B602E092B702F092B8020E941A0BE7
:1021B0008093A8028F3F09F405C2082E000C990BEA
:1021C000AA0BBB0BFC01E154F109EA31F10508F05F
:1021D000F9C1EC5CFF4F0C947B1C0E94CF081EC021
:1021E00084E680937E030E94CF0884EB80937E0375
:1021F00065E872E0DBC184E680937B030E94CF0830
:1022000084EB80937B036BE772E0D0C184E680931C
:102210007E030E94BF0884EB80937E0365E971E032
:10222000C5C184E680937B030E94BF0884EB809342
:102230007B0367E971E0BAC10E94D70869E971E0E0
:10224000B5C10E94BF086BE971E0B0C10E94C70828
:102250006DE971E0ABC10E9489086FE971E08DE71B
:1022600094E00E94680C6FE971E0A0C10E946207CF
:102270006FE571E0CE0188960E949E0C42E050E02E
:1022800061EA71E0CE0188960E94DB0B0EE912E054
:1022900098EAE92E92E0F92EF801819191918F014F
:1022A0001BA21AA21DA21CA21FA21EA24AE0BE01CE
:1022B0006F5F7F4F0E94E117BE016F5F7F4FCE01BE
:1022C00082960E94680C1A8219821C821B821E82CE
:1022D0001D826AA17BA16115710531F04EA15FA13C
:1022E000CE0101960E94470C6FE2CE0101960E943A
:1022F000090C811104C0CE0101960E941C0C4D8175
:102300005E8169817A81CE0188960E94DB0BCE01C5
:1023100001960E947F0CCE0182960E947F0CE016EF
:10232000F10609F0B9CF41E050E064EA71E0CE0176
:1023300088960E94DB0BBE01685D7F4FCE0101963F
:102340000E94840CCE0101960E946709CE0101967D
:102350000E947F0CCE01889633C16FE571E0CE01FB
:1023600082960E949E0C00E010E00E941A0B8835B5
:1023700061F18735D1F38F3211F56FE571E0CE0150
:1023800082960E94BC0B8111F0CF8AA19BA100977D
:1023900019F00E94BA1703C060E070E0CB01F801A9
:1023A000EE0FFF1FE256FD4F718360830F5F1F4FDB
:1023B0006FE571E0CE0182960E94680CD6CF682F3F
:1023C000CE0182960E94090CD0CF66EA71E0CE0160
:1023D00001960E949E0CC0C00E94D00668EA71E07F
:1023E000E5C06091B1027091B2028091B302909108
:1023F000B4021BA21AA21DA21CA21FA21EA28E0121
:102400000F5F1F4F22E044E00E947916BC01CE010D
:1024100082960E94680C80918304909184040097B6
:10242000C9F06AA17BA16115710591F04091850405
:10243000509186042EA13FA14217530748F00E94F5
:10244000721D8EA19FA1909388048093870418C069
:102450000E9431178AA19BA19093840480938304E6
:102460008CA19DA190938604809385048EA19FA149
:1024700090938804809387041BA21AA21DA21CA219
:102480001FA21EA2CE0182960E947F0C6AEA71E012
:10249000CE0101960E949E0C4091870450918804C1
:1024A0006091830470918404CE0101960E94DB0B3D
:1024B000811104C0CE0101960E941C0C62EA71E0F9
:1024C000CE0101960E942E0C68EB71E00E942E0C4A
:1024D00069EC71E00E942E0C62EA71E00E942E0C01
:1024E00068EB71E00E942E0C69EC71E00E942E0CEA
:1024F00062EA71E00E942E0C68EB71E00E942E0CE3
:1025000069EC71E00E942E0C62EA71E00E942E0CD0
:1025100068EB71E00E942E0C69EC71E00E942E0CB9
:1025200062EA71E00E942E0C68EB71E00E942E0CB2
:1025300069EC71E00E942E0CBC01CE0182960E94D3
:10254000840CCE0101960E947F0CBE016E5D7F4F10
:10255000CE0101960E94840CCE0101960E9467096B
:10256000CE0101960E947F0CCE01829629C06FECAD
:1025700071E0CE0101960E949E0CCE0101960E9450
:102580006709CE0101960E947F0C6FEC71E08DE728
:1025900094E00E94680C16C00E94890861ED71E009
:1025A0008DE794E00E94680C61ED71E0CE01019628
:1025B0000E949E0CCE0101960E946709CE010196F1
:1025C0000E947F0C8091A804833021F40E94890826
:1025D0000E94EA096FEC71E08DE794E00E94BC0B69
:1025E000882309F469C10E94D2046B017C016091C7
:1025F000A6027091A702072E000C880B990B0E946F
:10260000641A4B015C014090B1025090B20260909C
:10261000B3027090B402A30192010E945D1A87FF79
:1026200022C00E94D7088091AD029091AE02A09185
:10263000AF02B091B00297018601081B190B2A0B5B
:102640003B0B043611052105310568F40E94D204C4
:102650006B017C016093AD027093AE028093AF0278
:102660009093B002E0CFA3019201C501B4010E9492
:10267000621C87FD34C06091A4027091A502072EF0
:10268000000C880B990B0E94641A9B01AC01C301DA
:10269000B2010E94621C87FD22C00E94CF08809177
:1026A000AD029091AE02A091AF02B091B002A7012D
:1026B0009601281B390B4A0B5B0B2436310541056B
:1026C000510568F40E94D2046B017C016093AD0255
:1026D0007093AE028093AF029093B002E0CF60910E
:1026E000A4027091A50261507109072E000C880B9D
:1026F000990B0E94641A9B01AC01C301B2010E94B4
:102700005D1A1816A4F16091A2027091A302072E1F
:10271000000C880B990B0E94641A9B01AC01C30149
:10272000B2010E94621C87FD22C00E94CF088091E6
:10273000AD029091AE02A091AF02B091B0029701AC
:102740008601081B190B2A0B3B0B043611052105CA
:10275000310568F40E94D2046B017C016093AD02E4
:102760007093AE028093AF029093B002E0CF60917D
:10277000A2027091A30261507109072E000C880B10
:10278000990B0E94641A9B01AC01C301B2010E9423
:102790005D1A1816B4F16091A0027091A102072E83
:1027A000000C880B990B0E94641A9B01AC01C301B9
:1027B000B2010E94621C87FD24C00E94C70880915C
:1027C000A9029091AA02A091AB02B091AC02A7011C
:1027D0009601281B390B4A0B5B0BDA01C901843FB8
:1027E0009140A105B10568F40E94D2046B017C01FF
:1027F0006093A9027093AA028093AB029093AC02FB
:10280000DECF6091A0027091A10261507109072E84
:10281000000C880B990B0E94641A9B01AC01C30148
:10282000B2010E945D1A1816A4F160919E02709187
:102830009F02072E000C880B990B0E94641A9B01C3
:10284000AC01C301B2010E94621C87FD22C00E943C
:10285000BF088091A9029091AA02A091AB02B09109
:10286000AC02C81AD90AEA0AFB0A44EFC41641E0CE
:10287000D406E104F10468F40E94D2046B017C01E7
:102880006093A9027093AA028093AB029093AC026A
:10289000E0CF60919E0270919F02072E000C880B82
:1028A000990B0E94641A9B01AC01C301B2010E9402
:1028B0005D1A87FD0E94BF080E94FC01EBCA80E000
:1028C00065CB4F2D50E060E070E02AE08091670416
:1028D000909168040E94C80C63E971E080916704DC
:1028E000909168040E946509E12CF12C61CB8DE781
:1028F00094E00E947F0C83E894E00E947F0C8FEAB2
:1029000094E00E947F0C89EA94E00E947F0C8EE2A2
:1029100091E090938A048093890480917B04909144
:102920007C048958944071F4E0919C04F0919D04DA
:10293000908180919E0480958923808310927C04ED
:1029400010927B040895CF92DF92EF92FF92109243
:102950008A031092890398EEC92E93E0D92EE12CB8
:10296000F12CC0928B03D0928C03E0928D03F092F5
:102970008E038AE091E0909388038093870385EC2F
:1029800090E0909394038093930384EC90E0909371
:1029900096038093950380EC90E090939803809346
:1029A000970381EC90E090939A038093990382ECD3
:1029B00090E090939C0380939B0386EC90E090932F
:1029C0009E0380939D031092A0031092A103109286
:1029D000A2031092A30310922B0410922C041092C5
:1029E0002D0410922E0410922F0410923004109295
:1029F0003104109232041092330410923404109275
:102A00003504109236041092370410923804109254
:102A1000390410923A041092700410926F04C0921C
:102A20007104D0927204E0927304F09274048CE109
:102A300091E090936E0480936D0461E085E00E94C4
:102A4000FD0360E083E00E94FD0385E090E0909349
:102A5000B6048093B50483E090E09093B80480932B
:102A6000B70485E89CEFACEDB1E48093B904909392
:102A7000BA04A093BB04B093BC048CE993E5ACE822
:102A8000B2E48093BD049093BE04A093BF04B093BE
:102A9000C00410928C0410928B04C0928D04D092CA
:102AA0008E04E0928F04F09290048EE291E0909375
:102AB0008A04809389041092A00410929F041092BB
:102AC000A2041092A1041092A4041092A3041092E4
:102AD000A6041092A5046091A7046E7F6D7F609399
:102AE000A7046695617081E0682784E00E94CE03A8
:102AF00061E084E00E94FD03E0EEF1E0E491E09308
:102B00009904ECECF1E0E491F0E0EE0FFF1FE254E9
:102B1000FE4F8591949190939B0480939A0460E07A
:102B200082E00E94FD038091A70481FD04C061E062
:102B300082E00E94CE0382E080939504EEEDF1E006
:102B4000E491E0939604EAECF1E0E491F0E0EE0F1A
:102B5000FF1FEC54FE4F85919491909398048093BD
:102B600097046FE571E089EA94E00E949E0C6FE59E
:102B700071E08FEA94E00E949E0C62E772E089EABD
:102B800094E00E94680C6DE772E08FEA94E00E9486
:102B9000680C1092A8041092A4041092A30410923E
:102BA000A2041092A1041092A00410929F048DE937
:102BB00091E09093A6048093A5049091950496319A
:102BC00008F058C02DEB30E03093A00420939F0410
:102BD0002BE931E03093A2042093A1042CE231E0F0
:102BE0003093A4042093A30440916800983058F0D7
:102BF00031E09E3008F430E021E0822F01C0880FE0
:102C00003A95EAF701C084E0842B809368009830FD
:102C100038F09E3040F0963148F020E030E008C0B7
:102C20002DE630E005C02BE630E002C02CE630E0B7
:102C300030939D0420939C04983030F481E001C0CF
:102C4000880F9A95EAF70EC0292F30E09E3018F4CD
:102C50002850310902C02E50310981E001C0880F8F
:102C60002A95EAF780939E048091A5049091A6048A
:102C70000197F1F78091A3049091A404892B49F165
:102C8000E0917B04F0917C0484E0E938F80709F1D5
:102C9000309739F0A389B4899C91858980958923DF
:102CA0008C938091A7048E7F8093A70410927A045E
:102CB0001092790489E894E090937C0480937B04DB
:102CC000E0919C04F0919D04908180919E04892B59
:102CD00080836FE571E083E894E00E949E0C61EDD3
:102CE00071E08DE794E0FF90EF90DF90CF900C942F
:102CF0009E0CEF920F931F93CF93DF93E80147FD54
:102D000002C034E001C034E1042E000C550B57FF23
:102D100003C0519541955109E32E022F242FAE0196
:102D20000E941B18CE01DF91CF911F910F91EF9060
:102D300008950F931F93CF93DF938230910510F482
:102D400082E090E0E091EE04F091EF0420E030E0CA
:102D5000A0E0B0E0309719F14081518102811381E8
:102D600048175907C8F08417950769F4109731F090
:102D700012960C93129713961C9327C00093EE049F
:102D80001093EF0422C02115310519F042175307A3
:102D900018F49A01BD01EF01DF01F801DBCF211525
:102DA0003105F9F0281B390B2430310580F48A8174
:102DB0009B816115710521F0FB019383828304C01F
:102DC0009093EF048093EE04FE01329644C0FE011E
:102DD000E20FF31F819391932250310939832883A5
:102DE0003AC02091EC043091ED04232B41F4209162
:102DF0000201309103013093ED042093EC04209103
:102E00000001309101012115310541F42DB73EB784
:102E10004091040150910501241B350BE091EC0415
:102E2000F091ED04E217F307A0F42E1B3F0B2817D7
:102E3000390778F0AC014E5F5F4F2417350748F033
:102E40004E0F5F1F5093ED044093EC0481939193D8
:102E500002C0E0E0F0E0CF01DF91CF911F910F9130
:102E60000895CF93DF93009709F481C0FC01329756
:102E700013821282A091EE04B091EF04109781F4B6
:102E800020813181820F931F2091EC043091ED0459
:102E90002817390751F5F093ED04E093EC0467C06F
:102EA000ED0120E030E0CE17DF0740F44A815B817E
:102EB0009E0141155105F1F0EA01F5CFD383C2839C
:102EC00040815181840F951FC817D90759F4888113
:102ED0009981840F951F0296918380838A819B81BB
:102EE000938382832115310529F4F093EF04E09355
:102EF000EE043DC0E901FB83EA8349915991C40F77
:102F0000D51FEC17FD0761F480819181840F951F17
:102F10000296E90199838883828193819B838A83C6
:102F2000E0E0F0E012968D919C911397009719F0D4
:102F3000FD01DC01F7CF8D919C9111979D012E5FD2
:102F40003F4F820F931F2091EC043091ED0428171E
:102F5000390769F4309729F41092EF041092EE04C7
:102F600002C013821282B093ED04A093EC04DF91AF
:102F7000CF9108951F93FC0199278827BC01E894FD
:102F800011911032E9F3193010F01E30C8F31B32E2
:102F900051F01D3249F4689406C00E94EC17610F8D
:102FA000711D811D911D119110531A30B0F33EF423
:102FB00090958095709561957F4F8F4F9F4F1F9192
:102FC0000895BB274A3031F4992322F4BDE290954D
:102FD00081959F4F0C940218592F482F372F262F79
:102FE000660F771F881F991F660F771F881F991F0D
:102FF000620F731F841F951F660F771F881F991F0D
:103000000895BB27FB015527AA27880F991FAA1FE0
:10301000A41710F0A41B83955051B9F7A05DAA33F3
:1030200008F0A95DA193009779F7B111B1931192BE
:10303000CB010C944D1AA9E0B0E0E1E2F8E10C9468
:10304000BF1B6A01122FB02E2BE3201720F0FF24A4
:10305000F394F00E02C02CE3F22E0F2D27E0AE0108
:103060004F5F5F4F0E947519BC014981842F8970A1
:10307000813031F0E1FC06C0E0FE06C090E205C000
:103080009DE203C09BE201C090E05E2D507143FFC2
:103090003CC0911102C083E001C084E0811718F4A4
:1030A000212F281B01C020E051110BC0F601822FF7
:1030B00030E2882319F031938150FBCFC20ED11C2E
:1030C00020E0992329F0D6019C93F60131966F01F7
:1030D000C6010396E2FE0AC03EE4D6013C9341E4F9
:1030E00011964C93119712963C9306C03EE6F6015A
:1030F000308341E641833283FC01322F40E23323A7
:1031000009F442C041933150FACF42FF44C09111BB
:1031100002C083E001C084E0811718F4212F281B2E
:1031200001C020E051110BC0F601822F30E288234C
:1031300019F031938150FBCFC20ED11C20E09923AE
:1031400029F0D6019C93F60131966F01C6010396D2
:10315000E2FE0BC039E4D6013C933EE411963C9369
:10316000119736E412963C9307C039E6F601308396
:103170003EE6318336E63283FC01322F40E23323D0
:1031800019F041933150FBCFFC01E20FF11D108289
:103190008EEF9FEFA6C021E030E0911102C020E049
:1031A00030E0161617061CF4FB01319602C0E1E070
:1031B000F0E02E0F3F1FBB2021F0EB2DF0E0319609
:1031C00002C0E0E0F0E02E0F3F1FE12FF0E02E17ED
:1031D0003F071CF4121B212F01C020E08E2D8871A7
:1031E00059F4F601822F30E2882319F0319381508F
:1031F000FBCFC20ED11C20E0992329F0D6019C936D
:10320000F60131966F0151110BC0F601822F90E348
:10321000882319F091938150FBCFC20ED11C20E07E
:103220000F2D060F9A81342F307144FF03C0913364
:1032300009F40150101624F4093018F008E001C018
:1032400001E0AB0177FF02C040E050E0FB01E41B6E
:10325000F50BA1E0B0E0AC0FBD1FEA0FFB1F8EE243
:10326000A82E4B01801A91080B2D10E011950195A5
:1032700011094F3FBFEF5B0721F4D601AC921196C5
:103280006D01641775072CF08416950614F481817E
:1032900001C080E3415051093196D60111967D015C
:1032A0004017510724F0D6018C936701E2CF6417D1
:1032B000750739F4963320F4953319F4311101C0B0
:1032C00081E3F6018083F701822F90E2882319F0D1
:1032D00091938150FBCFF701E20FF11D108280E046
:1032E00090E02996ECE00C94DB1B283008F027E0F6
:1032F0003327DA01990F311D87FD91600096610532
:10330000710539F432602E5F3D9330E32A95E1F781
:1033100008959F3F30F080387105610509F03C5FEA
:103320003C5F3D93913008F08068911DDF93CF930F
:103330001F930F93FF92EF92192F987F9695E92F85
:1033400096959695E90FFF27EA50FF4F9927332767
:10335000EE24FF24A701E70105900894079428F4C0
:10336000360FE71EF81E491F511D660F771F881F75
:10337000991F0694A1F70590079428F4E70EF81E0C
:10338000491F561FC11D770F881F991F661F06947E
:10339000A1F70590079428F4F80E491F561FC71F80
:1033A000D11D880F991F661F771F0694A1F70590FE
:1033B000079420F4490F561FC71FD81F990F661F87
:1033C000771F881F0694A9F784911095177041F014
:1033D000D695C79557954795F794E7941A95C1F7F1
:1033E000ECE9F0E06894159015913591659195910F
:1033F00005907FE27395E118F10A430B560BC90B58
:10340000D009C0F7E10CF11E431F561FC91FD01D84
:103410007EF4703311F48A95E6CFE894015030F0D1
:10342000080F0AF40027021708F4202F2395022F13
:103430007A3328F079E37D932A95E9F710C07D93DC
:103440002A9589F606949795679537951795179459
:10345000E118F10A430B560BC90BD00998F02395DC
:103460007E9173957A3308F070E37C932013B8F75C
:103470007E9170617D9330F0839571E37D9370E36D
:103480002A95E1F71124EF90FF900F911F91CF91B2
:10349000DF91992787FD90950895DC01FC01672F46
:1034A00071917723E1F7329704C07C916D9370831B
:1034B0006291AE17BF07C8F308950E949F1A08F4DF
:1034C00081E00895E89409C097FB3EF490958095BB
:1034D000709561957F4F8F4F9F4F9923A9F0F92FDA
:1034E00096E9BB279395F695879577956795B79558
:1034F000F111F8CFFAF4BB0F11F460FF1BC06F5F3E
:103500007F4F8F4F9F4F16C0882311F096E911C04F
:10351000772321F09EE8872F762F05C0662371F070
:1035200096E8862F70E060E02AF09A95660F771F84
:10353000881FDAF7880F9695879597F90895990F60
:103540000008550FAA0BE0E8FEEF16161706E8076D
:10355000F907C0F012161306E407F50798F0621B8E
:10356000730B840B950B39F40A2661F0232B242B63
:10357000252B21F408950A2609F4A140A6958FEF82
:10358000811D811D08950E94D61A0C94471B0E942C
:10359000391B38F00E94401B20F0952311F00C9449
:1035A000301B0C94361B11240C947B1B0E94581B5F
:1035B00070F3959FC1F3950F50E0551F629FF00186
:1035C000729FBB27F00DB11D639FAA27F00DB11D9F
:1035D000AA1F649F6627B00DA11D661F829F222728
:1035E000B00DA11D621F739FB00DA11D621F839FAF
:1035F000A00D611D221F749F3327A00D611D231F85
:10360000849F600D211D822F762F6A2F11249F57D2
:1036100050409AF0F1F088234AF0EE0FFF1FBB1FD5
:10362000661F771F881F91505040A9F79E3F510594
:1036300080F00C94301B0C947B1B5F3FE4F3983EAE
:10364000D4F3869577956795B795F795E7959F5F3E
:10365000C1F7FE2B880F911D9695879597F90895D0
:1036600097F99F6780E870E060E008959FEF80EC35
:10367000089500240A9416161706180609060895D8
:1036800000240A9412161306140605060895092E3E
:103690000394000C11F4882352F0BB0F40F4BF2BAD
:1036A00011F460FF04C06F5F7F4F8F4F9F4F0895ED
:1036B00057FD9058440F551F59F05F3F71F04795E3
:1036C000880F97FB991F61F09F3F79F087950895C8
:1036D000121613061406551FF2CF4695F1DF08C0E7
:1036E000161617061806991FF1CF86957105610504
:1036F00008940895E894BB2766277727CB0197F9AC
:103700000895F999FECF92BD81BDF89A992780B5A9
:103710000895262FF999FECF1FBA92BD81BD20BD15
:103720000FB6F894FA9AF99A0FBE01960895A1E29D
:103730001A2EAA1BBB1BFD010DC0AA1FBB1FEE1F2B
:10374000FF1FA217B307E407F50720F0A21BB30B76
:10375000E40BF50B661F771F881F991F1A9469F7F2
:1037600060957095809590959B01AC01BD01CF014E
:1037700008952F923F924F925F926F927F928F9215
:103780009F92AF92BF92CF92DF92EF92FF920F93F0
:103790001F93CF93DF93CDB7DEB7CA1BDB0B0FB6FA
:1037A000F894DEBF0FBECDBF09942A8839884888B7
:1037B0005F846E847D848C849B84AA84B984C8844D
:1037C000DF80EE80FD800C811B81AA81B981CE0F44
:1037D000D11D0FB6F894DEBF0FBECDBFED01089529
:1037E0000E94041C0C94471B0E94401B58F00E942E
:1037F000391B40F029F45F3F29F00C94301B511124
:103800000C947B1B0C94361B0E94581B68F3992365
:10381000B1F3552391F3951B550BBB27AA276217CC
:103820007307840738F09F5F5F4F220F331F441FD9
:10383000AA1FA9F335D00E2E3AF0E0E832D091500D
:103840005040E695001CCAF72BD0FE2F29D0660FFA
:10385000771F881FBB1F261737074807AB07B0E83D
:1038600009F0BB0B802DBF01FF2793585F4F3AF043
:103870009E3F510578F00C94301B0C947B1B5F3FEE
:10388000E4F3983ED4F3869577956795B795F795C9
:103890009F5FC9F7880F911D9695879597F90895B1
:1038A000E1E0660F771F881FBB1F6217730784074D
:1038B000BA0720F0621B730B840BBA0BEE1F88F75C
:1038C000E09508950E949F1A08F48FEF089597FBE2
:1038D000072E16F4009407D077FD09D00E94811CB2
:1038E00007FC05D03EF4909581959F4F0895709503
:1038F00061957F4F0895EE0FFF1F0590F491E02D25
:103900000994AA1BBB1B51E107C0AA1FBB1FA61726
:10391000B70710F0A61BB70B881F991F5A95A9F778
:1039200080959095BC01CD010895A0E0B0E0EBE951
:10393000FCE10C94BD1BEC01009721F4CB010E942B
:103940009916B4C0FC01E60FF71F9C012250310903
:10395000E217F30708F4A8C0D9010D911C91119743
:1039600006171707B0F00530110508F49BC0C80111
:1039700004978617970708F495C002501109061B93
:10398000170B019311936D937C93CF010E94311714
:1039900089C05B01A01AB10A4C01800E911EA09152
:1039A000EE04B091EF04612C712CE12CF12C1097F6
:1039B00009F446C08D919C911197A815B905B1F5F0
:1039C0006C0142E0C40ED11CCA14DB0478F14C0136
:1039D0008A189B08640142E0C40ED11C1296BC9068
:1039E00012971396AC91B5E0CB16D10440F0B28299
:1039F000A38391828082D9016D937C9309C00E5F6D
:103A00001F4F800F911FF90191838083EB2DFA2FB7
:103A1000E114F10431F0D7011396FC93EE93129761
:103A200041C0F093EF04E093EE043CC068167906C1
:103A300008F43C017D0112960D90BC91A02DB7CFEA
:103A40008091EC049091ED0488169906E1F46616D5
:103A50007706C8F48091000190910101009741F42C
:103A60008DB79EB74091040150910501841B950BC1
:103A7000E817F907C8F4F093ED04E093EC04F901BA
:103A8000718360830FC0CB010E9499167C0100975F
:103A900059F0A801BE010E94601DCE010E9431179D
:103AA000C70104C0CE0102C080E090E0CDB7DEB710
:103AB000EEE00C94D91B81E090E0F8940C94791D11
:103AC000FB01DC0102C001900D9241505040D8F73B
:103AD0000895FB01DC018D91019080190110D9F34B
:103AE000990B0895FB01DC0101900D920020E1F794
:103AF000089510E0C9EFD0E004C0FE010E947B1CD5
:0C3B00002196CA3FD107C9F7F894FFCF07
:103B0C000000F0048000000000008D012F0B240148
:103B1C00DA015501330147010000000096028B02C7
:103B2C0048035F0283026F02600200000000BF02C4
:103B3C002F0B48035F020F032703A702564D445077
:103B4C00565F317C315F564D4450560D0A00564D30
:103B5C004450525F007C005F564D4450520D0A0099
:103B6C007061697261626C65002A2D2D2D2D2D2DD1
:103B7C002D2D2D2D2D2D2D2D2D2D2D2D2D2D2D2D69
:103B8C002D2D2D2D2D2D2D2D2A00636F6E6E656321
:103B9C007465003A0046004800520042004C005345
:103BAC00004F2F005800570051005A2F446973746E
:103BBC00616E6365203A200054656D70EFBFBD7275
:103BCC006174757265203A200032312E303200411A
:103BDC00004D002A2A2A2A53617576656761726442
:103BEC006520506172616D65747265732A2A2A2A88
:103BFC00005A6F6E652031005A6F6E652032005A84
:103C0C006F6E652033005A6F6E652034005A6F6EEC
:103C1C0065206D6178002A2A2A2A506172616D65CF
:103C2C007472657320736175766567617264EFBF3A
:103C3C00BD732A2A2A2A002A2A2A2A436861726713
:103C4C00656D656E7420506172616D65747265731B
:103C5C002A2A2A2A002A2A2A2A506172616D65743E
:103C6C00726573206368617267EFBFBD732A2A2A7D
:103C7C002A00434F4E4E454354494E4700434F4E46
:103C8C004E4543544544004F4B004154005041496C
:063C9C005241424C4500BC
:00000001FF
