:10000000BEC10000EDC10000EBC10000E9C100006D
:10001000E7C10000E5C10000E3C10000E1C100004C
:10002000DFC10000DDC10000DBC10000D9C100005C
:10003000D7C10000D5C10000D3C10000D1C100006C
:10004000CFC10000CDC10000CBC10000C9C100007C
:10005000C7C10000C5C10000C3C10000C8C5000081
:10006000BFC10000FBC30000D0C30000B9C1000045
:10007000B7C10000B5C10000B3C10000B1C10000AC
:10008000AFC10000ADC10000ABC10000A9C10000BC
:10009000A7C10000A5C10000A3C10000F2C5000077
:1000A0009FC100009DC100009BC1000099C10000DC
:1000B00097C1000095C1000093C1000091C10000EC
:1000C0008FC100008DC100008BC1000089C10000FC
:1000D00087C1000085C1000062C3000037C3000073
:1000E0007FC100004811D90F5E11A30F5E119F0F51
:1000F000AF0FC70F5E11BB0F5E11DF0F53115E1103
:10010000EE0F5E119510D30FE50F5E115E115E11BB
:1001100053105E115E119A107F04820471047504FD
:100120007B04B90486048A049004940498049E0411
:10013000A204A604B904AC04B004B4044B055005F1
:1001400055055F056905E20573057B0583058D058A
:100150009705A105B005BA05E205C405CE05D80589
:1001600000407A10F35A00A0724E18090010A5D46E
:10017000E80000E87648170000E40B54020000CACB
:100180009A3B000000E1F505000080969800000011
:1001900040420F000000A086010000001027000070
:1001A0000000E803000000006400000000000A00F6
:1001B000000000000100000000002C76D888DC67F9
:1001C0004F0823DFC1DFAE59E1B1B796E5E3E45351
:1001D000C63AE651997696E8E6C28426EB898C9B6E
:1001E00062ED407C6FFCEFBC9C9F40F2BAA56FA50E
:1001F000F490055A2AF75C936B6CF9676DC11BFC90
:10020000E0E40D47FEF520E6B500D0ED902E0300AA
:10021000943577050080841E080000204E0A0000F7
:1002200000C80C333333330F986E12831141EF8DB6
:100230002114893BE65516CFFEE6DB18D1844B38F6
:100240001BF77C1D901DA4BBE424203284725E2227
:100250008100C9F124ECA1E53D2700000A0B020949
:100260000C0D0E0807030401000000000000000050
:10027000000000000000000000000000000000007E
:10028000000000000000121110000000000000003B
:10029000000000000000000000000000000000005E
:1002A000000020002300260029002C002F0032002F
:1002B0000001000003010601090105050505070508
:1002C00008080808020202020A0A080804040404D2
:1002D00001010101010101010303030303030303FE
:1002E000040707070C0C0C0C0C0C0C0C020202028D
:1002F00006060606060606060B0B0B0B0B0B0B0B76
:100300000102102020080810204010204080020127
:10031000020108040201010204081020408080400C
:10032000201008040201800402018040201008040B
:1003300002010804020101020408102040800102A9
:1003400004081020408000002100240027002A001B
:100350002D003000330001010000040107010A01F3
:1003600000002200250028002B002E003100340060
:1003700002010000050108010B01FD12F512112414
:100380001FBECFEFD1E2DEBFCDBF00E00CBF13E058
:10039000A0E0B2E0E4EDF4E300E00BBF02C00790A0
:1003A0000D92A436B107D9F725E0A4E6B3E001C069
:1003B0001D92AB3EB207E1F711E0CEEBD1E000E0D9
:1003C00006C021970109802FFE010E945419CD3BE0
:1003D000D10780E00807A9F70E945D0C0C94591A18
:1003E0000FCEFC01538D448D252F30E0842F90E0FB
:1003F000821B930B541710F0CF9608950197089520
:10040000FC01918D828D981761F0828DDF01A80F1C
:10041000B11D5D968C91928D9F5F9F73928F90E03E
:1004200008958FEF9FEF0895FC01918D828D9817AD
:1004300031F0828DE80FF11D858D90E008958FEFEA
:100440009FEF0895FC01918D228D892F90E0805CB3
:100450009F4F821B91098F73992708958CE394E035
:10046000F1DF21E0892B09F420E0822F089589ED46
:1004700094E0E8DF21E0892B09F420E0822F089541
:10048000FC01848DDF01A80FB11DA35ABF4F2C9131
:10049000848D90E001968F739927848FA689B78900
:1004A0002C93A089B1898C91837080648C93938DF7
:1004B000848D981306C00288F389E02D80818F7D9A
:1004C00080830895EF92FF920F931F93CF93DF9352
:1004D000EC0181E0888F9B8D8C8D981305C0E88995
:1004E000F989808185FD25C0F62E0B8D10E00F5F08
:1004F0001F4F0F731127E02E8C8DE8120BC00FB623
:1005000007FCFACFE889F989808185FFF5CFCE0114
:10051000B7DFF2CF8B8DFE01E80FF11DE35AFF4FDD
:10052000F0829FB7F8940B8FEA89FB898081806203
:100530000AC09FB7F894EE89FF896083E889F9893A
:1005400080818370806480839FBF81E090E0DF9131
:10055000CF911F910F91FF90EF900895CF93DF936C
:10056000EC01888D8823C1F0EA89FB89808185FDB3
:1005700005C0A889B9898C9186FD0EC00FB607FC0D
:10058000F5CF808185FFF2CFA889B9898C9185FF4D
:10059000EDCFCE0175DFE8CFDF91CF91089580E0F8
:1005A00090E0892B19F063DF811120C080E090E09A
:1005B000892B41F080E090E0892B21F00E9400001F
:1005C000811117C080E090E0892B41F080E090E03D
:1005D000892B21F00E94000081110EC080E090E084
:1005E000892B79F03BDF81110AC008950E94000039
:1005F000DDCF0E940000E6CF0E940000EFCF0C94F8
:10060000000008953FB7F894809105049091060486
:10061000A0910704B091080426B5A89B05C02F3F00
:1006200019F00196A11DB11D3FBFBA2FA92F982F18
:100630008827820F911DA11DB11DBC01CD0142E093
:10064000660F771F881F991F4A95D1F7089585ED8A
:100650008093BC008091BC0084FDFCCF10922F04DD
:1006600008954091DD03262F30E0240F311D213203
:100670003105DCF420912F042430C9F4FC0180E022
:1006800090E0861758F43091DD032191DC01A354EA
:10069000BC4FA30FB11D2C930196F3CF8091DD03C6
:1006A000680F6093DD0380E0089581E0089582E0A3
:1006B0000895089508950895E0916B0380916A0369
:1006C000E81730F4F0E0E356FC4F808190E00895A5
:1006D0008FEF9FEF089590916B0380916A039817B5
:1006E00050F4E92FF0E0E356FC4F208130E09F5FAB
:1006F00090936B0302C02FEF3FEFC90108958091E3
:100700006A0390E020916B03821B91090895CF93B7
:10071000DF93CB01EA01642FA4DFCE01DF91CF91FB
:100720000895CF93DF931F92CDB7DEB7698361E061
:10073000CE01019696DF81E090E00F90DF91CF919E
:10074000089580E090E008950E943C1A1F920F9255
:100750000FB60F9211240BB60F922F933F934F9326
:100760005F936F937F938F939F93AF93BF93EF9319
:10077000FF938CE394E084DEFF91EF91BF91AF9102
:100780009F918F917F916F915F914F913F912F91A9
:100790000F900BBE0F900FBE0F901F9018951F92D9
:1007A0000F920FB60F9211240BB60F922F938F93C7
:1007B0009F93EF93FF93E0914C04F0914D0480815F
:1007C000E0915204F091530482FD12C09081809117
:1007D00055048F5F8F7320915604821751F0E0917A
:1007E0005504F0E0E45CFB4F958F8093550401C005
:1007F0008081FF91EF919F918F912F910F900BBE70
:100800000F900FBE0F901F9018951F920F920FB66A
:100810000F9211240BB60F922F933F934F935F9338
:100820006F937F938F939F93AF93BF93EF93FF93B8
:1008300089ED94E025DEFF91EF91BF91AF919F91FB
:100840008F917F916F915F914F913F912F910F9079
:100850000BBE0F900FBE0F901F9018951F920F9216
:100860000FB60F9211240BB60F922F938F939F9375
:10087000EF93FF93E091E904F091EA048081E09125
:10088000EF04F091F00482FD12C090818091F20497
:100890008F5F8F732091F304821751F0E091F2047F
:1008A000F0E0E752FB4F958F8093F20401C0808106
:1008B000FF91EF919F918F912F910F900BBE0F9011
:1008C0000FBE0F901F90189590E0FC013197E23118
:1008D000F10508F04EC08827E457FF4F8F4F0C9466
:1008E0005419809180008F7703C0809180008F7DA4
:1008F00080938000089580918000877FF9CF84B530
:100900008F7702C084B58F7D84BD08958091B0003B
:100910008F7703C08091B0008F7D8093B0000895E1
:10092000809190008F7707C0809190008F7D03C0E9
:1009300080919000877F8093900008958091A0001F
:100940008F7707C08091A0008F7D03C08091A000A9
:10095000877F8093A0000895809120018F7707C042
:10096000809120018F7D03C080912001877F80933B
:10097000200108951F93CF93DF93282F30E0F901D2
:10098000E65AFD4F8491F901E050FD4FD491F901F1
:10099000E654FD4FC491CC23B9F0162F811194DF9A
:1009A000EC2FF0E0EE0FFF1FE05AFC4FA591B49141
:1009B0009FB7F894111104C08C91D095D82302C030
:1009C000EC91DE2BDC939FBFDF91CF911F910895B7
:1009D000CF93DF9390E0FC01E050FD4F2491FC01A8
:1009E000E654FD4F8491882361F190E0880F991FB0
:1009F000FC01EA5BFC4FC591D491FC01E05AFC4F2D
:100A0000A591B491611109C09FB7F8948881209590
:100A100082238883EC912E230BC0623061F49FB750
:100A2000F8948881322F309583238883EC912E2B84
:100A30002C939FBF06C08FB7F894E8812E2B288394
:100A40008FBFDF91CF9108951F93CF93DF93182F1E
:100A5000EB0161E0BDDF209711F460E004C0CF3FFF
:100A6000D10531F461E0812FDF91CF911F9182CFC9
:100A7000E12FF0E0E65AFD4FE4918E2F90E0FC016B
:100A80003197E231F10508F09DC08827E256FF4F0B
:100A90008F4F0C94541984B5806884BDC7BD97C02E
:100AA00084B5806284BDC8BD92C08091800080689A
:100AB00080938000D0938900C093880088C0809183
:100AC0008000806280938000D0938B00C0938A0066
:100AD0007EC080918000886080938000D0938D00DC
:100AE000C0938C0074C08091B00080688093B00087
:100AF000C093B3006CC08091B00080628093B0005E
:100B0000C093B40064C0809190008068809390008E
:100B1000D0939900C09398005AC080919000806251
:100B200080939000D0939B00C0939A0050C0809116
:100B30009000886080939000D0939D00C0939C00AB
:100B400046C08091A00080688093A0008091A000A2
:100B50008F7B8093A000D093A900C093A80037C0DA
:100B60008091A00080628093A000D093AB00C093DE
:100B7000AA002DC08091A00088608093A000D0932F
:100B8000AD00C093AC0023C08091200180688093A9
:100B90002001D0932901C093280119C08091200120
:100BA000806280932001D0932B01C0932A010FC053
:100BB00080912001886080932001D0932D01C09303
:100BC0002C0105C0C038D1050CF04CCF46CFDF91C9
:100BD000CF911F9108952FB7F894609101047091FF
:100BE000020480910304909104042FBF08951F9282
:100BF0000F920FB60F9211242F933F938F939F93D1
:100C0000AF93BF938091010490910204A0910304DB
:100C1000B09104043091000423E0230F2D3720F419
:100C20000196A11DB11D05C026E8230F0296A11D46
:100C3000B11D209300048093010490930204A093BB
:100C40000304B09304048091050490910604A091DC
:100C50000704B09108040196A11DB11D80930504FD
:100C600090930604A0930704B0930804BF91AF913A
:100C70009F918F913F912F910F900FBE0F901F90DA
:100C800018951F920F920FB60F9211240BB60F9268
:100C90002F933F934F935F936F937F938F939F9384
:100CA000AF93BF93EF93FF938091B900887F803615
:100CB00009F49CC068F5883209F45BC090F4803177
:100CC00009F454C038F4882309F4F6C0883009F4D4
:100CD0004DC0F5C0883109F44CC0803209F45DC0C4
:100CE000EEC0803409F468C048F4803309F455C07C
:100CF000883309F0E4C080932D04D8C0803509F40E
:100D00004FC0883509F45DC0883409F0D8C0D6C01A
:100D1000883909F4C7C0A8F4883709F467C038F4E3
:100D2000883609F463C0803709F460C0C8C08838C9
:100D300009F4B8C0803909F45FC0803809F0BFC039
:100D40005BC0803B09F486C038F4803A09F466C081
:100D5000883A09F47FC0B3C0803C09F4A7C0883C3E
:100D600009F4A4C0883B09F48AC0A9C080910A0490
:100D700010C090912C0480912B04981770F5E0918D
:100D80002C0481E08E0F80932C04F0E0E55FFB4F94
:100D900080818093BB0085EC86C080932D048EC03B
:100DA000E0912C0481E08E0F80932C048091BB0095
:100DB000F0E0E55FFB4F808390912C0480912B0441
:100DC0006EC0E0912C0481E08E0F80932C04809102
:100DD000BB00F0E0E55FFB4F808380912E04811122
:100DE0006DC081E08093090484EA61C083E0809350
:100DF0002F041092FF03CFCF8091FF03803208F0C1
:100E000051C0E091FF0381E08E0F8093FF0380913A
:100E1000BB00F0E0E152FC4F8083BDCF85EC8093B6
:100E2000BC0010922F048091FF03803230F4E091D7
:100E3000FF03F0E0E152FC4F10826091FF0370E08D
:100E4000E0916403F09165038FED93E019951092A2
:100E5000FF0335C084E080932F041092DE031092CC
:100E6000DD03E0916603F091670319958091DD033E
:100E7000811105C081E08093DD031092BD03E091F4
:100E8000DE0381E08E0F8093DE03F0E0E354FC4F3D
:100E900080818093BB009091DE038091DD039817E1
:100EA00008F479CF85E88093BC0009C085EC809375
:100EB000BC0010922F0403C010922D04C8DBFF91D8
:100EC000EF91BF91AF919F918F917F916F915F91C2
:100ED0004F913F912F910F900BBE0F900FBE0F902F
:100EE0001F901895FF920F931F93CF93DF9386E186
:100EF00090E0A0E0B0E080938F0390939003A093E4
:100F00009103B093920380916C0390916D03909341
:100F10009C0380939B0380916E0390916F03909349
:100F20009A03809399038091700390917103909339
:100F30009803809397038091720390917303909329
:100F40009603809395038091740390917503909319
:100F50009403809393030FE813E0C0E0D0E0F8011E
:100F6000F1908F01CE010E94B018F81621F06F2D7C
:100F7000CE010E94B8182196CE30D10581F765ECDC
:100F800072E089ED94E0F1D163EE72E089ED94E0D6
:100F9000ECD180916C0390916D03B1D36AEE72E055
:100FA00089ED94E0E2D180916E0390916F03A7D315
:100FB00061EF72E089ED94E0D8D180917003909157
:100FC00071039DD368EF72E089ED94E0CED18091FA
:100FD00072039091730393D36FEF72E089ED94E005
:100FE000C4D1809174039091750389D368E073E054
:100FF00089ED94E0BAD189ED94E0DF91CF911F9112
:101000000F91FF909CC10F931F93CF93DF930FE835
:1010100013E0C0E0D0E0CE010E94B018F801819347
:101020008F012196CE30D105B1F780918F03909139
:101030009003A0919103B09192034697A105B10549
:10104000F1F081E090E090939C0380939B0382E019
:1010500090E090939A038093990383E090E09093BB
:1010600098038093970384E090E090939603809395
:10107000950385E090E0909394038093930380918F
:101080009B0390919C0390936D0380936C0337D3E3
:101090008091990390919A0390936F0380936E03CC
:1010A00080919703909198039093710380937003BC
:1010B00080919503909196039093730380937203AC
:1010C000809193039091940390937503809374039C
:1010D00009DF69E273E089ED94E047D163EE72E0E5
:1010E00089ED94E042D180916C0390916D0307D318
:1010F0006AEE72E089ED94E038D180916E039091B0
:101100006F03FDD261EF72E089ED94E02ED1809102
:10111000700390917103F3D268EF72E089ED94E06F
:1011200024D18091720390917303E9D26FEF72E042
:1011300089ED94E01AD18091740390917503DFD208
:1011400067E473E089ED94E010D189ED94E0DF91DC
:10115000CF911F910F91F3C08F929F92AF92BF9248
:10116000CF92DF92EF92FF92CF93DF93C82F8CE361
:1011700094E046D90C2E000CDD0B8CE394E040D9B2
:101180008C179D0729F53EDA4B015C0182E3C82EDE
:10119000D12CE12CF12C36DADC01CB01881999092C
:1011A000AA09BB09883E9340A105B105A0F321E03F
:1011B000C21AD108E108F10888EE880E83E0981E73
:1011C000A11CB11CC114D104E104F10421F7D5CF55
:1011D000DF91CF91FF90EF90DF90CF90BF90AF90D5
:1011E0009F908F90089508950F931F93CF93DF934F
:1011F000C82FD62F80913204861317C0CC2319F044
:1012000010E001E002C011E000E060913004062E21
:10121000000C770B80913A0417DC602F8091360424
:10122000A9DB612F80913704A5DB80913504D813A9
:101230001BC0CC2319F0C0E0D1E002C0C1E0D0E077
:1012400060913304062E000C770B80913B04FCDB8D
:101250006D2F809138048EDB6C2F80913904DF91E3
:10126000CF911F910F9186CBDF91CF911F910F915D
:1012700008950F931F93CF93DF93EC018881998199
:10128000009729F02A813B812617370788F48B01C4
:101290006F5F7F4F0E945C19009761F0998388838C
:1012A0001B830A832C813D81232B11F4FC011082C6
:1012B00081E001C080E0DF91CF911F910F910895EF
:1012C000FC01A089B18982E08C93A485B5851C922C
:1012D000A685B7858FEC8C93108EA489B58986E09E
:1012E0008C93A289B3898C9180618C93A289B389F4
:1012F0008C9188608C93A289B3898C9180688C933F
:101300000288F389E02D80818F7D8083089561E0DC
:1013100081E06ADF60E080E067CF61E080E064DF69
:1013200060E080E061CF60E081E05EDF61E080E06E
:101330005BCF61E081E058DF60E081E055CF6BE496
:1013400072E061C2CF93DF93FC01448155816081DB
:1013500071818CE394E02DD2EC018CE394E0EFDF1B
:101360008C0F9D1FDF91CF9108950F931F93CF9303
:10137000DF93EC0148D28C01CE01E1DF800F911F99
:10138000DF91CF911F910F910895CF93DF93C0E329
:10139000D4E060E08A85EEDA60E08B85DF91CF9162
:1013A000E9CA8F929F92AF92BF92CF92DF92EF9253
:1013B000FF926B017C010FDC4B015C01C60ED71E56
:1013C000E81EF91E08DC681579058A059B0528F0DA
:1013D000C616D706E806F906A8F7FF90EF90DF904B
:1013E000CF90BF90AF909F908F9008950CC2EF92D6
:1013F000FF920F931F93CF93DF936115710511F443
:1014000080E01BC041155105B9F07B01EC018C81D6
:101410009D818A01080F191FB801CE012ADF882398
:1014200079F3288139818C819D81B701820F931FC7
:101430000E94521A1D830C8381E0DF91CF911F918E
:101440000F91FF90EF900895CF93DF93EC01888187
:101450009981009711F00E945214198218821D82FE
:101460001C821B821A82DF91CF910895CF93DF9364
:10147000EC016115710559F0FB0101900020E9F7BD
:101480003197AF01461B570BB2DF811102C0CE016D
:10149000DBDFCE01DF91CF910895EF92FF920F93A2
:1014A0001F93CF93DF93EC017B018A01BA01E1DE48
:1014B000811103C0CE01C8DF07C01D830C83B701B3
:1014C000888199810E94521ACE01DF91CF911F919C
:1014D0000F91FF90EF900895CF93DF93EC0161158A
:1014E000710551F0FB0101900020E9F73197AF0140
:1014F000461B570BD2DF01C0A7DFCE01DF91CF9192
:101500000895FC01808191810C945214FC01118298
:10151000108213821282158214826115710549F0BE
:10152000FB0101900020E9F73197AF01461B570BF3
:10153000B4CF08958F929F92AF92BF92EF92FF9295
:101540000F931F93CF93DF93CDB7DEB7A1970FB65D
:10155000F894DEBF0FBECDBF7C01FA01CB0119A20A
:10156000223008F42AE08E010F5D1F4F822E912C4D
:10157000A12CB12CBF01A50194010E94C618F9014C
:10158000CA01015011096A3014F4605D01C0695C40
:10159000D8016C93232B242B252B61F7B801C701AD
:1015A00032D1A1960FB6F894DEBF0FBECDBFDF914A
:1015B000CF911F910F91FF90EF90BF90AF909F90B0
:1015C0008F900895BF92CF92DF92EF92FF920F9388
:1015D0001F93CF93DF9348E0C42ED12CE12CF12C44
:1015E000D2E0C1E01FEF05EE55ECB52E80912F043F
:1015F0008111FCCFD0932F04C0932E0410932D049F
:1016000010922C0410922B0410920A0420910A04C8
:10161000C601880F991F822B80930A0480910904C8
:10162000813069F41092090480910A048093BB0010
:101630008091BC0083FDF8CFB092BC0002C0009343
:10164000BC0080912F048230E1F380912D048F3F04
:10165000E1F080912D04803211F080912D048FEF04
:10166000C81AD80AE80AF80A87E7C816D104E104BC
:10167000F10409F0BBCFDF91CF911F910F91FF9043
:10168000EF90DF90CF90BF9008952AE0B701A601B8
:101690008091B9059091BA054DDF61E872E08091C3
:1016A000B9059091BA05A2DEC0937C05D8CFCF9240
:1016B000DF92EF92FF920F931F93CF93DF93EC0192
:1016C0006A017B01E881F9810190F081E02D6DE2F2
:1016D00019958C0144275527BA014C195D096E09EB
:1016E0007F092AE0CE0126DF800F911FDF91CF9185
:1016F0001F910F91FF90EF90DF90CF900895CF93BF
:10170000DF93AC01990F660B770B77FF04C089ED6F
:1017100094E0CDDF04C02AE089ED94E00BDFEC011A
:1017200089ED94E00CDE8C0F9D1FDF91CF91089521
:10173000CF93DF931F921F92CDB7DEB72091E705BD
:101740003091E805CE0101962115310519F48B5E23
:10175000954018C0AC01421B530BE091E905F09194
:10176000EA0580E090E0309759F09C012E5F3F4FF2
:1017700080819181820F931F0280F381E02DF3CF4E
:10178000840F951F9A83898349815A818091B90575
:101790009091BA05052E000C660B770B77FF02C0FF
:1017A00086DF02C02AE0C6DE0F900F90DF91CF9156
:1017B0000895CF92DF92EF92FF920F931F93CF93F2
:1017C000DF936C017A018B01C0E0D0E0CE15DF051C
:1017D00081F0D8016D918D01D601ED91FC910190C0
:1017E000F081E02DC6011995892B11F02196EECFDD
:1017F0007E01C701DF91CF911F910F91FF90EF9074
:10180000DF90CF9008956115710579F0FB0101908B
:101810000020E9F73197AF01461B570BDC01ED9132
:10182000FC910280F381E02D199480E090E008950E
:10183000CF92DF92EF92FF920F931F93E82FF92F31
:1018400005C0015011092109310961F190819623E8
:101850009417B9F305C0015011092109310911F19B
:10186000908196239413F7CFC12CD12CE12CF12C2D
:101870000AC08FEFC81AD80AE80AF80A0C151D0525
:101880002E053F0579F080818623841791F36C2D16
:101890007D2D8E2D9F2D1F910F91FF90EF90DF904A
:1018A000CF90089560E070E080E090E01F910F918C
:1018B000FF90EF90DF90CF900895CF93DF93CDB757
:1018C000DEB7E3970FB6F894DEBF0FBECDBF7894B6
:1018D00084B5826084BD84B5816084BD85B5826035
:1018E00085BD85B5816085BD80916E0081608093E6
:1018F0006E0010928100809181008260809381004F
:10190000809181008160809381008091800081605E
:10191000809380008091B10084608093B1008091B9
:10192000B00081608093B0008091910082608093CC
:10193000910080919100816080939100809190004E
:101940008160809390008091A10082608093A100CB
:101950008091A10081608093A1008091A0008160AE
:101960008093A00080912101826080932101809169
:101970002101816080932101809120018160809309
:10198000200180917A00846080937A0080917A00AF
:10199000826080937A0080917A00816080937A00DF
:1019A00080917A00806880937A001092C100109232
:1019B000BB051092BC051092BD051092BE05109299
:1019C00078051092790510927A0510927B0568EBE4
:1019D0007BE080E090E0E5DC89ED94E09093BA054F
:1019E0008093B9056DDCF7D860937805709379051D
:1019F00080937A0590937B056AE272E08091B90545
:101A00009091BA05F3DC6AE070E080E090E0C9DC18
:101A100081E080938D0510926B0310926A031092FF
:101A200069031092680310922F0480932E04109281
:101A3000090461E084E10E94BA0461E085E10E944A
:101A4000BA048091B9008E7F8093B9008091B9006B
:101A50008D7F8093B90088E48093B80085E48093FB
:101A6000BC0089E593E090936703809366038AE561
:101A700093E09093650380936403ADD8009178055B
:101A80001091790520917A0530917B05DC01CB011D
:101A9000801B910BA20BB30B82339105A105B105FD
:101AA00068F442E350E060E070E08A019B01081BAB
:101AB000190B2A0B3B0BC901B80173DC8CD860935E
:101AC00078057093790580937A0590937B056CE394
:101AD00072E08091B9059091BA0588DC80917C050F
:101AE000811101C06FDD63E472E08091B9059091CE
:101AF000BA057CDC63E472E08091B9059091BA0587
:101B000075DC63E472E08091B9059091BA056EDCF2
:101B10000FDE63E472E08091B9059091BA0566DC4E
:101B200065E472E08091B9059091BA055FDC6AE0E6
:101B300070E080E090E035DC89ED94E0C1DB8CE37F
:101B400094E0BEDB88E0809336048BE0809337041A
:101B50008CE0809338048DE08093390489E0809391
:101B60003A048AE080933B0461E088E00E94E80444
:101B700061E0809137040E94E80461E080913804BC
:101B80000E94E80461E0809139040E94E80461E069
:101B900080913A040E94E80461E080913B040E9435
:101BA000E804F3DB1092320481E0809335048093E3
:101BB00031041092340484EB809330048093330416
:101BC00022DA6EE472E089ED94E0CFDB67E572E043
:101BD00089ED94E0CADB68E772E089ED94E0C5DB4B
:101BE00067E572E089ED94E0C0DB53E0852E912C2F
:101BF0005E0112E2A10EB11C0E94EB0500918B0365
:101C000010918C0320918D0330918E03DC01CB0168
:101C1000801B910BA20BB30B86399105A105B10571
:101C200008F4DBC00E94EB0560938B0370938C0378
:101C300080938D0390938E0361E070E080E090E0EC
:101C4000B0DB0E94EB056093780570937905809373
:101C50007A0590937B056CE372E08091B9059091D1
:101C6000BA05C4DB80917C05811101C0ABDC61E069
:101C700070E080E090E095DB63E472E08091B9056C
:101C80009091BA05B3DB00E010E0E12CF12C412C7F
:101C9000512C32018EC40F5F1F4F21E042165104B8
:101CA0006104710409F485C4F801E65AFD4F84917A
:101CB000F801E050FD4FD490F801E654FD4FC49078
:101CC000CC2009F476C481110E946404EC2DF0E06C
:101CD000EE0FFF1FE056FD4FA591B491EC91DE226F
:101CE00009F467C481E00E2C01C0880F0A94EAF75A
:101CF000F82AE39438E0E31609F45DC445E344169A
:101D000051046104710409F456C461E070E080E09C
:101D100090E047DB5FEF451A550A650A750A0533FF
:101D2000110509F0B8CF61E070E080E090E039DBA8
:101D300063E472E08091B9059091BA0557DB10E039
:101D400080917B00877F912F987F892B80937B00E8
:101D5000812F8770806480937C0080917A008064FA
:101D600080937A0080917A0086FDFCCF20917800E4
:101D70008091790030E0382B8091B9059091BA05B7
:101D8000A901032E000C660B770B37FF2AC48FDCEA
:101D900061E872E08091B9059091BA0527DB1F5F79
:101DA000103171F663E472E08091B9059091BA0543
:101DB0001DDBBEDC63E472E08091B9059091BA0549
:101DC00015DB65E472E08091B9059091BA050EDBF0
:101DD00061E070E080E090E0E4DA0E94EB056B01E6
:101DE0007C018091870390918803A0918903B09131
:101DF0008A0397018601081B190B2A0B3B0B083C31
:101E000011052105310508F463C0C0928703D09203
:101E10008803E0928903F0928A0360E08091D705FD
:101E20000E94BA04C4010197F1F761E08091D705DF
:101E30000E94BA0483E290E00197F1F760E080919C
:101E4000D7050E94BA048091D9059091DA059927A7
:101E5000FC01E050FD4F6491FC01E654FD4FE4911C
:101E6000F0E0EE0FFF1FE056FD4F8591949100E4E6
:101E700012E42FE030E0462FDBDC611571058105AF
:101E8000910549F0DC01CB010196A11DB11DBC01FA
:101E9000CD019F7003C060E070E0CB010E949D17F0
:101EA0002091DB053091DC054091DD055091DE0588
:101EB0000E94E81820E030E040E05FE30E94FC1759
:101EC00060937F03709380038093810390938203D8
:101ED0008091830390918403A0918503B091860340
:101EE000A7019601281B390B4A0B5B0B22333105E6
:101EF0004105510508F45AC3C0928303D09284036C
:101F0000E0928503F09286038CE394E00E94000245
:101F1000809376038F3F09F4DDC1082E000C990BE6
:101F2000AA0BBB0BFC01E154F109EA31F10508F001
:101F3000C5C18827EE58FF4F8F4F0C945419F3D921
:101F400086E40AD921C084E680933304ECD984E482
:101F500003D984EB8093330465E872E0ACC184E676
:101F600080933004E0D987E4F7D884EB8093300481
:101F700067E872E0A0C184E680933304C8D98AE49C
:101F8000EBD884EB8093330463E872E094C184E679
:101F900080933004BCD988E4DFD884EB809330048C
:101FA00069E872E088C1C5D982E5D6D86BE872E0ED
:101FB00082C1ADD982E4D0D86DE872E07CC1ADD9E0
:101FC0008CE4CAD86FE872E076C1DFD961E972E0CB
:101FD0008BEC95E081DA61E972E06DC114D86DE4B3
:101FE00072E0CE01889692DA42E050E063E972E056
:101FF000CE018896FCD90CE613E096E7E92E93E033
:10200000F92E2FE2D22EF801819191918F011BA21E
:102010001AA21DA21CA21FA21EA24AE0BE016F5F4F
:102020007F4FEFD4BE016F5F7F4FC50155DA1A8233
:1020300019821C821B821E821D826AA17BA16115EE
:10204000710529F04EA15FA1CE01019626DADEA628
:102050001FA641E050E0BE01625D7F4FCE010196B8
:10206000C6D9811103C0CE010196EED94D815E81A2
:1020700069817A81CE018896BAD9CE01019641DA7A
:10208000C5013FDAE016F10609F0BDCF41E050E0AE
:1020900066E972E0CE018896AAD9CE01889652D917
:1020A000CE018896F3C06DE472E0CE0101962EDA7F
:1020B00000E010E087E5873551F18F3201F58D8121
:1020C0009E81892B21F189819A81FC012081222323
:1020D000F1F0009711F06FD403C060E070E0CB0125
:1020E000F801EE0FFF1FE459FC4F718360830F5F0F
:1020F0001F4F6DE472E0CE010196EED908C08AA3AD
:102100001BA241E050E0B501CE01019670D98CE3ED
:1021100094E00E940002883571F668E972E08CE371
:1021200094E023D9CE010196B1C00E9472076AE9FA
:1021300072E0C1C060917F03709180038091810340
:10214000909182031BA21AA21DA21CA21FA21EA272
:102150008E010F5F1F4F22E044E0EDD2BC01C501AC
:10216000BBD98091D1059091D2050097C1F06AA1A9
:102170007BA16115710591F04091D3055091D40573
:102180002EA13FA14217530748F00E94521A8EA178
:102190009FA19093D6058093D50517C083D38AA1BC
:1021A0009BA19093D2058093D1058CA19DA1909382
:1021B000D4058093D3058EA19FA19093D6058093DB
:1021C000D5051BA21AA21DA21CA21FA21EA2C501F8
:1021D00098D96CE972E0CE01019698D94091D50565
:1021E0005091D6056091D1057091D205CE0101962E
:1021F000FED8811103C0CE01019626D964E972E0B0
:10220000CE01019633D96AEA72E030D96BEB72E005
:102210002DD964E972E02AD96AEA72E027D96BEB1A
:1022200072E024D964E972E021D96AEA72E01ED929
:102230006BEB72E01BD964E972E018D96AEA72E0CC
:1022400015D96BEB72E012D964E972E00FD96AEA32
:1022500072E00CD96BEB72E009D91BA21AA21DA285
:102260001CA21FA21EA28A159B0551F0FC016081D1
:1022700071816115710521F044815581C5010DD928
:10228000CE0101963ED9C5015DD8C5013AD916C027
:1022900061EC72E08CE394E068D861EC72E08BEC66
:1022A00095E01AD90BC071D863EC72E08BEC95E025
:1022B00013D963EC72E08CE394E057D84091760335
:1022C00050E060E070E02AE089ED94E033D989EDD8
:1022D00094E035D88091CF059091D005892B09F4F1
:1022E00065C161EC72E08091CB059091CC050E94B4
:1022F000491A892B09F05AC10E94EB056B017C0138
:102300006091740370917503072E000C880B990B74
:1023100014D668AB79AB8AAB9BAB40907F035090EF
:1023200080036090810370908203A3019201FFD526
:1023300087FF22C00E94990980917B0390917C03C2
:10234000A0917D03B0917E0397018601081B190BB4
:102350002A0B3B0B083C11052105310568F40E944E
:10236000EB056B017C0160937B0370937C0380938E
:102370007D0390937E03E0CFA301920168A979A920
:102380008AA99BA98DD787FD32C060917203709195
:102390007303072E000C880B990BCFD59B01AC0162
:1023A000C301B2017DD787FD22C00E9493098091AD
:1023B0007B0390917C03A0917D03B0917E03A701E4
:1023C0009601281B390B4A0B5B0B283C3105410554
:1023D000510568F40E94EB056B017C0160937B035F
:1023E00070937C0380937D0390937E03E0CF609194
:1023F00072037091730361507109072E000C880BF2
:10240000990B9BD59B01AC01C301B20190D5181665
:1024100094F16091700370917103072E000C880B8A
:10242000990B8BD59B01AC01C301B20139D787FD54
:1024300022C00E94930980917B0390917C03A0911C
:102440007D03B0917E0397018601081B190B2A0BAF
:102450003B0B083C11052105310568F40E94EB0592
:102460006B017C0160937B0370937C0380937D03FD
:1024700090937E03E0CF609170037091710361507F
:102480007109072E000C880B990B57D59B01AC01E5
:10249000C301B2014CD51816A4F160916E0370917E
:1024A0006F03072E000C880B990B47D59B01AC01DD
:1024B000C301B201F5D687FD24C00E948D09809129
:1024C000770390917803A0917903B0917A03A701E3
:1024D0009601281B390B4A0B5B0BDA01C901843FBB
:1024E0009140A105B10568F40E94EB056B017C01E8
:1024F00060937703709378038093790390937A03C2
:10250000DECF60916E0370916F0361507109072EE9
:10251000000C880B990B11D59B01AC01C301B201D2
:1025200006D5181694F160916C0370916D03072E17
:10253000000C880B990B01D59B01AC01C301B201C2
:10254000AFD687FD22C00E948709809177039091C2
:102550007803A0917903B0917A03C81AD90AEA0ADC
:10256000FB0A44EFC41641E0D406E104F10468F428
:102570000E94EB056B017C016093770370937803F5
:102580008093790390937A03E0CF60916C0370910C
:102590006D03072E000C880B990BCFD49B01AC0167
:1025A000C301B201C4D487FD0E9487090E94CF02F3
:1025B00023CB80E098CB4F2D50E060E070E02AE024
:1025C0008091B9059091BA050E949A0A61E872E07B
:1025D0008091B9059091BA050E94F609E12CF12C81
:1025E00094CB2AE00E949A0AD3CB8BEC95E00E9410
:1025F000810A81ED95E00C94810AECE3F4E013820A
:10260000128288EE93E0A0E0B0E084839583A683F5
:10261000B7832AE032E03183208345E351E05587D8
:10262000448744E351E05787468740E351E0518BAC
:10263000408B41E351E0538B428B42E351E0558B99
:10264000448B46E351E0578B468B118E128E138ECE
:10265000148EE9EDF4E01382128284839583A683BD
:10266000B7833183208325EC30E03587248724EC41
:1026700030E03787268720EC30E0318B208B21EC4F
:1026800030E0338B228B22EC30E0358B248B26EC30
:1026900030E0378B268B118E128E138E148EE6E768
:1026A000F5E0178210861186128613861486158629
:1026B00016861786108A118A128A138A148A158A36
:1026C000168AEFEBF5E01382128284839583A6834A
:1026D000B7838CE192E09183808361E085E00E9482
:1026E000E80460E083E00E94E804E7EDF5E085E0BF
:1026F00090E09183808383E090E09383828385E8F8
:102700009CEFACEDB1E484839583A683B7838CE919
:1027100093E5ACE8B2E480879187A287B3876DE444
:1027200072E081ED95E00E94860A63EC72E08BEC2A
:1027300095E00C94860AEF920F931F93CF93DF934B
:10274000E80147FD02C034E001C034E1042E000C72
:10275000550B57FF03C0519541955109E32E022FA8
:10276000242FAE0186D1CE01DF91CF911F910F9121
:10277000EF9008950F931F93CF93DF9382309105CD
:1027800010F482E090E0E091E905F091EA0520E0A4
:1027900030E0A0E0B0E0309719F140815181028132
:1027A000138148175907C8F08417950769F41097E3
:1027B00031F012960C93129713961C9327C0009336
:1027C000E9051093EA0522C02115310519F04217D9
:1027D000530718F49A01BD01EF01DF01F801DBCFC7
:1027E00021153105F9F0281B390B2430310580F40F
:1027F0008A819B816115710521F0FB01938382839E
:1028000004C09093EA058093E905FE01329644C026
:10281000FE01E20FF31F8193919322503109398316
:1028200028833AC02091E7053091E805232B41F435
:1028300020910202309103023093E8052093E705CE
:1028400020910002309101022115310541F42DB78C
:102850003EB74091040250910502241B350BE091D4
:10286000E705F091E805E217F307A0F42E1B3F0BF4
:102870002817390778F0AC014E5F5F4F24173507F2
:1028800048F04E0F5F1F5093E8054093E705819392
:10289000919302C0E0E0F0E0CF01DF91CF911F9172
:1028A0000F910895CF93DF93009709F481C0FC0145
:1028B000329713821282A091E905B091EA05109730
:1028C00081F420813181820F931F2091E70530919F
:1028D000E8052817390751F5F093E805E093E70577
:1028E00067C0ED0120E030E0CE17DF0740F44A81F9
:1028F0005B819E0141155105F1F0EA01F5CFD383CB
:10290000C28340815181840F951FC817D90759F49C
:1029100088819981840F951F0296918380838A8193
:102920009B81938382832115310529F4F093EA0575
:10293000E093E9053DC0E901FB83EA8349915991A0
:10294000C40FD51FEC17FD0761F480819181840FBE
:10295000951F0296E90199838883828193819B83E5
:102960008A83E0E0F0E012968D919C911397009796
:1029700019F0FD01DC01F7CF8D919C9111979D011C
:102980002E5F3F4F820F931F2091E7053091E8059E
:102990002817390769F4309729F41092EA05109244
:1029A000E90502C013821282B093E805A093E705FF
:1029B000DF91CF9108951F93FC0199278827BC01CF
:1029C000E89411911032E9F3193010F01E30C8F379
:1029D0001B3249F01D3241F4689405C01CD0610FD0
:1029E000711D811D911D119110531A30B8F33EF4E1
:1029F00090958095709561957F4F8F4F9F4F1F9158
:102A00000895BB274A3031F4992322F4BDE2909512
:102A100081959F4F16C0592F482F372F262F660FAD
:102A2000771F881F991F660F771F881F991F620FD6
:102A3000731F841F951F660F771F881F991F0895A6
:102A4000BB27FB015527AA27880F991FAA1FA41788
:102A500010F0A41B83955051B9F7A05DAA3308F07C
:102A6000A95DA193009779F7B111B1931192CB01B0
:102A70004EC28F929F92AF92BF92CF92DF92EF920F
:102A8000FF920F931F93CF93DF93CDB7DEB72997B4
:102A90000FB6F894DEBF0FBECDBF6A01122FB02E65
:102AA0002BE3201720F0FF24F394F00E02C02CE358
:102AB000F22E0F2D27E0AE014F5F5F4F50D1BC01CA
:102AC0004981842F8970813031F0E1FC06C0E0FE3D
:102AD00006C090E205C09DE203C09BE201C090E009
:102AE0005E2D507143FF3CC0911102C083E001C0D4
:102AF00084E0811718F4212F281B01C020E0511118
:102B00000BC0F601822F30E2882319F031938150F7
:102B1000FBCFC20ED11C20E0992329F0D6019C9353
:102B2000F60131966F01C6010396E2FE0AC03EE44B
:102B3000D6013C9341E411964C93119712963C9325
:102B400006C03EE6F601308341E641833283FC0154
:102B5000322F40E2332309F442C041933150FACF7F
:102B600042FF44C0911102C083E001C084E081179C
:102B700018F4212F281B01C020E051110BC0F601D1
:102B8000822F30E2882319F031938150FBCFC20E9F
:102B9000D11C20E0992329F0D6019C93F6013196AF
:102BA0006F01C6010396E2FE0BC039E4D6013C93E7
:102BB0003EE411963C93119736E412963C9307C07D
:102BC00039E6F60130833EE6318336E63283FC0196
:102BD000322F40E2332319F041933150FBCFFC01F7
:102BE000E20FF11D10828EEF9FEFA6C021E030E0D2
:102BF000911102C020E030E0161617061CF4FB010C
:102C0000319602C0E1E0F0E02E0F3F1FBB2021F023
:102C1000EB2DF0E0319602C0E0E0F0E02E0F3F1F18
:102C2000E12FF0E02E173F071CF4121B212F01C0EB
:102C300020E08E2D887159F4F601822F30E288232E
:102C400019F031938150FBCFC20ED11C20E09923A3
:102C500029F0D6019C93F60131966F0151110BC0FA
:102C6000F601822F90E3882319F091938150FBCFD6
:102C7000C20ED11C20E00F2D060F9A81342F307127
:102C800044FF03C0913309F40150101624F40930B5
:102C900018F008E001C001E0AB0177FF02C040E09E
:102CA00050E0FB01E41BF50BA1E0B0E0AC0FBD1F51
:102CB000EA0FFB1F8EE2A82E4B01801A91080B2D04
:102CC00010E01195019511094F3FBFEF5B0721F40B
:102CD000D601AC9211966D01641775072CF084161D
:102CE000950614F4818101C080E341505109319669
:102CF000D60111967D014017510724F0D6018C931F
:102D00006701E2CF6417750739F4963320F49533E1
:102D100019F4311101C081E3F6018083F701822F9C
:102D200090E2882319F091938150FBCFF701E20FD5
:102D3000F11D108280E090E029960FB6F894DEBF76
:102D40000FBECDBFDF91CF911F910F91FF90EF90FC
:102D5000DF90CF90BF90AF909F908F9008952830D4
:102D600008F027E03327DA01990F311D87FD9160C4
:102D700000966105710539F432602E5F3D9330E3B2
:102D80002A95E1F708959F3F30F08038710561057D
:102D900009F03C5F3C5F3D93913008F08068911DE5
:102DA000DF93CF931F930F93FF92EF92192F987F8A
:102DB0009695E92F96959695E90FFF27E654FE4FD5
:102DC00099273327EE24FF24A701E70105900894F3
:102DD000079428F4360FE71EF81E491F511D660F91
:102DE000771F881F991F0694A1F70590079428F470
:102DF000E70EF81E491F561FC11D770F881F991F28
:102E0000661F0694A1F70590079428F4F80E491F51
:102E1000561FC71FD11D880F991F661F771F069465
:102E2000A1F70590079420F4490F561FC71FD81F1C
:102E3000990F661F771F881F0694A9F78491109534
:102E4000177041F0D695C79557954795F794E79435
:102E50001A95C1F7E0E6F1E0689415901591359167
:102E60006591959105907FE27395E118F10A430B06
:102E7000560BC90BD009C0F7E10CF11E431F561FBA
:102E8000C91FD01D7EF4703311F48A95E6CFE89403
:102E9000015030F0080F0AF40027021708F4202F21
:102EA0002395022F7A3328F079E37D932A95E9F769
:102EB00010C07D932A9589F6069497956795379566
:102EC00017951794E118F10A430B560BC90BD0095B
:102ED00098F023957E9173957A3308F070E37C9394
:102EE0002013B8F77E9170617D9330F0839571E384
:102EF0007D9370E32A95E1F71124EF90FF900F91F5
:102F00001F91CF91DF91992787FD90950895DC015E
:102F1000FC01672F71917723E1F7329704C07C9110
:102F20006D9370836291AE17BF07C8F3089540D0C8
:102F300008F481E00895E89409C097FB3EF4909569
:102F40008095709561957F4F8F4F9F4F9923A9F082
:102F5000F92F96E9BB279395F69587957795679511
:102F6000B795F111F8CFFAF4BB0F11F460FF1BC055
:102F70006F5F7F4F8F4F9F4F16C0882311F096E9E8
:102F800011C0772321F09EE8872F762F05C0662396
:102F900071F096E8862F70E060E02AF09A95660F4F
:102FA000771F881FDAF7880F9695879597F9089508
:102FB000990F0008550FAA0BE0E8FEEF161617064A
:102FC000E807F907C0F012161306E407F50798F0B2
:102FD000621B730B840B950B39F40A2661F0232BCB
:102FE000242B252B21F408950A2609F4A140A69547
:102FF0008FEF811D811D08950BD078C069D028F016
:103000006ED018F0952309F05AC05FC01124A2C0F9
:103010007ED0A0F3959FD1F3950F50E0551F629F8E
:10302000F001729FBB27F00DB11D639FAA27F00D21
:10303000B11DAA1F649F6627B00DA11D661F829F48
:103040002227B00DA11D621F739FB00DA11D621F2D
:10305000839FA00D611D221F749F3327A00D611D4A
:10306000231F849F600D211D822F762F6A2F11242C
:103070009F5750408AF0E1F088234AF0EE0FFF1F7F
:10308000BB1F661F771F881F91505040A9F79E3FB6
:10309000510570F014C05EC05F3FECF3983EDCF366
:1030A000869577956795B795F795E7959F5FC1F7F3
:1030B000FE2B880F911D9695879597F9089597F99E
:1030C0009F6780E870E060E008959FEF80EC0895CE
:1030D00000240A94161617061806090608950024F7
:1030E0000A9412161306140605060895092E039471
:1030F000000C11F4882352F0BB0F40F4BF2B11F4E5
:1031000060FF04C06F5F7F4F8F4F9F4F089557FD43
:103110009058440F551F59F05F3F71F04795880F45
:1031200097FB991F61F09F3F79F0879508951216DC
:1031300013061406551FF2CF4695F1DF08C0161688
:1031400017061806991FF1CF869571056105089439
:103150000895E894BB2766277727CB0197F9089550
:10316000F999FECF92BD81BDF89A992780B508954F
:10317000262FF999FECF1FBA92BD81BD20BD0FB693
:10318000F894FA9AF99A0FBE01960895A1E21A2EC0
:10319000AA1BBB1BFD010DC0AA1FBB1FEE1FFF1FFB
:1031A000A217B307E407F50720F0A21BB30BE40B4B
:1031B000F50B661F771F881F991F1A9469F7609592
:1031C0007095809590959B01AC01BD01CF0108954C
:1031D0000CD08CCF84DF40F07BDF30F021F45F3FF8
:1031E00019F06DCF5111B6CF70CF91DF98F39923BD
:1031F000C9F35523B1F3951B550BBB27AA276217BB
:103200007307840738F09F5F5F4F220F331F441FFF
:10321000AA1FA9F333D00E2E3AF0E0E830D0915037
:103220005040E695001CCAF729D0FE2F27D0660F24
:10323000771F881FBB1F261737074807AB07B0E863
:1032400009F0BB0B802DBF01FF2793585F4F2AF079
:103250009E3F510568F033CF7DCF5F3FECF3983E42
:10326000DCF3869577956795B795F7959F5FC9F7D6
:10327000880F911D9695879597F90895E1E0660F5F
:10328000771F881FBB1F621773078407BA0720F0D8
:10329000621B730B840BBA0BEE1F88F7E095089541
:1032A00087DE08F48FEF0895EE0FFF1F881F8BBF96
:1032B0000790F691E02D19946F927F928F929F92D2
:1032C000AF92BF92CF92DF92EF92FF920F931F9334
:1032D000CF93DF93009781F4CB01DF91CF911F91C2
:1032E0000F91FF90EF90DF90CF90BF90AF909F90A5
:1032F0008F907F906F903ECAFC01E60FF71F9C01F4
:1033000022503109E217F30708F4A5C0EC01D901F6
:103310000D911C91119706171707A8F0053011059C
:1033200008F497C0C80104978617970708F491C05E
:1033300002501109061B170B019311936D937C9397
:10334000CF01B0DA86C05B01A01AB10A4C01800E31
:10335000911EA091E905B091EA05612C712CE12C38
:10336000F12C109709F446C08D919C911197A815E6
:10337000B905B1F56C0142E0C40ED11CCA14DB04DE
:1033800078F14C018A189B08640142E0C40ED11CFC
:103390001296BC9012971396AC91B5E0CB16D1045F
:1033A00040F0B282A38391828082D9016D937C9395
:1033B00009C00E5F1F4F800F911FF9019183808319
:1033C000EB2DFA2FE114F10431F0D7011396FC93A1
:1033D000EE9312973EC0F093EA05E093E90539C0F9
:1033E0006816790608F43C017D0112960D90BC9197
:1033F000A02DB7CF8091E7059091E8058816990632
:10340000E1F466167706C8F48091000290910102FB
:10341000009741F48DB79EB7409104025091050288
:10342000841B950BE817F907B0F4F093E805E093D7
:10343000E705F901718360830CC0CB019BD97C0146
:10344000009749F0A801BE011BD0CE012BDAC701BD
:1034500004C0CE0102C080E090E0DF91CF911F91C7
:103460000F91FF90EF90DF90CF90BF90AF909F9023
:103470008F907F906F90089581E090E0F89419C04C
:10348000FB01DC0102C001900D9241505040D8F781
:103490000895FB01DC018D91019080190110D9F391
:1034A000990B0895FB01DC0101900D920020E1F7DA
:1034B000089511E0CEEBD1E000E005C0802FFE01C1
:1034C000F3DE2196011DCF3BD10780E00807B1F75D
:0434D000F894FFCF9E
:1034D4000000EB058000000000006202D90BF1013E
:1034E400AE022202000214020000000091038703CE
:1034F400A1035B037F036B035C03564D4450565F8B
:10350400317C315F564D4450560D0A00564D44509F
:10351400525F007C005F564D4450520D0A007061AA
:10352400697261626C65002A2D2D2D2D2D2D2D2D96
:103534002D2D2D2D2D2D2D2D2D2D2D2D2D2D2D2DB7
:103544002D2D2D2D2D2D2A00636F6E6E65637465F0
:10355400003A004600440047004800520042004C34
:103564000053004F2F005800570051005A2F446950
:103574007374616E6365203A200054656D70EFBF0B
:10358400BD726174757265203A200032312E30327A
:103594000041004D002A2A2A2A5361757665676125
:1035A40072646520506172616D65747265732A2A54
:1035B4002A2A005A6F6E652031005A6F6E652032D8
:1035C400005A6F6E652033005A6F6E652034005ABE
:1035D4006F6E65206D6178002A2A2A2A5061726113
:1035E4006D65747265732073617576656761726465
:1035F400EFBFBD732A2A2A2A002A2A2A2A4368618D
:103604007267656D656E7420506172616D65747268
:1036140065732A2A2A2A002A2A2A2A506172616D8D
:103624006574726573206368617267EFBFBD732A46
:043634002A2A2A0014
:020000023000CC
:10E000000D9489F10D94B2F10D94B2F10D94B2F129
:10E010000D94B2F10D94B2F10D94B2F10D94B2F1F0
:10E020000D94B2F10D94B2F10D94B2F10D94B2F1E0
:10E030000D94B2F10D94B2F10D94B2F10D94B2F1D0
:10E040000D94B2F10D94B2F10D94B2F10D94B2F1C0
:10E050000D94B2F10D94B2F10D94B2F10D94B2F1B0
:10E060000D94B2F10D94B2F10D94B2F10D94B2F1A0
:10E070000D94B2F10D94B2F10D94B2F10D94B2F190
:10E080000D94B2F10D94B2F10D94B2F10D94B2F180
:10E090000D94B2F10D94B2F10D94B2F10D94B2F170
:10E0A0000D94B2F10D94B2F10D94B2F10D94B2F160
:10E0B0000D94B2F10D94B2F10D94B2F10D94B2F150
:10E0C0000D94B2F10D94B2F10D94B2F10D94B2F140
:10E0D0000D94B2F10D94B2F10D94B2F10D94B2F130
:10E0E0000D94B2F141546D656761323536300041AF
:10E0F000726475696E6F206578706C6F72657220DE
:10E1000073746B3530305632206279204D4C530099
:10E11000426F6F746C6F616465723E004875683F52
:10E1200000436F6D70696C6564206F6E203D200048
:10E130004350552054797065202020203D20005FF9
:10E140005F4156525F415243485F5F3D2000415658
:10E1500052204C696243205665723D20004743437C
:10E160002056657273696F6E203D20004350552024
:10E1700049442020202020203D20004C6F7720663D
:10E18000757365202020203D20004869676820665F
:10E190007573652020203D200045787420667573D6
:10E1A00065202020203D20004C6F636B2066757336
:10E1B000652020203D20004D617220203720323024
:10E1C000313300312E362E3800342E332E350056A2
:10E1D00023202020414444522020206F7020636F70
:10E1E00064652020202020696E73747275637469E1
:10E1F0006F6E2061646472202020496E74657272B3
:10E20000757074006E6F20766563746F7200726A49
:10E210006D702020006A6D70200057686174207056
:10E220006F72743A00506F7274206E6F7420737541
:10E2300070706F72746564004D7573742062652030
:10E2400061206C6574746572002000577269747483
:10E25000696E672045450052656164696E672045B7
:10E26000450045452065727220636E743D00504F35
:10E27000525400303D5A65726F2061646472003FF1
:10E280003D43505520737461747300403D454550C3
:10E29000524F4D207465737400423D426C696E6B41
:10E2A000204C454400453D44756D70204545505215
:10E2B0004F4D00463D44756D7020464C415348001B
:10E2C000483D48656C70004C3D4C69737420492F83
:10E2D0004F20506F72747300513D51756974005234
:10E2E0003D44756D702052414D00563D73686F7707
:10E2F00020696E7465727275707420566563746FF0
:10E30000727300593D506F727420626C696E6B00BD
:10E310002A0011241FBECFEFD1E2DEBFCDBF01E046
:10E320000CBF12E0A0E0B2E0EEE1FDEF03E00BBFB6
:10E3300002C007900D92A030B107D9F712E0A0E01B
:10E34000B2E001C01D92AE30B107E1F70F9460F367
:10E350000D948DFE01E20EBF0FEF0DBF11241FBE05
:10E360000D9460F30D9400F020E030E040ED57E0B4
:10E3700005C0FA013197F1F72F5F3F4F2817390792
:10E38000C0F308959C01260F311DC901A0E0B0E043
:10E390002F5F3F4FABBFFC018791882361F08093D3
:10E3A000C6008091C00086FFFCCF8091C0008064D1
:10E3B0008093C000EACF08958DE08093C6008091DD
:10E3C000C00086FFFCCF8091C00080648093C000B5
:10E3D0008AE08093C6008091C00086FFFCCF8091C8
:10E3E000C00080648093C00008950F94C2F10F9420
:10E3F000DCF10895FC019081992359F09093C600B7
:10E400008091C00086FFFCCF8091C0008064809323
:10E41000C0003196992379F70895282F982F929567
:10E420009F70892F805D8A3308F0895F8093C600D2
:10E430008091C00086FFFCCF8091C00080648093F3
:10E44000C000822F8F70982F905D9A3308F0995FEB
:10E450009093C6008091C00086FFFCCF8091C000E1
:10E4600080648093C00008959C01FB01853691056E
:10E470001CF46330710594F0C90164E670E00F94F8
:10E480002EFE605D7F4F6093C6008091C00086FFC6
:10E49000FCCF8091C00080648093C0002B30310598
:10E4A00014F43297B4F0C90164E670E00F942EFEC4
:10E4B0006AE070E00F942EFE605D7F4F6093C600AF
:10E4C0008091C00086FFFCCF8091C0008064809363
:10E4D000C000C9016AE070E00F942EFEC0968093E0
:10E4E000C6008091C00086FFFCCF8091C000806490
:10E4F0008093C00008951F93182F8EE692EE60E07F
:10E500000F94C2F11093C6008091C00086FFFCCF2B
:10E510008091C00080648093C0000F94DCF11F9153
:10E5200008952F923F924F925F926F927F928F92B7
:10E530009F92AF92BF92CF92DF92EF92FF920F9392
:10E540001F93DF93CF93CDB7DEB762970FB6F894E2
:10E55000DEBF0FBECDBF382E622ECA01DB015C01CB
:10E560006D01772420E2222E2E010894411C511CBB
:10E570008BC081E0A81680E0B80681E0C80680E084
:10E58000D80628F0C601AA27BB270F940DF2BB2797
:10E59000AD2D9C2D8B2D0F940DF28A2D0F940DF225
:10E5A0002092C6008091C00086FFFCCF8091C00001
:10E5B00080648093C0009DE29093C6008091C0006B
:10E5C00086FFFCCF8091C00080648093C0002092C1
:10E5D000C6008091C00086FFFCCF8091C00080649F
:10E5E0008093C00019828601750188249924A1E0D6
:10E5F0003A1651F03A1620F0B2E03B1661F409C029
:10E600000BBFF701779007C0C7010F9477FE782EF4
:10E6100002C0F7017080872D0F940DF22092C60082
:10E620008091C00086FFFCCF8091C0008064809301
:10E63000C000872D8052F401EF70F0708F3520F408
:10E64000E40DF51D708204C0E40DF51D8EE280839B
:10E650000894E11CF11C011D111D0894811C911CE2
:10E6600090E18916910409F0C2CF80E190E0A0E02A
:10E67000B0E0A80EB91ECA1EDB1E198AC2010F9493
:10E68000FAF10F94DCF16A94662009F072CF629679
:10E690000FB6F894DEBF0FBECDBFCF91DF911F91B3
:10E6A0000F91FF90EF90DF90CF90BF90AF909F9031
:10E6B0008F907F906F905F904F903F902F90089534
:10E6C0002F923F924F925F926F927F928F929F9282
:10E6D000AF92BF92CF92DF92EF92FF920F931F9370
:10E6E000DF93CF93CDB7DEB7CD53D1400FB6F894BB
:10E6F000DEBF0FBECDBF01E20EBF0FEF0DBF94B75F
:10E70000F894A89514BE80916000886180936000A1
:10E7100010926000789493FF05C0E0910002F091A0
:10E7200001021995279A2F9A8091C00082608093E8
:10E73000C00080E18093C40088E18093C1000000A4
:10E74000EE24FF24870144E0A42EB12CCC24DD2448
:10E7500024C0C5010197F1F70894E11CF11C011DCB
:10E76000111D21E2E2162EE4F20620E0020720E06D
:10E77000120718F031E0C32ED12CC801B70127ECE5
:10E780003BE140E050E00F9441FE611571058105C9
:10E79000910519F485B1805885B98091C00087FD35
:10E7A00003C0C114D104A9F2A6014F5F5F4FC25E3E
:10E7B000DE4F59834883CE51D140C25EDE4F8881FF
:10E7C0009981CE51D140019711F00D9410FEC05D9A
:10E7D000DE4F19821882C053D14060E0C15DDE4F28
:10E7E0001882CF52D14088249924C35DDE4F19820C
:10E7F0001882CD52D140C05EDE4F188219821A8233
:10E800001B82C052D140CE5CDE4F188219821A8220
:10E810001B82C253D140EE24FF2487010BBFF701B6
:10E8200007911691C45CDE4F19830883CC53D14005
:10E830000D940BFEC25EDE4F28813981CE51D1404E
:10E840002130310509F52091C600C25EDE4F1982E4
:10E850001882CE51D14022C02F5F3F4F4F4F5F4FA4
:10E86000213082E138078AE7480780E0580780F0C6
:10E87000C45CDE4FE881F981CC53D140EF5FFF4F9C
:10E8800019F0EE27FF27099420E030E040E050E047
:10E890008091C00087FFE0CF2091C600C35DDE4FAE
:10E8A00048815981CD52D1404F5F5F4FC35DDE4FEC
:10E8B00059834883CD52D140213209F063C64A3092
:10E8C000510508F05FC60894811C911C53E0851621
:10E8D000910409F059C600E010E018C081E280936D
:10E8E000C6008091C00086FFFCCF8091C00080648C
:10E8F0008093C0002F5F3F4F2931310579F70F9486
:10E90000DCF10F5F1F4F0530110519F020E030E0FA
:10E91000E5CF10920A0210920B0210920C02109294
:10E920000D02109206021092070210920802109235
:10E930000902109202021092030210920402109235
:10E9400005028FEE90EE60E00F94F5F180E191EE1C
:10E9500060E00F94C2F18091C00087FFFCCF9091DE
:10E96000C600903608F09F759032B8F09093C600BC
:10E970008091C00086FFFCCF8091C00080648093AE
:10E98000C000A0E2A093C6008091C00086FFFCCF2B
:10E990008091C00080648093C000983409F4D7C18E
:10E9A0009934B8F4923409F459C1933458F490333B
:10E9B00019F1903308F4E3C59F33A1F1903409F0C5
:10E9C000DEC5BDC0953409F470C1963409F0D7C5D1
:10E9D00098C1923509F42BC2933538F49C3409F46C
:10E9E000F5C1913509F0CBC518C2963509F445C279
:10E9F000993509F0C4C567C483E792EE62E00F94CD
:10EA0000F5F110920602109207021092080210927D
:10EA1000090210920A0210920B0210920C0210923C
:10EA20000D0213C18FE792EE62E00F94F5F18FEEC5
:10EA300090EE60E00F94F5F181E291EE60E00F94CA
:10EA4000C2F187EB91EE60E00F94F5F180E391EE77
:10EA500060E00F94C2F184EE90EE60E00F94F5F167
:10EA60008FE391EE60E00F94C2F186E090E061E008
:10EA700070E00F9434F20F94DCF18DE591EE60E0DC
:10EA80000F94C2F189EC91EE60E00F94F5F18EE401
:10EA900091EE60E00F94C2F183EC91EE60E00F9490
:10EAA000F5F18CE691EE60E00F94C2F18EE10F94E7
:10EAB0000DF288E90F940DF281E00F940DF20F949E
:10EAC000DCF18BE791EE60E00F94C2F119E0E0E039
:10EAD000F0E010935700E4918E2F0F940DF20F94F5
:10EAE000DCF18AE891EE60E00F94C2F1E3E0F0E03F
:10EAF00010935700E4918E2F0F940DF20F94DCF1D8
:10EB000089E991EE60E00F94C2F1E2E0F0E0109349
:10EB10005700E4918E2F0F940DF20F94DCF188EAE8
:10EB200091EE60E00F94C2F1E1E0F0E01093570045
:10EB30001491812F0F940DF20F94DCF107CF8BE825
:10EB400092EE62E00F94F5F18BE492EE60E00F94A8
:10EB5000F5F10F94DCF100E010E019C0C8016F2D51
:10EB60000F947FFEFF2031F489E492EE60E00F9471
:10EB7000C2F10BC0F092C6008091C00086FFFCCFAE
:10EB80008091C00080648093C0000F5F1F4FC80158
:10EB900081519F41A0E0B0E0ABBFFC01F790BAE229
:10EBA000FB1621F0E2E000301E07C1F60F94DCF105
:10EBB0000F94DCF187E592EE60E00F94F5F10F948D
:10EBC000DCF1CC24DD2400E010E01EC0C8010F946D
:10EBD00077FEF82E882331F489E492EE60E00F94FA
:10EBE000C2F10BC08093C6008091C00086FFFCCFAD
:10EBF0008091C00080648093C000FE1419F00894D6
:10EC0000C11CD11C0F5F1F4FC80181519F41A0E063
:10EC1000B0E0ABBFFC01E790FAE2EF1621F022E092
:10EC20000030120799F60F94DCF10F94DCF182E6C4
:10EC300092EE60E00F94C2F1C60161E070E00F94C3
:10EC400034F20F94DCF10F94DCF110920202109276
:10EC50000302109204021092050278CE89E992EE26
:10EC600062E00F94F5F1279A2F9A16C02F9880E052
:10EC700090E0E0EDF7E03197F1F7019684369105E9
:10EC8000C1F72F9A80E090E0E0EDF7E03197F1F7DF
:10EC9000019684369105C1F78091C00087FFE6CFC9
:10ECA0008091C00087FFFCCF64C485EA92EE62E0E9
:10ECB0000F94F5F140910202509103026091040219
:10ECC0007091050281E020E10F9491F2809102029F
:10ECD00090910302A0910402B091050280509F4FD1
:10ECE000AF4FBF4F8093020290930302A0930402A0
:10ECF000B093050280509041A040B04008F426CE69
:10ED0000A4CF83EB92EE62E00F94F5F140910602FE
:10ED100050910702609108027091090280E020E1A1
:10ED20000F9491F28091060290910702A09108023F
:10ED3000B091090280509F4FAF4FBF4F80930602A2
:10ED400090930702A0930802B0930902FFCD80ECD4
:10ED500092EE62E00F94F5F183E792EE60E00F949B
:10ED6000F5F18FE792EE60E00F94F5F18BE892EE0B
:10ED700060E00F94F5F189E992EE60E00F94F5F10F
:10ED800085EA92EE60E00F94F5F183EB92EE60E09D
:10ED90000F94F5F180EC92EE60E00F94F5F187ECC2
:10EDA00092EE60E00F94F5F188ED92EE60E00F9442
:10EDB000F5F18FED92EE60E00F94F5F18AEE92EEB0
:10EDC00060E00F94F5F183E093EEBDCD87EC92EE19
:10EDD00062E00F94F5F181E40F947BF282E40F94EA
:10EDE0007BF283E40F947BF284E40F947BF285E45E
:10EDF0000F947BF286E40F947BF287E40F947BF20E
:10EE000088E40F947BF28AE40F947BF28BE40F94F6
:10EE10007BF28CE40F947BF299CD88ED92EE62E068
:10EE20000F94F5F1772473948824992409C48FED05
:10EE300092EE62E00F94F5F140910A0250910B02BC
:10EE400060910C0270910D0282E020E10F9491F22A
:10EE500080910A0290910B02A0910C02B0910D02D8
:10EE600080509F4FAF4FBF4F80930A0290930B0289
:10EE7000A0930C02B0930D0269CD8AEE92EE62E08F
:10EE80000F94F5F184EE90EE60E00F94F5F18FECC5
:10EE900091EE60E00F94F5F1662477244301CC5D98
:10EEA000DE4F19821882C452D140D401C301B695F5
:10EEB000A79597958795CA5DDE4F88839983AA8326
:10EEC000BB83C652D140CC5DDE4FA881B981C4520C
:10EED000D1401196CC5DDE4FB983A883C452D14096
:10EEE000CD0162E070E00F9434F2B0E2B093C6005E
:10EEF0008091C00086FFFCCF8091C0008064809329
:10EF0000C000EDE2E093C6008091C00086FFFCCF18
:10EF10008091C00080648093C000F0E2F093C6004E
:10EF20008091C00086FFFCCF8091C00080648093F8
:10EF3000C000CA5DDE4FE880F9800A811B81C6529D
:10EF4000D140BB27A12F902F8F2D0F940DF2CA5DBA
:10EF5000DE4F8881C652D1400F940DF2B0E2FB2EF5
:10EF6000F092C6008091C00086FFFCCF8091C00067
:10EF700080648093C0000DE30093C6008091C000C0
:10EF800086FFFCCF8091C00080648093C00010E2B7
:10EF90001093C6008091C00086FFFCCF8091C00016
:10EFA00080648093C0008BBEF3012791C65DDE4F65
:10EFB0002883CA52D140A22EBB24CC24DD2408943D
:10EFC000611C711C811C911C8BBEF3018791282E42
:10EFD0003324442455240894611C711C811C911C09
:10EFE0008BBEF3013791C55DDE4F3883CB52D140E4
:10EFF0000894611C711C811C911C8BBEF30147910C
:10F00000C45DDE4F4883CC52D140ADEFEA2EAFEF66
:10F01000FA2EAFEF0A2FAFEF1A2F6E0C7F1C801E57
:10F02000911E142D032DF22CEE24EA0CFB1C0C1D5A
:10F030001D1D0F940DF220E22093C6008091C000A8
:10F0400086FFFCCF8091C00080648093C000C65DC5
:10F05000DE4F8881CA52D1400F940DF230E23093D6
:10F06000C6008091C00086FFFCCF8091C000806404
:10F070008093C000C45DDE4F8881CC52D1400F9494
:10F080000DF240E24093C6008091C00086FFFCCFA5
:10F090008091C00080648093C000C55DDE4F888190
:10F0A000CB52D1400F940DF250E25093C6008091A4
:10F0B000C00086FFFCCF8091C00080648093C000B8
:10F0C0008FEFE8168FEFF80680E0080780E018075A
:10F0D00031F484E092EE60E00F94C2F1DFC0D80119
:10F0E000C7018070907CA070B0708050904CA040A0
:10F0F000B040D1F52FEF3FE340E050E0E222F322B1
:10F1000004231523CA5DDE4FA880B980CA80DB8046
:10F11000C652D140AE0CBF1CC01ED11EAA0CBB1CD7
:10F12000CC1CDD1C8EE092EE60E00F94C2F1BB2798
:10F13000A12F902F8F2D0F940DF28E2D0F940DF285
:10F1400030E23093C6008091C00086FFFCCF8091F2
:10F15000C00080648093C0004EE34093C60080915D
:10F16000C00086FFFCCF87C08EE09EEFA0E0B0E03D
:10F17000E822F9220A231B239CE0E91694E9F90608
:10F1800090E0090790E0190709F088C0C45DDE4FE0
:10F19000A881CC52D140EA2EFF2400E010E0102FCD
:10F1A0000F2DFE2CEE24C55DDE4FB881CB52D14031
:10F1B000EB0EF11C011D111DD601C501817090706F
:10F1C000A070B070DC0199278827E80EF91E0A1F8D
:10F1D0001B1F20EF30E040E050E0A222B322C42207
:10F1E000D52241E1AA0CBB1CCC1CDD1C4A95D1F7F1
:10F1F000EA0CFB1C0C1D1D1D81E090E0A0E0B0E0BE
:10F20000282239224A225B2235E1220C331C441C7D
:10F21000551C3A95D1F7E20CF31C041D151D57013E
:10F220006801AA0CBB1CCC1CDD1C85E192EE60E0E1
:10F230000F94C2F1C801AA27BB270F940DF2BB2778
:10F24000A12F902F8F2D0F940DF28E2D0F940DF274
:10F2500090E29093C6008091C00086FFFCCF809121
:10F26000C00080648093C000AEE3A093C60080918C
:10F27000C00086FFFCCF8091C00080648093C000F6
:10F28000C601AA27BB270F940DF2BB27AD2D9C2DDD
:10F290008B2D0F940DF28A2D0F940DF20F94DCF14B
:10F2A000CC5DDE4FE881F981C452D140F99709F471
:10F2B0004DCBF4E0EF2EF12C012D112D6E0C7F1CA7
:10F2C000801E911EF2CD83E093EE62E00F94F5F183
:10F2D0008AE192EE60E00F94C2F18091C00087FF56
:10F2E000FCCF1091C6001F751093C6008091C0001E
:10F2F00086FFFCCF8091C00080648093C0000F9493
:10F30000DCF1812F81548A3108F036C1163409F4BA
:10F3100095C0173490F4133409F44EC0143430F40B
:10F320001134F1F0123409F01DC130C0143409F465
:10F3300059C0153409F016C16BC01A3409F4C4C0A1
:10F340001B3438F4173409F48FC0183409F00AC19B
:10F35000A1C01B3409F4D2C01C3409F003C1E8C0B9
:10F360008FEF81B90DC082B1809582B980E090E0C5
:10F37000E0EDF7E03197F1F70196883C9105C1F790
:10F380008091C00087FFEFCF12B8EFC08FEF84B934
:10F390000DC085B1809585B980E090E0E0EDF7E0A3
:10F3A0003197F1F70196883C9105C1F78091C00033
:10F3B00087FFEFCF15B8D9C08FEF87B90DC088B1DF
:10F3C000809588B980E090E0E0EDF7E03197F1F7C3
:10F3D0000196883C9105C1F78091C00087FFEFCF6F
:10F3E00018B8C3C08FEF8AB90DC08BB180958BB9A7
:10F3F00080E090E0E0EDF7E03197F1F70196883C8E
:10F400009105C1F78091C00087FFEFCF1BB8ADC059
:10F410008FEF8DB90DC08EB180958EB980E090E0F0
:10F42000E0EDF7E03197F1F70196883C9105C1F7DF
:10F430008091C00087FFEFCF1EB897C08FEF80BBD1
:10F440000DC081B3809581BB80E090E0E0EDF7E0F6
:10F450003197F1F70196883C9105C1F78091C00082
:10F4600087FFEFCF11BA81C08FEF83BB0DC084B38C
:10F47000809584BB80E090E0E0EDF7E03197F1F714
:10F480000196883C9105C1F78091C00087FFEFCFBE
:10F4900014BA6BC08FEF809301010FC080910201FD
:10F4A00080958093020180E090E0E0EDF7E03197F5
:10F4B000F1F70196883C9105C1F78091C00087FF64
:10F4C000EDCF1092020151C08FEF809304010FC065
:10F4D0008091050180958093050180E090E0E0ED4A
:10F4E000F7E03197F1F70196883C9105C1F78091DB
:10F4F000C00087FFEDCF1092050137C08FEF8093DA
:10F5000007010FC08091080180958093080180E079
:10F5100090E0E0EDF7E03197F1F70196883C910536
:10F52000C1F78091C00087FFEDCF109208011DC088
:10F530008FEF80930A010FC080910B01809580931B
:10F540000B0180E090E0E0EDF7E03197F1F70196F4
:10F55000883C9105C1F78091C00087FFEDCF1092E4
:10F560000B0103C085E292EEEEC98091C00087FFD7
:10F57000FCCF8091C600EAC988E392EEE4C98CE131
:10F5800091EEE1C988249924933011F1943028F444
:10F59000913089F09230B8F408C0953061F195301F
:10F5A000F0F0963009F048C043C02B3109F042C951
:10F5B00091E06BE13FC96227C15DDE4F2883CF52E6
:10F5C000D14092E037C9B22FA0E0622793E032C960
:10F5D000822F90E0A82BB92B622794E02BC92E3004
:10F5E00009F039C3622795E0C05DDE4F19821882A9
:10F5F000C053D1401FC9E1E0F0E0EC0FFD1FC05D3A
:10F60000DE4F08811981C053D140E00FF11F2083E4
:10F610000F5F1F4FC05DDE4F19830883C053D14079
:10F6200062270A171B0709F005C9D80196E002C92D
:10F63000261709F010C303C0973009F0FBC87724E0
:10F640009981933109F412C19431C8F4963009F4C8
:10F65000D8C0973050F4923009F406C1933009F4C1
:10F660006DC0913009F059C253C0913109F477C08F
:10F67000923108F0BBC0903109F04FC2F5C098310B
:10F6800009F487C0993150F4953109F4EFC09531F0
:10F6900008F4C6C1963109F040C2C2C19A3109F4DA
:10F6A0006CC09A3108F491C09B3109F45BC09D3164
:10F6B00009F033C29D81903359F48F81882311F46E
:10F6C0009EE11CC0813011F091E018C098E916C08D
:10F6D000892F807591F0903539F4E0E0F0E089E011
:10F6E0008093570094910AC0983539F4E3E0F0E034
:10F6F00089E080935700949101C090E01A821B82A8
:10F700008D818C831D829E831F8227E030E009C299
:10F710001A8288E08B8381E48C8386E58D8382E581
:10F720008E8389E48F8383E5888780E589878FE5E9
:10F730008A8782E38B872BE030E0F3C18A818139AD
:10F7400041F0823941F0803911F48FE005C080E04A
:10F7500003C082E001C08AE01A828B8344C0772410
:10F76000739482C08D81882311F48EE12CC0813086
:10F7700011F081E028C088E926C01A82E1E0F0E0BB
:10F7800089E08093570084918B831C8224E030E0D1
:10F79000C8C18B81803589F48C81883039F4E2E0EE
:10F7A000F0E089E08093570084910DC0E0E0F0E044
:10F7B00089E080935700849106C0E3E0F0E089E09F
:10F7C0008093570084911A82DFCF8D81836C99E0FA
:10F7D000E1E0F0E0082E90935700E89507B600FCB2
:10F7E000FDCF1A821B8223E030E09BC180EC8A832C
:10F7F000CE5CDE4F188219821A821B82C253D1401E
:10F800008EC18A8190E0A0E0B0E0582F44273327D2
:10F8100022278B8190E0A0E0B0E0DC0199278827C7
:10F82000282B392B4A2B5B2B8D8190E0A0E0B0E098
:10F83000282B392B4A2B5B2B8C8190E0A0E0B0E089
:10F84000BA2FA92F982F8827282B392B4A2B5B2BCF
:10F85000220F331F441F551FC05EDE4F288339839C
:10F860004A835B83C052D1401A8259C13A81C95C34
:10F87000DE4F3883C753D140CA5CDE4F1882C6536F
:10F88000D1408B81C82EDD24CA5CDE4F488159816E
:10F89000C653D140C42AD52A933109F082C0CE5C28
:10F8A000DE4F88819981AA81BB81C253D1408050AB
:10F8B000904CA340B04030F583E0CE5CDE4FE88052
:10F8C000F9800A811B81C253D140F70100935B008C
:10F8D00080935700E89507B600FCFDCFCE5CDE4F65
:10F8E000088119812A813B81C253D14000501F4FAA
:10F8F0002F4F3F4FCE5CDE4F088319832A833B8313
:10F90000C253D140C05EDE4F488159816A817B81FC
:10F91000C052D140DE011B9631E08C9111962C91A2
:10F9200011971296C75CDE4F2883C953D140C85C3B
:10F93000DE4F1882C853D14090E0C85CDE4FE881AA
:10F94000F981C853D1408E2B9F2B0C01FA01609393
:10F950005B0030935700E89511244E5F5F4F6F4F67
:10F960007F4F0EEFE02E0FEFF02ECE0CDF1CC114F8
:10F97000D10499F685E0C05EDE4F088119812A81A5
:10F980003B81C052D140F80120935B008093570027
:10F99000E89507B600FCFDCF81E180935700E8951C
:10F9A00035C0C05EDE4F88819981AA81BB81C0527B
:10F9B000D140B695A795979587957C018601ABE0D8
:10F9C000AA2EB12CAC0EBD1E0BC0D5016D915D01F0
:10F9D000C7010F947FFE0894E11CF11C01501040F8
:10F9E0000115110591F7A60160E070E0440F551F65
:10F9F000661F771FC05EDE4FE880F9800A811B8199
:10FA0000C052D1404E0D5F1D601F711F1A82C05E33
:10FA1000DE4F488359836A837B83C052D1407FC0C5
:10FA2000FA80C55CDE4FF882CB53D140C65CDE4F16
:10FA30001882CA53D1408B81C82EDD24C65CDE4FAC
:10FA400008811981CA53D140C02AD12A1A828981DA
:10FA5000BE016D5F7F4F843121F59601C05EDE4FA0
:10FA6000E880F9800A811B81C052D1400BBFF701A9
:10FA700087919691DB018C9311969C936E5F7F4FDB
:10FA8000D801C7010296A11DB11DC05EDE4F88835B
:10FA90009983AA83BB83C052D14022503040F1F6F3
:10FAA00036C0C05EDE4F288139814A815B81C052F9
:10FAB000D1400894C108D108760100E010E0089414
:10FAC000C11CD11C0894E11CF11C011D111DE20E8A
:10FAD000F31E041F151F21BDBB27A52F942F832FB5
:10FAE00082BD2F5F3F4F4F4F5F4FF89A80B5DB01CC
:10FAF0008D93BD012E153F054007510761F7C05E8C
:10FB0000DE4F288339834A835B83C052D1409601FC
:10FB10002D5F3F4FFB01108204C080EC8A8322E0FE
:10FB200030E08BE18093C6008091C00086FFFCCF5F
:10FB30008091C00080648093C000C15DDE4FF88179
:10FB4000CF52D140F093C6008091C00086FFFCCF19
:10FB50008091C00080648093C000432F3093C60022
:10FB60008091C00086FFFCCF8091C00080648093AC
:10FB7000C000922F2093C6008091C00086FFFCCF6A
:10FB80008091C00080648093C0008EE08093C600A6
:10FB90008091C00086FFFCCF8091C000806480937C
:10FBA000C00065E1C15DDE4FE880CF52D1406E25D7
:10FBB00069276427FE01319610C090819093C6009A
:10FBC0008091C00086FFFCCF31968091C000806498
:10FBD0008093C0006927215030402115310569F715
:10FBE0006093C6008091C00086FFFCCF8091C0006A
:10FBF00080648093C00085B1805885B9772081F4F6
:10FC0000C15DDE4F0881CF52D1400F5FC15DDE4F35
:10FC10000883CF52D14090E0A0E0B0E00D941AF4F8
:10FC200027982F9880E090E020ED37E0F901319798
:10FC3000F1F7019684369105C9F700008091C00064
:10FC40008D7F8093C00081E180935700E895EE2777
:10FC5000FF270994FFCF90E00D941AF497FB092E2B
:10FC600007260AD077FD04D02ED006D000201AF443
:10FC7000709561957F4F0895F6F7909581959F4F08
:10FC80000895A1E21A2EAA1BBB1BFD010DC0AA1FDD
:10FC9000BB1FEE1FFF1FA217B307E407F50720F0F5
:10FCA000A21BB30BE40BF50B661F771F881F991F70
:10FCB0001A9469F760957095809590959B01AC01B9
:10FCC000BD01CF010895AA1BBB1B51E107C0AA1FAC
:10FCD000BB1FA617B70710F0A61BB70B881F991FED
:10FCE0005A95A9F780959095BC01CD010895F99991
:10FCF000FECF92BD81BDF89A992780B50895262F31
:10FD0000F999FECF1FBA92BD81BD20BD0FB6F89400
:0EFD1000FA9AF99A0FBE01960895F894FFCF63
:040000033000E000E9
:00000001FF