:10000000BEC10000EDC10000EBC10000E9C100006D
:10001000E7C10000E5C10000E3C10000E1C100004C
:10002000DFC10000DDC10000DBC10000D9C100005C
:10003000D7C10000D5C10000D3C10000D1C100006C
:10004000CFC10000CDC10000CBC10000C9C100007C
:10005000C7C10000C5C10000C3C1000029C600001F
:10006000BFC1000052C4000027C40000B9C1000095
:10007000B7C10000B5C10000B3C10000B1C10000AC
:10008000AFC10000ADC10000ABC10000A9C10000BC
:10009000A7C10000A5C10000A3C1000053C6000015
:1000A0009FC100009DC100009BC1000099C10000DC
:1000B00097C1000095C1000093C1000091C10000EC
:1000C0008FC100008DC100008BC1000089C10000FC
:1000D00087C1000085C10000B9C300008EC30000C5
:1000E0007FC1000005140B12281428142814FB11DA
:1000F000FD1104122814FF1128140D1216142814CF
:1001000011122814B51209120F12281428142814D9
:10011000781228142814FF121D0320030F03130361
:1001200019035703240328032E03320336033C0329
:100130004003440357034A034E03520374057905F1
:100140007E05880592050B069C05A405AC05B60541
:10015000C005CA05D905E3050B06ED05F70501063F
:1001600000407A10F35A00A0724E18090010A5D46E
:10017000E80000E87648170000E40B54020000CACB
:100180009A3B000000E1F505000080969800000011
:1001900040420F000000A086010000001027000070
:1001A0000000E803000000006400000000000A00F6
:1001B000000000000100000000002C76D888DC67F9
:1001C0004F0823DFC1DFAE59E1B1B796E5E3E45351
:1001D000C63AE651997696E8E6C28426EB898C9B6E
:1001E00062ED407C6FFCEFBC9C9F40F2BAA56FA50E
:1001F000F490055A2AF75C936B6CF9676DC11BFC90
:10020000E0E40D47FEF520E6B500D0ED902E0300AA
:10021000943577050080841E080000204E0A0000F7
:1002200000C80C333333330F986E12831141EF8DB6
:100230002114893BE65516CFFEE6DB18D1844B38F6
:100240001BF77C1D901DA4BBE424203284725E2227
:100250008100C9F124ECA1E53D2700002100240024
:1002600027002A002D0030003300010100000401A6
:1002700007010A0100002200250028002B002E00A3
:100280003100340002010000050108010B010000EB
:1002900020002300260029002C002F00320000013E
:1002A0000000030106010901050505050705080809
:1002B0000808020202020A0A0808040404040101F0
:1002C0000101010101010303030303030303040705
:1002D00007070C0C0C0C0C0C0C0C0202020206069C
:1002E0000606060606060B0B0B0B0B0B0B0B01028F
:1002F0001020200808102040102040800201020138
:1003000008040201010204081020408080402010EF
:100310000804020180040201804020100804020148
:1003200008040201010204081020408001020408B0
:100330001020408000000A0B02090C0D0E08070374
:1003400004010000000000000000000000000000A8
:10035000000000000000000000000000000000009D
:10036000121110000000000000000000000000005A
:10037000000000000000000000001D1514151124ED
:100380001FBECFEFD1E2DEBFCDBF00E00CBF13E058
:10039000A0E0B2E0ECE2FAE300E00BBF02C007909D
:1003A0000D92A233B107D9F725E0A2E3B3E001C073
:1003B0001D92AC3AB207E1F711E0CEEBD1E000E0DC
:1003C00006C021970109802FFE010E94001CCD3B31
:1003D000D10780E00807A9F70E94650E0C94051D5F
:1003E0000FCEFC01538D448D252F30E0842F90E0FB
:1003F000821B930B541710F0CF9608950197089520
:10040000FC01918D828D981761F0828DDF01A80F1C
:10041000B11D5D968C91928D9F5F9F73928F90E03E
:1004200008958FEF9FEF0895FC01918D828D9817AD
:1004300031F0828DE80FF11D858D90E008958FEFEA
:100440009FEF0895FC01918D228D892F90E0805CB3
:100450009F4F821B91098F739927089584ED93E034
:10046000F1DF21E0892B09F420E0822F089584EC4C
:1004700094E0E8DF21E0892B09F420E0822F089541
:10048000FC01848DDF01A80FB11DA35ABF4F2C9131
:10049000848D90E001968F739927848FA689B78900
:1004A0002C93A089B1898C91837080648C93938DF7
:1004B000848D981306C00288F389E02D80818F7D9A
:1004C00080830895EF92FF920F931F93CF93DF9352
:1004D000EC0181E0888F9B8D8C8D981305C0E88995
:1004E000F989808185FD25C0F62E0B8D10E00F5F08
:1004F0001F4F0F731127E02E8C8DE8120BC00FB623
:1005000007FCFACFE889F989808185FFF5CFCE0114
:10051000B7DFF2CF8B8DFE01E80FF11DE35AFF4FDD
:10052000F0829FB7F8940B8FEA89FB898081806203
:100530000AC09FB7F894EE89FF896083E889F9893A
:1005400080818370806480839FBF81E090E0DF9131
:10055000CF911F910F91FF90EF900895CF93DF936C
:10056000EC01888D8823C1F0EA89FB89808185FDB3
:1005700005C0A889B9898C9186FD0EC00FB607FC0D
:10058000F5CF808185FFF2CFA889B9898C9185FF4D
:10059000EDCFCE0175DFE8CFDF91CF91089580E0F8
:1005A00090E0892B19F063DF811120C080E090E09A
:1005B000892B41F080E090E0892B21F00E9400001F
:1005C000811117C080E090E0892B41F080E090E03D
:1005D000892B21F00E94000081110EC080E090E084
:1005E000892B79F03BDF81110AC008950E94000039
:1005F000DDCF0E940000E6CF0E940000EFCF0C94F8
:100600000000089590E0FC013197E231F10508F017
:100610004EC08827E457FF4F8F4F0C94001C8091E9
:1006200080008F7703C0809180008F7D8093800051
:10063000089580918000877FF9CF84B58F7702C0BD
:1006400084B58F7D84BD08958091B0008F7703C0FD
:100650008091B0008F7D8093B000089580919000CC
:100660008F7707C0809190008F7D03C080919000AC
:10067000877F8093900008958091A0008F7707C0B6
:100680008091A0008F7D03C08091A000877F809320
:10069000A0000895809120018F7707C080912001EC
:1006A0008F7D03C080912001877F80932001089572
:1006B0003FB7F8948091C4039091C503A091C603FD
:1006C000B091C70326B5A89B05C02F3F19F001962E
:1006D000A11DB11D3FBFBA2FA92F982F8827820FC8
:1006E000911DA11DB11DBC01CD0142E0660F771F18
:1006F000881F991F4A95D1F7089585ED8093BC0016
:100700008091BC0084FDFCCF1092A7050895409114
:100710009C03262F30E0240F311D21323105DCF4FB
:100720002091A7052430C9F4FC0180E090E08617F1
:1007300058F430919C032191DC01A458BC4FA30FC5
:10074000B11D2C930196F3CF80919C03680F6093A9
:100750009C0380E0089581E0089582E00895089563
:1007600008950895E091390380913803E81730F433
:10077000F0E0E45AFC4F808190E008958FEF9FEF06
:1007800008959091390380913803981750F4E92F18
:10079000F0E0E45AFC4F208130E09F5F90933903F2
:1007A00002C02FEF3FEFC90108958091380390E018
:1007B00020913903821B91090895CF93DF93CB01D8
:1007C000EA01642FA4DFCE01DF91CF910895CF938A
:1007D000DF931F92CDB7DEB7698361E0CE0101964A
:1007E00096DF81E090E00F90DF91CF91089508951A
:1007F00080E090E008950E94E81C1F920F920FB6CF
:100800000F9211240BB60F922F933F934F935F9348
:100810006F937F938F939F93AF93BF93EF93FF93C8
:1008200084ED93E02DDEFF91EF91BF91AF919F9109
:100830008F917F916F915F914F913F912F910F9089
:100840000BBE0F900FBE0F901F9018951F920F9226
:100850000FB60F9211240BB60F922F938F939F9385
:10086000EF93FF93E091E403F091E5038081E09141
:10087000EA03F091EB0382FD12C090818091ED03B9
:100880008F5F8F732091EE03821751F0E091ED039B
:10089000F0E0EC52FC4F958F8093ED0301C0808116
:1008A000FF91EF919F918F912F910F900BBE0F9021
:1008B0000FBE0F901F9018951F920F920FB60F92B8
:1008C00011240BB60F922F933F934F935F936F9327
:1008D0007F938F939F93AF93BF93EF93FF9384EC9A
:1008E00094E0CEDDFF91EF91BF91AF919F918F91F9
:1008F0007F916F915F914F913F912F910F900BBE20
:100900000F900FBE0F901F9018951F920F920FB669
:100910000F9211240BB60F922F938F939F93EF9307
:10092000FF93E091D404F091D5048081E091DA0442
:10093000F091DB0482FD12C090818091DD048F5F15
:100940008F732091DE04821751F0E091DD04F0E016
:10095000EC53FB4F958F8093DD0401C08081FF91A4
:10096000EF919F918F912F910F900BBE0F900FBE23
:100970000F901F901895CF93DF93282F30E0F90147
:10098000EC5CFC4F8491F901E251FD4FD491F901E7
:10099000E855FD4FC491CC2389F0811133DEEC2F53
:1009A000F0E0EE0FFF1FE257FD4FA591B491EC91DF
:1009B000ED2381E090E021F480E002C080E090E04F
:1009C000DF91CF9108951F93CF93DF93282F30E0CD
:1009D000F901EC5CFC4F8491F901E251FD4FD49197
:1009E000F901E855FD4FC491CC23B9F0162F8111C0
:1009F00009DEEC2FF0E0EE0FFF1FEC58FD4FA59144
:100A0000B4919FB7F894111104C08C91D095D8235C
:100A100002C0EC91DE2BDC939FBFDF91CF911F9141
:100A20000895CF93DF9390E0FC01E251FD4F2491B4
:100A3000FC01E855FD4F8491882361F190E0880F17
:100A4000991FFC01E65AFD4FC591D491FC01EC5869
:100A5000FD4FA591B491611109C09FB7F8948881A9
:100A6000209582238883EC912E230BC0623061F4A1
:100A70009FB7F8948881322F309583238883EC9137
:100A80002E2B2C939FBF06C08FB7F894E8812E2B96
:100A900028838FBFDF91CF9108951F93CF93DF936A
:100AA000182FEB0161E0BDDF209711F460E004C076
:100AB000CF3FD10531F461E0812FDF91CF911F91BC
:100AC00082CFE12FF0E0EC5CFC4FE4918E2F90E0C0
:100AD000FC013197E231F10508F09DC08827E2560C
:100AE000FF4F8F4F0C94001C84B5806884BDC7BD38
:100AF00097C084B5806284BDC8BD92C080918000DB
:100B0000806880938000D0938900C093880088C05B
:100B100080918000806280938000D0938B00C0938E
:100B20008A007EC080918000886080938000D0938E
:100B30008D00C0938C0074C08091B0008068809359
:100B4000B000C093B3006CC08091B000806280930D
:100B5000B000C093B40064C080919000806880931E
:100B60009000D0939900C09398005AC08091900053
:100B7000806280939000D0939B00C0939A0050C0F5
:100B800080919000886080939000D0939D00C093E6
:100B90009C0046C08091A00080688093A000809156
:100BA000A0008F7B8093A000D093A900C093A800E1
:100BB00037C08091A00080628093A000D093AB00EA
:100BC000C093AA002DC08091A00088608093A000EF
:100BD000D093AD00C093AC0023C080912001806809
:100BE00080932001D0932901C093280119C08091DE
:100BF0002001806280932001D0932B01C0932A01B1
:100C00000FC080912001886080932001D0932D0136
:100C1000C0932C0105C0C038D1050CF04CCF46CF95
:100C2000DF91CF911F9108958F929F92AF92BF92C3
:100C3000CF92DF92EF92FF926B017C0139DD4B0185
:100C40005C01C114D104E104F104E9F031DDDC01FF
:100C5000CB0188199909AA09BB09883E9340A105CF
:100C6000B10578F321E0C21AD108E108F10888EE55
:100C7000880E83E0981EA11CB11CC114D104E104AC
:100C8000F10421F7DECFFF90EF90DF90CF90BF907F
:100C9000AF909F908F9008952FB7F8946091C00304
:100CA0007091C1038091C2039091C3032FBF089537
:100CB0001F920F920FB60F9211242F933F938F9391
:100CC0009F93AF93BF938091C0039091C103A09174
:100CD000C203B091C3033091BF0323E0230F2D372C
:100CE00020F40196A11DB11D05C026E8230F029630
:100CF000A11DB11D2093BF038093C0039093C10336
:100D0000A093C203B093C3038091C4039091C50321
:100D1000A091C603B091C7030196A11DB11D809398
:100D2000C4039093C503A093C603B093C703BF91B8
:100D3000AF919F918F913F912F910F900FBE0F9088
:100D40001F9018951F920F920FB60F9211240BB699
:100D50000F922F933F934F935F936F937F938F9354
:100D60009F93AF93BF93EF93FF938091B900887FD8
:100D7000803609F49CC068F5883209F45BC090F4B1
:100D8000803109F454C038F4882309F4F6C088305F
:100D900009F44DC0F5C0883109F44CC0803209F423
:100DA0005DC0EEC0803409F468C048F4803309F4B3
:100DB00055C0883309F0E4C08093A505D8C08035BC
:100DC00009F44FC0883509F45DC0883409F0D8C0F3
:100DD000D6C0883909F4C7C0A8F4883709F467C0B9
:100DE00038F4883609F463C0803709F460C0C8C09D
:100DF000883809F4B8C0803909F45FC0803809F038
:100E0000BFC05BC0803B09F486C038F4803A09F467
:100E100066C0883A09F47FC0B3C0803C09F4A7C01B
:100E2000883C09F4A4C0883B09F48AC0A9C0809119
:100E3000820510C09091A4058091A305981770F5C4
:100E4000E091A40581E08E0F8093A405F0E0ED57BA
:100E5000FA4F80818093BB0085EC86C08093A50506
:100E60008EC0E091A40581E08E0F8093A40580914F
:100E7000BB00F0E0ED57FA4F80839091A40580917C
:100E8000A3056EC0E091A40581E08E0F8093A405B8
:100E90008091BB00F0E0ED57FA4F80838091A6056A
:100EA00081116DC081E08093810584EA61C083E097
:100EB0008093A7051092BE03CFCF8091BE038032EE
:100EC00008F051C0E091BE0381E08E0F8093BE0315
:100ED0008091BB00F0E0E256FC4F8083BDCF85ECF3
:100EE0008093BC001092A7058091BE03803230F43D
:100EF000E091BE03F0E0E256FC4F10826091BE0329
:100F000070E0E0913203F09133038EE993E019959C
:100F10001092BE0335C084E08093A70510929D0314
:100F200010929C03E0913403F09135031995809160
:100F30009C03811105C081E080939C0310927C0387
:100F4000E0919D0381E08E0F80939D03F0E0E458D3
:100F5000FC4F80818093BB0090919D0380919C0306
:100F6000981708F479CF85E88093BC0009C085EC18
:100F70008093BC001092A70503C01092A505BDDBAD
:100F8000FF91EF91BF91AF919F918F917F916F9161
:100F90005F914F913F912F910F900BBE0F900FBE1D
:100FA0000F901F9018950F931F93CF93DF9365EFCA
:100FB00072E084EC94E06CD20AE313E0C0E0D0E08D
:100FC000CE010E94F31AF80181938F012196CE3051
:100FD000D105B1F780913A0390913B03A0913C0376
:100FE000B0913D034697A105B10579F163E073E047
:100FF00084EC94E04DD286E190E0A0E0B0E08093F4
:101000003A0390933B03A0933C03B0933D038AE0E3
:1010100090E090934703809346038EE190E0909395
:1010200045038093440382E390E0909343038093CD
:10103000420386E490E0909341038093400384E66A
:1010400090E090933F0380933E0361E173E084EC72
:1010500094E01ED2809146039091470390934903F8
:1010600080934803809144039091450390934B03F0
:1010700080934A03809142039091430390934D03E0
:1010800080934C03809140039091410390934F03D0
:1010900080934E0380913E0390913F0390935103C0
:1010A00080935003DF91CF911F910F9108951F936B
:1010B000CF93DF9300D000D0CDB7DEB784ED93E0BF
:1010C000C1D9892B21F084ED93E09AD9F7CF62E260
:1010D00073E0CE010196E5D5CE010196BDD3182F60
:1010E000CE010196C0D5812F26960FB6F894DEBFAB
:1010F0000FBECDBFDF91CF911F9108950F931F9326
:10110000CF93DF9300D000D0CDB7DEB703E080915E
:101110005203833009F454C084ED93E093D9892BB2
:1011200009F43DC084ED93E06BD9182F682F84EC4F
:1011300094E0C8D91B3259F784ED93E083D9892B09
:10114000D9F384ED93E05CD9182F682F84EC94E0F8
:10115000B9D91035E1F684ED93E074D90797DCF343
:101160006EE472E0CE0101969CD560E5CE01019659
:10117000F9D417E084ED93E043D9682FCE010196AE
:10118000F1D41150B9F765E273E0CE0101969ED417
:10119000811100935203CE01019665D5B8CF87DF48
:1011A000882319F000935203B2CF68EC70E080E01E
:1011B00090E03ADD7CDF8111F5CF85E0809352032A
:1011C00026960FB6F894DEBF0FBECDBFDF91CF914C
:1011D0001F910F910895DF92EF92FF920F931F934B
:1011E000CF93DF9300D000D0CDB7DEB785E0F82EE7
:1011F00093E0E92E24E0D22E80915203853009F449
:1012000076C084ED93E01ED9892B09F45EC084ED8D
:1012100093E0F6D8182F8B3249F584ED93E012D97C
:101220000A97DCF36EE472E0CE0101963AD50AE04B
:1012300084ED93E0E5D8182F682FCE01019692D463
:101240000150B1F72D813E81809171059091720519
:101250002817390741F46DE675E0CE01019639D2C1
:10126000892B09F43EC0CE010196FDD4133409F058
:10127000C3CF84ED93E0E6D80897DCF36EE472E028
:10128000CE0101960ED563E4CE0101966BD418E031
:1012900084ED93E0B5D8682FCE01019663D4115048
:1012A000B9F72D813E8180916B0590916C052817CF
:1012B000390739F467E675E0CE0101960AD2892B29
:1012C00099F0CE010196CFD497CFF1DE882319F0A3
:1012D000E092520391CFEBDE8111FACFF0925203EC
:1012E0008BCFD0925203BFCFF0925203EACF269613
:1012F0000FB6F894DEBF0FBECDBFDF91CF911F9127
:101300000F91FF90EF90DF9008950F931F93CF936D
:10131000DF93C82FD62F8091CA03861317C0CC2322
:1013200019F010E001E002C011E000E06091C80394
:10133000062E000C770B8091D203AFDB602F8091DB
:10134000CE0341DB612F8091CF033DDB8091CD0344
:10135000D8131BC0CC2319F0C0E0D1E002C0C1E01B
:10136000D0E06091CB03062E000C770B8091D30365
:1013700094DB6D2F8091D00326DB6C2F8091D103FD
:10138000DF91CF911F910F911ECBDF91CF911F91D4
:101390000F9108956115710549F0FB01019000203E
:1013A000E9F73197AF01461B570B95C280E090E0FB
:1013B0000895CF92DF92EF92FF92CF93DF93EC01EB
:1013C0006A017B01E889F98982E080834115514EE9
:1013D00061057105B1F060E079E08DE390E0A7016F
:1013E00096010E94091BDA01C9010197A109B109FF
:1013F000B695A795979587959C01211580E13807AB
:10140000A8F0E889F989108260E874E88EE190E03C
:10141000A70196010E94091BDA01C9010197A109E0
:10142000B109B695A795979587959C01EC85FD85A3
:101430003083EE85FF852083188EEC89FD8986E058
:101440008083EA89FB89808180618083EA89FB89C6
:10145000808188608083EA89FB89808180688083BD
:10146000EA89FB8980818F7D8083DF91CF91FF9016
:10147000EF90DF90CF90089561E081E046DF60E07B
:1014800080E043CF61E080E040DF60E080E03DCF7E
:101490000F931F93CF93DF93EC017CDF8C016CE4FF
:1014A00072E0CE0177DF800F911FDF91CF911F9106
:1014B0000F91089560E081E028DF61E080E025CFB2
:1014C00061E081E022DF60E081E01FCF0F931F9396
:1014D000CF93DF93EC01FB014481558160817181E1
:1014E000FAD18C016CE472E0CE0154DF800F911FC1
:1014F000DF91CF911F910F910895EF92FF920F937B
:101500001F93CF93DF93CDB7DEB7A1970FB6F894B3
:10151000DEBF0FBECDBF7C01CB01BA01F701118246
:10152000108213821282158214828E010F5F1F4F68
:1015300022E044E00E94DE15BC01C7017FD3A196E2
:101540000FB6F894DEBF0FBECDBFDF91CF911F91D4
:101550000F91FF90EF900895BC0184EC94E01ACFB6
:10156000EF92FF920F931F93CF93DF9361E08091EF
:10157000790529DA6AEF70E080E090E055DB8CDBDA
:1015800000917C0510917D0520917E0530917F05AD
:10159000601771078207930740F410927C05109240
:1015A0007D0510927E0510927F0520918005211106
:1015B00015C000917C0510917D0520917E0530912C
:1015C0007F05DC01CB01801B910BA20BB30B803D8F
:1015D0009740A105B10510F481E074C01092800518
:1015E0005BDB60937C0570937D0580937E05909313
:1015F0007F0510927705109276051092750510926E
:1016000074051092730561E0809179050ADA60E053
:1016100080917905D8D964E170E080E090E004DB46
:1016200061E080917905CFD98BE990E00197F1F7DE
:1016300060E080917905F5D910E081E0C0E0D0E06C
:10164000E82EF12C8091790596D98E159F0519F415
:10165000DF5FDF3FB9F7809179058DD9DF3FC1F0BA
:10166000C43098F0C0FD11C0E12FE695E695E695EF
:10167000F0E0ED58FA4F9081990F908320917B050F
:101680002D1710F4916090831F5FCF5FC535B9F6B9
:101690001832B8F02091770530E0409173058091C1
:1016A000740590E0840F911D40917505840F911D84
:1016B00040917605840F911D99272817390709F461
:1016C0008BCF80E0DF91CF911F910F91FF90EF9032
:1016D0000895CF93DF93DC01ED91FC91EB01A8819C
:1016E000B981309711F01097C9F4109759F0EB01B8
:1016F0002C813D81232B31F08C9190E09195819547
:10170000910914C0309781F0DC0114968D919C9161
:101710001597892B49F0808190E008C0BD01CF0169
:10172000DF91CF910C94F51C80E090E0DF91CF9198
:101730000895CF93DF93C8ECD3E060E08A8543D966
:1017400060E08B85DF91CF913EC98F929F92AF92DF
:10175000BF92CF92DF92EF92FF926B017C019CDAF5
:101760004B015C01C60ED71EE81EF91E95DA6815FE
:1017700079058A059B0528F0C616D706E806F906FE
:10178000A8F7FF90EF90DF90CF90BF90AF909F9021
:101790008F9008958F929F92AF92BF920F931F9355
:1017A000CF93DF93CDB7DEB7A1970FB6F894DEBF26
:1017B0000FBECDBF19A2423008F44AE08E010F5D82
:1017C0001F4F842E912CA12CB12CA50194010E94B5
:1017D000091BE62FB901CA0101501109EA3014F4BE
:1017E000E05D01C0E95CD801EC93232B242B252B71
:1017F00061F7B80184EC94E0CDDDA1960FB6F894C2
:10180000DEBF0FBECDBFDF91CF911F910F91BF9073
:10181000AF909F908F900895CF92DF92EF92FF92BA
:10182000CF93DF936B017C016DE284EC94E00E9426
:101830006202EC0166277727CB016C197D098E09BE
:101840009F094AE0A7DF8C0F9D1FDF91CF91FF908A
:10185000EF90DF90CF9008951F93CF93DF9300D048
:1018600000D0CDB7DEB7BC0184ED93E02FDE84ED70
:1018700093E00E942202029714F16EE472E0CE011E
:1018800001960FD284ED93E00E940002682FCE01F2
:10189000019668D184ED93E00E940002682FCE018A
:1018A000019660D16EE273E0CE0101960FD111E096
:1018B000811101C010E0CE010196D5D101C010E028
:1018C000812F26960FB6F894DEBF0FBECDBFDF91F5
:1018D000CF911F910895CF92DF92EF92FF920F93D5
:1018E0001F93CF93DF936C017A018B01C0E0D0E0AE
:1018F000CE15DF0581F0D8016D918D01D601ED91F6
:10190000FC910190F081E02DC6011995892B11F011
:101910002196EECF7E01C701DF91CF911F910F91EC
:10192000FF90EF90DF90CF9008950F931F93CF9388
:10193000DF93EC0188819981009729F02A813B810E
:101940002617370788F48B016F5F7F4F0E94081CB2
:10195000009761F0998388831B830A832C813D81E2
:10196000232B11F4FC01108281E001C080E0DF91A3
:10197000CF911F910F910895CF93DF931F921F92E4
:10198000CDB7DEB72091A8053091A905CE0101960B
:101990002115310519F48C5A954018C0AC01421B31
:1019A000530BE091AA05F091AB0580E090E03097F1
:1019B00059F09C012E5F3F4F80819181820F931FD0
:1019C0000280F381E02DF3CF840F951F9A838983E2
:1019D00069817A81072E000C880B990B97FF02C052
:1019E0001BDF02C04AE0D6DE0F900F90DF91CF914F
:1019F0000895BF92CF92DF92EF92FF920F931F93C1
:101A0000CF93DF9348E0C42ED12CE12CF12CD2E00F
:101A1000C1E01FEF05EE55ECB52E8091A7058111B1
:101A2000FCCFD093A705C093A6051093A5051092EF
:101A3000A4051092A3051092820520918205C6018B
:101A4000880F991F822B80938205809181058130B8
:101A500069F410928105809182058093BB0080918A
:101A6000BC0083FDF8CFB092BC0002C00093BC0064
:101A70008091A7058230E1F38091A5058F3FE1F0C9
:101A80008091A505803211F08091A5058FEFC81ACD
:101A9000D80AE80AF80A87E7C816D104E104F10475
:101AA00009F0BBCFDF91CF911F910F91FF90EF9085
:101AB000DF90CF90BF9008954AE0C701B6016ADE7B
:101AC0008FE692E049DDC0937704E0CFFC012481EA
:101AD0003581232B31F421E061157105A1F0FB0163
:101AE00008C0FC01808191816115710531F421E00C
:101AF000FC018081882339F005C00E94F51C21E09B
:101B0000892B09F020E0822F0895EF92FF920F9326
:101B10001F93CF93DF936115710511F480E01BC013
:101B200041155105B9F07B01EC018C819D818A0141
:101B3000080F191FB801CE01F8DE882379F3288138
:101B400039818C819D81B701820F931F0E94FE1CF9
:101B50001D830C8381E0DF91CF911F910F91FF9046
:101B6000EF900895CF93DF931F921F92CDB7DEB70A
:101B700069831A8241E050E0BE016F5F7F4FC5DF8D
:101B80000F900F90DF91CF910895CF93DF93EC01E9
:101B900088819981009711F00E9495161982188208
:101BA0001D821C821B821A82DF91CF910895CF93F0
:101BB000DF93EC016115710559F0FB0101900020E4
:101BC000E9F73197AF01461B570B9FDF811102C028
:101BD000CE01DBDFCE01DF91CF910895CF93DF936C
:101BE000EC01FB0144815581608171818EDF81119F
:101BF00002C0CE01CADFCE01DF91CF910895EF92EE
:101C0000FF920F931F93CF93DF93EC017B018A0127
:101C1000BA018BDE811103C0CE01B7DF07C01D837F
:101C20000C83B701888199810E94FE1CCE01DF914F
:101C3000CF911F910F91FF90EF900895CF93DF9375
:101C4000EC016115710551F0FB0101900020E9F7ED
:101C50003197AF01461B570BD2DF01C096DFCE0193
:101C6000DF91CF910895FC01808191810C949516AC
:101C7000FB01DC0111961C921E9213961C921E927F
:101C8000129715961C921E9214978617970741F08B
:101C9000608171816115710519F044815581AFCF63
:101CA0000895FC011182108213821282158214821F
:101CB0006115710549F0FB0101900020E9F73197AA
:101CC000AF01461B570B9BCF0895CF93DF93CDB742
:101CD000DEB7AA970FB6F894DEBF0FBECDBF7894DB
:101CE00084B5826084BD84B5816084BD85B5826021
:101CF00085BD85B5816085BD80916E0081608093D2
:101D00006E0010928100809181008260809381003A
:101D1000809181008160809381008091800081604A
:101D2000809380008091B10084608093B1008091A5
:101D3000B00081608093B0008091910082608093B8
:101D4000910080919100816080939100809190003A
:101D50008160809390008091A10082608093A100B7
:101D60008091A10081608093A1008091A00081609A
:101D70008093A00080912101826080932101809155
:101D800021018160809321018091200181608093F5
:101D9000200180917A00846080937A0080917A009B
:101DA000826080937A0080917A00816080937A00CB
:101DB00080917A00806880937A001092C10010921E
:101DC000B4041092B5041092B6041092B7041092A5
:101DD000730410927404109275041092760468EBE8
:101DE0007BE080E090E0B1DC60ED77E080E090E0C7
:101DF0000E94140640E052EC61E070E084EC94E054
:101E0000D8DA0E944C066093730470937404809334
:101E10007504909376048BE292E09EDB6AE070E0BA
:101E200080E090E092DC81E0809388041092390396
:101E30001092380310923703109236031092A705C0
:101E40008093A6051092810561E084E10E94E3047D
:101E500061E085E10E94E3048091B9008E7F809368
:101E6000B9008091B9008D7F8093B90088E4809398
:101E7000B80085E48093BC008FEA93E0909335032B
:101E80008093340380EB93E0909333038093320389
:101E90000E944C0600917304109174042091750403
:101EA000309176046B017C01C01AD10AE20AF30A70
:101EB00029E1C216D104E104F10498F00E944C0615
:101EC0006093730470937404809375049093760404
:101ED0008DE392E041DB80917704811120C089DDA0
:101EE0001EC00E944C064B015C01DC01CB018C1929
:101EF0009D09AE09BF096C017D0199E1C90ED11C94
:101F0000E11CF11C0E944C06681579058A059B05A9
:101F1000A8F2C616D706E806F906A0F7CFCF84E4E4
:101F200092E01ADB84E492E017DB84E492E014DBB5
:101F300023DD84E492E010DB86E492E00DDB6AE0CE
:101F400070E080E090E001DC40E052EC61E070E0A5
:101F500084EC94E02EDA40E052EC61E070E084ED35
:101F600093E027DA6FE472E08DE695E067DE6AE5DC
:101F700072E087E695E062DE1092520388E080937B
:101F8000CE038BE08093CF038CE08093D0038DE071
:101F90008093D10389E08093D2038AE08093D303B6
:101FA00061E088E00E94110561E08091CF030E940A
:101FB000110561E08091D0030E94110561E08091DC
:101FC000D1030E94110561E08091D2030E941105A6
:101FD00061E08091D3030E941105ABDB1092CA032C
:101FE00081E08093CD038093C9031092CC038CEDE4
:101FF0008093C8038093CB030E94D3077FD8EBD88C
:1020000064E672E081E695E019DE26E1422E512C6D
:10201000612C712C32E5232E33E0332E0E944C06C6
:10202000009158031091590320915A0330915B039A
:10203000DC01CB01801B910BA20BB30B8639910500
:10204000A105B10508F4ADC00E944C066093580389
:102050007093590380935A0390935B0361E070E09F
:1020600080E090E072DB0E944C06609373047093F2
:10207000740480937504909376048DE392E06CDA97
:1020800080917704811101C0B4DC61E070E080E0F0
:1020900090E05BDB84E492E05FDA10E000E0C12CCA
:1020A000D12C760120E0822F002E01C0880F0A94E7
:1020B000EAF7182B0F5F083031F0B5E3CB16D104E7
:1020C000E104F10459F4612F70E080E090E04AE00F
:1020D00061DB8FE692E040DA00E010E061E070E062
:1020E00080E090E032DBEFEFCE1ADE0AEE0AFE0A65
:1020F000F6E3CF16D104E104F10469F0A1E0CA16B9
:10210000D104E104F10471F28C2D0E94BB0421E0A2
:10211000892B49F6C7CF61E070E080E090E015DBE5
:1021200084E492E019DA10E080917B00877F912FA0
:10213000987F892B80937B00812F877080648093A8
:102140007C0080917A00806480937A0080917A008C
:1021500086FDFCCF809178002091790090E06C01A1
:10216000D22AB6010D2C000C880B990BD7FE02C0A9
:1021700053DB02C04AE00EDB8FE692E0EDD91F5F31
:10218000103191F684E492E0E7D9F6DB84E492E042
:10219000E3D986E492E0E0D961E070E080E090E08D
:1021A000D4DA0E944C06672B682B692B41F40E94FD
:1021B0004C06623071058105910508F4CCC00E947F
:1021C0004C06009154031091550320915603309111
:1021D0005703601771078207930740F46093540315
:1021E00070935503809356039093570300915403C3
:1021F0001091550320915603309157036B017C01D8
:10220000C01AD10AE20AF30A970186010A3F1105B2
:102210002105310508F49FC0609354037093550362
:10222000809356039093570324EF31E040E050E051
:10223000209380043093810440938204509383045C
:1022400010928404109285041092860410928704E0
:102250008091780490917904A0917A04B0917B04E4
:1022600080937C0490937D04A0937E04B0937F04BC
:102270000E944C06609378047093790480937A04EA
:1022800090937B040E944C066093730470937404D3
:1022900080937504909376040E944C066B017C0138
:1022A00086E692E059D94AE061E070E080E090E093
:1022B00071DA8DE692E050D94AE0C701B6016ADAD8
:1022C0008FE692E049D98091780490917904A091A9
:1022D0007A04B0917B04A7019601281B390B4A0BA5
:1022E0005B0BCA01B9014AE055DA8FE692E034D9B6
:1022F0008091780490917904A0917A04B0917B0444
:1023000000917C0410917D0420917E0430917F0423
:10231000BC01CD01601B710B820B930B4AE03ADAD2
:1023200084E492E019D90E944C064AE033DA61E76E
:1023300072E084EC94E0ACD862E070E080E090E081
:1023400004DA0E944C0660937804709379048093B9
:102350007A0490937B0480915203853071F484ED6C
:1023600093E00E942202892B41F084ED93E00E94C9
:1023700000028B3219F40E947E088FEF8093530382
:1023800080915203833019F4D4D90E94EB0868E796
:1023900072E081E695E09ADB90915303882319F06F
:1023A0009D3409F05AC280910002981709F450C276
:1023B000909300028AE792E0CFD86091530384ECB7
:1023C00094E00E9462028DE492E0C6D8109153031B
:1023D000812F012E000C990BAA0BBB0BFC01E154C1
:1023E000F109EA31F10508F033C28827EE58FF4FB2
:1023F0008F4F0C94001C5ED82BC25CD806C03CD812
:102400008CED8093CB0324C237D88CED8093C80326
:102410001FC256D81DC230D81BC234D819C289D9A0
:1024200017C20E94D3076EE472E0CE01499639DCF0
:1024300042E050E06FE872E0CE01499666DB08E4C6
:1024400013E0D8018D919D918D011C8A1B8A1E8AF3
:102450001D8A188E1F8A4AE0BE016F5F7F4F14D518
:10246000BE016F5F7F4FCE014396E8DB1A8219826F
:102470001C821B821E821D826B897C8961157105FD
:1024800029F04F89588DCE010196B9DB6FE2CE015C
:10249000019668DB811103C0CE01019676DB4D8188
:1024A0005E8169817A81CE0149962FDBCE0101964A
:1024B000DADBCE014396D7DB2016310609F0C1CF17
:1024C00041E050E062E972E0CE0149961EDBBE01B8
:1024D000675E7F4F84ED93E00E94660ABE01675EEF
:1024E0007F4F84EC94E00E94660ACE014996AFC10A
:1024F0006EE472E0CE010196D4DBE12CF12C1735AD
:1025000031F11F3201F56EE472E0CE010196DEDAA0
:1025100081111DC089819A81009711F08FD403C069
:1025200060E070E0CB01F701EE0FFF1FE85BFC4FAE
:1025300071836083BFEFEB1AFB0A6EE472E0CE0199
:1025400001967CDB04C0612FCE0101960BDB84ED8C
:1025500093E00E940002182F183589F664E972E0B2
:1025600084ED93E00E94480A70C140923A03509271
:102570003B0360923C0370923D038091480390912D
:102580004903909347038093460380914A039091B7
:102590004B03909345038093440380914C039091A7
:1025A0004D03909343038093420380914E03909197
:1025B0004F03909341038093400380915003909187
:1025C000510390933F0380933E030AE313E0E12C11
:1025D000F12CF801D1908F01C7010E94F31AD8168F
:1025E00021F06D2DC7010E94FB1AFFEFEF1AFF0AC1
:1025F0002EE0E216F10469F766E972E020C140E0DE
:1026000050E060E471E4CE0185960E947D0A0E944C
:10261000B00A882379F180917A058B3011F150F15D
:102620008551823038F56091730570E080E090E06C
:10263000C5D620E030E040E853E421D76B017C01AF
:102640006091740570E080E090E0BAD6A701960131
:102650000E942C1B20E030E040E251E40E94901BDD
:1026600006C06091730570E080E090E0A7D64B0152
:102670005C010AC088E992E00E94AC0A812C912C8E
:1026800080ECA82E8FE7B82E0E94B00A8823C9F1EB
:1026900080917A058B3029F0A0F18551823050F07D
:1026A00030C06091750570E080E090E087D66B01E6
:1026B0007C012CC010917505612F6F7770E080E070
:1026C00090E07ED620E030E040E853E4D8D66B01BD
:1026D0007C016091760570E080E090E071D6A70102
:1026E0009601BAD720E030E040E251E40E94901B0E
:1026F0006B017C0117FF0AC0F7FAF094F7F8F09429
:1027000005C088E992E00E94AC0A87C1A701960142
:10271000C701B6010E94FC1B81117FC1A501940174
:10272000C501B4010E94FC1B811177C1B701A6014C
:10273000CE014F960E947D0AB501A401CE014996B3
:102740000E947D0A67EB72E0CE010196AADABE0113
:10275000615E7F4FCE01019641DA66EC72E027DAC6
:102760006BEC72E024DABE01675E7F4F37DA6AED08
:1027700072E01DDABC01CE0143967ADACE010196F1
:1027800072DA8B899C899A8389838D899E899C833F
:102790008B838F89988D9E838D831C8A1B8A1E8ACA
:1027A0001D8A188E1F8ACE0143965DDACE014996A6
:1027B0005ADACE014F9657DA62EA72E0CE014396BA
:1027C00070DABE016B5D7F4FCE01439607DA6BED89
:1027D00072E0EDD9BE016F5F7F4F00DABC01CE0120
:1027E000499646DACE0143963EDACE0101963BDAAF
:1027F000BE01675E7F4F84ED93E00E94660ACE01C2
:10280000499631DACE01859622C068E772E0CE01A2
:10281000019647DACE0101961FD8CE01019623DA40
:1028200068E772E081E695E009DA12C00E94990B30
:1028300064E672E081E695E001DA64E672E0CE01DA
:1028400001962FDACE01019607D8CE0101960BDA58
:1028500080915303809300026FC060915003709188
:102860005103072E000C880B990BAAD56B017C0134
:102870009B01AC0160E070E0CB01BAD787FD08C0D6
:102880000E94600A64E670E080E090E00E94140616
:10289000A701960160E070E0CB018CD587FD4FC0A9
:1028A00060914E0370914F03072E000C880B990B1B
:1028B00087D59B01AC0160E070E0CB017BD587FD43
:1028C00058C060914C0370914D03072E000C880B8B
:1028D000990B76D59B01AC0160E070E0CB016AD525
:1028E00087FD67C060914A0370914B03072E000C6F
:1028F000880B990B65D59B01AC0160E070E0CB01C2
:1029000059D587FD70C06091480370914903072E27
:10291000000C880B990B54D59B01AC0160E070E072
:10292000CB0148D587FF08C00E943C0A64E670E0EE
:1029300080E090E00E9414060E94CF026FCB60916D
:102940004E0370914F03072E000C880B990B38D55E
:102950009B01AC0160E070E0CB014AD787FDA0CFBE
:102960000E945A0A64E670E080E090E00E9414063B
:1029700097CF60914C0370914D03072E000C880B8C
:10298000990B1ED59B01AC0160E070E0CB0130D704
:1029900087FD97CF0E945A0A60EB72E084EC94E0C6
:1029A0000E94480A64E670E080E090E00E9414060D
:1029B00088CF60914A0370914B03072E000C880B5F
:1029C000990BFED49B01AC0160E070E0CB0110D705
:1029D00087FD88CF0E94420A64E670E080E090E0C4
:1029E0000E9414067FCF6091480370914903072E1F
:1029F000000C880B990BE4D49B01AC0160E070E003
:102A0000CB01F6D687FD7FCF0E943C0A64E670E0DA
:102A100080E090E00E94140676CF6DED72E084ECC9
:102A200094E00E94480AC8CE81E695E01CD987E66A
:102A300095E019D98DE695E016C9E4EDF3E013822F
:102A4000128288EE93E0A0E0B0E084839583A683B1
:102A5000B7832BE032E03183208345E351E0558793
:102A6000448744E351E05787468740E351E0518B68
:102A7000408B41E351E0538B428B42E351E0558B55
:102A8000448B46E351E0578B468B118E128E138E8A
:102A9000148EE4ECF4E01382128284839583A6837F
:102AA000B7833183208325EC30E03587248724ECFD
:102AB00030E03787268720EC30E0318B208B21EC0B
:102AC00030E0338B228B22EC30E0358B248B26ECEC
:102AD00030E0378B268B118E128E138E148EE1E729
:102AE000F4E01782108611861286138614861586E6
:102AF00016861786108A118A128A138A148A158AF2
:102B0000168AE8EBF4E01382128284839583A6830D
:102B1000B7838DE192E09183808340E855E260E0E5
:102B200070E084EC94E00E94D90961E086E10E94A3
:102B3000110560E087E10E94110561E088E10E94D3
:102B4000110560E089E10E94110561E08AE10E94BF
:102B5000110560E08BE10E94110561E08CE10E94AB
:102B6000110560E08DE10E94110561E08EE10E9497
:102B7000110560E08FE10E94110561E080E20E9492
:102B8000110560E081E20E941105E3E7F5E086E3CC
:102B900086838BE0878386E0808781E085876EE48B
:102BA00072E08DE695E07DD86EE472E087E695E010
:102BB00078D86EE472E081E695E073C8EF920F93E7
:102BC0001F93CF93DF93E80147FD02C034E001C0BB
:102BD00034E1042E000C550B57FF03C0519541956D
:102BE0005109E32E022F242FAE0186D1CE01DF91B1
:102BF000CF911F910F91EF9008950F931F93CF9353
:102C0000DF938230910510F482E090E0E091AA0514
:102C1000F091AB0520E030E0A0E0B0E0309719F192
:102C2000408151810281138148175907C8F08417E8
:102C3000950769F4109731F012960C93129713963A
:102C40001C9327C00093AA051093AB0522C0211541
:102C5000310519F04217530718F49A01BD01EF012D
:102C6000DF01F801DBCF21153105F9F0281B390B05
:102C70002430310580F48A819B816115710521F032
:102C8000FB019383828304C09093AB058093AA05D4
:102C9000FE01329644C0FE01E20FF31F819391932F
:102CA00022503109398328833AC02091A8053091F8
:102CB000A905232B41F420910302309104023093A3
:102CC000A9052093A8052091010230910202211547
:102CD000310541F42DB73EB74091050250910602EF
:102CE000241B350BE091A805F091A905E217F30725
:102CF000A0F42E1B3F0B2817390778F0AC014E5F6C
:102D00005F4F2417350748F04E0F5F1F5093A905FA
:102D10004093A8058193919302C0E0E0F0E0CF01D9
:102D2000DF91CF911F910F910895CF93DF9300977B
:102D300009F481C0FC01329713821282A091AA0586
:102D4000B091AB05109781F420813181820F931FE0
:102D50002091A8053091A9052817390751F5F0935E
:102D6000A905E093A80567C0ED0120E030E0CE178B
:102D7000DF0740F44A815B819E0141155105F1F066
:102D8000EA01F5CFD383C28340815181840F951F1F
:102D9000C817D90759F488819981840F951F029625
:102DA000918380838A819B8193838283211531055E
:102DB00029F4F093AB05E093AA053DC0E901FB833C
:102DC000EA8349915991C40FD51FEC17FD0761F4AF
:102DD00080819181840F951F0296E90199838883F0
:102DE000828193819B838A83E0E0F0E012968D914B
:102DF0009C911397009719F0FD01DC01F7CF8D919D
:102E00009C9111979D012E5F3F4F820F931F209140
:102E1000A8053091A9052817390769F4309729F4D6
:102E20001092AB051092AA0502C013821282B093D1
:102E3000A905A093A805DF91CF9108951F93FC01E8
:102E400099278827BC01E89411911032E9F31930D1
:102E500010F01E30C8F31B3249F01D3241F4689463
:102E600005C01CD0610F711D811D911D1191105362
:102E70001A30B8F33EF490958095709561957F4F28
:102E80008F4F9F4F1F910895BB274A3031F49923EC
:102E900022F4BDE2909581959F4F16C0592F482F7F
:102EA000372F262F660F771F881F991F660F771FF2
:102EB000881F991F620F731F841F951F660F771F4E
:102EC000881F991F0895BB27FB015527AA27880F44
:102ED000991FAA1FA41710F0A41B83955051B9F78E
:102EE000A05DAA3308F0A95DA193009779F7B1110D
:102EF000B1931192CB014EC28F929F92AF92BF922B
:102F0000CF92DF92EF92FF920F931F93CF93DF93B5
:102F1000CDB7DEB729970FB6F894DEBF0FBECDBF91
:102F20006A01122FB02E2BE3201720F0FF24F39418
:102F3000F00E02C02CE3F22E0F2D27E0AE014F5F02
:102F40005F4F50D1BC014981842F8970813031F0AD
:102F5000E1FC06C0E0FE06C090E205C09DE203C0B1
:102F60009BE201C090E05E2D507143FF3CC0911187
:102F700002C083E001C084E0811718F4212F281BD0
:102F800001C020E051110BC0F601822F30E28823EE
:102F900019F031938150FBCFC20ED11C20E0992350
:102FA00029F0D6019C93F60131966F01C601039674
:102FB000E2FE0AC03EE4D6013C9341E411964C93F4
:102FC000119712963C9306C03EE6F601308341E627
:102FD00041833283FC01322F40E2332309F442C0A3
:102FE00041933150FACF42FF44C0911102C083E0B7
:102FF00001C084E0811718F4212F281B01C020E0B4
:1030000051110BC0F601822F30E2882319F0319361
:103010008150FBCFC20ED11C20E0992329F0D601AC
:103020009C93F60131966F01C6010396E2FE0BC038
:1030300039E4D6013C933EE411963C93119736E473
:1030400012963C9307C039E6F60130833EE63183A1
:1030500036E63283FC01322F40E2332319F04193EC
:103060003150FBCFFC01E20FF11D10828EEF9FEF7C
:10307000A6C021E030E0911102C020E030E0161639
:1030800017061CF4FB01319602C0E1E0F0E02E0FC0
:103090003F1FBB2021F0EB2DF0E0319602C0E0E0B5
:1030A000F0E02E0F3F1FE12FF0E02E173F071CF43A
:1030B000121B212F01C020E08E2D887159F4F601DA
:1030C000822F30E2882319F031938150FBCFC20E5A
:1030D000D11C20E0992329F0D6019C93F60131966A
:1030E0006F0151110BC0F601822F90E3882319F074
:1030F00091938150FBCFC20ED11C20E00F2D060F03
:103100009A81342F307144FF03C0913309F4015088
:10311000101624F4093018F008E001C001E0AB01FA
:1031200077FF02C040E050E0FB01E41BF50BA1E09B
:10313000B0E0AC0FBD1FEA0FFB1F8EE2A82E4B01C3
:10314000801A91080B2D10E01195019511094F3F40
:10315000BFEF5B0721F4D601AC9211966D016417A5
:1031600075072CF08416950614F4818101C080E364
:10317000415051093196D60111967D0140175107F2
:1031800024F0D6018C936701E2CF6417750739F4F8
:10319000963320F4953319F4311101C081E3F6011F
:1031A0008083F701822F90E2882319F09193815058
:1031B000FBCFF701E20FF11D108280E090E029962D
:1031C0000FB6F894DEBF0FBECDBFDF91CF911F9138
:1031D0000F91FF90EF90DF90CF90BF90AF909F90B6
:1031E0008F900895283008F027E03327DA01990FEF
:1031F000311D87FD916000966105710539F43260DB
:103200002E5F3D9330E32A95E1F708959F3F30F01C
:1032100080387105610509F03C5F3C5F3D9391305A
:1032200008F08068911DDF93CF931F930F93FF9257
:10323000EF92192F987F9695E92F96959695E90F1D
:10324000FF27E654FE4F99273327EE24FF24A701DA
:10325000E70105900894079428F4360FE71EF81E3E
:10326000491F511D660F771F881F991F0694A1F7EC
:103270000590079428F4E70EF81E491F561FC11D3C
:10328000770F881F991F661F0694A1F70590079472
:1032900028F4F80E491F561FC71FD11D880F991F0C
:1032A000661F771F0694A1F70590079420F4490F35
:1032B000561FC71FD81F990F661F771F881F0694B8
:1032C000A9F784911095177041F0D695C795579539
:1032D0004795F794E7941A95C1F7E0E6F1E0689412
:1032E0001590159135916591959105907FE27395B3
:1032F000E118F10A430B560BC90BD009C0F7E10CDA
:10330000F11E431F561FC91FD01D7EF4703311F4E8
:103310008A95E6CFE894015030F0080F0AF40027B0
:10332000021708F4202F2395022F7A3328F079E32F
:103330007D932A95E9F710C07D932A9589F6069426
:1033400097956795379517951794E118F10A430BF0
:10335000560BC90BD00998F023957E9173957A335B
:1033600008F070E37C932013B8F77E9170617D9331
:1033700030F0839571E37D9370E32A95E1F7112492
:10338000EF90FF900F911F91CF91DF91992787FDCB
:1033900090950895DC01FC01672F71917723E1F787
:1033A000329704C07C916D9370836291AE17BF0712
:1033B000C8F3089540D008F481E00895E89409C066
:1033C00097FB3EF490958095709561957F4F8F4F58
:1033D0009F4F9923A9F0F92F96E9BB279395F6956E
:1033E000879577956795B795F111F8CFFAF4BB0FEC
:1033F00011F460FF1BC06F5F7F4F8F4F9F4F16C050
:10340000882311F096E911C0772321F09EE8872FD9
:10341000762F05C0662371F096E8862F70E060E095
:103420002AF09A95660F771F881FDAF7880F96950E
:10343000879597F90895990F0008550FAA0BE0E8B2
:10344000FEEF16161706E807F907C0F01216130666
:10345000E407F50798F0621B730B840B950B39F4A6
:103460000A2661F0232B242B252B21F408950A260C
:1034700009F4A140A6958FEF811D811D08950BD001
:1034800078C069D028F06ED018F0952309F05AC0A2
:103490005FC01124A2C07ED0A0F3959FD1F3950FF9
:1034A00050E0551F629FF001729FBB27F00DB11DC8
:1034B000639FAA27F00DB11DAA1F649F6627B00D58
:1034C000A11D661F829F2227B00DA11D621F739F41
:1034D000B00DA11D621F839FA00D611D221F749F4F
:1034E0003327A00D611D231F849F600D211D822F96
:1034F000762F6A2F11249F5750408AF0E1F08823DD
:103500004AF0EE0FFF1FBB1F661F771F881F9150E9
:103510005040A9F79E3F510570F014C05EC05F3F58
:10352000ECF3983EDCF3869577956795B795F7951C
:10353000E7959F5FC1F7FE2B880F911D96958795A4
:1035400097F9089597F99F6780E870E060E0089523
:103550009FEF80EC089500240A94161617061806AB
:103560000906089500240A94121613061406050687
:103570000895092E0394000C11F4882352F0BB0F18
:1035800040F4BF2B11F460FF04C06F5F7F4F8F4F7B
:103590009F4F089557FD9058440F551F59F05F3FB6
:1035A00071F04795880F97FB991F61F09F3F79F065
:1035B00087950895121613061406551FF2CF4695E7
:1035C000F1DF08C0161617061806991FF1CF869569
:1035D0007105610508940895E894BB27662777274D
:1035E000CB0197F90895F999FECF92BD81BDF89A64
:1035F000992780B50895262FF999FECF1FBA92BD5D
:1036000081BD20BD0FB6F894FA9AF99A0FBE0196C3
:103610000895A1E21A2EAA1BBB1BFD010DC0AA1F13
:10362000BB1FEE1FFF1FA217B307E407F50720F02B
:10363000A21BB30BE40BF50B661F771F881F991FA6
:103640001A9469F760957095809590959B01AC01EF
:10365000BD01CF0108955058BB27AA270ED089CFAE
:103660007ADF30F07FDF20F031F49F3F11F41EF459
:103670006FCF0EF4E095E7FB65CFE92F8BDF80F38A
:10368000BA17620773078407950718F071F49EF55F
:10369000A3CF0EF4E0950B2EBA2FA02D0B01B9018C
:1036A00090010C01CA01A0011124FF27591B99F0B8
:1036B000593F50F4503E68F11A16F040A22F232FC4
:1036C000342F4427585FF3CF469537952795A79514
:1036D000F0405395C9F77EF41F16BA0B620B730BBB
:1036E000840BBAF09150A1F0FF0FBB1F661F771F2C
:1036F000881FC2F70EC0BA0F621F731F841F48F4E1
:10370000879577956795B795F7959E3F08F0B3CF66
:103710009395880F08F09927EE0F97958795089550
:103720000CD027CF1FDF40F016DF30F021F45F3FD1
:1037300019F008CF511151CF0BCF2CDF98F39923FB
:10374000C9F35523B1F3951B550BBB27AA27621765
:103750007307840738F09F5F5F4F220F331F441FAA
:10376000AA1FA9F333D00E2E3AF0E0E830D09150E2
:103770005040E695001CCAF729D0FE2F27D0660FCF
:10378000771F881FBB1F261737074807AB07B0E80E
:1037900009F0BB0B802DBF01FF2793585F4F2AF024
:1037A0009E3F510568F0CECE18CF5F3FECF3983EB8
:1037B000DCF3869577956795B795F7959F5FC9F781
:1037C000880F911D9695879597F90895E1E0660F0A
:1037D000771F881FBB1F621773078407BA0720F083
:1037E000621B730B840BBA0BEE1F88F7E0950895EC
:1037F00022DE08F48FEF08951EDE880B990B0895E2
:10380000EE0FFF1F881F8BBF0790F691E02D1994D4
:103810006F927F928F929F92AF92BF92CF92DF92E0
:10382000EF92FF920F931F93CF93DF93009781F452
:10383000CB01DF91CF911F910F91FF90EF90DF901F
:10384000CF90BF90AF909F908F907F906F90D5C991
:10385000FC01E60FF71F9C0122503109E217F30724
:1038600008F4A5C0EC01D9010D911C911197061720
:103870001707A8F00530110508F497C0C801049790
:103880008617970708F491C002501109061B170B01
:10389000019311936D937C93CF0147DA86C05B014E
:1038A000A01AB10A4C01800E911EA091AA05B091F8
:1038B000AB05612C712CE12CF12C109709F446C05A
:1038C0008D919C911197A815B905B1F56C0142E055
:1038D000C40ED11CCA14DB0478F14C018A189B0871
:1038E000640142E0C40ED11C1296BC90129713964C
:1038F000AC91B5E0CB16D10440F0B282A3839182A3
:103900008082D9016D937C9309C00E5F1F4F800F99
:10391000911FF90191838083EB2DFA2FE114F104BB
:1039200031F0D7011396FC93EE9312973EC0F093BB
:10393000AB05E093AA0539C06816790608F43C0186
:103940007D0112960D90BC91A02DB7CF8091A80556
:103950009091A90588169906E1F466167706C8F4D1
:103960008091010290910202009741F48DB79EB7B9
:103970004091050250910602841B950BE817F90748
:10398000B0F4F093A905E093A805F9017183608371
:103990000CC0CB0132D97C01009749F0A801BE01CF
:1039A0001BD0CE01C2D9C70104C0CE0102C080E045
:1039B00090E0DF91CF911F910F91FF90EF90DF90FA
:1039C000CF90BF90AF909F908F907F906F90089511
:1039D00081E090E0F89419C0FB01DC0102C0019085
:1039E0000D9241505040D8F70895FB01DC018D91B4
:1039F000019080190110D9F3990B0895FB01DC01A6
:103A000001900D920020E1F7089511E0CEEBD1E096
:103A100000E005C0802FFE01F3DE2196011DCF3BA3
:0C3A2000D10780E00807B1F7F894FFCF51
:103A2C00490000AC0580000000000062026B0CF144
:103A3C0001AE0222020002140200000000E703DDC6
:103A4C0003F803B103D503C103B203564D445056DA
:103A5C005F317C315F564D4450560D0A00564D4433
:103A6C0050525F007C005F564D4450520D0A00438B
:103A7C004F4E4E454354494E4700434F4E4E4543DF
:103A8C00544544004D00564D4450455F003A323A7F
:103A9C00005F564D4450450041004E6F7576656C85
:103AAC006C6520636F6D6D616E6465203A20004F0C
:103ABC002F005800570051005265616420666169FF
:103ACC006C005A2F44697374616E6365203A200050
:103ADC004176616E63650054656D70C3A972617443
:103AEC007572653A2000C2B0432F00487967726F37
:103AFC006DC3A9747269653A2000252F004661696F
:103B0C006C656420746F20726561642066726F6DE1
:103B1C00204448540063686172676572207061725A
:103B2C00616D004572726575722073747275637481
:103B3C0000757064617465207461622070617261DB
:103B4C006D004154005041495241424C45004F4B8D
:023B5C00000067
:00000001FF
