:10000000BEC10000EDC10000EBC10000E9C100006D
:10001000E7C10000E5C10000E3C10000E1C100004C
:10002000DFC10000DDC10000DBC10000D9C100005C
:10003000D7C10000D5C10000D3C10000D1C100006C
:10004000CFC10000CDC10000CBC10000C9C100007C
:10005000C7C10000C5C10000C3C1000029C600001F
:10006000BFC1000052C4000027C40000B9C1000095
:10007000B7C10000B5C10000B3C10000B1C10000AC
:10008000AFC10000ADC10000ABC10000A9C10000BC
:10009000A7C10000A5C10000A3C1000053C6000015
:1000A0009FC100009DC100009BC1000099C10000DC
:1000B00097C1000095C1000093C1000091C10000EC
:1000C0008FC100008DC100008BC1000089C10000FC
:1000D00087C1000085C10000B9C300008EC30000C5
:1000E0007FC100002F12A41051125112511294100E
:1000F00096109D10511298105112A61040125112D4
:10010000AA1051125011A210A810511251125112DE
:100110001311511251129C111D0320030F031303DD
:1001200019035703240328032E03320336033C0329
:100130004003440357034A034E03520374057905F1
:100140007E05880592050B069C05A405AC05B60541
:10015000C005CA05D905E3050B06ED05F70501063F
:1001600000407A10F35A00A0724E18090010A5D46E
:10017000E80000E87648170000E40B54020000CACB
:100180009A3B000000E1F505000080969800000011
:1001900040420F000000A086010000001027000070
:1001A0000000E803000000006400000000000A00F6
:1001B000000000000100000000002C76D888DC67F9
:1001C0004F0823DFC1DFAE59E1B1B796E5E3E45351
:1001D000C63AE651997696E8E6C28426EB898C9B6E
:1001E00062ED407C6FFCEFBC9C9F40F2BAA56FA50E
:1001F000F490055A2AF75C936B6CF9676DC11BFC90
:10020000E0E40D47FEF520E6B500D0ED902E0300AA
:10021000943577050080841E080000204E0A0000F7
:1002200000C80C333333330F986E12831141EF8DB6
:100230002114893BE65516CFFEE6DB18D1844B38F6
:100240001BF77C1D901DA4BBE424203284725E2227
:100250008100C9F124ECA1E53D2700002100240024
:1002600027002A002D0030003300010100000401A6
:1002700007010A0100002200250028002B002E00A3
:100280003100340002010000050108010B010000EB
:1002900020002300260029002C002F00320000013E
:1002A0000000030106010901050505050705080809
:1002B0000808020202020A0A0808040404040101F0
:1002C0000101010101010303030303030303040705
:1002D00007070C0C0C0C0C0C0C0C0202020206069C
:1002E0000606060606060B0B0B0B0B0B0B0B01028F
:1002F0001020200808102040102040800201020138
:1003000008040201010204081020408080402010EF
:100310000804020180040201804020100804020148
:1003200008040201010204081020408001020408B0
:100330001020408000000A0B02090C0D0E08070374
:1003400004010000000000000000000000000000A8
:10035000000000000000000000000000000000009D
:10036000121110000000000000000000000000005A
:1003700000000000000000000000B313AA131124C5
:100380001FBECFEFD1E2DEBFCDBF00E00CBF13E058
:10039000A0E0B2E0E0E5F7E300E00BBF02C00790A9
:1003A0000D92A232B107D9F725E0A2E2B3E001C075
:1003B0001D92A839B207E1F711E0CEEBD1E000E0E1
:1003C00006C021970109802FFE010E94921ACD3BA1
:1003D000D10780E00807A9F70E94130E0C94971B21
:1003E0000FCEFC01538D448D252F30E0842F90E0FB
:1003F000821B930B541710F0CF9608950197089520
:10040000FC01918D828D981761F0828DDF01A80F1C
:10041000B11D5D968C91928D9F5F9F73928F90E03E
:1004200008958FEF9FEF0895FC01918D828D9817AD
:1004300031F0828DE80FF11D858D90E008958FEFEA
:100440009FEF0895FC01918D228D892F90E0805CB3
:100450009F4F821B91098F739927089580EC93E039
:10046000F1DF21E0892B09F420E0822F089580EB51
:1004700094E0E8DF21E0892B09F420E0822F089541
:10048000FC01848DDF01A80FB11DA35ABF4F2C9131
:10049000848D90E001968F739927848FA689B78900
:1004A0002C93A089B1898C91837080648C93938DF7
:1004B000848D981306C00288F389E02D80818F7D9A
:1004C00080830895EF92FF920F931F93CF93DF9352
:1004D000EC0181E0888F9B8D8C8D981305C0E88995
:1004E000F989808185FD25C0F62E0B8D10E00F5F08
:1004F0001F4F0F731127E02E8C8DE8120BC00FB623
:1005000007FCFACFE889F989808185FFF5CFCE0114
:10051000B7DFF2CF8B8DFE01E80FF11DE35AFF4FDD
:10052000F0829FB7F8940B8FEA89FB898081806203
:100530000AC09FB7F894EE89FF896083E889F9893A
:1005400080818370806480839FBF81E090E0DF9131
:10055000CF911F910F91FF90EF900895CF93DF936C
:10056000EC01888D8823C1F0EA89FB89808185FDB3
:1005700005C0A889B9898C9186FD0EC00FB607FC0D
:10058000F5CF808185FFF2CFA889B9898C9185FF4D
:10059000EDCFCE0175DFE8CFDF91CF91089580E0F8
:1005A00090E0892B19F063DF811120C080E090E09A
:1005B000892B41F080E090E0892B21F00E9400001F
:1005C000811117C080E090E0892B41F080E090E03D
:1005D000892B21F00E94000081110EC080E090E084
:1005E000892B79F03BDF81110AC008950E94000039
:1005F000DDCF0E940000E6CF0E940000EFCF0C94F8
:100600000000089590E0FC013197E231F10508F017
:100610004EC08827E457FF4F8F4F0C94921A809159
:1006200080008F7703C0809180008F7D8093800051
:10063000089580918000877FF9CF84B58F7702C0BD
:1006400084B58F7D84BD08958091B0008F7703C0FD
:100650008091B0008F7D8093B000089580919000CC
:100660008F7707C0809190008F7D03C080919000AC
:10067000877F8093900008958091A0008F7707C0B6
:100680008091A0008F7D03C08091A000877F809320
:10069000A0000895809120018F7707C080912001EC
:1006A0008F7D03C080912001877F80932001089572
:1006B0003FB7F8948091B0039091B103A091B20339
:1006C000B091B30326B5A89B05C02F3F19F0019642
:1006D000A11DB11D3FBFBA2FA92F982F8827820FC8
:1006E000911DA11DB11DBC01CD0142E0660F771F18
:1006F000881F991F4A95D1F7089585ED8093BC0016
:100700008091BC0084FDFCCF109293050895409128
:100710008803262F30E0240F311D21323105DCF40F
:10072000209193052430C9F4FC0180E090E0861705
:1007300058F4309188032191DC01A859BC4FA30FD4
:10074000B11D2C930196F3CF80918803680F6093BD
:10075000880380E0089581E0089582E00895089577
:1007600008950895E091290380912803E81730F453
:10077000F0E0E85BFC4F808190E008958FEF9FEF01
:1007800008959091290380912803981750F4E92F38
:10079000F0E0E85BFC4F208130E09F5F90932903FD
:1007A00002C02FEF3FEFC90108958091280390E028
:1007B00020912903821B91090895CF93DF93CB01E8
:1007C000EA01642FA4DFCE01DF91CF910895CF938A
:1007D000DF931F92CDB7DEB7698361E0CE0101964A
:1007E00096DF81E090E00F90DF91CF91089508951A
:1007F00080E090E008950E947A1B1F920F920FB63E
:100800000F9211240BB60F922F933F934F935F9348
:100810006F937F938F939F93AF93BF93EF93FF93C8
:1008200080EC93E02DDEFF91EF91BF91AF919F910E
:100830008F917F916F915F914F913F912F910F9089
:100840000BBE0F900FBE0F901F9018951F920F9226
:100850000FB60F9211240BB60F922F938F939F9385
:10086000EF93FF93E091D003F091D1038081E09169
:10087000D603F091D70382FD12C090818091D903F5
:100880008F5F8F732091DA03821751F0E091D903C3
:10089000F0E0E054FC4F958F8093D90301C0808134
:1008A000FF91EF919F918F912F910F900BBE0F9021
:1008B0000FBE0F901F9018951F920F920FB60F92B8
:1008C00011240BB60F922F933F934F935F936F9327
:1008D0007F938F939F93AF93BF93EF93FF9380EB9F
:1008E00094E0CEDDFF91EF91BF91AF919F918F91F9
:1008F0007F916F915F914F913F912F910F900BBE20
:100900000F900FBE0F901F9018951F920F920FB669
:100910000F9211240BB60F922F938F939F93EF9307
:10092000FF93E091C004F091C1048081E091C6047E
:10093000F091C70482FD12C090818091C9048F5F3D
:100940008F732091CA04821751F0E091C904F0E03E
:10095000E055FB4F958F8093C90401C08081FF91C2
:10096000EF919F918F912F910F900BBE0F900FBE23
:100970000F901F901895CF93DF93282F30E0F90147
:10098000EC5CFC4F8491F901E251FD4FD491F901E7
:10099000E855FD4FC491CC2389F0811133DEEC2F53
:1009A000F0E0EE0FFF1FE257FD4FA591B491EC91DF
:1009B000ED2381E090E021F480E002C080E090E04F
:1009C000DF91CF9108951F93CF93DF93282F30E0CD
:1009D000F901EC5CFC4F8491F901E251FD4FD49197
:1009E000F901E855FD4FC491CC23B9F0162F8111C0
:1009F00009DEEC2FF0E0EE0FFF1FEC58FD4FA59144
:100A0000B4919FB7F894111104C08C91D095D8235C
:100A100002C0EC91DE2BDC939FBFDF91CF911F9141
:100A20000895CF93DF9390E0FC01E251FD4F2491B4
:100A3000FC01E855FD4F8491882361F190E0880F17
:100A4000991FFC01E65AFD4FC591D491FC01EC5869
:100A5000FD4FA591B491611109C09FB7F8948881A9
:100A6000209582238883EC912E230BC0623061F4A1
:100A70009FB7F8948881322F309583238883EC9137
:100A80002E2B2C939FBF06C08FB7F894E8812E2B96
:100A900028838FBFDF91CF9108951F93CF93DF936A
:100AA000182FEB0161E0BDDF209711F460E004C076
:100AB000CF3FD10531F461E0812FDF91CF911F91BC
:100AC00082CFE12FF0E0EC5CFC4FE4918E2F90E0C0
:100AD000FC013197E231F10508F09DC08827E2560C
:100AE000FF4F8F4F0C94921A84B5806884BDC7BDA8
:100AF00097C084B5806284BDC8BD92C080918000DB
:100B0000806880938000D0938900C093880088C05B
:100B100080918000806280938000D0938B00C0938E
:100B20008A007EC080918000886080938000D0938E
:100B30008D00C0938C0074C08091B0008068809359
:100B4000B000C093B3006CC08091B000806280930D
:100B5000B000C093B40064C080919000806880931E
:100B60009000D0939900C09398005AC08091900053
:100B7000806280939000D0939B00C0939A0050C0F5
:100B800080919000886080939000D0939D00C093E6
:100B90009C0046C08091A00080688093A000809156
:100BA000A0008F7B8093A000D093A900C093A800E1
:100BB00037C08091A00080628093A000D093AB00EA
:100BC000C093AA002DC08091A00088608093A000EF
:100BD000D093AD00C093AC0023C080912001806809
:100BE00080932001D0932901C093280119C08091DE
:100BF0002001806280932001D0932B01C0932A01B1
:100C00000FC080912001886080932001D0932D0136
:100C1000C0932C0105C0C038D1050CF04CCF46CF95
:100C2000DF91CF911F9108958F929F92AF92BF92C3
:100C3000CF92DF92EF92FF926B017C0139DD4B0185
:100C40005C01C114D104E104F104E9F031DDDC01FF
:100C5000CB0188199909AA09BB09883E9340A105CF
:100C6000B10578F321E0C21AD108E108F10888EE55
:100C7000880E83E0981EA11CB11CC114D104E104AC
:100C8000F10421F7DECFFF90EF90DF90CF90BF907F
:100C9000AF909F908F9008952FB7F8946091AC0318
:100CA0007091AD038091AE039091AF032FBF089573
:100CB0001F920F920FB60F9211242F933F938F9391
:100CC0009F93AF93BF938091AC039091AD03A0919C
:100CD000AE03B091AF033091AB0323E0230F2D3768
:100CE00020F40196A11DB11D05C026E8230F029630
:100CF000A11DB11D2093AB038093AC039093AD0372
:100D0000A093AE03B093AF038091B0039091B10371
:100D1000A091B203B091B3030196A11DB11D8093C0
:100D2000B0039093B103A093B203B093B303BF9108
:100D3000AF919F918F913F912F910F900FBE0F9088
:100D40001F9018951F920F920FB60F9211240BB699
:100D50000F922F933F934F935F936F937F938F9354
:100D60009F93AF93BF93EF93FF938091B900887FD8
:100D7000803609F49CC068F5883209F45BC090F4B1
:100D8000803109F454C038F4882309F4F6C088305F
:100D900009F44DC0F5C0883109F44CC0803209F423
:100DA0005DC0EEC0803409F468C048F4803309F4B3
:100DB00055C0883309F0E4C080939105D8C08035D0
:100DC00009F44FC0883509F45DC0883409F0D8C0F3
:100DD000D6C0883909F4C7C0A8F4883709F467C0B9
:100DE00038F4883609F463C0803709F460C0C8C09D
:100DF000883809F4B8C0803909F45FC0803809F038
:100E0000BFC05BC0803B09F486C038F4803A09F467
:100E100066C0883A09F47FC0B3C0803C09F4A7C01B
:100E2000883C09F4A4C0883B09F48AC0A9C0809119
:100E30006E0510C09091900580918F05981770F500
:100E4000E091900581E08E0F80939005F0E0E159EC
:100E5000FA4F80818093BB0085EC86C0809391051A
:100E60008EC0E091900581E08E0F80939005809177
:100E7000BB00F0E0E159FA4F80839091900580919A
:100E80008F056EC0E091900581E08E0F80939005F4
:100E90008091BB00F0E0E159FA4F80838091920588
:100EA00081116DC081E080936D0584EA61C083E0AB
:100EB000809393051092AA03CFCF8091AA0380322A
:100EC00008F051C0E091AA0381E08E0F8093AA033D
:100ED0008091BB00F0E0E657FC4F8083BDCF85ECEE
:100EE0008093BC00109293058091AA03803230F465
:100EF000E091AA03F0E0E657FC4F10826091AA034C
:100F000070E0E0912203F09123038AE893E01995C1
:100F10001092AA0335C084E0809393051092890350
:100F200010928803E0912403F09125031995809194
:100F30008803811105C081E08093880310926803C3
:100F4000E091890381E08E0F80938903F0E0E859F6
:100F5000FC4F80818093BB0090918903809188032E
:100F6000981708F479CF85E88093BC0009C085EC18
:100F70008093BC001092930503C010929105BDDBD5
:100F8000FF91EF91BF91AF919F918F917F916F9161
:100F90005F914F913F912F910F900BBE0F900FBE1D
:100FA0000F901F9018950F931F93CF93DF9365EECB
:100FB00072E080EB94E036D20AE213E0C0E0D0E0C9
:100FC000CE010E948519F80181938F012196CE30C0
:100FD000D105B1F780912A0390912B03A0912C03A6
:100FE000B0912D034697A105B10579F163EF72E049
:100FF00080EB94E017D286E190E0A0E0B0E080932F
:101000002A0390932B03A0932C03B0932D038AE023
:1010100090E090933703809336038EE190E09093B5
:1010200035038093340382E390E0909333038093FD
:10103000320386E490E0909331038093300384E69A
:1010400090E090932F0380932E0361E073E080EB98
:1010500094E0E8D18091360390913703909339035F
:1010600080933803809134039091350390933B0330
:1010700080933A03809132039091330390933D0320
:1010800080933C03809130039091310390933F0310
:1010900080933E0380912E0390912F039093410300
:1010A00080934003DF91CF911F910F9108951F937B
:1010B000CF93DF9300D000D0CDB7DEB780EC93E0C4
:1010C000C1D9892B21F080EC93E09AD9F7CF62E166
:1010D00073E0CE01019693D5CE01019667D3182F08
:1010E000CE0101966FD5812F26960FB6F894DEBFFC
:1010F0000FBECDBFDF91CF911F9108950F931F9326
:10110000CF93DF9300D000D0CDB7DEB703E080915E
:101110004203833009F45AC080EC93E093D9892BC1
:1011200009F443C080EC93E06BD9182F682F80EB53
:1011300094E0C8D91B3259F780EC93E083D9892B0E
:10114000D9F380EC93E05CD9182F682F80EB94E002
:10115000B9D91035E1F680EC93E074D90797DCF348
:101160006EE472E0CE0101964AD560E5CE010196AB
:10117000A9D417E080EC93E043D9682FCE01019603
:10118000A1D41150B9F78D819E81892B51F065E171
:1011900073E089819A810E94871B892B11F4009347
:1011A0004203CE0101960ED5B2CF81DF882319F01C
:1011B00000934203ACCF68EC70E080E090E034DD57
:1011C00076DF8111F5CF85E08093420326960FB636
:1011D000F894DEBF0FBECDBFDF91CF911F910F916D
:1011E0000895DF92EF92FF920F931F93CF93DF93B7
:1011F00000D000D0CDB7DEB785E0F82E93E0E92E21
:1012000024E0D22E80914203853009F476C080EC30
:1012100093E018D9892B09F45EC080EC93E0F0D8F4
:10122000182F8B3249F580EC93E00CD90A97DCF348
:101230006EE472E0CE010196E2D40AE080EC93E025
:10124000DFD8182F682FCE0101963CD40150B1F79A
:101250002D813E8180915D0590915E0528173907AB
:1012600041F469E575E0CE010196FDD1892B09F4C1
:101270003EC0CE010196A6D4133409F0C3CF80EC52
:1012800093E0E0D80897DCF36EE472E0CE010196BB
:10129000B6D463E4CE01019615D418E080EC93E057
:1012A000AFD8682FCE0101960DD41150B9F72D811A
:1012B0003E8180915705909158052817390739F4D8
:1012C00063E575E0CE010196CED1892B99F0CE0170
:1012D000019678D497CFEBDE882319F0E092420391
:1012E00091CFE5DE8111FACFF09242038BCFD092FD
:1012F0004203BFCFF0924203EACF26960FB6F8948E
:10130000DEBF0FBECDBFDF91CF911F910F91FF9038
:10131000EF90DF9008950F931F93CF93DF93C82F23
:10132000D62F8091B603861317C0CC2319F010E096
:1013300001E002C011E000E06091B403062E000C51
:10134000770B8091BE03A9DB602F8091BA033BDB52
:10135000612F8091BB0337DB8091B903D8131BC089
:10136000CC2319F0C0E0D1E002C0C1E0D0E0609130
:10137000B703062E000C770B8091BF038EDB6D2F19
:101380008091BC0320DB6C2F8091BD03DF91CF9156
:101390001F910F9118CBDF91CF911F910F9108955D
:1013A0006115710549F0FB0101900020E9F73197C3
:1013B000AF01461B570B3EC280E090E00895FC0150
:1013C000A089B18982E08C93A485B5851C92A685FD
:1013D000B78580E18C93108EA489B58986E08C93C3
:1013E000A289B3898C9180618C93A289B3898C91F5
:1013F00088608C93A289B3898C9180688C930288D1
:10140000F389E02D80818F7D8083089561E081E004
:1014100082DF60E080E07FCF61E080E07CDF60E041
:1014200080E079CF0F931F93CF93DF93EC01B8DF68
:101430008C016CE472E0CE01B3DF800F911FDF916D
:10144000CF911F910F91089560E081E064DF61E02A
:1014500080E061CF61E081E05EDF60E081E05BCF52
:101460000F931F93CF93DF93EC01FB0144815581D0
:1014700060817181DFD18C016CE472E0CE0190DF7C
:10148000800F911FDF91CF911F910F910895EF92DF
:10149000FF920F931F93CF93DF93CDB7DEB7A19742
:1014A0000FB6F894DEBF0FBECDBF7C01CB01BA01F1
:1014B000F7011182108213821282158214828E012A
:1014C0000F5F1F4F22E044E00E947014BC01C7016F
:1014D00064D3A1960FB6F894DEBF0FBECDBFDF91E7
:1014E000CF911F910F91FF90EF900895BC0180EB79
:1014F00094E056CFEF92FF920F931F93CF93DF9319
:1015000061E0809165055FDA6AEF70E080E090E06D
:101510008BDBC2DB009168051091690520916A059B
:1015200030916B05601771078207930740F41092A2
:1015300068051092690510926A0510926B0520915A
:101540006C05211115C00091680510916905209165
:101550006A0530916B05DC01CB01801B910BA20B5E
:10156000B30B803D9740A105B10510F481E074C034
:1015700010926C0591DB6093680570936905809308
:101580006A0590936B0510926305109262051092A4
:1015900061051092600510925F0561E0809165051C
:1015A00040DA60E0809165050EDA64E170E080E089
:1015B00090E03ADB61E08091650505DA8BE990E027
:1015C0000197F1F760E0809165052BDA10E081E08A
:1015D000C0E0D0E0E82EF12C80916505CCD98E15C5
:1015E0009F0519F4DF5FDF3FB9F780916505C3D927
:1015F000DF3FC1F0C43098F0C0FD11C0E12FE69587
:10160000E695E695F0E0E15AFA4F9081990F9083C4
:10161000209167052D1710F4916090831F5FCF5FB5
:10162000C535B9F61832B8F02091630530E0409125
:101630005F058091600590E0840F911D40916105E8
:10164000840F911D40916205840F911D99272817E1
:10165000390709F48BCF80E0DF91CF911F910F9173
:10166000FF90EF900895CF93DF93DC01ED91FC9113
:10167000EB01A881B981309711F01097C9F4109748
:1016800059F0EB012C813D81232B31F08C9190E0BE
:1016900091958195910914C0309781F0DC011496E1
:1016A0008D919C911597892B49F0808190E008C01D
:1016B000BD01CF01DF91CF910C94871B80E090E0BA
:1016C000DF91CF910895CF93DF93C4EBD3E060E037
:1016D0008A8579D960E08B85DF91CF9174C98F922B
:1016E0009F92AF92BF92CF92DF92EF92FF926B01E7
:1016F0007C01D2DA4B015C01C60ED71EE81EF91E32
:10170000CBDA681579058A059B0528F0C616D70639
:10171000E806F906A8F7FF90EF90DF90CF90BF9012
:10172000AF909F908F9008958F929F92AF92BF92AB
:101730000F931F93CF93DF93CDB7DEB7A1970FB66B
:10174000F894DEBF0FBECDBF19A2423008F44AE0C4
:101750008E010F5D1F4F842E912CA12CB12CA50161
:1017600094010E949B19E62FB901CA010150110989
:10177000EA3014F4E05D01C0E95CD801EC93232B5E
:10178000242B252B61F7B80180EB94E009DEA196AC
:101790000FB6F894DEBF0FBECDBFDF91CF911F9182
:1017A0000F91BF90AF909F908F9008951F93CF930C
:1017B000DF9300D000D0CDB7DEB7BC0180EC93E062
:1017C0004FDE80EC93E00E94220202973CF16EE42F
:1017D00072E0CE01019613D280EC93E00E940002E9
:1017E000682FCE0101966ED180EC93E00E9400023A
:1017F000682FCE01019666D18D819E81892B49F09B
:101800006EE173E089819A810E94871B11E0892B28
:1018100009F010E0CE010196D5D101C010E0812F72
:1018200026960FB6F894DEBF0FBECDBFDF91CF91E5
:101830001F910895CF92DF92EF92FF920F931F9323
:10184000CF93DF936C017A018B01C0E0D0E0CE151D
:10185000DF0581F0D8016D918D01D601ED91FC91EC
:101860000190F081E02DC6011995892B11F0219688
:10187000EECF7E01C701DF91CF911F910F91FF90B5
:10188000EF90DF90CF9008950F931F93CF93DF9346
:10189000EC0188819981009729F02A813B812617E4
:1018A000370788F48B016F5F7F4F0E949A1A009769
:1018B00061F0998388831B830A832C813D81232BCC
:1018C00011F4FC01108281E001C080E0DF91CF9132
:1018D0001F910F910895CF92DF92EF92FF92CF93D5
:1018E000DF936B017C016DE280EB94E00E94620269
:1018F000EC0166277727CB016C197D098E099F09BA
:101900004AE012DF8C0F9D1FDF91CF91FF90EF9087
:10191000DF90CF900895CF93DF931F921F92CDB7A2
:10192000DEB72091940530919505CE0101962115E1
:10193000310519F48859954018C0AC01421B530B6E
:10194000E0919605F091970580E090E0309759F08E
:101950009C012E5F3F4F80819181820F931F0280F7
:10196000F381E02DF3CF840F951F9A8389836981DA
:101970007A81072E000C880B990B97FF02C0ABDF12
:1019800002C04AE0D1DE0F900F90DF91CF91089511
:10199000BF92CF92DF92EF92FF920F931F93CF935C
:1019A000DF9348E0C42ED12CE12CF12CD2E0C1E031
:1019B0001FEF05EE55ECB52E809193058111FCCFFC
:1019C000D0939305C09392051093910510929005C2
:1019D00010928F0510926E0520916E05C601880F3A
:1019E000991F822B80936E0580916D05813069F47B
:1019F00010926D0580916E058093BB008091BC00B4
:101A000083FDF8CFB092BC0002C00093BC0080916F
:101A100093058230E1F3809191058F3FE1F0809151
:101A20009105803211F0809191058FEFC81AD80A84
:101A3000E80AF80A87E7C816D104E104F10409F0BE
:101A4000BBCFDF91CF911F910F91FF90EF90DF906F
:101A5000CF90BF9008954AE0C701B60165DE86E6E3
:101A600092E044DDC0936304E0CFEF92FF920F93C6
:101A70001F93CF93DF936115710511F480E01BC0B4
:101A800041155105B9F07B01EC018C819D818A01E2
:101A9000080F191FB801CE01F7DE882379F32881DA
:101AA00039818C819D81B701820F931F0E94901B09
:101AB0001D830C8381E0DF91CF911F910F91FF90E7
:101AC000EF900895CF93DF931F921F92CDB7DEB7AB
:101AD00069831A8241E050E0BE016F5F7F4FC5DF2E
:101AE0000F900F90DF91CF910895CF93DF93EC018A
:101AF00088819981009709F0AAD7198218821D82DE
:101B00001C821B821A82DF91CF910895CF93DF93BD
:101B1000EC016115710559F0FB0101900020E9F716
:101B20003197AF01461B570BA0DF811102C0CE01D8
:101B3000DCDFCE01DF91CF910895CF93DF93EC01ED
:101B4000FB0144815581608171818FDF811102C069
:101B5000CE01CBDFCE01DF91CF910895EF92FF92BE
:101B60000F931F93CF93DF93EC017B018A01BA019E
:101B70008BDE811103C0CE01B8DF07C01D830C834B
:101B8000B701888199810E94901BCE01DF91CF918E
:101B90001F910F91FF90EF900895CF93DF93EC0189
:101BA0006115710551F0FB0101900020E9F73197B3
:101BB000AF01461B570BD2DF01C097DFCE01DF918B
:101BC000CF910895FC018081918141C7FB01DC0127
:101BD00011961C921E9213961C921E9212971596A5
:101BE0001C921E9214978617970741F060817181AD
:101BF0006115710519F044815581B0CF0895FC013C
:101C0000118210821382128215821482611571056D
:101C100049F0FB0101900020E9F73197AF01461B25
:101C2000570B9CCF0895CF93DF93CDB7DEB7AA971C
:101C30000FB6F894DEBF0FBECDBF789484B5826036
:101C400084BD84B5816084BD85B5826085BD85B560
:101C5000816085BD80916E00816080936E001092DE
:101C60008100809181008260809381008091810059
:101C700081608093810080918000816080938000EA
:101C80008091B10084608093B1008091B000816048
:101C90008093B00080919100826080939100809148
:101CA0009100816080939100809190008160809389
:101CB00090008091A10082608093A1008091A1009A
:101CC00081608093A1008091A00081608093A0003A
:101CD00080912101826080932101809121018160A6
:101CE0008093210180912001816080932001809167
:101CF0007A00846080937A0080917A008260809379
:101D00007A0080917A00816080937A0080917A00D5
:101D1000806880937A001092C1001092A004109203
:101D2000A1041092A2041092A30410925F041092D6
:101D3000600410926104109262040E944C066B01D0
:101D40007C014B015C0148EB840E4BE0941EA11C0E
:101D5000B11C0E944C066C157D058E059F0528F070
:101D600086169706A806B906A0F760ED77E080E032
:101D700090E00E94140680EB94E021DB8BE292E07D
:101D8000B5DB6AE070E080E090E0A9DC81E0809360
:101D900074041092290310922803109227031092C2
:101DA0002603109293058093920510926D0561E0D1
:101DB00084E10E94E30461E085E10E94E3048091F4
:101DC000B9008E7F8093B9008091B9008D7F809398
:101DD000B90088E48093B80085E48093BC008FEA62
:101DE00093E0909325038093240380EB93E09093FA
:101DF0002303809322038DE392E078DB80916304D8
:101E0000811101C0C5DD84E492E070DB84E492E0DE
:101E10006DDB84E492E06ADB7EDD84E492E066DBE5
:101E200086E492E063DB6AE070E080E090E057DCFB
:101E300080EB94E0C4DA80EC93E0C1DA6FE472E006
:101E400089E595E0AADE6AE572E083E595E0A5DE26
:101E50001092420388E08093BA038BE08093BB0327
:101E60008CE08093BC038DE08093BD0389E0809378
:101E7000BE038AE08093BF0361E088E00E94110501
:101E800061E08091BB030E94110561E08091BC0379
:101E90000E94110561E08091BD030E94110561E07F
:101EA0008091BE030E94110561E08091BF030E94F2
:101EB000110509DC1092B60381E08093B903809389
:101EC000B5031092B8038CED8093B4038093B703ED
:101ED0006AD814D986D964E672E08DE495E05DDEB7
:101EE0000E944C0600914403109145032091460343
:101EF00030914703DC01CB01801B910BA20BB30B8C
:101F000086399105A105B10508F4B7C00E944C06B9
:101F10006093440370934503809346039093470373
:101F200061E070E080E090E0DADB8DE392E0DEDA01
:101F300080916304811101C02BDD61E070E080E0DD
:101F400090E0CDDB84E492E0D1DA10E000E0C12C37
:101F5000D12C760120E0822F012E01C0880F0A9437
:101F6000EAF7082B1F5F183031F085E3C816D1045B
:101F7000E104F10459F4602F70E080E090E04AE061
:101F8000D3DB86E692E0B2DA10E000E00E944C0675
:101F90004B015C012B013C019FEF491A590A690A68
:101FA000790A0E944C06681579058A059B0528F078
:101FB0004616570668067906A0F7AFEFCA1ADA0A7E
:101FC000EA0AFA0AB6E3CB16D104E104F10479F087
:101FD00051E0C516D104E104F10409F4BBCF8C2D06
:101FE0000E94BB0421E0892B09F0B5CFB3CF61E09B
:101FF00070E080E090E073DB84E492E077DA10E058
:1020000080917B00877F912F987F892B80937B0025
:10201000812F8770806480937C0080917A00806437
:1020200080937A0080917A0086FDFCCF80917800C1
:102030002091790090E0FC01F22BBF010F2E000CE3
:10204000880B990BF7FF02C046DC02C04AE06CDB4C
:1020500086E692E04BDA1F5F103191F684E492E05D
:1020600045DA59DC84E492E041DA86E492E03EDA33
:1020700061E070E080E090E032DB809142038530E7
:1020800069F480EC93E00E942202892B39F080EC05
:1020900093E00E9400028B3211F430D88FEF8093CE
:1020A000430380914203833011F40DDB9AD8809171
:1020B00051059091520510914303892B69F068E610
:1020C00072E080914D0590914E050E94871B892BEF
:1020D00019F41D3409F0EAC180910002181709F4BF
:1020E000E0C1109300028AE692E000DA60914303B7
:1020F00080EB94E00E9462028DE492E0F7D91091A7
:102100004303812F012E000C990BAA0BBB0BFC0182
:10211000E154F109EA31F10508F0C3C18827EE580E
:10212000FF4F8F4F0C94921A8FD9BBC18DD906C027
:102130006DD98CED8093B703B4C168D98CED8093D1
:10214000B403AFC187D9ADC161D9ABC165D9A9C14C
:10215000BADAA7C10E94D3076EE472E0CE014996B5
:102160004EDD42E050E06FE772E0CE0149967DDC43
:1021700008E313E032E4E32E33E0F32ED8018D912F
:102180009D918D011C8A1B8A1E8A1D8A188E1F8AAA
:102190004AE0BE016F5F7F4F09D5BE016F5F7F4F81
:1021A000CE014396FADC1A8219821C821B821E829F
:1021B0001D826B897C896115710529F04F89588DC5
:1021C000CE010196CBDC6FE2CE0101967BDC811162
:1021D00003C0CE01019689DC4D815E8169817A81DF
:1021E000CE01499642DCCE010196ECDCCE0143964D
:1021F000E9DCE016F10609F0C1CF41E050E062E809
:1022000072E0CE01499631DCBE01675E7F4F80EC03
:1022100093E026D9BE01675E7F4F80EB94E020D922
:10222000CE0149963DC16EE472E0CE010196E7DC35
:10223000E12CF12C173539F11F3209F58D819E8182
:10224000892B09F189819A81FC0120812223D9F00F
:10225000009711F085D403C060E070E0CB01F70176
:10226000EE0FFF1FE85CFC4F71836083FFEFEF1AF6
:10227000FF0A6EE472E0CE0101968FDC04C0612F8C
:10228000CE0101961FDC80EC93E00E940002182F23
:10229000183581F664E872E080EC93E0C3D8FEC0A4
:1022A00086E190E0A0E0B0E080932A0390932B03B6
:1022B000A0932C03B0932D038091380390913903A0
:1022C000909337038093360380913A0390913B03B8
:1022D000909335038093340380913C0390913D03A8
:1022E000909333038093320380913E0390913F0398
:1022F0009093310380933003809140039091410388
:1023000090932F0380932E039AE2E92E93E0F92E07
:1023100000E010E0D701DD907D01C801F6D7D816A6
:1023200019F06D2DC801F9D70F5F1F4F0E30110541
:1023300089F766E872E0ACC040E050E060E471E428
:10234000CE018596A4D8D6D8882371F180916605F0
:102350008B3009F148F18551823030F560915F058D
:1023600070E080E090E0BCD620E030E040E853E44C
:1023700018D76B017C016091600570E080E090E00F
:10238000B1D6A7019601FAD720E030E040E251E44F
:102390000E94221A06C060915F0570E080E090E024
:1023A0009FD64B015C0109C088E892E09FD8812C40
:1023B000912C80ECA82E8FE7B82E9CD88823C9F1E9
:1023C000809166058B3029F0A0F18551823050F064
:1023D00030C06091610570E080E090E081D66B01D3
:1023E0007C012BC010916105612F6F7770E080E058
:1023F00090E078D620E030E040E853E4D2D66B019C
:102400007C016091620570E080E090E06BD6A701EE
:102410009601B4D720E030E040E251E40E94221A55
:102420006B017C0117FF09C0F7FAF094F7F8F094FC
:1024300004C088E892E05AD817C1A7019601C701E5
:10244000B6010E948E1A81110FC1A5019401C50128
:10245000B4010E948E1A882309F435C105C168E6CB
:1024600072E0CE010196CBDBCE0101969FD9CE0161
:102470000196A8DB68E672E08DE495E08EDB11C082
:1024800022D964E672E08DE495E087DB64E672E0D1
:10249000CE010196B4DBCE01019688D9CE0101961A
:1024A00091DB8091430380930002DBC06091400385
:1024B00070914103072E000C880B990B13D66B010A
:1024C0007C019B01AC0160E070E0CB010E948A1AA4
:1024D00087FD08C00E942A0A64E670E080E090E070
:1024E0000E941406A701960160E070E0CB01F4D5CC
:1024F00087FF1AC060913E0370913F03072E000CC6
:10250000880B990BEFD59B01AC0160E070E0CB012B
:102510000E948A1A87FD08C00E94240A64E670E0BF
:1025200080E090E00E94140660913E0370913F03AA
:10253000072E000C880B990BD5D59B01AC0160E0F0
:1025400070E0CB01C9D587FF1FC060913C0370913B
:102550003D03072E000C880B990BC4D59B01AC01E1
:1025600060E070E0CB01D6D787FD0EC00E94240A40
:1025700060EA72E080EB94E00E94120A64E670E088
:1025800080E090E00E94140660913C0370913D034E
:10259000072E000C880B990BA5D59B01AC0160E0C0
:1025A00070E0CB0199D587FF19C060913A03709113
:1025B0003B03072E000C880B990B94D59B01AC01B3
:1025C00060E070E0CB01A6D787FD08C00E940C0A2E
:1025D00064E670E080E090E00E94140660913A03A7
:1025E00070913B03072E000C880B990B7BD59B0148
:1025F000AC0160E070E0CB016FD587FF19C060913E
:10260000380370913903072E000C880B990B6AD59B
:102610009B01AC0160E070E0CB017CD787FD08C076
:102620000E94060A64E670E080E090E00E941406D2
:102630006091380370913903072E000C880B990BB9
:1026400051D59B01AC0160E070E0CB0145D587FF1F
:1026500008C00E94060A64E670E080E090E00E94F4
:1026600014060E94CF023CCC67EA72E080EB94E053
:102670000E94120A62E972E0CE014396C0DABE01FE
:102680006B5D7F4FCE01439658DA63EE72E03EDA1F
:10269000BE016F5F7F4F51DABC01CE01499696DAD9
:1026A000CE0143968FDACE0101968CDABE01675EC9
:1026B0007F4F80EC93E00E94300ACE01499682DA87
:1026C000CE018596EDCEB701A601CE014F960E94B0
:1026D000470AB501A401CE0149960E94470A6FEB53
:1026E00072E0CE0101968BDABE01615E7F4FCE01B2
:1026F000019623DA6EEC72E009DA63ED72E006DA35
:10270000BE01675E7F4F19DA62EE72E0FFD9BC014D
:10271000CE0143965BDACE01019654DA8B899C890F
:102720009A8389838D899E899C838B838F89988DD9
:102730009E838D831C8A1B8A1E8A1D8A188E1F8A7F
:10274000CE0143963FDACE0149963CDACE014F9650
:1027500039DA90CF8DE495E035DA83E595E032DA29
:1027600089E595E02FCAE0ECF3E01382128288EE4F
:1027700093E0A0E0B0E084839583A683B7832BE049
:1027800032E03183208345E351E05587448744E3B9
:1027900051E05787468740E351E0518B408B41E33E
:1027A00051E0538B428B42E351E0558B448B46E31F
:1027B00051E0578B468B118E128E138E148EE0EBE8
:1027C000F4E01382128284839583A683B7833183D6
:1027D000208325EC30E03587248724EC30E03787F0
:1027E000268720EC30E0318B208B21EC30E0338BDE
:1027F000228B22EC30E0358B248B26EC30E0378BBB
:10280000268B118E128E138E148EEDE5F4E0178256
:1028100010861186128613861486158616861786EC
:10282000108A118A128A138A148A158A168AE4EA8F
:10283000F4E01382128284839583A683B7838DE1AB
:1028400092E09183808380EB94E00E94DF0961E055
:1028500086E10E94110560E087E10E94110561E0B8
:1028600088E10E94110560E089E10E94110561E0A4
:102870008AE10E94110560E08BE10E94110561E090
:102880008CE10E94110560E08DE10E94110561E07C
:102890008EE10E94110560E08FE10E94110561E068
:1028A00080E20E94110560E081E20E941105EFE5DF
:1028B000F5E086E386838BE0878386E0808781E08E
:1028C00085876EE472E089E595E099D96EE472E05F
:1028D00083E595E094D96EE472E08DE495E08FC9CC
:1028E000EF920F931F93CF93DF93E80147FD02C050
:1028F00034E001C034E1042E000C550B57FF03C037
:10290000519541955109E32E022F242FAE0186D116
:10291000CE01DF91CF911F910F91EF9008950F930A
:102920001F93CF93DF938230910510F482E090E003
:10293000E0919605F091970520E030E0A0E0B0E04E
:10294000309719F14081518102811381481759074D
:10295000C8F08417950769F4109731F012960C931C
:10296000129713961C9327C0009396051093970512
:1029700022C02115310519F04217530718F49A01A6
:10298000BD01EF01DF01F801DBCF21153105F9F0C1
:10299000281B390B2430310580F48A819B81611515
:1029A000710521F0FB019383828304C09093970506
:1029B00080939605FE01329644C0FE01E20FF31F9C
:1029C0008193919322503109398328833AC0209111
:1029D000940530919505232B41F420910302309109
:1029E00004023093950520939405209101023091C3
:1029F00002022115310541F42DB73EB74091050281
:102A000050910602241B350BE0919405F091950539
:102A1000E217F307A0F42E1B3F0B2817390778F0B5
:102A2000AC014E5F5F4F2417350748F04E0F5F1F14
:102A300050939505409394058193919302C0E0E0F3
:102A4000F0E0CF01DF91CF911F910F910895CF93C7
:102A5000DF93009709F481C0FC0132971382128240
:102A6000A0919605B0919705109781F4208131814E
:102A7000820F931F209194053091950528173907EF
:102A800051F5F0939505E093940567C0ED0120E0C2
:102A900030E0CE17DF0740F44A815B819E0141158B
:102AA0005105F1F0EA01F5CFD383C2834081518112
:102AB000840F951FC817D90759F488819981840F0D
:102AC000951F0296918380838A819B819383828361
:102AD0002115310529F4F0939705E09396053DC043
:102AE000E901FB83EA8349915991C40FD51FEC1783
:102AF000FD0761F480819181840F951F0296E901A1
:102B000099838883828193819B838A83E0E0F0E0CC
:102B100012968D919C911397009719F0FD01DC019D
:102B2000F7CF8D919C9111979D012E5F3F4F820FA2
:102B3000931F20919405309195052817390769F462
:102B4000309729F4109297051092960502C01382CF
:102B50001282B0939505A0939405DF91CF910895CB
:102B60001F93FC0199278827BC01E894119110322A
:102B7000E9F3193010F01E30C8F31B3249F01D3252
:102B800041F4689405C01CD0610F711D811D911D19
:102B9000119110531A30B8F33EF4909580957095CA
:102BA00061957F4F8F4F9F4F1F910895BB274A30EC
:102BB00031F4992322F4BDE2909581959F4F16C080
:102BC000592F482F372F262F660F771F881F991FE1
:102BD000660F771F881F991F620F731F841F951F31
:102BE000660F771F881F991F0895BB27FB01552784
:102BF000AA27880F991FAA1FA41710F0A41B83955A
:102C00005051B9F7A05DAA3308F0A95DA1930097D0
:102C100079F7B111B1931192CB014EC28F929F926D
:102C2000AF92BF92CF92DF92EF92FF920F931F93DA
:102C3000CF93DF93CDB7DEB729970FB6F894DEBFF9
:102C40000FBECDBF6A01122FB02E2BE3201720F04C
:102C5000FF24F394F00E02C02CE3F22E0F2D27E098
:102C6000AE014F5F5F4F50D1BC014981842F897005
:102C7000813031F0E1FC06C0E0FE06C090E205C004
:102C80009DE203C09BE201C090E05E2D507143FFC6
:102C90003CC0911102C083E001C084E0811718F4A8
:102CA000212F281B01C020E051110BC0F601822FFB
:102CB00030E2882319F031938150FBCFC20ED11C32
:102CC00020E0992329F0D6019C93F60131966F01FB
:102CD000C6010396E2FE0AC03EE4D6013C9341E4FD
:102CE00011964C93119712963C9306C03EE6F6015E
:102CF000308341E641833283FC01322F40E23323AB
:102D000009F442C041933150FACF42FF44C09111BF
:102D100002C083E001C084E0811718F4212F281B32
:102D200001C020E051110BC0F601822F30E2882350
:102D300019F031938150FBCFC20ED11C20E09923B2
:102D400029F0D6019C93F60131966F01C6010396D6
:102D5000E2FE0BC039E4D6013C933EE411963C936D
:102D6000119736E412963C9307C039E6F60130839A
:102D70003EE6318336E63283FC01322F40E23323D4
:102D800019F041933150FBCFFC01E20FF11D10828D
:102D90008EEF9FEFA6C021E030E0911102C020E04D
:102DA00030E0161617061CF4FB01319602C0E1E074
:102DB000F0E02E0F3F1FBB2021F0EB2DF0E031960D
:102DC00002C0E0E0F0E02E0F3F1FE12FF0E02E17F1
:102DD0003F071CF4121B212F01C020E08E2D8871AB
:102DE00059F4F601822F30E2882319F03193815093
:102DF000FBCFC20ED11C20E0992329F0D6019C9371
:102E0000F60131966F0151110BC0F601822F90E34C
:102E1000882319F091938150FBCFC20ED11C20E082
:102E20000F2D060F9A81342F307144FF03C0913368
:102E300009F40150101624F4093018F008E001C01C
:102E400001E0AB0177FF02C040E050E0FB01E41B72
:102E5000F50BA1E0B0E0AC0FBD1FEA0FFB1F8EE247
:102E6000A82E4B01801A91080B2D10E011950195A9
:102E700011094F3FBFEF5B0721F4D601AC921196C9
:102E80006D01641775072CF08416950614F4818182
:102E900001C080E3415051093196D60111967D0160
:102EA0004017510724F0D6018C936701E2CF6417D5
:102EB000750739F4963320F4953319F4311101C0B4
:102EC00081E3F6018083F701822F90E2882319F0D5
:102ED00091938150FBCFF701E20FF11D108280E04A
:102EE00090E029960FB6F894DEBF0FBECDBFDF91FC
:102EF000CF911F910F91FF90EF90DF90CF90BF90F7
:102F0000AF909F908F900895283008F027E03327E6
:102F1000DA01990F311D87FD9160009661057105F9
:102F200039F432602E5F3D9330E32A95E1F708953E
:102F30009F3F30F080387105610509F03C5F3C5FD0
:102F40003D93913008F08068911DDF93CF931F93DC
:102F50000F93FF92EF92192F987F9695E92F9695F0
:102F60009695E90FFF27E654FE4F99273327EE2465
:102F7000FF24A701E70105900894079428F4360F71
:102F8000E71EF81E491F511D660F771F881F991FE6
:102F90000694A1F70590079428F4E70EF81E491F40
:102FA000561FC11D770F881F991F661F0694A1F732
:102FB0000590079428F4F80E491F561FC71FD11D0E
:102FC000880F991F661F771F0694A1F70590079435
:102FD00020F4490F561FC71FD81F990F661F771F70
:102FE000881F0694A9F784911095177041F0D69523
:102FF000C79557954795F794E7941A95C1F7E0E67A
:10300000F1E0689415901591359165919591059031
:103010007FE27395E118F10A430B560BC90BD009F7
:10302000C0F7E10CF11E431F561FC91FD01D7EF4CF
:10303000703311F48A95E6CFE894015030F0080F10
:103040000AF40027021708F4202F2395022F7A3361
:1030500028F079E37D932A95E9F710C07D932A95AE
:1030600089F6069497956795379517951794E11803
:10307000F10A430B560BC90BD00998F023957E91AA
:1030800073957A3308F070E37C932013B8F77E9140
:1030900070617D9330F0839571E37D9370E32A95A1
:1030A000E1F71124EF90FF900F911F91CF91DF91E5
:1030B000992787FD90950895DC01FC01672F719198
:1030C0007723E1F7329704C07C916D93708362910E
:1030D000AE17BF07C8F3089540D008F481E0089503
:1030E000E89409C097FB3EF49095809570956195A2
:1030F0007F4F8F4F9F4F9923A9F0F92F96E9BB2758
:103100009395F695879577956795B795F111F8CFD3
:10311000FAF4BB0F11F460FF1BC06F5F7F4F8F4F3E
:103120009F4F16C0882311F096E911C0772321F034
:103130009EE8872F762F05C0662371F096E8862FCC
:1031400070E060E02AF09A95660F771F881FDAF723
:10315000880F9695879597F90895990F0008550F50
:10316000AA0BE0E8FEEF16161706E807F907C0F00D
:1031700012161306E407F50798F0621B730B840B15
:10318000950B39F40A2661F0232B242B252B21F4EF
:1031900008950A2609F4A140A6958FEF811D811D8F
:1031A00008950BD078C069D028F06ED018F0952320
:1031B00009F05AC05FC01124A2C07ED0A0F3959F31
:1031C000D1F3950F50E0551F629FF001729FBB270E
:1031D000F00DB11D639FAA27F00DB11DAA1F649FBA
:1031E0006627B00DA11D661F829F2227B00DA11D6D
:1031F000621F739FB00DA11D621F839FA00D611DF3
:10320000221F749F3327A00D611D231F849F600D13
:10321000211D822F762F6A2F11249F5750408AF04C
:10322000E1F088234AF0EE0FFF1FBB1F661F771FD8
:10323000881F91505040A9F79E3F510570F014C06F
:103240005EC05F3FECF3983EDCF38695779567951B
:10325000B795F795E7959F5FC1F7FE2B880F911DF6
:103260009695879597F9089597F99F6780E870E09C
:1032700060E008959FEF80EC089500240A941616EC
:10328000170618060906089500240A941216130654
:10329000140605060895092E0394000C11F48823E2
:1032A00052F0BB0F40F4BF2B11F460FF04C06F5FFE
:1032B0007F4F8F4F9F4F089557FD9058440F551FD4
:1032C00059F05F3F71F04795880F97FB991F61F0A8
:1032D0009F3F79F087950895121613061406551F1F
:1032E000F2CF4695F1DF08C0161617061806991F8B
:1032F000F1CF86957105610508940895E894BB2780
:1033000066277727CB0197F90895F999FECF92BDEB
:1033100081BDF89A992780B50895262FF999FECF97
:103320001FBA92BD81BD20BD0FB6F894FA9AF99AE2
:103330000FBE01960895A1E21A2EAA1BBB1BFD0128
:103340000DC0AA1FBB1FEE1FFF1FA217B307E40784
:10335000F50720F0A21BB30BE40BF50B661F771FDC
:10336000881F991F1A9469F76095709580959095BC
:103370009B01AC01BD01CF0108955058BB27AA277E
:103380000ED089CF7ADF30F07FDF20F031F49F3F1D
:1033900011F41EF46FCF0EF4E095E7FB65CFE92F33
:1033A0008BDF80F3BA17620773078407950718F05D
:1033B00071F49EF5A3CF0EF4E0950B2EBA2FA02D3D
:1033C0000B01B90190010C01CA01A0011124FF27D2
:1033D000591B99F0593F50F4503E68F11A16F040CD
:1033E000A22F232F342F4427585FF3CF46953795CC
:1033F0002795A795F0405395C9F77EF41F16BA0B91
:10340000620B730B840BBAF09150A1F0FF0FBB1F3E
:10341000661F771F881FC2F70EC0BA0F621F731F87
:10342000841F48F4879577956795B795F7959E3FE4
:1034300008F0B3CF9395880F08F09927EE0F979572
:10344000879508950CD027CF1FDF40F016DF30F0AE
:1034500021F45F3F19F008CF511151CF0BCF2CDF72
:1034600098F39923C9F35523B1F3951B550BBB274B
:10347000AA2762177307840738F09F5F5F4F220FF8
:10348000331F441FAA1FA9F333D00E2E3AF0E0E8F1
:1034900030D091505040E695001CCAF729D0FE2F3D
:1034A00027D0660F771F881FBB1F261737074807CF
:1034B000AB07B0E809F0BB0B802DBF01FF27935885
:1034C0005F4F2AF09E3F510568F0CECE18CF5F3F88
:1034D000ECF3983EDCF3869577956795B795F7956D
:1034E0009F5FC9F7880F911D9695879597F9089565
:1034F000E1E0660F771F881FBB1F62177307840701
:10350000BA0720F0621B730B840BBA0BEE1F88F70F
:10351000E095089522DE08F48FEF08951EDE880BF3
:10352000990B0895EE0FFF1F881F8BBF0790F69130
:10353000E02D19946F927F928F929F92AF92BF92DB
:10354000CF92DF92EF92FF920F931F93CF93DF936F
:10355000009781F4CB01DF91CF911F910F91FF90E4
:10356000EF90DF90CF90BF90AF909F908F907F9023
:103570006F90D5C9FC01E60FF71F9C01225031095D
:10358000E217F30708F4A5C0EC01D9010D911C91D5
:10359000119706171707A8F00530110508F497C012
:1035A000C80104978617970708F491C002501109C3
:1035B000061B170B019311936D937C93CF0147DA90
:1035C00086C05B01A01AB10A4C01800E911EA09129
:1035D0009605B0919705612C712CE12CF12C109778
:1035E00009F446C08D919C911197A815B905B1F5C4
:1035F0006C0142E0C40ED11CCA14DB0478F14C010A
:103600008A189B08640142E0C40ED11C1296BC903B
:1036100012971396AC91B5E0CB16D10440F0B2826C
:10362000A38391828082D9016D937C9309C00E5F40
:103630001F4F800F911FF90191838083EB2DFA2F8B
:10364000E114F10431F0D7011396FC93EE93129735
:103650003EC0F0939705E093960539C06816790649
:1036600008F43C017D0112960D90BC91A02DB7CFBE
:10367000809194059091950588169906E1F4661657
:103680007706C8F48091010290910202009741F4FC
:103690008DB79EB74091050250910602841B950B91
:1036A000E817F907B0F4F0939505E0939405F90154
:1036B000718360830CC0CB0132D97C01009749F043
:1036C000A801BE011BD0CE01C2D9C70104C0CE01E2
:1036D00002C080E090E0DF91CF911F910F91FF90A9
:1036E000EF90DF90CF90BF90AF909F908F907F90A2
:1036F0006F90089581E090E0F89419C0FB01DC011F
:1037000002C001900D9241505040D8F70895FB013E
:10371000DC018D91019080190110D9F3990B089566
:10372000FB01DC0101900D920020E1F7089511E00A
:10373000CEEBD1E000E005C0802FFE01F3DE219644
:10374000011DCF3BD10780E00807B1F7F894FFCF08
:10375000490000980580000000000062021A0CF188
:1037600001AE0222020002140200000000E703DDA5
:1037700003F803B103D503C103B203564D445056B9
:103780005F317C315F564D4450560D0A00564D4412
:1037900050525F007C005F564D4450520D0A00436A
:1037A0004F4E4E454354494E4700434F4E4E4543BE
:1037B000544544004D003A0041004E6F7576656CEB
:1037C0006C6520636F6D6D616E6465203A20004FFB
:1037D0002F005800570051005265616420666169EE
:1037E0006C005A2F44697374616E6365203A20003F
:1037F0004176616E6365004661696C656420746F33
:1038000020726561642066726F6D204448540054D4
:10381000656D70C3A97261747572653A2000C2B09B
:10382000432F00487967726F6DC3A9747269653A56
:103830002000252F006368617267657220706172D5
:10384000616D004572726575722073747275637470
:1038500000757064617465207461622070617261CA
:103860006D004154005041495241424C45004F4B7C
:02387000000056
:00000001FF
