:10000000BEC10000EDC10000EBC10000E9C100006D
:10001000E7C10000E5C10000E3C10000E1C100004C
:10002000DFC10000DDC10000DBC10000D9C100005C
:10003000D7C10000D5C10000D3C10000D1C100006C
:10004000CFC10000CDC10000CBC10000C9C100007C
:10005000C7C10000C5C10000C3C10000A3C50000A6
:10006000BFC10000D6C30000ABC30000B9C100008F
:10007000B7C10000B5C10000B3C10000B1C10000AC
:10008000AFC10000ADC10000ABC10000A9C10000BC
:10009000A7C10000A5C10000A3C10000CDC500009C
:1000A0009FC100009DC100009BC1000099C10000DC
:1000B00097C1000095C1000093C1000091C10000EC
:1000C0008FC100008DC100008BC1000089C10000FC
:1000D00087C1000085C100003DC3000012C30000BD
:1000E0007FC100001610BE0E2C10AE0E2C10AC0EF0
:1000F000B00EB70E2C10B20E2C10C00E21102C100A
:10010000C60E2C106D0FBC0EC20E2C102C102C1015
:100110002B0F2C102C10700F5A045D044C0450044B
:1001200056049404610465046B046F047304790439
:100130007D048104940487048B048F0426052B0519
:1001400030053A054405BD054E0556055E056805B2
:1001500072057C058B059505BD059F05A905B305B1
:1001600000407A10F35A00A0724E18090010A5D46E
:10017000E80000E87648170000E40B54020000CACB
:100180009A3B000000E1F505000080969800000011
:1001900040420F000000A086010000001027000070
:1001A0000000E803000000006400000000000A00F6
:1001B000000000000100000000002C76D888DC67F9
:1001C0004F0823DFC1DFAE59E1B1B796E5E3E45351
:1001D000C63AE651997696E8E6C28426EB898C9B6E
:1001E00062ED407C6FFCEFBC9C9F40F2BAA56FA50E
:1001F000F490055A2AF75C936B6CF9676DC11BFC90
:10020000E0E40D47FEF520E6B500D0ED902E0300AA
:10021000943577050080841E080000204E0A0000F7
:1002200000C80C333333330F986E12831141EF8DB6
:100230002114893BE65516CFFEE6DB18D1844B38F6
:100240001BF77C1D901DA4BBE424203284725E2227
:100250008100C9F124ECA1E53D2700002000230026
:10026000260029002C002F003200000100000301AD
:100270000601090105050505070508080808020229
:1002800002020A0A08080404040401010101010130
:1002900001010303030303030303040707070C0C13
:1002A0000C0C0C0C0C0C02020202060606060606DA
:1002B00006060B0B0B0B0B0B0B0B0102102020087F
:1002C00008102040102040800201020108040201B1
:1002D0000102040810204080804020100804020120
:1002E0008004020180402010080402010804020179
:1002F0000102040810204080010204081020408000
:1003000000000A0B02090C0D0E080703040100008F
:1003100000000000000000000000000000000000DD
:10032000000000000000000000000000121110009A
:1003300000000000000000000000000000000000BD
:1003400000000000000000002100240027002A0017
:100350002D003000330001010000040107010A01F3
:1003600000002200250028002B002E003100340060
:1003700002010000050108010B010F1109111124F0
:100380001FBECFEFD1E2DEBFCDBF00E00CBF12E059
:10039000A0E0B2E0E4EFF0E300E00BBF02C00790A2
:1003A0000D92A83BB107D9F725E0A8EBB2E001C058
:1003B0001D92A733B207E1F711E0CEEBD1E000E0E8
:1003C00006C021970109802FFE010E946417CD3BD2
:1003D000D10780E00807A9F70E94BB0B0C946918AD
:1003E0000FCEFC01538D448D252F30E0842F90E0FB
:1003F000821B930B541710F0CF9608950197089520
:10040000FC01918D828D981761F0828DDF01A80F1C
:10041000B11D5D968C91928D9F5F9F73928F90E03E
:1004200008958FEF9FEF0895FC01918D828D9817AD
:1004300031F0828DE80FF11D858D90E008958FEFEA
:100440009FEF0895FC01918D228D892F90E0805CB3
:100450009F4F821B91098F739927089588E893E035
:10046000F1DF21E0892B09F420E0822F089585E255
:1004700094E0E8DF21E0892B09F420E0822F089541
:10048000FC01848DDF01A80FB11DA35ABF4F2C9131
:10049000848D90E001968F739927848FA689B78900
:1004A0002C93A089B1898C91837080648C93938DF7
:1004B000848D981306C00288F389E02D80818F7D9A
:1004C00080830895EF92FF920F931F93CF93DF9352
:1004D000EC0181E0888F9B8D8C8D981305C0E88995
:1004E000F989808185FD25C0F62E0B8D10E00F5F08
:1004F0001F4F0F731127E02E8C8DE8120BC00FB623
:1005000007FCFACFE889F989808185FFF5CFCE0114
:10051000B7DFF2CF8B8DFE01E80FF11DE35AFF4FDD
:10052000F0829FB7F8940B8FEA89FB898081806203
:100530000AC09FB7F894EE89FF896083E889F9893A
:1005400080818370806480839FBF81E090E0DF9131
:10055000CF911F910F91FF90EF900895CF93DF936C
:10056000EC01888D8823C1F0EA89FB89808185FDB3
:1005700005C0A889B9898C9186FD0EC00FB607FC0D
:10058000F5CF808185FFF2CFA889B9898C9185FF4D
:10059000EDCFCE0175DFE8CFDF91CF91089580E0F8
:1005A00090E0892B19F063DF811120C080E090E09A
:1005B000892B41F080E090E0892B21F00E9400001F
:1005C000811117C080E090E0892B41F080E090E03D
:1005D000892B21F00E94000081110EC080E090E084
:1005E000892B79F03BDF81110AC008950E94000039
:1005F000DDCF0E940000E6CF0E940000EFCF0C94F8
:100600000000089585ED8093BC008091BC0084FDBE
:10061000FCCF10927B03089540912903262F30E0F0
:10062000240F311D21323105DCF420917B0324306D
:10063000C9F4FC0180E090E0861758F4309129035A
:100640002191DC01A75FBC4FA30FB11D2C93019634
:10065000F3CF80912903680F6093290380E0089508
:1006600081E0089582E00895089508950895E09145
:10067000BF028091BE02E81730F4F0E0E751FD4F71
:10068000808190E008958FEF9FEF08959091BF02D1
:100690008091BE02981750F4E92FF0E0E751FD4F2A
:1006A000208130E09F5F9093BF0202C02FEF3FEFA9
:1006B000C90108958091BE0290E02091BF02821B83
:1006C00091090895CF93DF93CB01EA01642FA4DF52
:1006D000CE01DF91CF910895CF93DF931F92CDB7D5
:1006E000DEB7698361E0CE01019696DF81E090E09C
:1006F0000F90DF91CF91089580E090E008950E94DF
:100700004C181F920F920FB60F9211240BB60F9236
:100710002F933F934F935F936F937F938F939F9309
:10072000AF93BF93EF93FF9388E893E0A9DEFF9127
:10073000EF91BF91AF919F918F917F916F915F9159
:100740004F913F912F910F900BBE0F900FBE0F90C6
:100750001F9018951F920F920FB60F9211240BB68F
:100760000F922F938F939F93EF93FF93E0919803B2
:10077000F09199038081E0919E03F0919F0382FDA7
:1007800012C090818091A1038F5F8F732091A2038B
:10079000821751F0E091A103F0E0E857FC4F958FEC
:1007A0008093A10301C08081FF91EF919F918F9170
:1007B0002F910F900BBE0F900FBE0F901F901895AA
:1007C0001F920F920FB60F9211240BB60F922F9318
:1007D0003F934F935F936F937F938F939F93AF93C9
:1007E000BF93EF93FF9385E294E04ADEFF91EF9190
:1007F000BF91AF919F918F917F916F915F914F9139
:100800003F912F910F900BBE0F900FBE0F901F9036
:1008100018951F920F920FB60F9211240BB60F92DC
:100820002F938F939F93EF93FF93E0913504F09173
:1008300036048081E0913B04F0913C0482FD12C0BB
:10084000908180913E048F5F8F7320913F048217C7
:1008500051F0E0913E04F0E0EB5DFB4F958F80930B
:100860003E0401C08081FF91EF919F918F912F9164
:100870000F900BBE0F900FBE0F901F90189590E039
:10088000FC013197E231F10508F04EC08827E457AA
:10089000FF4F8F4F0C946417809180008F7703C0B7
:1008A000809180008F7D80938000089580918000EA
:1008B000877FF9CF84B58F7702C084B58F7D84BDE3
:1008C00008958091B0008F7703C08091B0008F7D34
:1008D0008093B0000895809190008F7707C0809139
:1008E00090008F7D03C080919000877F809390005F
:1008F00008958091A0008F7707C08091A0008F7D20
:1009000003C08091A000877F8093A000089580910C
:1009100020018F7707C0809120018F7D03C08091D7
:100920002001877F8093200108951F93CF93DF9349
:10093000282F30E0F901E050FD4F8491F901E65491
:10094000FD4FD491F901EC58FD4FC491CC23B9F07F
:10095000162F811194DFEC2FF0E0EE0FFF1FE05A0D
:10096000FC4FA591B4919FB7F894111104C08C91DC
:10097000D095D82302C0EC91DE2BDC939FBFDF9192
:10098000CF911F910895CF93DF9390E0FC01E6543F
:10099000FD4F2491FC01EC58FD4F8491882361F1B7
:1009A00090E0880F991FFC01EA5BFC4FC591D49140
:1009B000FC01E05AFC4FA591B491611109C09FB7A9
:1009C000F8948881209582238883EC912E230BC094
:1009D000623061F49FB7F8948881322F3095832379
:1009E0008883EC912E2B2C939FBF06C08FB7F89471
:1009F000E8812E2B28838FBFDF91CF9108951F931D
:100A0000CF93DF93182FEB0161E0BDDF209711F446
:100A100060E004C0CF3FD10531F461E0812FDF9168
:100A2000CF911F9182CFE12FF0E0E050FD4FE49194
:100A30008E2F90E0FC013197E231F10508F09DC066
:100A40008827E256FF4F8F4F0C94641784B5806857
:100A500084BDC7BD97C084B5806284BDC8BD92C047
:100A600080918000806880938000D0938900C0933B
:100A7000880088C080918000806280938000D0933D
:100A80008B00C0938A007EC0809180008860809334
:100A90008000D0938D00C0938C0074C08091B00012
:100AA00080688093B000C093B3006CC08091B000A8
:100AB00080628093B000C093B40064C080919000C5
:100AC000806880939000D0939900C09398005AC09A
:100AD00080919000806280939000D0939B00C0939F
:100AE0009A0050C080919000886080939000D093CD
:100AF0009D00C0939C0046C08091A00080688093B8
:100B0000A0008091A0008F7B8093A000D093A900CB
:100B1000C093A80037C08091A00080628093A0009D
:100B2000D093AB00C093AA002DC08091A000886034
:100B30008093A000D093AD00C093AC0023C08091FF
:100B40002001806880932001D0932901C09328015F
:100B500019C080912001806280932001D0932B01E5
:100B6000C0932A010FC080912001886080932001EA
:100B7000D0932D01C0932C0105C0C038D1050CF0D5
:100B80004CCF46CFDF91CF911F9108952FB7F894A6
:100B900060915103709152038091530390915403DB
:100BA0002FBF08951F920F920FB60F9211242F930B
:100BB0003F938F939F93AF93BF93809151039091F5
:100BC0005203A0915303B09154033091500323E09A
:100BD000230F2D3720F40196A11DB11D05C026E875
:100BE000230F0296A11DB11D209350038093510342
:100BF00090935203A0935303B093540380914C03FA
:100C000090914D03A0914E03B0914F030196A11D09
:100C1000B11D80934C0390934D03A0934E03B0936A
:100C20004F03BF91AF919F918F913F912F910F9063
:100C30000FBE0F901F9018951F920F920FB60F9234
:100C400011240BB60F922F933F934F935F936F93A3
:100C50007F938F939F93AF93BF93EF93FF93809175
:100C6000B900887F803609F49CC068F5883209F4A1
:100C70005BC090F4803109F454C038F4882309F43F
:100C8000F6C0883009F44DC0F5C0883109F44CC075
:100C9000803209F45DC0EEC0803409F468C048F4C5
:100CA000803309F455C0883309F0E4C08093790398
:100CB000D8C0803509F44FC0883509F45DC0883448
:100CC00009F0D8C0D6C0883909F4C7C0A8F488375D
:100CD00009F467C038F4883609F463C0803709F432
:100CE00060C0C8C0883809F4B8C0803909F45FC052
:100CF000803809F0BFC05BC0803B09F486C038F47F
:100D0000803A09F466C0883A09F47FC0B3C0803CD9
:100D100009F4A7C0883C09F4A4C0883B09F48AC040
:100D2000A9C08091560310C09091780380917703F9
:100D3000981770F5E091780381E08E0F8093780327
:100D4000F0E0E95AFC4F80818093BB0085EC86C0BF
:100D5000809379038EC0E091780381E08E0F8093B9
:100D600078038091BB00F0E0E95AFC4F80839091BA
:100D70007803809177036EC0E091780381E08E0F55
:100D8000809378038091BB00F0E0E95AFC4F8083A8
:100D900080917A0381116DC081E08093550384EACC
:100DA00061C083E080937B0310924B03CFCF80918F
:100DB0004B03803208F051C0E0914B0381E08E0F6D
:100DC00080934B038091BB00F0E0E55DFC4F808396
:100DD000BDCF85EC8093BC0010927B0380914B03C8
:100DE000803230F4E0914B03F0E0E55DFC4F10827F
:100DF00060914B0370E0E091B802F091B9028BE290
:100E000093E0199510924B0335C084E080937B03E7
:100E100010922A0310922903E091BA02F091BB02CA
:100E2000199580912903811105C081E080932903E0
:100E300010920903E0912A0381E08E0F80932A0328
:100E4000F0E0E75FFC4F80818093BB0090912A0324
:100E500080912903981708F479CF85E88093BC0026
:100E600009C085EC8093BC0010927B0303C01092F4
:100E70007903C8DBFF91EF91BF91AF919F918F9163
:100E80007F916F915F914F913F912F910F900BBE8A
:100E90000F900FBE0F901F901895FF920F931F9306
:100EA000CF93DF9386E190E0A0E0B0E08093DB0297
:100EB0009093DC02A093DD02B093DE028091C40225
:100EC0009091C5029093E8028093E7028091C60258
:100ED0009091C7029093E6028093E5028091C80248
:100EE0009091C9029093E4028093E3028091CA0238
:100EF0009091CB029093E2028093E1028091CC0228
:100F00009091CD029093E0028093DF020BED12E00E
:100F1000C0E0D0E0F801F1908F01CE010E94C01630
:100F2000F81621F06F2DCE010E94C8162196CE3002
:100F3000D10581F765EB72E088E893E0DF91CF910E
:100F40001F910F91FF9087C10F931F93CF93DF9352
:100F50000BED12E0C0E0D0E0CE010E94C016F80117
:100F600081938F012196CE30D105B1F78091DB02BC
:100F70009091DC02A091DD02B091DE024697A105BE
:100F8000B105F1F08AE090E09093E8028093E702E7
:100F90008EE190E09093E6028093E50282E390E098
:100FA0009093E4028093E30286E490E09093E2025F
:100FB0008093E10284E690E09093E0028093DF0268
:100FC0008091E7029091E8029093C5028093C40259
:100FD0008091E5029091E6029093C7028093C60249
:100FE0008091E3029091E4029093C9028093C80239
:100FF0008091E1029091E2029093CB028093CA0229
:101000008091DF029091E0029093CD028093CC0218
:10101000DF91CF911F910F9140CF0F931F9360E00D
:101020008091230582DC83E090E00197F1F761E095
:10103000809123057ADC83E290E00197F1F760E08C
:101040008091230572DC80912505909126059927D2
:10105000FC01E654FD4F6491FC01EC58FD4FE49116
:10106000F0E0EE0FFF1FE65AFD4F8591949100E4EA
:1010700012E42FE030E0462F39D361157105810568
:10108000910549F0DC01CB010196A11DB11DBC0108
:10109000CD019F7003C060E070E0CB010E94AD15F0
:1010A00020912705309128054091290550912A0566
:1010B0000E94F81620E030E040E05FE30E940C164A
:1010C0006093C0027093C1028093C2029093C302E6
:1010D0001F910F9108950F931F93CF93DF93C82F04
:1010E000D62F80917E03861317C0CC2319F010E011
:1010F00001E002C011E000E060917C03062E000CCC
:10110000770B809186037BDC602F809182030DDC5E
:10111000612F8091830309DC80918103D8131BC068
:10112000CC2319F0C0E0D1E002C0C1E0D0E0609172
:101130007F03062E000C770B8091870360DC6D2FF8
:1011400080918403F2DB6C2F80918503DF91CF9136
:101150001F910F91EACBDF91CF911F910F910895CD
:101160000F931F93CF93DF93EC01888199810097B0
:1011700029F02A813B812617370788F48B016F5F9E
:101180007F4F0E946C17009761F0998388831B83BF
:101190000A832C813D81232B11F4FC01108281E014
:1011A00001C080E0DF91CF911F910F910895FC0164
:1011B000A089B18982E08C93A485B5851C92A6850F
:1011C000B7858FEC8C93108EA489B58986E08C93BB
:1011D000A289B3898C9180618C93A289B3898C9107
:1011E00088608C93A289B3898C9180688C930288E3
:1011F000F389E02D80818F7D8083089561E081E017
:101200006ADF60E080E067CF61E080E064DF60E09B
:1012100080E061CF60E081E05EDF61E080E05BCF95
:1012200061E081E058DF60E081E055CFCF93DF934C
:10123000FC01448155816081718188E893E003D28B
:10124000EC016BE472E088E893E03BD28C0F9D1FC9
:10125000DF91CF9108950F931F93CF93DF93EC010C
:1012600030D28C016BE472E0CE012BD2800F911F43
:10127000DF91CF911F910F910895CF93DF93CCE72A
:10128000D3E060E08A8551DB60E08B85DF91CF9110
:101290004CCB8F929F92AF92BF92CF92DF92EF9200
:1012A000FF926B017C0172DC4B015C01C60ED71E04
:1012B000E81EF91E6BDC681579058A059B0528F088
:1012C000C616D706E806F906A8F7FF90EF90DF905C
:1012D000CF90BF90AF909F908F900895F2C18F9262
:1012E0009F92AF92BF92EF92FF920F931F93CF9373
:1012F000DF93CDB7DEB7A1970FB6F894DEBF0FBE70
:10130000CDBF7C01FA01CB0119A2223008F42AE0FA
:101310008E010F5D1F4F822E912CA12CB12CBF018D
:10132000A50194010E94D616F901CA0101501109C4
:101330006A3014F4605D01C0695CD8016C93232BA2
:10134000242B252B61F7B801C701BBD1A1960FB69D
:10135000F894DEBF0FBECDBFDF91CF911F910F91EB
:10136000FF90EF90BF90AF909F908F900895CF9295
:10137000DF92EF92FF920F931F93CF93DF93EC01D5
:101380006A017B01E881F9810190F081E02D6DE235
:1013900019958C0144275527BA014C195D096E092E
:1013A0007F092AE0CE019BDF800F911FDF91CF9153
:1013B0001F910F91FF90EF90DF90CF900895CF9302
:1013C000DF931F921F92CDB7DEB720913305309186
:1013D0003405CE0101962115310519F48753954046
:1013E00018C0AC01421B530BE0913505F091360556
:1013F00080E090E0309759F09C012E5F3F4F808154
:101400009181820F931F0280F381E02DF3CF840F2F
:10141000951F9A83898349815A818091050590910E
:101420000605052E000C660B770B77FF02C09FDFC9
:1014300002C02AE054DF0F900F90DF91CF91089502
:10144000BF92CF92DF92EF92FF920F931F93CF93B1
:10145000DF9348E0C42ED12CE12CF12CD2E0C1E086
:101460001FEF05EE55ECB52E80917B038111FCCF6B
:10147000D0937B03C0937A0310937903109278037F
:10148000109277031092560320915603C601880FDD
:10149000991F822B8093560380915503813069F404
:1014A00010925503809156038093BB008091BC003D
:1014B00083FDF8CFB092BC0002C00093BC008091C5
:1014C0007B038230E1F3809179038F3FE1F08091DB
:1014D0007903803211F0809179038FEFC81AD80A0E
:1014E000E80AF80A87E7C816D104E104F10409F014
:1014F000BBCFDF91CF911F910F91FF90EF90DF90C5
:10150000CF90BF9008952AE0B701A601809105050C
:1015100090910605E4DE61E872E080910505909106
:101520000605DCDEC093C804D8CFEF92FF920F937C
:101530001F93CF93DF936115710511F480E01BC0F9
:1015400041155105B9F07B01EC018C819D818A0127
:10155000080F191FB801CE0103DE882379F3288113
:1015600039818C819D81B701820F931F0E9462187F
:101570001D830C8381E0DF91CF911F910F91FF902C
:10158000EF900895CF93DF93EC01888199810097C4
:1015900009F098D7198218821D821C821B821A8238
:1015A000DF91CF910895CF93DF93EC016115710521
:1015B00059F0FB0101900020E9F73197AF01461B7C
:1015C000570BB3DF811102C0CE01DCDFCE01DF910A
:1015D000CF910895EF92FF920F931F93CF93DF93D4
:1015E000EC017B018A01BA01BBDD811103C0CE0190
:1015F000C9DF07C01D830C83B701888199810E94D0
:101600006218CE01DF91CF911F910F91FF90EF9063
:101610000895CF93DF93EC016115710551F0FB0143
:1016200001900020E9F73197AF01461B570BD2DF3D
:1016300001C0A8DFCE01DF91CF910895FC01808128
:10164000918140C70895CF92DF92EF92FF920F935E
:101650001F93CF93DF936C017A018B01C0E0D0E040
:10166000CE15DF0581F0D8016D918D01D601ED9188
:10167000FC910190F081E02DC6011995892B11F0A4
:101680002196EECF7E01C701DF91CF911F910F917F
:10169000FF90EF90DF90CF900895FC0111821082AF
:1016A00013821282158214826115710549F0FB01C3
:1016B00001900020E9F73197AF01461B570B8ACF05
:1016C00008956115710579F0FB0101900020E9F79B
:1016D0003197AF01461B570BDC01ED91FC91028065
:1016E000F381E02D199480E090E00895CF92DF928D
:1016F000EF92FF920F931F93E82FF92F05C001502F
:1017000011092109310961F1908196239417B9F3E8
:1017100005C0015011092109310911F19081962369
:101720009413F7CFC12CD12CE12CF12C0AC08FEFF0
:10173000C81AD80AE80AF80A0C151D052E053F0537
:1017400079F080818623841791F36C2D7D2D8E2D69
:101750009F2D1F910F91FF90EF90DF90CF900895F4
:1017600060E070E080E090E01F910F91FF90EF90BB
:10177000DF90CF900895CF93DF93CDB7DEB7AF97CB
:101780000FB6F894DEBF0FBECDBF789484B58260EB
:1017900084BD84B5816084BD85B5826085BD85B515
:1017A000816085BD80916E00816080936E00109293
:1017B000810080918100826080938100809181000E
:1017C000816080938100809180008160809380009F
:1017D0008091B10084608093B1008091B0008160FD
:1017E0008093B000809191008260809391008091FD
:1017F000910081608093910080919000816080933E
:1018000090008091A10082608093A1008091A1004E
:1018100081608093A1008091A00081608093A000EE
:10182000809121018260809321018091210181605A
:10183000809321018091200181608093200180911B
:101840007A00846080937A0080917A00826080932D
:101850007A0080917A00816080937A0080917A008A
:10186000806880937A001092C10010920705109250
:1018700008051092090510920A051092C4041092EE
:10188000C5041092C6041092C70468EB7BE080E0A8
:1018900090E0FFDC85E294E09093060580930505D7
:1018A00086DC74D96093C4047093C5048093C60425
:1018B0009093C7046AE272E0809105059091060555
:1018C0000DDD6AE070E080E090E0E3DC81E0809391
:1018D000D9041092BF021092BE021092BD02109263
:1018E000BC0210927B0380937A031092550361E04F
:1018F00084E11BD861E085E118D88091B9008E7F22
:101900008093B9008091B9008D7F8093B90088E4FD
:101910008093B80085E48093BC0084E393E09093C7
:10192000BB028093BA0285E393E09093B90280935F
:10193000B8022CD90091C4041091C5042091C604AA
:101940003091C704DC01CB01801B910BA20BB30BC0
:1019500082339105A105B10568F442E350E060E0EF
:1019600070E05A016B01A81AB90ACA0ADB0AC6015B
:10197000B5018FDC0BD96093C4047093C5048093C8
:10198000C6049093C7046CE372E0809105059091C2
:101990000605A4DC8091C804811101C051DD63E417
:1019A00072E0809105059091060598DC63E472E091
:1019B000809105059091060591DC63E472E08091C9
:1019C0000505909106058ADCFADC63E472E08091FB
:1019D00005059091060582DC65E472E080910505BD
:1019E000909106057BDC6AE070E080E090E051DCDD
:1019F00085E294E0DCDB88E893E0D9DB88E0809343
:101A000082038BE0809383038CE0809384038DE0DA
:101A10008093850389E0809386038AE0809387031F
:101A200061E088E00E94C30461E0809183030E942A
:101A3000C30461E0809184030E94C30461E080914B
:101A400085030E94C30461E0809186030E94C30461
:101A500061E0809187030E94C3040FDC10927E0333
:101A600081E08093810380937D031092800384EB57
:101A700080937C0380937F0367DA6EE472E085E2F3
:101A800094E0E9DB67E572E085E294E0E4DB68E797
:101A900072E085E294E0DFDB67E572E085E294E0E6
:101AA000DADB7E0102E2E00EF11C70D80091D70271
:101AB0001091D8022091D9023091DA02DC01CB01D9
:101AC000801B910BA20BB30B86399105A105B105C3
:101AD00008F4D9C05BD86093D7027093D802809382
:101AE000D9029093DA0261E070E080E090E0D1DB0F
:101AF0004DD86093C4047093C5048093C60490933A
:101B0000C7046CE372E08091050590910605E6DB61
:101B10008091C804811101C093DC61E070E080E035
:101B200090E0B7DB63E472E08091050590910605D3
:101B3000D5DB00E010E0D12CC12C812C912C54017C
:101B400047C30F5F1F4F21E082169104A104B10427
:101B500009F43EC3F801E050FD4F8491F801E654CA
:101B6000FD4F7490F801EC58FD4F6490662009F425
:101B70002FC381110E943F04E62DF0E0EE0FFF1FFE
:101B8000E65AFD4FA591B491EC917E2209F420C351
:101B900081E00C2C01C0880F0A94EAF7D82AC3947C
:101BA00038E0C31609F416C345E384169104A10472
:101BB000B10409F40FC361E070E080E090E069DBFC
:101BC0008FEF881A980AA80AB80A0533110509F098
:101BD000B8CF61E070E080E090E05BDB63E472E04E
:101BE000809105059091060579DB10E080917B00DE
:101BF000877F912F987F892B80937B00812F87701F
:101C0000806480937C0080917A00806480937A0065
:101C100080917A0086FDFCCF209178008091790038
:101C200030E0382B8091050590910605A901032E1F
:101C3000000C660B770B37FFE1C299DB61E872E0BD
:101C4000809105059091060549DB1F5F103171F603
:101C500063E472E080910505909106053FDBAFDB00
:101C600063E472E0809105059091060537DB65E439
:101C700072E0809105059091060530DB61E070E02F
:101C800080E090E006DB0E94C6056093D30270936B
:101C9000D4028093D5029093D6020091CF02109186
:101CA000D0022091D1023091D2025B016C01A01AC6
:101CB000B10AC20AD30A44EFA41641E0B406C10433
:101CC000D10448F06093CF027093D0028093D10288
:101CD0009093D202A2D98091D3029091D402A09184
:101CE000D502B091D6024091CF025091D0026091BE
:101CF000D1027091D2025C016D01A41AB50AC60A24
:101D0000D70AB601A5014A3051056105710508F4ED
:101D1000A3C18093CF029093D002A093D102B0933D
:101D2000D20288E893E00E9400028093CE028F3FA7
:101D300009F492C1082E000C990BAA0BBB0BFC01F5
:101D4000E154F109EA31F10508F086C18827EE581F
:101D5000FF4F8F4F0C9464175DDA7EC15BDA03C0CE
:101D600059DA06C04BDA84EB80937F0375C146DAFB
:101D700084EB80937C0370C153DA6EC13FDA6CC18F
:101D800043DA6AC17ADA63E872E057C1DDD86DE4FC
:101D900072E0CE01889681DC42E050E065E872E0B6
:101DA000CE018896C2DB04EC12E09EECC92E92E0D4
:101DB000D92E2FE2B22EF801819191918F011BA2B1
:101DC0001AA21DA21CA21FA21EA24AE0BE016F5FA2
:101DD0007F4F27D4BE016F5F7F4FC7011ADC1A8285
:101DE00019821C821B821E821D826AA17BA1611541
:101DF000710529F04EA15FA1CE010196EBDBBEA6D5
:101E00001FA641E050E0BE01625D7F4FCE0101960A
:101E10008CDB811103C0CE010196B4DB4D815E8164
:101E200069817A81CE01889680DBCE01019606DC3D
:101E3000C70104DCC016D10609F0BDCF41E050E077
:101E400068E872E0CE01889670DBCE018896EED904
:101E5000CE018896E9C06DE472E0CE0101961DDCEA
:101E600000E010E088E893E00E940002883569F104
:101E70008735C1F38F3201F58D819E81892B91F3D6
:101E800089819A81FC012081222361F3009711F05E
:101E9000A2D303C060E070E0CB01F801EE0FFF1F9A
:101EA000EC53FD4F718360830F5F1F4F6DE472E051
:101EB000CE010196AEDBD6CF8AA31BA241E050E053
:101EC000B701CE01019631DBCDCF6AE872E088E838
:101ED00093E0C1D9CE010196A7C00E944D07BCC0B6
:101EE0006091C0027091C1028091C2029091C302C0
:101EF0001BA21AA21DA21CA21FA21EA28E010F5F6E
:101F00001F4F22E044E027D2BC01C70182DB809151
:101F10001D0590911E05009781F06AA17BA16115B6
:101F2000710551F040911F05509120052EA13FA150
:101F30004217530708F065C1C5D28AA19BA19093AF
:101F40001E0580931D058CA19DA190932005809373
:101F50001F058EA19FA190932205809321051BA2AE
:101F60001AA21DA21CA21FA21EA2C70167DB6CE859
:101F700072E0CE01019691DB40912105509122053E
:101F800060911D0570911E05CE010196CEDA81117A
:101F900003C0CE010196F6DA66E872E0CE01019642
:101FA00002DB6AE972E0FFDA6BEA72E0FCDA66E80B
:101FB00072E0F9DA6AE972E0F6DA6BEA72E0F3DA13
:101FC00066E872E0F0DA6AE972E0EDDA6BEA72E094
:101FD000EADA66E872E0E7DA6AE972E0E4DA6BEA24
:101FE00072E0E1DA66E872E0DEDA6AE972E0DBDA32
:101FF0006BEA72E0D8DA1BA21AA21DA21CA21FA2D1
:102000001EA28E159F0551F0FC0160817181611542
:10201000710521F044815581C701DCDACE010196BA
:102020000DDBC70103D9C70109DB16C061EB72E004
:1020300088E893E010D961EB72E087E195E0E9DA96
:102040000BC01BD963EB72E087E195E0E2DA63EB4A
:1020500072E088E893E0FFD880911B0590911C0501
:10206000892B09F4B2C061EB72E080911705909161
:1020700018050E945918892B09F0A7C06091CC025D
:102080007091CD02072E000C880B990B66D52B01A1
:102090003C018090C0029090C102A090C202B0901A
:1020A000C302A501940153D587FDBAD8A5019401B7
:1020B000C301B20105D787FD10C06091CA027091BB
:1020C000CB02072E000C880B990B47D59B01AC0166
:1020D000C501B401F5D687FF9DD86091CA02709101
:1020E000CB0261507109072E000C880B990B35D576
:1020F0009B01AC01C501B4012AD5181684F060918A
:10210000C8027091C902072E000C880B990B25D5C7
:102110009B01AC01C501B401D3D687FF7BD8609188
:10212000C8027091C90261507109072E000C880B1A
:10213000990B13D59B01AC01C501B40108D5181644
:1021400084F06091C6027091C702072E000C880BC4
:10215000990B03D59B01AC01C501B401B1D687FF32
:1021600053D86091C6027091C70261507109072E61
:10217000000C880B990BF1D49B01AC01C501B40193
:10218000E6D4181684F06091C4027091C502072E3F
:10219000000C880B990BE1D49B01AC01C501B40183
:1021A0008FD687FF2BD86091C4027091C502072E8D
:1021B000000C880B990BD1D49B01AC01C501B40173
:1021C000C6D487FD1BD80E940D080E94CF026DCC9B
:1021D00080E0DFCC4D2D50E060E070E02AE080919F
:1021E0000505909106057BD861E872E080910505B0
:1021F0009091060573D8C12CD12CDDCC2AE06FD884
:102200001DCD60D78EA19FA19093220580932105BB
:10221000AACE87E195E012DA8DE195E00FCAE8E8F1
:10222000F3E01382128288EE93E0A0E0B0E08483B2
:102230009583A683B7832AE032E03183208345E388
:1022400051E05587448744E351E05787468740E390
:1022500051E0518B408B41E351E0538B428B42E381
:1022600051E0558B448B46E351E0578B468B118EE2
:10227000128E138E148EE5E2F4E0138212828483B0
:102280009583A683B7833183208325EC30E035879F
:10229000248724EC30E03787268720EC30E0318B30
:1022A000208B21EC30E0338B228B22EC30E0358B1D
:1022B000248B26EC30E0378B268B118E128E138EFA
:1022C000148EE2ECF4E017821086118612861386D3
:1022D0001486158616861786108A118A128A138A22
:1022E000148A158A168AEBE0F5E013821282848341
:1022F0009583A683B7838CE192E09183808361E02C
:1023000085E00E94C30460E083E00E94C304E3E22E
:10231000F5E085E090E09183808383E090E0938313
:10232000828385E89CEFACEDB1E484839583A6833A
:10233000B7838CE993E5ACE8B2E480879187A28704
:10234000B3876DE472E08DE195E0A7D963EB72E0AD
:1023500087E195E0A2C9EF920F931F93CF93DF938C
:10236000E80147FD02C034E001C034E1042E000C56
:10237000550B57FF03C0519541955109E32E022F8C
:10238000242FAE0186D1CE01DF91CF911F910F9105
:10239000EF9008950F931F93CF93DF9382309105B1
:1023A00010F482E090E0E0913505F091360520E0F0
:1023B00030E0A0E0B0E0309719F140815181028116
:1023C000138148175907C8F08417950769F41097C7
:1023D00031F012960C93129713961C9327C000931A
:1023E00035051093360522C02115310519F0421725
:1023F000530718F49A01BD01EF01DF01F801DBCFAB
:1024000021153105F9F0281B390B2430310580F4F2
:102410008A819B816115710521F0FB019383828381
:1024200004C09093360580933505FE01329644C072
:10243000FE01E20FF31F81939193225031093983FA
:1024400028833AC02091330530913405232B41F481
:10245000209102023091030230933405209333051A
:1024600020910002309101022115310541F42DB770
:102470003EB74091040250910502241B350BE091B8
:102480003305F0913405E217F307A0F42E1B3F0B40
:102490002817390778F0AC014E5F5F4F24173507D6
:1024A00048F04E0F5F1F50933405409333058193DE
:1024B000919302C0E0E0F0E0CF01DF91CF911F9156
:1024C0000F910895CF93DF93009709F481C0FC0129
:1024D000329713821282A0913505B091360510977C
:1024E00081F420813181820F931F20913305309137
:1024F00034052817390751F5F0933405E093330577
:1025000067C0ED0120E030E0CE17DF0740F44A81DC
:102510005B819E0141155105F1F0EA01F5CFD383AE
:10252000C28340815181840F951FC817D90759F480
:1025300088819981840F951F0296918380838A8177
:102540009B81938382832115310529F4F09336050D
:10255000E09335053DC0E901FB83EA834991599138
:10256000C40FD51FEC17FD0761F480819181840FA2
:10257000951F0296E90199838883828193819B83C9
:102580008A83E0E0F0E012968D919C91139700977A
:1025900019F0FD01DC01F7CF8D919C9111979D0100
:1025A0002E5F3F4F820F931F2091330530913405EA
:1025B0002817390769F4309729F4109236051092DC
:1025C000350502C013821282B0933405A0933305FF
:1025D000DF91CF9108951F93FC0199278827BC01B3
:1025E000E89411911032E9F3193010F01E30C8F35D
:1025F0001B3249F01D3241F4689405C01CD0610FB4
:10260000711D811D911D119110531A30B8F33EF4C4
:1026100090958095709561957F4F8F4F9F4F1F913B
:102620000895BB274A3031F4992322F4BDE29095F6
:1026300081959F4F16C0592F482F372F262F660F91
:10264000771F881F991F660F771F881F991F620FBA
:10265000731F841F951F660F771F881F991F08958A
:10266000BB27FB015527AA27880F991FAA1FA4176C
:1026700010F0A41B83955051B9F7A05DAA3308F060
:10268000A95DA193009779F7B111B1931192CB0194
:102690004EC28F929F92AF92BF92CF92DF92EF92F3
:1026A000FF920F931F93CF93DF93CDB7DEB7299798
:1026B0000FB6F894DEBF0FBECDBF6A01122FB02E49
:1026C0002BE3201720F0FF24F394F00E02C02CE33C
:1026D000F22E0F2D27E0AE014F5F5F4F50D1BC01AE
:1026E0004981842F8970813031F0E1FC06C0E0FE21
:1026F00006C090E205C09DE203C09BE201C090E0ED
:102700005E2D507143FF3CC0911102C083E001C0B7
:1027100084E0811718F4212F281B01C020E05111FB
:102720000BC0F601822F30E2882319F031938150DB
:10273000FBCFC20ED11C20E0992329F0D6019C9337
:10274000F60131966F01C6010396E2FE0AC03EE42F
:10275000D6013C9341E411964C93119712963C9309
:1027600006C03EE6F601308341E641833283FC0138
:10277000322F40E2332309F442C041933150FACF63
:1027800042FF44C0911102C083E001C084E0811780
:1027900018F4212F281B01C020E051110BC0F601B5
:1027A000822F30E2882319F031938150FBCFC20E83
:1027B000D11C20E0992329F0D6019C93F601319693
:1027C0006F01C6010396E2FE0BC039E4D6013C93CB
:1027D0003EE411963C93119736E412963C9307C061
:1027E00039E6F60130833EE6318336E63283FC017A
:1027F000322F40E2332319F041933150FBCFFC01DB
:10280000E20FF11D10828EEF9FEFA6C021E030E0B5
:10281000911102C020E030E0161617061CF4FB01EF
:10282000319602C0E1E0F0E02E0F3F1FBB2021F007
:10283000EB2DF0E0319602C0E0E0F0E02E0F3F1FFC
:10284000E12FF0E02E173F071CF4121B212F01C0CF
:1028500020E08E2D887159F4F601822F30E2882312
:1028600019F031938150FBCFC20ED11C20E0992387
:1028700029F0D6019C93F60131966F0151110BC0DE
:10288000F601822F90E3882319F091938150FBCFBA
:10289000C20ED11C20E00F2D060F9A81342F30710B
:1028A00044FF03C0913309F40150101624F4093099
:1028B00018F008E001C001E0AB0177FF02C040E082
:1028C00050E0FB01E41BF50BA1E0B0E0AC0FBD1F35
:1028D000EA0FFB1F8EE2A82E4B01801A91080B2DE8
:1028E00010E01195019511094F3FBFEF5B0721F4EF
:1028F000D601AC9211966D01641775072CF0841601
:10290000950614F4818101C080E34150510931964C
:10291000D60111967D014017510724F0D6018C9302
:102920006701E2CF6417750739F4963320F49533C5
:1029300019F4311101C081E3F6018083F701822F80
:1029400090E2882319F091938150FBCFF701E20FB9
:10295000F11D108280E090E029960FB6F894DEBF5A
:102960000FBECDBFDF91CF911F910F91FF90EF90E0
:10297000DF90CF90BF90AF909F908F9008952830B8
:1029800008F027E03327DA01990F311D87FD9160A8
:1029900000966105710539F432602E5F3D9330E396
:1029A0002A95E1F708959F3F30F080387105610561
:1029B00009F03C5F3C5F3D93913008F08068911DC9
:1029C000DF93CF931F930F93FF92EF92192F987F6E
:1029D0009695E92F96959695E90FFF27E654FE4FB9
:1029E00099273327EE24FF24A701E70105900894D7
:1029F000079428F4360FE71EF81E491F511D660F75
:102A0000771F881F991F0694A1F70590079428F453
:102A1000E70EF81E491F561FC11D770F881F991F0B
:102A2000661F0694A1F70590079428F4F80E491F35
:102A3000561FC71FD11D880F991F661F771F069449
:102A4000A1F70590079420F4490F561FC71FD81F00
:102A5000990F661F771F881F0694A9F78491109518
:102A6000177041F0D695C79557954795F794E79419
:102A70001A95C1F7E0E6F1E068941590159135914B
:102A80006591959105907FE27395E118F10A430BEA
:102A9000560BC90BD009C0F7E10CF11E431F561F9E
:102AA000C91FD01D7EF4703311F48A95E6CFE894E7
:102AB000015030F0080F0AF40027021708F4202F05
:102AC0002395022F7A3328F079E37D932A95E9F74D
:102AD00010C07D932A9589F606949795679537954A
:102AE00017951794E118F10A430B560BC90BD0093F
:102AF00098F023957E9173957A3308F070E37C9378
:102B00002013B8F77E9170617D9330F0839571E367
:102B10007D9370E32A95E1F71124EF90FF900F91D8
:102B20001F91CF91DF91992787FD90950895DC0142
:102B3000FC01672F71917723E1F7329704C07C91F4
:102B40006D9370836291AE17BF07C8F3089540D0AC
:102B500008F481E00895E89409C097FB3EF490954D
:102B60008095709561957F4F8F4F9F4F9923A9F066
:102B7000F92F96E9BB279395F695879577956795F5
:102B8000B795F111F8CFFAF4BB0F11F460FF1BC039
:102B90006F5F7F4F8F4F9F4F16C0882311F096E9CC
:102BA00011C0772321F09EE8872F762F05C066237A
:102BB00071F096E8862F70E060E02AF09A95660F33
:102BC000771F881FDAF7880F9695879597F90895EC
:102BD000990F0008550FAA0BE0E8FEEF161617062E
:102BE000E807F907C0F012161306E407F50798F096
:102BF000621B730B840B950B39F40A2661F0232BAF
:102C0000242B252B21F408950A2609F4A140A6952A
:102C10008FEF811D811D08950BD078C069D028F0F9
:102C20006ED018F0952309F05AC05FC01124A2C0DD
:102C30007ED0A0F3959FD1F3950F50E0551F629F72
:102C4000F001729FBB27F00DB11D639FAA27F00D05
:102C5000B11DAA1F649F6627B00DA11D661F829F2C
:102C60002227B00DA11D621F739FB00DA11D621F11
:102C7000839FA00D611D221F749F3327A00D611D2E
:102C8000231F849F600D211D822F762F6A2F112410
:102C90009F5750408AF0E1F088234AF0EE0FFF1F63
:102CA000BB1F661F771F881F91505040A9F79E3F9A
:102CB000510570F014C05EC05F3FECF3983EDCF34A
:102CC000869577956795B795F795E7959F5FC1F7D7
:102CD000FE2B880F911D9695879597F9089597F982
:102CE0009F6780E870E060E008959FEF80EC0895B2
:102CF00000240A94161617061806090608950024DB
:102D00000A9412161306140605060895092E039454
:102D1000000C11F4882352F0BB0F40F4BF2B11F4C8
:102D200060FF04C06F5F7F4F8F4F9F4F089557FD27
:102D30009058440F551F59F05F3F71F04795880F29
:102D400097FB991F61F09F3F79F0879508951216C0
:102D500013061406551FF2CF4695F1DF08C016166C
:102D600017061806991FF1CF86957105610508941D
:102D70000895E894BB2766277727CB0197F9089534
:102D8000F999FECF92BD81BDF89A992780B5089533
:102D9000262FF999FECF1FBA92BD81BD20BD0FB677
:102DA000F894FA9AF99A0FBE01960895A1E21A2EA4
:102DB000AA1BBB1BFD010DC0AA1FBB1FEE1FFF1FDF
:102DC000A217B307E407F50720F0A21BB30BE40B2F
:102DD000F50B661F771F881F991F1A9469F7609576
:102DE0007095809590959B01AC01BD01CF01089530
:102DF0000CD08CCF84DF40F07BDF30F021F45F3FDC
:102E000019F06DCF5111B6CF70CF91DF98F39923A0
:102E1000C9F35523B1F3951B550BBB27AA2762179E
:102E20007307840738F09F5F5F4F220F331F441FE3
:102E3000AA1FA9F333D00E2E3AF0E0E830D091501B
:102E40005040E695001CCAF729D0FE2F27D0660F08
:102E5000771F881FBB1F261737074807AB07B0E847
:102E600009F0BB0B802DBF01FF2793585F4F2AF05D
:102E70009E3F510568F033CF7DCF5F3FECF3983E26
:102E8000DCF3869577956795B795F7959F5FC9F7BA
:102E9000880F911D9695879597F90895E1E0660F43
:102EA000771F881FBB1F621773078407BA0720F0BC
:102EB000621B730B840BBA0BEE1F88F7E095089525
:102EC00087DE08F48FEF0895EE0FFF1F881F8BBF7A
:102ED0000790F691E02D19946F927F928F929F92B6
:102EE000AF92BF92CF92DF92EF92FF920F931F9318
:102EF000CF93DF93009781F4CB01DF91CF911F91A6
:102F00000F91FF90EF90DF90CF90BF90AF909F9088
:102F10008F907F906F903ECAFC01E60FF71F9C01D7
:102F200022503109E217F30708F4A5C0EC01D901DA
:102F30000D911C91119706171707A8F00530110580
:102F400008F497C0C80104978617970708F491C042
:102F500002501109061B170B019311936D937C937B
:102F6000CF01B0DA86C05B01A01AB10A4C01800E15
:102F7000911EA0913505B0913605612C712CE12C84
:102F8000F12C109709F446C08D919C911197A815CA
:102F9000B905B1F56C0142E0C40ED11CCA14DB04C2
:102FA00078F14C018A189B08640142E0C40ED11CE0
:102FB0001296BC9012971396AC91B5E0CB16D10443
:102FC00040F0B282A38391828082D9016D937C9379
:102FD00009C00E5F1F4F800F911FF90191838083FD
:102FE000EB2DFA2FE114F10431F0D7011396FC9385
:102FF000EE9312973EC0F0933605E093350539C045
:103000006816790608F43C017D0112960D90BC917A
:10301000A02DB7CF8091330590913405881699067D
:10302000E1F466167706C8F48091000290910102DF
:10303000009741F48DB79EB740910402509105026C
:10304000841B950BE817F907B0F4F0933405E0936F
:103050003305F901718360830CC0CB019BD97C01DE
:10306000009749F0A801BE011BD0CE012BDAC701A1
:1030700004C0CE0102C080E090E0DF91CF911F91AB
:103080000F91FF90EF90DF90CF90BF90AF909F9007
:103090008F907F906F90089581E090E0F89419C030
:1030A000FB01DC0102C001900D9241505040D8F765
:1030B0000895FB01DC018D91019080190110D9F375
:1030C000990B0895FB01DC0101900D920020E1F7BE
:1030D000089511E0CEEBD1E000E005C0802FFE01A5
:1030E000F3DE2196011DCF3BD10780E00807B1F741
:0430F000F894FFCF82
:1030F400000037058000000000006202230BF1018C
:10310400AE02220200021402000000006C036203FB
:103114007C0336035A0346033703564D4450565F27
:10312400317C315F564D4450560D0A00564D445083
:10313400525F007C005F564D4450520D0A0070618E
:10314400697261626C65002A2D2D2D2D2D2D2D2D7A
:103154002D2D2D2D2D2D2D2D2D2D2D2D2D2D2D2D9B
:103164002D2D2D2D2D2D2A00636F6E6E65637465D4
:10317400003A0053004F2F00580057005A2F44695B
:103184007374616E6365203A200054656D70EFBFFF
:10319400BD726174757265203A200032312E30326E
:0831A4000041004D0051000044
:020000023000CC
:10E000000D9489F10D94B2F10D94B2F10D94B2F129
:10E010000D94B2F10D94B2F10D94B2F10D94B2F1F0
:10E020000D94B2F10D94B2F10D94B2F10D94B2F1E0
:10E030000D94B2F10D94B2F10D94B2F10D94B2F1D0
:10E040000D94B2F10D94B2F10D94B2F10D94B2F1C0
:10E050000D94B2F10D94B2F10D94B2F10D94B2F1B0
:10E060000D94B2F10D94B2F10D94B2F10D94B2F1A0
:10E070000D94B2F10D94B2F10D94B2F10D94B2F190
:10E080000D94B2F10D94B2F10D94B2F10D94B2F180
:10E090000D94B2F10D94B2F10D94B2F10D94B2F170
:10E0A0000D94B2F10D94B2F10D94B2F10D94B2F160
:10E0B0000D94B2F10D94B2F10D94B2F10D94B2F150
:10E0C0000D94B2F10D94B2F10D94B2F10D94B2F140
:10E0D0000D94B2F10D94B2F10D94B2F10D94B2F130
:10E0E0000D94B2F141546D656761323536300041AF
:10E0F000726475696E6F206578706C6F72657220DE
:10E1000073746B3530305632206279204D4C530099
:10E11000426F6F746C6F616465723E004875683F52
:10E1200000436F6D70696C6564206F6E203D200048
:10E130004350552054797065202020203D20005FF9
:10E140005F4156525F415243485F5F3D2000415658
:10E1500052204C696243205665723D20004743437C
:10E160002056657273696F6E203D20004350552024
:10E1700049442020202020203D20004C6F7720663D
:10E18000757365202020203D20004869676820665F
:10E190007573652020203D200045787420667573D6
:10E1A00065202020203D20004C6F636B2066757336
:10E1B000652020203D20004D617220203720323024
:10E1C000313300312E362E3800342E332E350056A2
:10E1D00023202020414444522020206F7020636F70
:10E1E00064652020202020696E73747275637469E1
:10E1F0006F6E2061646472202020496E74657272B3
:10E20000757074006E6F20766563746F7200726A49
:10E210006D702020006A6D70200057686174207056
:10E220006F72743A00506F7274206E6F7420737541
:10E2300070706F72746564004D7573742062652030
:10E2400061206C6574746572002000577269747483
:10E25000696E672045450052656164696E672045B7
:10E26000450045452065727220636E743D00504F35
:10E27000525400303D5A65726F2061646472003FF1
:10E280003D43505520737461747300403D454550C3
:10E29000524F4D207465737400423D426C696E6B41
:10E2A000204C454400453D44756D70204545505215
:10E2B0004F4D00463D44756D7020464C415348001B
:10E2C000483D48656C70004C3D4C69737420492F83
:10E2D0004F20506F72747300513D51756974005234
:10E2E0003D44756D702052414D00563D73686F7707
:10E2F00020696E7465727275707420566563746FF0
:10E30000727300593D506F727420626C696E6B00BD
:10E310002A0011241FBECFEFD1E2DEBFCDBF01E046
:10E320000CBF12E0A0E0B2E0EEE1FDEF03E00BBFB6
:10E3300002C007900D92A030B107D9F712E0A0E01B
:10E34000B2E001C01D92AE30B107E1F70F9460F367
:10E350000D948DFE01E20EBF0FEF0DBF11241FBE05
:10E360000D9460F30D9400F020E030E040ED57E0B4
:10E3700005C0FA013197F1F72F5F3F4F2817390792
:10E38000C0F308959C01260F311DC901A0E0B0E043
:10E390002F5F3F4FABBFFC018791882361F08093D3
:10E3A000C6008091C00086FFFCCF8091C0008064D1
:10E3B0008093C000EACF08958DE08093C6008091DD
:10E3C000C00086FFFCCF8091C00080648093C000B5
:10E3D0008AE08093C6008091C00086FFFCCF8091C8
:10E3E000C00080648093C00008950F94C2F10F9420
:10E3F000DCF10895FC019081992359F09093C600B7
:10E400008091C00086FFFCCF8091C0008064809323
:10E41000C0003196992379F70895282F982F929567
:10E420009F70892F805D8A3308F0895F8093C600D2
:10E430008091C00086FFFCCF8091C00080648093F3
:10E44000C000822F8F70982F905D9A3308F0995FEB
:10E450009093C6008091C00086FFFCCF8091C000E1
:10E4600080648093C00008959C01FB01853691056E
:10E470001CF46330710594F0C90164E670E00F94F8
:10E480002EFE605D7F4F6093C6008091C00086FFC6
:10E49000FCCF8091C00080648093C0002B30310598
:10E4A00014F43297B4F0C90164E670E00F942EFEC4
:10E4B0006AE070E00F942EFE605D7F4F6093C600AF
:10E4C0008091C00086FFFCCF8091C0008064809363
:10E4D000C000C9016AE070E00F942EFEC0968093E0
:10E4E000C6008091C00086FFFCCF8091C000806490
:10E4F0008093C00008951F93182F8EE692EE60E07F
:10E500000F94C2F11093C6008091C00086FFFCCF2B
:10E510008091C00080648093C0000F94DCF11F9153
:10E5200008952F923F924F925F926F927F928F92B7
:10E530009F92AF92BF92CF92DF92EF92FF920F9392
:10E540001F93DF93CF93CDB7DEB762970FB6F894E2
:10E55000DEBF0FBECDBF382E622ECA01DB015C01CB
:10E560006D01772420E2222E2E010894411C511CBB
:10E570008BC081E0A81680E0B80681E0C80680E084
:10E58000D80628F0C601AA27BB270F940DF2BB2797
:10E59000AD2D9C2D8B2D0F940DF28A2D0F940DF225
:10E5A0002092C6008091C00086FFFCCF8091C00001
:10E5B00080648093C0009DE29093C6008091C0006B
:10E5C00086FFFCCF8091C00080648093C0002092C1
:10E5D000C6008091C00086FFFCCF8091C00080649F
:10E5E0008093C00019828601750188249924A1E0D6
:10E5F0003A1651F03A1620F0B2E03B1661F409C029
:10E600000BBFF701779007C0C7010F9477FE782EF4
:10E6100002C0F7017080872D0F940DF22092C60082
:10E620008091C00086FFFCCF8091C0008064809301
:10E63000C000872D8052F401EF70F0708F3520F408
:10E64000E40DF51D708204C0E40DF51D8EE280839B
:10E650000894E11CF11C011D111D0894811C911CE2
:10E6600090E18916910409F0C2CF80E190E0A0E02A
:10E67000B0E0A80EB91ECA1EDB1E198AC2010F9493
:10E68000FAF10F94DCF16A94662009F072CF629679
:10E690000FB6F894DEBF0FBECDBFCF91DF911F91B3
:10E6A0000F91FF90EF90DF90CF90BF90AF909F9031
:10E6B0008F907F906F905F904F903F902F90089534
:10E6C0002F923F924F925F926F927F928F929F9282
:10E6D000AF92BF92CF92DF92EF92FF920F931F9370
:10E6E000DF93CF93CDB7DEB7CD53D1400FB6F894BB
:10E6F000DEBF0FBECDBF01E20EBF0FEF0DBF94B75F
:10E70000F894A89514BE80916000886180936000A1
:10E7100010926000789493FF05C0E0910002F091A0
:10E7200001021995279A2F9A8091C00082608093E8
:10E73000C00080E18093C40088E18093C1000000A4
:10E74000EE24FF24870144E0A42EB12CCC24DD2448
:10E7500024C0C5010197F1F70894E11CF11C011DCB
:10E76000111D21E2E2162EE4F20620E0020720E06D
:10E77000120718F031E0C32ED12CC801B70127ECE5
:10E780003BE140E050E00F9441FE611571058105C9
:10E79000910519F485B1805885B98091C00087FD35
:10E7A00003C0C114D104A9F2A6014F5F5F4FC25E3E
:10E7B000DE4F59834883CE51D140C25EDE4F8881FF
:10E7C0009981CE51D140019711F00D9410FEC05D9A
:10E7D000DE4F19821882C053D14060E0C15DDE4F28
:10E7E0001882CF52D14088249924C35DDE4F19820C
:10E7F0001882CD52D140C05EDE4F188219821A8233
:10E800001B82C052D140CE5CDE4F188219821A8220
:10E810001B82C253D140EE24FF2487010BBFF701B6
:10E8200007911691C45CDE4F19830883CC53D14005
:10E830000D940BFEC25EDE4F28813981CE51D1404E
:10E840002130310509F52091C600C25EDE4F1982E4
:10E850001882CE51D14022C02F5F3F4F4F4F5F4FA4
:10E86000213082E138078AE7480780E0580780F0C6
:10E87000C45CDE4FE881F981CC53D140EF5FFF4F9C
:10E8800019F0EE27FF27099420E030E040E050E047
:10E890008091C00087FFE0CF2091C600C35DDE4FAE
:10E8A00048815981CD52D1404F5F5F4FC35DDE4FEC
:10E8B00059834883CD52D140213209F063C64A3092
:10E8C000510508F05FC60894811C911C53E0851621
:10E8D000910409F059C600E010E018C081E280936D
:10E8E000C6008091C00086FFFCCF8091C00080648C
:10E8F0008093C0002F5F3F4F2931310579F70F9486
:10E90000DCF10F5F1F4F0530110519F020E030E0FA
:10E91000E5CF10920A0210920B0210920C02109294
:10E920000D02109206021092070210920802109235
:10E930000902109202021092030210920402109235
:10E9400005028FEE90EE60E00F94F5F180E191EE1C
:10E9500060E00F94C2F18091C00087FFFCCF9091DE
:10E96000C600903608F09F759032B8F09093C600BC
:10E970008091C00086FFFCCF8091C00080648093AE
:10E98000C000A0E2A093C6008091C00086FFFCCF2B
:10E990008091C00080648093C000983409F4D7C18E
:10E9A0009934B8F4923409F459C1933458F490333B
:10E9B00019F1903308F4E3C59F33A1F1903409F0C5
:10E9C000DEC5BDC0953409F470C1963409F0D7C5D1
:10E9D00098C1923509F42BC2933538F49C3409F46C
:10E9E000F5C1913509F0CBC518C2963509F445C279
:10E9F000993509F0C4C567C483E792EE62E00F94CD
:10EA0000F5F110920602109207021092080210927D
:10EA1000090210920A0210920B0210920C0210923C
:10EA20000D0213C18FE792EE62E00F94F5F18FEEC5
:10EA300090EE60E00F94F5F181E291EE60E00F94CA
:10EA4000C2F187EB91EE60E00F94F5F180E391EE77
:10EA500060E00F94C2F184EE90EE60E00F94F5F167
:10EA60008FE391EE60E00F94C2F186E090E061E008
:10EA700070E00F9434F20F94DCF18DE591EE60E0DC
:10EA80000F94C2F189EC91EE60E00F94F5F18EE401
:10EA900091EE60E00F94C2F183EC91EE60E00F9490
:10EAA000F5F18CE691EE60E00F94C2F18EE10F94E7
:10EAB0000DF288E90F940DF281E00F940DF20F949E
:10EAC000DCF18BE791EE60E00F94C2F119E0E0E039
:10EAD000F0E010935700E4918E2F0F940DF20F94F5
:10EAE000DCF18AE891EE60E00F94C2F1E3E0F0E03F
:10EAF00010935700E4918E2F0F940DF20F94DCF1D8
:10EB000089E991EE60E00F94C2F1E2E0F0E0109349
:10EB10005700E4918E2F0F940DF20F94DCF188EAE8
:10EB200091EE60E00F94C2F1E1E0F0E01093570045
:10EB30001491812F0F940DF20F94DCF107CF8BE825
:10EB400092EE62E00F94F5F18BE492EE60E00F94A8
:10EB5000F5F10F94DCF100E010E019C0C8016F2D51
:10EB60000F947FFEFF2031F489E492EE60E00F9471
:10EB7000C2F10BC0F092C6008091C00086FFFCCFAE
:10EB80008091C00080648093C0000F5F1F4FC80158
:10EB900081519F41A0E0B0E0ABBFFC01F790BAE229
:10EBA000FB1621F0E2E000301E07C1F60F94DCF105
:10EBB0000F94DCF187E592EE60E00F94F5F10F948D
:10EBC000DCF1CC24DD2400E010E01EC0C8010F946D
:10EBD00077FEF82E882331F489E492EE60E00F94FA
:10EBE000C2F10BC08093C6008091C00086FFFCCFAD
:10EBF0008091C00080648093C000FE1419F00894D6
:10EC0000C11CD11C0F5F1F4FC80181519F41A0E063
:10EC1000B0E0ABBFFC01E790FAE2EF1621F022E092
:10EC20000030120799F60F94DCF10F94DCF182E6C4
:10EC300092EE60E00F94C2F1C60161E070E00F94C3
:10EC400034F20F94DCF10F94DCF110920202109276
:10EC50000302109204021092050278CE89E992EE26
:10EC600062E00F94F5F1279A2F9A16C02F9880E052
:10EC700090E0E0EDF7E03197F1F7019684369105E9
:10EC8000C1F72F9A80E090E0E0EDF7E03197F1F7DF
:10EC9000019684369105C1F78091C00087FFE6CFC9
:10ECA0008091C00087FFFCCF64C485EA92EE62E0E9
:10ECB0000F94F5F140910202509103026091040219
:10ECC0007091050281E020E10F9491F2809102029F
:10ECD00090910302A0910402B091050280509F4FD1
:10ECE000AF4FBF4F8093020290930302A0930402A0
:10ECF000B093050280509041A040B04008F426CE69
:10ED0000A4CF83EB92EE62E00F94F5F140910602FE
:10ED100050910702609108027091090280E020E1A1
:10ED20000F9491F28091060290910702A09108023F
:10ED3000B091090280509F4FAF4FBF4F80930602A2
:10ED400090930702A0930802B0930902FFCD80ECD4
:10ED500092EE62E00F94F5F183E792EE60E00F949B
:10ED6000F5F18FE792EE60E00F94F5F18BE892EE0B
:10ED700060E00F94F5F189E992EE60E00F94F5F10F
:10ED800085EA92EE60E00F94F5F183EB92EE60E09D
:10ED90000F94F5F180EC92EE60E00F94F5F187ECC2
:10EDA00092EE60E00F94F5F188ED92EE60E00F9442
:10EDB000F5F18FED92EE60E00F94F5F18AEE92EEB0
:10EDC00060E00F94F5F183E093EEBDCD87EC92EE19
:10EDD00062E00F94F5F181E40F947BF282E40F94EA
:10EDE0007BF283E40F947BF284E40F947BF285E45E
:10EDF0000F947BF286E40F947BF287E40F947BF20E
:10EE000088E40F947BF28AE40F947BF28BE40F94F6
:10EE10007BF28CE40F947BF299CD88ED92EE62E068
:10EE20000F94F5F1772473948824992409C48FED05
:10EE300092EE62E00F94F5F140910A0250910B02BC
:10EE400060910C0270910D0282E020E10F9491F22A
:10EE500080910A0290910B02A0910C02B0910D02D8
:10EE600080509F4FAF4FBF4F80930A0290930B0289
:10EE7000A0930C02B0930D0269CD8AEE92EE62E08F
:10EE80000F94F5F184EE90EE60E00F94F5F18FECC5
:10EE900091EE60E00F94F5F1662477244301CC5D98
:10EEA000DE4F19821882C452D140D401C301B695F5
:10EEB000A79597958795CA5DDE4F88839983AA8326
:10EEC000BB83C652D140CC5DDE4FA881B981C4520C
:10EED000D1401196CC5DDE4FB983A883C452D14096
:10EEE000CD0162E070E00F9434F2B0E2B093C6005E
:10EEF0008091C00086FFFCCF8091C0008064809329
:10EF0000C000EDE2E093C6008091C00086FFFCCF18
:10EF10008091C00080648093C000F0E2F093C6004E
:10EF20008091C00086FFFCCF8091C00080648093F8
:10EF3000C000CA5DDE4FE880F9800A811B81C6529D
:10EF4000D140BB27A12F902F8F2D0F940DF2CA5DBA
:10EF5000DE4F8881C652D1400F940DF2B0E2FB2EF5
:10EF6000F092C6008091C00086FFFCCF8091C00067
:10EF700080648093C0000DE30093C6008091C000C0
:10EF800086FFFCCF8091C00080648093C00010E2B7
:10EF90001093C6008091C00086FFFCCF8091C00016
:10EFA00080648093C0008BBEF3012791C65DDE4F65
:10EFB0002883CA52D140A22EBB24CC24DD2408943D
:10EFC000611C711C811C911C8BBEF3018791282E42
:10EFD0003324442455240894611C711C811C911C09
:10EFE0008BBEF3013791C55DDE4F3883CB52D140E4
:10EFF0000894611C711C811C911C8BBEF30147910C
:10F00000C45DDE4F4883CC52D140ADEFEA2EAFEF66
:10F01000FA2EAFEF0A2FAFEF1A2F6E0C7F1C801E57
:10F02000911E142D032DF22CEE24EA0CFB1C0C1D5A
:10F030001D1D0F940DF220E22093C6008091C000A8
:10F0400086FFFCCF8091C00080648093C000C65DC5
:10F05000DE4F8881CA52D1400F940DF230E23093D6
:10F06000C6008091C00086FFFCCF8091C000806404
:10F070008093C000C45DDE4F8881CC52D1400F9494
:10F080000DF240E24093C6008091C00086FFFCCFA5
:10F090008091C00080648093C000C55DDE4F888190
:10F0A000CB52D1400F940DF250E25093C6008091A4
:10F0B000C00086FFFCCF8091C00080648093C000B8
:10F0C0008FEFE8168FEFF80680E0080780E018075A
:10F0D00031F484E092EE60E00F94C2F1DFC0D80119
:10F0E000C7018070907CA070B0708050904CA040A0
:10F0F000B040D1F52FEF3FE340E050E0E222F322B1
:10F1000004231523CA5DDE4FA880B980CA80DB8046
:10F11000C652D140AE0CBF1CC01ED11EAA0CBB1CD7
:10F12000CC1CDD1C8EE092EE60E00F94C2F1BB2798
:10F13000A12F902F8F2D0F940DF28E2D0F940DF285
:10F1400030E23093C6008091C00086FFFCCF8091F2
:10F15000C00080648093C0004EE34093C60080915D
:10F16000C00086FFFCCF87C08EE09EEFA0E0B0E03D
:10F17000E822F9220A231B239CE0E91694E9F90608
:10F1800090E0090790E0190709F088C0C45DDE4FE0
:10F19000A881CC52D140EA2EFF2400E010E0102FCD
:10F1A0000F2DFE2CEE24C55DDE4FB881CB52D14031
:10F1B000EB0EF11C011D111DD601C501817090706F
:10F1C000A070B070DC0199278827E80EF91E0A1F8D
:10F1D0001B1F20EF30E040E050E0A222B322C42207
:10F1E000D52241E1AA0CBB1CCC1CDD1C4A95D1F7F1
:10F1F000EA0CFB1C0C1D1D1D81E090E0A0E0B0E0BE
:10F20000282239224A225B2235E1220C331C441C7D
:10F21000551C3A95D1F7E20CF31C041D151D57013E
:10F220006801AA0CBB1CCC1CDD1C85E192EE60E0E1
:10F230000F94C2F1C801AA27BB270F940DF2BB2778
:10F24000A12F902F8F2D0F940DF28E2D0F940DF274
:10F2500090E29093C6008091C00086FFFCCF809121
:10F26000C00080648093C000AEE3A093C60080918C
:10F27000C00086FFFCCF8091C00080648093C000F6
:10F28000C601AA27BB270F940DF2BB27AD2D9C2DDD
:10F290008B2D0F940DF28A2D0F940DF20F94DCF14B
:10F2A000CC5DDE4FE881F981C452D140F99709F471
:10F2B0004DCBF4E0EF2EF12C012D112D6E0C7F1CA7
:10F2C000801E911EF2CD83E093EE62E00F94F5F183
:10F2D0008AE192EE60E00F94C2F18091C00087FF56
:10F2E000FCCF1091C6001F751093C6008091C0001E
:10F2F00086FFFCCF8091C00080648093C0000F9493
:10F30000DCF1812F81548A3108F036C1163409F4BA
:10F3100095C0173490F4133409F44EC0143430F40B
:10F320001134F1F0123409F01DC130C0143409F465
:10F3300059C0153409F016C16BC01A3409F4C4C0A1
:10F340001B3438F4173409F48FC0183409F00AC19B
:10F35000A1C01B3409F4D2C01C3409F003C1E8C0B9
:10F360008FEF81B90DC082B1809582B980E090E0C5
:10F37000E0EDF7E03197F1F70196883C9105C1F790
:10F380008091C00087FFEFCF12B8EFC08FEF84B934
:10F390000DC085B1809585B980E090E0E0EDF7E0A3
:10F3A0003197F1F70196883C9105C1F78091C00033
:10F3B00087FFEFCF15B8D9C08FEF87B90DC088B1DF
:10F3C000809588B980E090E0E0EDF7E03197F1F7C3
:10F3D0000196883C9105C1F78091C00087FFEFCF6F
:10F3E00018B8C3C08FEF8AB90DC08BB180958BB9A7
:10F3F00080E090E0E0EDF7E03197F1F70196883C8E
:10F400009105C1F78091C00087FFEFCF1BB8ADC059
:10F410008FEF8DB90DC08EB180958EB980E090E0F0
:10F42000E0EDF7E03197F1F70196883C9105C1F7DF
:10F430008091C00087FFEFCF1EB897C08FEF80BBD1
:10F440000DC081B3809581BB80E090E0E0EDF7E0F6
:10F450003197F1F70196883C9105C1F78091C00082
:10F4600087FFEFCF11BA81C08FEF83BB0DC084B38C
:10F47000809584BB80E090E0E0EDF7E03197F1F714
:10F480000196883C9105C1F78091C00087FFEFCFBE
:10F4900014BA6BC08FEF809301010FC080910201FD
:10F4A00080958093020180E090E0E0EDF7E03197F5
:10F4B000F1F70196883C9105C1F78091C00087FF64
:10F4C000EDCF1092020151C08FEF809304010FC065
:10F4D0008091050180958093050180E090E0E0ED4A
:10F4E000F7E03197F1F70196883C9105C1F78091DB
:10F4F000C00087FFEDCF1092050137C08FEF8093DA
:10F5000007010FC08091080180958093080180E079
:10F5100090E0E0EDF7E03197F1F70196883C910536
:10F52000C1F78091C00087FFEDCF109208011DC088
:10F530008FEF80930A010FC080910B01809580931B
:10F540000B0180E090E0E0EDF7E03197F1F70196F4
:10F55000883C9105C1F78091C00087FFEDCF1092E4
:10F560000B0103C085E292EEEEC98091C00087FFD7
:10F57000FCCF8091C600EAC988E392EEE4C98CE131
:10F5800091EEE1C988249924933011F1943028F444
:10F59000913089F09230B8F408C0953061F195301F
:10F5A000F0F0963009F048C043C02B3109F042C951
:10F5B00091E06BE13FC96227C15DDE4F2883CF52E6
:10F5C000D14092E037C9B22FA0E0622793E032C960
:10F5D000822F90E0A82BB92B622794E02BC92E3004
:10F5E00009F039C3622795E0C05DDE4F19821882A9
:10F5F000C053D1401FC9E1E0F0E0EC0FFD1FC05D3A
:10F60000DE4F08811981C053D140E00FF11F2083E4
:10F610000F5F1F4FC05DDE4F19830883C053D14079
:10F6200062270A171B0709F005C9D80196E002C92D
:10F63000261709F010C303C0973009F0FBC87724E0
:10F640009981933109F412C19431C8F4963009F4C8
:10F65000D8C0973050F4923009F406C1933009F4C1
:10F660006DC0913009F059C253C0913109F477C08F
:10F67000923108F0BBC0903109F04FC2F5C098310B
:10F6800009F487C0993150F4953109F4EFC09531F0
:10F6900008F4C6C1963109F040C2C2C19A3109F4DA
:10F6A0006CC09A3108F491C09B3109F45BC09D3164
:10F6B00009F033C29D81903359F48F81882311F46E
:10F6C0009EE11CC0813011F091E018C098E916C08D
:10F6D000892F807591F0903539F4E0E0F0E089E011
:10F6E0008093570094910AC0983539F4E3E0F0E034
:10F6F00089E080935700949101C090E01A821B82A8
:10F700008D818C831D829E831F8227E030E009C299
:10F710001A8288E08B8381E48C8386E58D8382E581
:10F720008E8389E48F8383E5888780E589878FE5E9
:10F730008A8782E38B872BE030E0F3C18A818139AD
:10F7400041F0823941F0803911F48FE005C080E04A
:10F7500003C082E001C08AE01A828B8344C0772410
:10F76000739482C08D81882311F48EE12CC0813086
:10F7700011F081E028C088E926C01A82E1E0F0E0BB
:10F7800089E08093570084918B831C8224E030E0D1
:10F79000C8C18B81803589F48C81883039F4E2E0EE
:10F7A000F0E089E08093570084910DC0E0E0F0E044
:10F7B00089E080935700849106C0E3E0F0E089E09F
:10F7C0008093570084911A82DFCF8D81836C99E0FA
:10F7D000E1E0F0E0082E90935700E89507B600FCB2
:10F7E000FDCF1A821B8223E030E09BC180EC8A832C
:10F7F000CE5CDE4F188219821A821B82C253D1401E
:10F800008EC18A8190E0A0E0B0E0582F44273327D2
:10F8100022278B8190E0A0E0B0E0DC0199278827C7
:10F82000282B392B4A2B5B2B8D8190E0A0E0B0E098
:10F83000282B392B4A2B5B2B8C8190E0A0E0B0E089
:10F84000BA2FA92F982F8827282B392B4A2B5B2BCF
:10F85000220F331F441F551FC05EDE4F288339839C
:10F860004A835B83C052D1401A8259C13A81C95C34
:10F87000DE4F3883C753D140CA5CDE4F1882C6536F
:10F88000D1408B81C82EDD24CA5CDE4F488159816E
:10F89000C653D140C42AD52A933109F082C0CE5C28
:10F8A000DE4F88819981AA81BB81C253D1408050AB
:10F8B000904CA340B04030F583E0CE5CDE4FE88052
:10F8C000F9800A811B81C253D140F70100935B008C
:10F8D00080935700E89507B600FCFDCFCE5CDE4F65
:10F8E000088119812A813B81C253D14000501F4FAA
:10F8F0002F4F3F4FCE5CDE4F088319832A833B8313
:10F90000C253D140C05EDE4F488159816A817B81FC
:10F91000C052D140DE011B9631E08C9111962C91A2
:10F9200011971296C75CDE4F2883C953D140C85C3B
:10F93000DE4F1882C853D14090E0C85CDE4FE881AA
:10F94000F981C853D1408E2B9F2B0C01FA01609393
:10F950005B0030935700E89511244E5F5F4F6F4F67
:10F960007F4F0EEFE02E0FEFF02ECE0CDF1CC114F8
:10F97000D10499F685E0C05EDE4F088119812A81A5
:10F980003B81C052D140F80120935B008093570027
:10F99000E89507B600FCFDCF81E180935700E8951C
:10F9A00035C0C05EDE4F88819981AA81BB81C0527B
:10F9B000D140B695A795979587957C018601ABE0D8
:10F9C000AA2EB12CAC0EBD1E0BC0D5016D915D01F0
:10F9D000C7010F947FFE0894E11CF11C01501040F8
:10F9E0000115110591F7A60160E070E0440F551F65
:10F9F000661F771FC05EDE4FE880F9800A811B8199
:10FA0000C052D1404E0D5F1D601F711F1A82C05E33
:10FA1000DE4F488359836A837B83C052D1407FC0C5
:10FA2000FA80C55CDE4FF882CB53D140C65CDE4F16
:10FA30001882CA53D1408B81C82EDD24C65CDE4FAC
:10FA400008811981CA53D140C02AD12A1A828981DA
:10FA5000BE016D5F7F4F843121F59601C05EDE4FA0
:10FA6000E880F9800A811B81C052D1400BBFF701A9
:10FA700087919691DB018C9311969C936E5F7F4FDB
:10FA8000D801C7010296A11DB11DC05EDE4F88835B
:10FA90009983AA83BB83C052D14022503040F1F6F3
:10FAA00036C0C05EDE4F288139814A815B81C052F9
:10FAB000D1400894C108D108760100E010E0089414
:10FAC000C11CD11C0894E11CF11C011D111DE20E8A
:10FAD000F31E041F151F21BDBB27A52F942F832FB5
:10FAE00082BD2F5F3F4F4F4F5F4FF89A80B5DB01CC
:10FAF0008D93BD012E153F054007510761F7C05E8C
:10FB0000DE4F288339834A835B83C052D1409601FC
:10FB10002D5F3F4FFB01108204C080EC8A8322E0FE
:10FB200030E08BE18093C6008091C00086FFFCCF5F
:10FB30008091C00080648093C000C15DDE4FF88179
:10FB4000CF52D140F093C6008091C00086FFFCCF19
:10FB50008091C00080648093C000432F3093C60022
:10FB60008091C00086FFFCCF8091C00080648093AC
:10FB7000C000922F2093C6008091C00086FFFCCF6A
:10FB80008091C00080648093C0008EE08093C600A6
:10FB90008091C00086FFFCCF8091C000806480937C
:10FBA000C00065E1C15DDE4FE880CF52D1406E25D7
:10FBB00069276427FE01319610C090819093C6009A
:10FBC0008091C00086FFFCCF31968091C000806498
:10FBD0008093C0006927215030402115310569F715
:10FBE0006093C6008091C00086FFFCCF8091C0006A
:10FBF00080648093C00085B1805885B9772081F4F6
:10FC0000C15DDE4F0881CF52D1400F5FC15DDE4F35
:10FC10000883CF52D14090E0A0E0B0E00D941AF4F8
:10FC200027982F9880E090E020ED37E0F901319798
:10FC3000F1F7019684369105C9F700008091C00064
:10FC40008D7F8093C00081E180935700E895EE2777
:10FC5000FF270994FFCF90E00D941AF497FB092E2B
:10FC600007260AD077FD04D02ED006D000201AF443
:10FC7000709561957F4F0895F6F7909581959F4F08
:10FC80000895A1E21A2EAA1BBB1BFD010DC0AA1FDD
:10FC9000BB1FEE1FFF1FA217B307E407F50720F0F5
:10FCA000A21BB30BE40BF50B661F771F881F991F70
:10FCB0001A9469F760957095809590959B01AC01B9
:10FCC000BD01CF010895AA1BBB1B51E107C0AA1FAC
:10FCD000BB1FA617B70710F0A61BB70B881F991FED
:10FCE0005A95A9F780959095BC01CD010895F99991
:10FCF000FECF92BD81BDF89A992780B50895262F31
:10FD0000F999FECF1FBA92BD81BD20BD0FB6F89400
:0EFD1000FA9AF99A0FBE01960895F894FFCF63
:040000033000E000E9
:00000001FF