:100000000C94FA000C9422010C9422010C94960496
:100010000C9496040C9496040C9422010C942201E6
:100020000C9422010C9422010C9422010C942201C4
:100030000C9422010C9422010C9422010C942201B4
:100040000C944C040C9422010C94F8020C94D202EF
:100050000C9422010C9422010C9422010C94220194
:100060000C9422010C942201160B100B020CEB0ACB
:10007000020CE80AF40A060B020CFD0A020C130B30
:10008000020C020C020C020C020C0D0B870B020C72
:10009000020C020C020C020C020C900B00407A10B5
:1000A000F35A00A0724E18090010A5D4E80000E829
:1000B0007648170000E40B54020000CA9A3B000087
:1000C00000E1F505000080969800000040420F0016
:1000D0000000A08601000000102700000000E803D7
:1000E000000000006400000000000A0000000000A2
:1000F0000100000000002C76D888DC674F0823DF61
:10010000C1DFAE59E1B1B796E5E3E453C63AE65133
:10011000997696E8E6C28426EB898C9B62ED407C5A
:100120006FFCEFBC9C9F40F2BAA56FA5F490055AF6
:100130002AF75C936B6CF9676DC11BFCE0E40D471B
:10014000FEF520E6B500D0ED902E0300943577053E
:100150000080841E080000204E0A000000C80C33F6
:100160003333330F986E12831141EF8D2114893B85
:10017000E65516CFFEE6DB18D1844B381BF77C1D05
:10018000901DA4BBE424203284725E228100C9F158
:1001900024ECA1E53D2700000000240027002A00F0
:1001A0000000000800020100000304070000000036
:1001B00000000000000000002300260029000000CD
:1001C0000000250028002B00040404040404040497
:1001D00002020202020203030303030301020408F2
:1001E00010204080010204081020010204081020A1
:1001F0000D0C250911241FBECFEFD8E0DEBFCDBF07
:1002000023E0AAE9B1E001C01D92A332B207E1F7F1
:1002100011E0A0E0B1E0E2EAF8E202C005900D9240
:10022000AA39B107D9F710E0C9EFD0E004C021978F
:10023000FE010E942512C83FD107C9F70E944D094F
:100240000C9444140C9400000895FC01538D448DCB
:10025000252F30E0842F90E0821B930B541710F071
:10026000CF96089501970895FC01918D828D98177E
:1002700061F0828DDF01A80FB11D5D968C91928D8A
:100280009F5F9F73928F90E008958FEF9FEF089587
:10029000FC01918D828D981731F0828DE80FF11D50
:1002A000858D90E008958FEF9FEF0895FC01918D6B
:1002B000228D892F90E0805C9F4F821B91098F7364
:1002C0009927089580EF91E00E94560121E0892B43
:1002D00009F420E0822F0895FC01848DDF01A80F2E
:1002E000B11DA35ABF4F2C91848D90E001968F735E
:1002F0009927848FA689B7892C93A089B1898C917D
:10030000837080648C93938D848D981306C00288CB
:10031000F389E02D80818F7D80830895EF92FF9295
:100320000F931F93CF93DF93EC0181E0888F9B8D18
:100330008C8D981305C0E889F989808185FD26C0D8
:10034000F62E0B8D10E00F5F1F4F0F731127E02E5D
:100350008C8DE8120CC00FB607FCFACFE889F9893A
:10036000808185FFF5CFCE010E946C01F1CF8B8D8E
:10037000FE01E80FF11DE35AFF4FF0829FB7F8949A
:100380000B8FEA89FB89808180620AC09FB7F8944D
:10039000EE89FF896083E889F989808183708064B0
:1003A00080839FBF81E090E0DF91CF911F910F91FB
:1003B000FF90EF900895CF93DF93EC01888D882311
:1003C000C9F0EA89FB89808185FD05C0A889B989C2
:1003D0008C9186FD0FC00FB607FCF5CF808185FF9D
:1003E000F2CFA889B9898C9185FFEDCFCE010E940B
:1003F0006C01E7CFDF91CF91089580E090E0892BE9
:1004000029F00E94620181110C94000008953FB709
:10041000F8948091DB019091DC01A091DD01B09115
:10042000DE0126B5A89B05C02F3F19F00196A11D3E
:10043000B11D3FBFBA2FA92F982F8827820F911D7A
:10044000A11DB11DBC01CD0142E0660F771F881FC1
:10045000991F4A95D1F708952091D7023091D8027B
:100460002817390771F49091D5028091D602981718
:1004700041F0E091D502F0E0E656FE4F808190E039
:1004800008958FEF9FEF08951F93CF93DF93DC01C3
:100490005C968D919C915D97009739F421E030E056
:1004A00013963C932E9312973BC05196ED91FC917D
:1004B000529750962C915097322F30951FB75E96D9
:1004C0004C915E97742F727041FD6095F894408155
:1004D000772311F0422B01C043234083EC01219785
:1004E000F1F748E0508160FF02C0522B01C0532356
:1004F0005083EC012197F1F76695415099F780817F
:10050000772319F08323808302C0282B20831FBF09
:100510005C968D919C915D970197F1F781E090E059
:10052000DF91CF911F9108952091D7023091D80289
:100530002817390771F48091D6022091D50290E0F6
:10054000805C9F4F821B910960E470E00E94111251
:10055000089580E090E008952091D7023091D8026C
:1005600028173907B9F49091D5028091D6029817CF
:1005700089F0E091D502F0E0E656FE4F80812091AF
:10058000D50230E02F5F3F4F2F7333272093D502E2
:1005900090E008958FEF9FEF089580E090E0089538
:1005A0000E9426141F920F920FB60F9211242F93C0
:1005B0003F934F935F936F937F938F939F93AF93EB
:1005C000BF93EF93FF9380EF91E00E946C01FF9146
:1005D000EF91BF91AF919F918F917F916F915F91BB
:1005E0004F913F912F910F900FBE0F901F90189534
:1005F0001F920F920FB60F9211242F938F939F93F8
:10060000EF93FF93E0910002F09101028081E0916D
:100610000602F091070282FD12C0908180910902CA
:100620008F5F8F7320910A02821751F0E0910902C7
:10063000F0E0E051FE4F958F8093090201C0808168
:10064000FF91EF919F918F912F910F900FBE0F907F
:100650001F90189590E0FC01E056FE4F2491FC019C
:10066000E452FE4F3491FC01E853FE4FE491EE2337
:1006700009F43CC0222339F1233091F038F42130C1
:10068000A9F0223001F584B58F7D12C0273091F09A
:100690002830A1F02430B9F4809180008F7D03C010
:1006A000809180008F77809380000DC084B58F7714
:1006B00084BD09C08091B0008F7703C08091B000E5
:1006C0008F7D8093B000F0E0EE0FFF1FE254FE4FED
:1006D000A591B4919FB7F894611104C08C913095A5
:1006E000382302C0EC913E2B3C939FBF0895CF93DB
:1006F000DF9390E0FC01E452FE4F2491FC01E853AB
:10070000FE4F8491882361F190E0880F991FFC01CE
:10071000EA56FE4FC591D491FC01E254FE4FA591DB
:10072000B491611109C09FB7F89488812095822304
:100730008883EC912E230BC0623061F49FB7F8944C
:100740008881322F309583238883EC912E2B2C9334
:100750009FBF06C08FB7F894E8812E2B28838FBFE8
:10076000DF91CF9108951F93CF93DF93182FEB0163
:1007700061E00E947703209711F460E004C0CF3F4E
:10078000D10539F461E0812FDF91CF911F910C9455
:100790002A03E12FF0E0E056FE4FE491E330F9F058
:1007A00048F4E130B9F0E230A1F584B5806284BD4F
:1007B000C8BD34C0E730E9F0E83019F1E43049F55C
:1007C00080918000806280938000D0938B00C093E2
:1007D0008A0024C084B5806884BDC7BD1FC08091D5
:1007E0008000806880938000D0938900C093880047
:1007F00015C08091B00080688093B000C093B300B2
:100800000DC08091B00080628093B000C093B400AE
:1008100005C0C038D1050CF0B5CFAFCFDF91CF9177
:100820001F9108958F929F92AF92BF92CF92DF92C5
:10083000EF92FF926B017C010E9407024B015C0169
:10084000C114D104E104F104F1F00E940702DC01BB
:10085000CB0188199909AA09BB09883E9340A105D3
:10086000B10570F321E0C21AD108E108F10888EE61
:10087000880E83E0981EA11CB11CC114D104E104B0
:10088000F10419F7DDCFFF90EF90DF90CF90BF908C
:10089000AF909F908F9008951F920F920FB60F9276
:1008A00011242F933F938F939F93AF93BF93809186
:1008B0001B0390911C03A0911D03B0911E03309166
:1008C000DA0123E0230F2D3720F40196A11DB11D7D
:1008D00005C026E8230F0296A11DB11D2093DA0161
:1008E00080931B0390931C03A0931D03B0931E03DE
:1008F0008091DB019091DC01A091DD01B091DE01DE
:100900000196A11DB11D8093DB019093DC01A093A2
:10091000DD01B093DE01BF91AF919F918F913F9127
:100920002F910F900FBE0F901F9018951F920F924E
:100930000FB60F9211242F933F934F935F936F93B2
:100940007F938F939F93AF93BF93EF93FF93E09128
:10095000D702F091D802309709F451C0968DA68540
:10096000B785858591FF04C09C91892329F447C0F0
:100970009C91892309F043C0A389B4899C918589FE
:10098000809589238C93868997890197F1F7608DEB
:10099000718DA685B785558538E020E0CB0101979C
:1009A000F1F7822F90E095958795282F4C9145235C
:1009B00009F02068315091F7868D81FD2095809156
:1009C000D60290E001968F7399273091D50238179F
:1009D00049F0A091D602B0E0A656BE4F2C9380936A
:1009E000D60203C0868D8160868F828D938D01979C
:1009F000F1F7A389B4899C918589892B8C93FF9108
:100A0000EF91BF91AF919F918F917F916F915F9186
:100A10004F913F912F910F900FBE0F901F901895FF
:100A2000CF93DF93DC01ED91FC91EB01A881B981BB
:100A3000309711F01097C9F4109759F0EB012C8101
:100A40003D81232B31F08C9190E091958195910916
:100A500014C0309781F0DC0114968D919C9115970C
:100A6000892B49F0808190E008C0BD01CF01DF9162
:100A7000CF910C94341480E090E0DF91CF910895F1
:100A8000CF93DF93C4EED1E060E08A850E942A0311
:100A900060E08B85DF91CF910C942A03E0EFF1E0C9
:100AA000A089B18982E08C93A485B5851C92A68526
:100AB000B7858FEC8C93108EA489B58986E08C93D2
:100AC000A289B3898C9180618C93A289B3898C911E
:100AD00088608C93A289B3898C9180688C930288FA
:100AE000F389E02D80818F7D80830895CF93DF93FC
:100AF000BC0180EF91E00E94CB08EC0169E371E05A
:100B000080EF91E00E94CB088C0F9D1FDF91CF9169
:100B100008951F93CF93DF9300D000D000D0CDB7BE
:100B2000DEB7FC0144815581608171818FED92E0D7
:100B30000E94C30669E371E08FED92E00E94CB084A
:100B400064EF71E080E090E00E9412048FED92E08B
:100B50000E94940202975CF16BE371E0CE01019672
:100B60000E9433088FED92E00E94AC02682FCE0104
:100B700001960E94B2078FED92E00E94AC02682FAE
:100B8000CE0101960E94B2078D819E81892B49F08A
:100B90006AE871E089819A810E94341411E0892BFE
:100BA00009F010E0CE0101960E942E0801C010E06D
:100BB000812F26960FB6F894DEBF0FBECDBFDF9112
:100BC000CF911F9108951F93CF93DF9300D000D052
:100BD00000D0CDB7DEB78FED92E00E949402892B52
:100BE00029F08FED92E00E94AC02F5CF6DE871E044
:100BF000CE0101960E943308CE0101960E9489051C
:100C0000182FCE0101960E942E08812F26960FB62E
:100C1000F894DEBF0FBECDBFDF91CF911F91089535
:100C2000DF92EF92FF920F931F93CF93DF9300D049
:100C300000D000D0CDB7DEB785E0F82E93E0E92EE6
:100C400024E0D22E8091FE02853009F48DC08FED14
:100C500092E00E949402892B09F46CC08FED92E01F
:100C60000E94AC02182F8B3279F58FED92E00E9432
:100C700094020A97D4F36BE371E0CE0101960E94CF
:100C800033080AE08FED92E00E94AC02182F682F23
:100C9000CE0101960E94B2070150A1F72D813E813D
:100CA00080910303909104032817390749F46FEFEB
:100CB00072E0CE0101960E941005892B09F44EC006
:100CC000CE0101960E942E08133409F0BBCF8FEDA0
:100CD00092E00E9494020897D4F36BE371E0CE0196
:100CE00001960E94330863E4CE0101960E94B20788
:100CF00018E08FED92E00E94AC02682FCE010196C1
:100D00000E94B2071150A9F72D813E8180910903FD
:100D100090910A032817390741F465E073E0CE018A
:100D200001960E941005892BE1F0CE0101960E94E8
:100D30002E0888CF0E94E305882319F0E092FE0276
:100D400081CF68EC70E080E090E00E9412040E9485
:100D5000E3058111F3CFF092FE0274CFD092FE0230
:100D6000AFCFF092FE02E1CF26960FB6F894DEBF29
:100D70000FBECDBFDF91CF911F910F91FF90EF90EC
:100D8000DF9008950895CF92DF92EF92FF920F9334
:100D90001F93CF93DF936C017A018B01C0E0D0E009
:100DA000CE15DF0581F0D8016D918D01D601ED9151
:100DB000FC910190F081E02DC6010995892B11F07D
:100DC0002196EECF7E01C701DF91CF911F910F9148
:100DD000FF90EF90DF90CF9008950F931F93CF93E4
:100DE000DF93C82FD62F8091E60186131AC0CC233B
:100DF00019F010E001E002C011E000E06091E401B0
:100E0000062E000C770B8091EE010E94B303602F39
:100E10008091EA010E942A03612F8091EB010E94D8
:100E20002A038091E901D8131EC0CC2319F0C0E039
:100E3000D1E002C0C1E0D0E06091E701062E000CD5
:100E4000770B8091EF010E94B3036D2F8091EC012D
:100E50000E942A036C2F8091ED01DF91CF911F91A9
:100E60000F910C942A03DF91CF911F910F91089558
:100E70000F931F93CF93DF93EC01888199810097A3
:100E800029F02A813B812617370788F48B016F5F91
:100E90007F4F0E946013009761F0998388831B83C2
:100EA0000A832C813D81232B11F4FC01108281E007
:100EB00001C080E0DF91CF911F910F910895CF92F3
:100EC000DF92EF92FF920F931F932FB7F894C09089
:100ED0001B03D0901C03E0901D03F0901E032FBF56
:100EE000DC01CB018C0D9D1DAE1DBF1D4FB7F894CD
:100EF00000911B0310911C0320911D0330911E03D0
:100F00004FBF0C151D052E053F0528F080179107D2
:100F1000A207B30758F71F910F91FF90EF90DF9052
:100F2000CF90089561E081E00E94ED0660E080E0EE
:100F30000C94ED0661E080E00E94ED0660E080E048
:100F40000C94ED0660E081E00E94ED0661E080E037
:100F50000C94ED0661E081E00E94ED0660E081E026
:100F60000C94ED06EF92FF920F931F93CF93DF93B4
:100F700000D0CDB7DEB78C0169831A82FC01E48012
:100F8000F580FFEFEF1AFF0AB7010E9438078823A8
:100F900081F0F8012081318184819581BE016F5FEC
:100FA0007F4F820F931F0E943D14F801F582E48267
:100FB00081E00F900F90DF91CF911F910F91FF90E3
:100FC000EF900895EF92FF920F931F93CF93DF93CB
:100FD000EC017B018A01BA010E943807288139811E
:100FE00081110DC02115310519F0C9010E94D712D8
:100FF000198218821D821C821B821A8206C01D83E0
:101000000C83B701C9010E943D14CE01DF91CF913D
:101010001F910F91FF90EF900895CF93DF93EC0114
:101020006115710559F0FB0101900020E9F7319736
:10103000AF01461B570B0E94E2070CC088819981C3
:10104000009711F00E94D712198218821D821C820B
:101050001B821A82CE01DF91CF910895FC0180811D
:1010600091810C94D712FC0111821082138212829A
:10107000158214826115710551F0FB010190002069
:10108000E9F73197AF01461B570B0C94E20708951F
:101090000F931F93CF93DF9300D000D000D0CDB734
:1010A000DEB703E08091FE02833009F469C08FED62
:1010B00092E00E949402892B09F44EC08FED92E0D9
:1010C0000E94AC02182F682F80EF91E00E948E01E1
:1010D0001B3241F78FED92E00E949402892BD1F3ED
:1010E0008FED92E00E94AC02182F682F80EF91E004
:1010F0000E948E011035B1F68FED92E00E949402AD
:101100000797D4F36BE371E0CE0101960E94330898
:1011100060E5CE0101960E94B20717E08FED92E0E4
:101120000E94AC02682FCE0101960E94B2071150B6
:10113000A9F78D819E81892B51F060E971E0898149
:101140009A810E943414892B11F40093FE02CE017F
:1011500001960E942E08A6CF0E94E305882319F06D
:101160000093FE029FCF68EC70E080E090E00E9468
:1011700012040E94E3058111F3CF85E08093FE0203
:1011800026960FB6F894DEBF0FBECDBFDF91CF918C
:101190001F910F9108956115710579F0FB01019080
:1011A0000020E9F73197AF01461B570BDC01ED91A9
:1011B000FC910280F381E02D099480E090E0089595
:1011C000CF92DF92EF92FF920F931F93E82FF92FA8
:1011D00005C0015011092109310961F1908196235F
:1011E0009417B9F305C0015011092109310911F112
:1011F000908196239413F7CFC12CD12CE12CF12CA4
:101200000AC08FEFC81AD80AE80AF80A0C151D059B
:101210002E053F0579F080818623841791F36C2D8C
:101220007D2D8E2D9F2D1F910F91FF90EF90DF90C0
:10123000CF90089560E070E080E090E01F910F9102
:10124000FF90EF90DF90CF90089589ED92E00E949B
:101250002E0885E093E00E942E088FEF92E00E9416
:101260002E088CE191E09093E0028093DF02809160
:10127000D7029091D8028F5D924071F4E091F20212
:10128000F091F30290818091F4028095892380830C
:101290001092D8021092D7020895CF93DF93CDB762
:1012A000DEB7A7970FB6F894DEBF0FBECDBF789418
:1012B00084B5826084BD84B5816084BD85B582605B
:1012C00085BD85B5816085BD80916E00816080930C
:1012D0006E00109281008091810082608093810075
:1012E0008091810081608093810080918000816085
:1012F000809380008091B10084608093B1008091E0
:10130000B00081608093B00080917A008460809307
:101310007A0080917A00826080937A0080917A00CE
:10132000816080937A0080917A00806880937A004F
:101330001092C1001092D1021092D2021092D302E8
:101340001092D40210928F02109290021092910289
:101350001092920268EB7BE080E090E00E945F07D1
:1013600080EF91E09093D0028093CF020E944E05CF
:101370002FB7F89480911B0390911C03A0911D033B
:10138000B0911E032FBF80938F0290939002A09381
:101390009102B09392026AE271E08091CF02909143
:1013A000D0020E94CB086AE070E080E090E00E94EA
:1013B0005F0711E01093A3020E944E0588E080931E
:1013C000EA018BE08093EB018CE08093EC018DE0EF
:1013D0008093ED0189E08093EE018AE08093EF0134
:1013E00061E088E00E94770361E08091EB010E9458
:1013F000770361E08091EC010E94770361E08091C6
:10140000ED010E94770361E08091EE010E94770375
:1014100061E08091EF010E9477030E9440051092E5
:10142000E6011093E9011093E5011092E80184EBC5
:101430008093E4018093E7010E9448088CE391E0E7
:101440000E94760585E491E00E9476050E941006D0
:1014500086E691E00E94760585E491E00E9476059B
:1014600093E0C92ED12C23E2222E312C3AE0432ED8
:10147000512C612C712C44E6F42E54EBE52E60E0E7
:1014800080910B030E942A03C6010197F1F761E0E6
:1014900080910B030E942A03C1010197F1F760E0DC
:1014A00080910B030E942A0380910D0390910E03FB
:1014B0009927FC01E452FE4F6491FC01E853FE4F72
:1014C000E491F0E0EE0FFF1FEC54FE4F85919491F4
:1014D00000E412E42FE030E0462F0E94E00861159E
:1014E00071058105910549F0DC01CB010196A11D33
:1014F000B11DBC01CD019F7003C060E070E0CB0165
:101500000E94241020910F03309110034091110389
:10151000509112030E949A1120E030E040E05FE316
:101520000E9483106093DF017093E0018093E101DA
:101530009093E2018091FE02853071F48FED92E08C
:101540000E949402892B41F08FED92E00E94AC0240
:101550008B3229F40E94480899249A9401C0982E4D
:101560009092E3018FEF981609F44CC1292D30E0D9
:1015700040E050E019A28E010F5D1F4FCA01B90172
:10158000A30192010E944111605DF80162938F01F5
:10159000211531054105510589F7BF0180EF91E023
:1015A0000E94CB0869E371E080EF91E00E94CB08D4
:1015B000892D990C990BAA0BBB0BFC01E154F10985
:1015C000EA31F10508F01EC1EC5CFF4F0C942512C6
:1015D0000E94A20718C0F092E7010E94A207E092C1
:1015E000E70168E871E097C0F092E4010E94A20769
:1015F000E092E4016EE771E08EC0F092E7010E9494
:101600009207E092E7016FE671E085C0F092E40195
:101610000E949207E092E401F5C00E94AA07F2C07E
:101620000E949207EFC00E949A07ECC08090DF01F1
:101630009090E001A090E101B090E20120E030E064
:1016400046E153E4C501B4010E940C12181644F49B
:101650000E94AA0764E670E080E090E00E94120415
:1016600020E030E046E153E4C501B4010E941D10C2
:10167000181694F020E030E048E452E4C501B401CB
:101680000E940C1287FD08C00E94A20764E670E069
:1016900080E090E00E94120420E030E044E452E454
:1016A000C501B4010E941D10181694F020E030E02E
:1016B00040EF51E4C501B4010E940C1287FD08C03F
:1016C0000E949A0768EE73E080E090E00E941204A6
:1016D00020E030E048EE51E4C501B4010E941D1045
:1016E000181694F020E030E040E85FE3C501B40153
:1016F0000E940C1287FD08C00E94920768EE73E0FA
:1017000080E090E00E94120461E771E004C00E9452
:10171000400563E771E0CE0101960E9433086AC07C
:101720006091DF017091E0018091E1019091E2010F
:101730001BA21AA21DA21CA21FA21EA28E010F5F35
:101740001F4F22E044E00E94CB0DBC01CE018296E7
:101750000E940D088091D9029091DA020097C9F099
:101760006AA17BA16115710591F04091DB02509156
:10177000DC022EA13FA14217530748F00E943D14FE
:101780008EA19FA19093DE028093DD0218C00E947B
:10179000D7128AA19BA19093DA028093D9028CA1DF
:1017A0009DA19093DC028093DB028EA19FA1909378
:1017B000DE028093DD021BA21AA21DA21CA21FA2A0
:1017C0001EA2CE0182960E942E081A8219821C82C5
:1017D0001B821E821D826091D9027091DA0261150E
:1017E000710541F04091DD025091DE02CE0101967B
:1017F0000E94E207CE0101960E948905CE01019662
:101800000E942E088091FE02833021F40E94400540
:101810000E9410060E94FD0132CECF92DF92EF921D
:10182000FF921092F3011092F20198EEC92E93E00C
:10183000D92EE12CF12CC092F401D092F501E09266
:10184000F601F092F7018AE091E09093F101809324
:10185000F00185EC90E09093FD018093FC0184EC15
:1018600090E09093FF018093FE0180EC90E09093D4
:1018700001028093000281EC90E090930302809338
:10188000020282EC90E0909305028093040286ECC1
:1018900090E0909307028093060210920902109242
:1018A0000A0210920B0210920C02109293021092F4
:1018B0009402109295021092960210929702109242
:1018C00098021092990210929A0210929B02109222
:1018D0009C0210929D0210929E0210929F02109202
:1018E000A0021092A1021092A20261E085E00E9483
:1018F000770360E083E00E94770385E090E09093B7
:101900000C0380930B0383E090E090930E0380938D
:101910000D0385E89CEFACEDB1E480930F03909349
:101920001003A0931103B09312038CE993E5ACE884
:10193000B2E48093130390931403A0931503B09320
:1019400016031092E2021092E102C092E302D092DA
:10195000E402E092E502F092E6028CE191E09093DD
:10196000E0028093DF021092F6021092F5021092CC
:10197000F8021092F7021092FA021092F9021092F5
:10198000FC021092FB026091FD026E7F6D7F6093FE
:10199000FD026695617081E0682784E00E942A0359
:1019A00061E084E00E947703E0EEF1E0E491E093EF
:1019B000EF02ECECF1E0E491F0E0EE0FFF1FE254F7
:1019C000FE4F859194919093F1028093F00260E034
:1019D00082E00E9477038091FD0281FD04C061E0F6
:1019E00082E00E942A0382E08093EB02EEEDF1E0B8
:1019F000E491E093EC02EAECF1E0E491F0E0EE0F28
:101A0000FF1FEC54FE4F859194919093EE028093CA
:101A1000ED026BE371E08FEF92E00E9433086BE31D
:101A200071E085E093E00E94330865E771E08FEF95
:101A300092E00E940D0860E871E085E093E00E946A
:101A40000D081092FE021092FA021092F902109202
:101A5000F8021092F7021092F6021092F5028DE948
:101A600091E09093FC028093FB029091EB029631FF
:101A700008F058C02DEB30E03093F6022093F502C9
:101A80002BE931E03093F8022093F7022CE231E0A9
:101A90003093FA022093F90240916800983058F090
:101AA00031E09E3008F430E021E0822F01C0880F41
:101AB0003A95EAF701C084E0842B8093680098305F
:101AC00038F09E3040F0963148F020E030E008C019
:101AD0002DE630E005C02BE630E002C02CE630E019
:101AE0003093F3022093F202983030F481E001C089
:101AF000880F9A95EAF70EC0292F30E09E3018F42F
:101B00002850310902C02E50310981E001C0880FF0
:101B10002A95EAF78093F4028091FB029091FC02EF
:101B20000197F1F78091F9029091FA02892B49F11E
:101B3000E091D702F091D80282E0EF3DF80709F179
:101B4000309739F0A389B4899C9185898095892340
:101B50008C938091FD028E7F8093FD021092D602BD
:101B60001092D5028FED92E09093D8028093D70225
:101B7000E091F202F091F30290818091F402892BBE
:101B800080836BE371E089ED92E0FF90EF90DF904E
:101B9000CF900C943308EF920F931F93CF93DF9362
:101BA000E80147FD02C034E001C034E1042E000C1E
:101BB000550B57FF03C0519541955109E32E022F54
:101BC000242FAE010E94EB0DCE01DF91CF911F912A
:101BD0000F91EF900895A9E0B0E0E1EFFDE00C94E3
:101BE00069116A01122FB02E2BE3201720F0FF2479
:101BF000F394F00E02C02CE3F22E0F2D27E0AE017D
:101C00004F5F5F4F0E94450FBC014981842F89704F
:101C1000813031F0E1FC06C0E0FE06C090E205C074
:101C20009DE203C09BE201C090E05E2D507143FF36
:101C30003CC0911102C083E001C084E0811718F418
:101C4000212F281B01C020E051110BC0F601822F6B
:101C500030E2882319F031938150FBCFC20ED11CA2
:101C600020E0992329F0D6019C93F60131966F016B
:101C7000C6010396E2FE0AC03EE4D6013C9341E46D
:101C800011964C93119712963C9306C03EE6F601CE
:101C9000308341E641833283FC01322F40E233231B
:101CA00009F442C041933150FACF42FF44C0911130
:101CB00002C083E001C084E0811718F4212F281BA3
:101CC00001C020E051110BC0F601822F30E28823C1
:101CD00019F031938150FBCFC20ED11C20E0992323
:101CE00029F0D6019C93F60131966F01C601039647
:101CF000E2FE0BC039E4D6013C933EE411963C93DE
:101D0000119736E412963C9307C039E6F60130830A
:101D10003EE6318336E63283FC01322F40E2332344
:101D200019F041933150FBCFFC01E20FF11D1082FD
:101D30008EEF9FEFA6C021E030E0911102C020E0BD
:101D400030E0161617061CF4FB01319602C0E1E0E4
:101D5000F0E02E0F3F1FBB2021F0EB2DF0E031967D
:101D600002C0E0E0F0E02E0F3F1FE12FF0E02E1761
:101D70003F071CF4121B212F01C020E08E2D88711B
:101D800059F4F601822F30E2882319F03193815003
:101D9000FBCFC20ED11C20E0992329F0D6019C93E1
:101DA000F60131966F0151110BC0F601822F90E3BD
:101DB000882319F091938150FBCFC20ED11C20E0F3
:101DC0000F2D060F9A81342F307144FF03C09133D9
:101DD00009F40150101624F4093018F008E001C08D
:101DE00001E0AB0177FF02C040E050E0FB01E41BE3
:101DF000F50BA1E0B0E0AC0FBD1FEA0FFB1F8EE2B8
:101E0000A82E4B01801A91080B2D10E01195019519
:101E100011094F3FBFEF5B0721F4D601AC92119639
:101E20006D01641775072CF08416950614F48181F2
:101E300001C080E3415051093196D60111967D01D0
:101E40004017510724F0D6018C936701E2CF641745
:101E5000750739F4963320F4953319F4311101C024
:101E600081E3F6018083F701822F90E2882319F045
:101E700091938150FBCFF701E20FF11D108280E0BA
:101E800090E02996ECE00C948511283008F027E0CA
:101E90003327DA01990F311D87FD916000966105A6
:101EA000710539F432602E5F3D9330E32A95E1F7F6
:101EB00008959F3F30F080387105610509F03C5F5F
:101EC0003C5F3D93913008F08068911DDF93CF9384
:101ED0001F930F93FF92EF92192F987F9695E92FFA
:101EE00096959695E90FFF27EA50FF4F99273327DC
:101EF000EE24FF24A701E70105900894079428F435
:101F0000360FE71EF81E491F511D660F771F881FE9
:101F1000991F0694A1F70590079428F4E70EF81E80
:101F2000491F561FC11D770F881F991F661F0694F2
:101F3000A1F70590079428F4F80E491F561FC71FF4
:101F4000D11D880F991F661F771F0694A1F7059072
:101F5000079420F4490F561FC71FD81F990F661FFB
:101F6000771F881F0694A9F784911095177041F088
:101F7000D695C79557954795F794E7941A95C1F765
:101F8000ECE9F0E068941590159135916591959183
:101F900005907FE27395E118F10A430B560BC90BCC
:101FA000D009C0F7E10CF11E431F561FC91FD01DF9
:101FB0007EF4703311F48A95E6CFE894015030F046
:101FC000080F0AF40027021708F4202F2395022F88
:101FD0007A3328F079E37D932A95E9F710C07D9351
:101FE0002A9589F6069497956795379517951794CE
:101FF000E118F10A430B560BC90BD00998F0239551
:102000007E9173957A3308F070E37C932013B8F7D0
:102010007E9170617D9330F0839571E37D9370E3E1
:102020002A95E1F71124EF90FF900F911F91CF9126
:10203000DF91992787FD909508950E945F1008F41D
:1020400081E00895E89409C097FB3EF4909580954F
:10205000709561957F4F8F4F9F4F9923A9F0F92F6E
:1020600096E9BB279395F695879577956795B795EC
:10207000F111F8CFFAF4BB0F11F460FF1BC06F5FD2
:102080007F4F8F4F9F4F16C0882311F096E911C0E4
:10209000772321F09EE8872F762F05C0662371F005
:1020A00096E8862F70E060E02AF09A95660F771F19
:1020B000881FDAF7880F9695879597F90895990FF5
:1020C0000008550FAA0BE0E8FEEF16161706E80702
:1020D000F907C0F012161306E407F50798F0621B23
:1020E000730B840B950B39F40A2661F0232B242BF8
:1020F000252B21F408950A2609F4A140A6958FEF17
:10210000811D811D08950E9496100C9407110E9454
:10211000F91038F00E94001120F0952311F00C9472
:10212000F0100C94F61011240C943B110E9418111D
:1021300070F3959FC1F3950F50E0551F629FF0011A
:10214000729FBB27F00DB11D639FAA27F00DB11D33
:10215000AA1F649F6627B00DA11D661F829F2227BC
:10216000B00DA11D621F739FB00DA11D621F839F43
:10217000A00D611D221F749F3327A00D611D231F19
:10218000849F600D211D822F762F6A2F11249F5767
:1021900050409AF0F1F088234AF0EE0FFF1FBB1F6A
:1021A000661F771F881F91505040A9F79E3F510529
:1021B00080F00C94F0100C943B115F3FE4F3983ED8
:1021C000D4F3869577956795B795F795E7959F5FD3
:1021D000C1F7FE2B880F911D9695879597F9089565
:1021E00097F99F6780E870E060E008959FEF80ECCA
:1021F000089500240A94161617061806090608956D
:1022000000240A9412161306140605060895092ED2
:102210000394000C11F4882352F0BB0F40F4BF2B41
:1022200011F460FF04C06F5F7F4F8F4F9F4F089581
:1022300057FD9058440F551F59F05F3F71F0479577
:10224000880F97FB991F61F09F3F79F0879508955C
:10225000121613061406551FF2CF4695F1DF08C07B
:10226000161617061806991FF1CF86957105610598
:1022700008940895E894BB2766277727CB0197F940
:102280000895A1E21A2EAA1BBB1BFD010DC0AA1FB7
:10229000BB1FEE1FFF1FA217B307E407F50720F0CF
:1022A000A21BB30BE40BF50B661F771F881F991F4A
:1022B0001A9469F760957095809590959B01AC0193
:1022C000BD01CF0108952F923F924F925F926F927E
:1022D0007F928F929F92AF92BF92CF92DF92EF92B6
:1022E000FF920F931F93CF93DF93CDB7DEB7CA1B37
:1022F000DB0B0FB6F894DEBF0FBECDBF09942A8862
:10230000398848885F846E847D848C849B84AA8409
:10231000B984C884DF80EE80FD800C811B81AA8196
:10232000B981CE0FD11D0FB6F894DEBF0FBECDBF61
:10233000ED0108950E94AE110C9407110E94001146
:1023400058F00E94F91040F029F45F3F29F00C94F6
:10235000F01051110C943B110C94F6100E941811BE
:1023600068F39923B1F3552391F3951B550BBB27C4
:10237000AA2762177307840738F09F5F5F4F220F09
:10238000331F441FAA1FA9F335D00E2E3AF0E0E800
:1023900032D091505040E695001CCAF72BD0FE2F4A
:1023A00029D0660F771F881FBB1F261737074807DE
:1023B000AB07B0E809F0BB0B802DBF01FF27935896
:1023C0005F4F3AF09E3F510578F00C94F0100C945A
:1023D0003B115F3FE4F3983ED4F38695779567957C
:1023E000B795F7959F5FC9F7880F911D96958795CB
:1023F00097F90895E1E0660F771F881FBB1F6217EA
:1024000073078407BA0720F0621B730B840BBA0BA7
:10241000EE1F88F7E09508950E945F1008F48FEF93
:10242000089597FB072E16F4009407D077FD09D086
:102430000E942B1207FC05D03EF4909581959F4F8A
:102440000895709561957F4F0895EE0FFF1F0590D9
:10245000F491E02D0994AA1BBB1B51E107C0AA1FF0
:10246000BB1FA617B70710F0A61BB70B881F991F35
:102470005A95A9F780959095BC01CD0108950F93C9
:102480001F93CF93DF938230910510F482E090E0A8
:10249000E0912103F091220320E030E0A0E0B0E0E1
:1024A000309719F1408151810281138148175907F2
:1024B000C8F08417950769F4109731F012960C93C1
:1024C000129713961C9327C00093210310932203A5
:1024D00022C02115310519F04217530718F49A014B
:1024E000BD01EF01DF01F801DBCF21153105F9F066
:1024F000281B390B2430310580F48A819B816115BA
:10250000710521F0FB019383828304C09093220321
:1025100080932103FE01329644C0FE01E20FF31FB7
:102520008193919322503109398328833AC02091B5
:102530001F0330912003232B41F42091020130919D
:1025400003013093200320931F0320910001309159
:1025500001012115310541F42DB73EB74091040129
:1025600050910501241B350BE0911F03F0912003CE
:10257000E217F307A0F42E1B3F0B2817390778F05A
:10258000AC014E5F5F4F2417350748F04E0F5F1FB9
:102590005093200340931F038193919302C0E0E086
:1025A000F0E0CF01DF91CF911F910F910895CF936C
:1025B000DF93009709F481C0FC01329713821282E5
:1025C000A0912103B0912203109781F420813181E1
:1025D000820F931F20911F03309120032817390782
:1025E00051F5F0932003E0931F0367C0ED0120E055
:1025F00030E0CE17DF0740F44A815B819E01411530
:102600005105F1F0EA01F5CFD383C28340815181B6
:10261000840F951FC817D90759F488819981840FB1
:10262000951F0296918380838A819B819383828305
:102630002115310529F4F0932203E09321033DC0D5
:10264000E901FB83EA8349915991C40FD51FEC1727
:10265000FD0761F480819181840F951F0296E90145
:1026600099838883828193819B838A83E0E0F0E071
:1026700012968D919C911397009719F0FD01DC0142
:10268000F7CF8D919C9111979D012E5F3F4F820F47
:10269000931F20911F03309120032817390769F4F5
:1026A000309729F4109222031092210302C0138262
:1026B0001282B0932003A0931F03DF91CF9108955E
:1026C000A0E0B0E0E6E6F3E10C946711EC010097BE
:1026D00021F4CB010E943F12B4C0FC01E60FF71FAA
:1026E0009C0122503109E217F30708F4A8C0D90170
:1026F0000D911C91119706171707B0F005301105C1
:1027000008F49BC0C80104978617970708F495C082
:1027100002501109061B170B019311936D937C93C3
:10272000CF010E94D71289C05B01A01AB10A4C01E7
:10273000800E911EA0912103B0912203612C712C77
:10274000E12CF12C109709F446C08D919C911197C2
:10275000A815B905B1F56C0142E0C40ED11CCA142C
:10276000DB0478F14C018A189B08640142E0C40E36
:10277000D11C1296BC9012971396AC91B5E0CB1673
:10278000D10440F0B282A38391828082D9016D93FB
:102790007C9309C00E5F1F4F800F911FF901918339
:1027A0008083EB2DFA2FE114F10431F0D701139659
:1027B000FC93EE93129741C0F0932203E093210320
:1027C0003CC06816790608F43C017D0112960D9014
:1027D000BC91A02DB7CF80911F0390912003881644
:1027E0009906E1F466167706C8F48091000190918D
:1027F0000101009741F48DB79EB7409104015091BB
:102800000501841B950BE817F907C8F4F093200322
:10281000E0931F03F901718360830FC0CB010E9415
:102820003F127C01009759F0A801BE010E942B14B1
:10283000CE010E94D712C70104C0CE0102C080E0C1
:1028400090E0CDB7DEB7EEE00C94831181E090E02C
:10285000F8940C944414FB01DC0102C001900D9229
:1028600041505040D8F70895FB01DC018D91019053
:1028700080190110D9F3990B0895FB01DC01019037
:102880000D920020E1F7089510E0C9EFD0E004C0F8
:10289000FE010E9425122196CA3FD107C9F7F8947C
:0228A000FFCF68
:1028A200000023038000000000008E01C306250102
:1028B200DB01560134014801000000004402C30656
:1028C200CD0224019402AC022C02564D4450565FB4
:1028D200317C315F564D4450560D0A007061697269
:1028E20061626C65002A2D2D2D2D2D2D2D2D2D2D66
:1028F2002D2D2D2D2D2D2D2D2D2D2D2D2D2D2D2D06
:102902002D2D2D2D2A00636F6E6E65637465004652
:102912000041005300434F4E4E454354494E470039
:10292200434F4E4E4543544544004F4B00415400E3
:0A2932005041495241424C4500005B
:00000001FF
