:100000000C9475000C949D000C949D000C941E049F
:100010000C941E040C941E040C949D000C949D00E2
:100020000C949D000C949D000C949D000C949D00DC
:100030000C949D000C949D000C949D000C949D00CC
:100040000C94D4030C949D000C9480020C945A02DE
:100050000C949D000C949D000C949D000C949D00AC
:100060000C949D000C949D00ED0BFB0BFB0BFB0B0C
:10007000CB0BD30BDF0BCE0BD80BFB0BF00BFB0B1F
:10008000FB0BFB0BFB0BFB0BE60BF90B0000000063
:10009000240027002A0000000008000201000003DD
:1000A0000407000000000000000000000000230022
:1000B0002600290000000000250028002B00040471
:1000C0000404040404040202020202020303030300
:1000D00003030102040810204080010204081020DC
:1000E0000102040810201F0C0D0C11241FBECFEFBD
:1000F000D8E0DEBFCDBF23E0A6E8B1E001C01D928D
:10010000AA30B207E1F711E0A0E0B1E0E8E5F5E2DE
:1001100002C005900D92A638B107D9F710E0C4E7E8
:10012000D0E004C02197FE010E948010C337D107A0
:10013000C9F70E947E080C949F120C940000089549
:10014000FC01538D448D252F30E0842F90E0821BDD
:10015000930B541710F0CF96089501970895FC0162
:10016000918D828D981761F0828DDF01A80FB11DEE
:100170005D968C91928D9F5F9F73928F90E0089512
:100180008FEF9FEF0895FC01918D828D981731F0CC
:10019000828DE80FF11D858D90E008958FEF9FEF20
:1001A0000895FC01918D228D892F90E0805C9F4FF6
:1001B000821B91098F739927089585ED91E00E9424
:1001C000D10021E0892B09F420E0822F0895FC0161
:1001D000848DDF01A80FB11DA35ABF4F2C91848DD0
:1001E00090E001968F739927848FA689B7892C9305
:1001F000A089B1898C91837080648C93938D848D58
:10020000981306C00288F389E02D80818F7D80835A
:100210000895EF92FF920F931F93CF93DF93EC011A
:1002200081E0888F9B8D8C8D981305C0E889F989B2
:10023000808185FD26C0F62E0B8D10E00F5F1F4FCD
:100240000F731127E02E8C8DE8120CC00FB607FC3F
:10025000FACFE889F989808185FFF5CFCE010E9428
:10026000E700F1CF8B8DFE01E80FF11DE35AFF4F40
:10027000F0829FB7F8940B8FEA89FB8980818062B6
:100280000AC09FB7F894EE89FF896083E889F989ED
:1002900080818370806480839FBF81E090E0DF91E4
:1002A000CF911F910F91FF90EF900895CF93DF931F
:1002B000EC01888D8823C9F0EA89FB89808185FD5E
:1002C00005C0A889B9898C9186FD0FC00FB607FCBF
:1002D000F5CF808185FFF2CFA889B9898C9185FF00
:1002E000EDCFCE010E94E700E7CFDF91CF910895D7
:1002F00080E090E0892B29F00E94DD0081110C94B0
:10030000000008953FB7F8948091CB019091CC0103
:10031000A091CD01B091CE0126B5A89B05C02F3F7D
:1003200019F00196A11DB11D3FBFBA2FA92F982F1B
:100330008827820F911DA11DB11DBC01CD0142E096
:10034000660F771F881F991F4A95D1F708952FB719
:10035000F8946091C7017091C8018091C901909192
:10036000CA012FBF08952091BC023091BD02281709
:10037000390771F49091BA028091BB02981741F04D
:10038000E091BA02F0E0EA57FE4F808190E00895D4
:100390008FEF9FEF08951F93CF93DF93DC015C965F
:1003A0008D919C915D97009739F421E030E0139690
:1003B0003C932E9312973BC05196ED91FC9152972E
:1003C00050962C915097322F30951FB75E964C91D6
:1003D0005E97742F727041FD6095F8944081772389
:1003E00011F0422B01C043234083EC012197F1F728
:1003F00048E0508160FF02C0522B01C0532350835C
:10040000EC012197F1F76695415099F780817723A8
:1004100019F08323808302C0282B20831FBF5C96A2
:100420008D919C915D970197F1F781E090E0DF91CC
:10043000CF911F9108952091BC023091BD022817E1
:10044000390771F48091BB022091BA0290E0805C80
:100450009F4F821B910960E470E00E946C10089528
:1004600080E090E008952091BC023091BD022817F1
:100470003907B9F49091BA028091BB02981789F0BC
:10048000E091BA02F0E0EA57FE4F80812091BA0273
:1004900030E02F5F3F4F2F7333272093BA0290E055
:1004A00008958FEF9FEF0895089580E090E00895FC
:1004B0000E9481121F920F920FB60F9211242F9358
:1004C0003F934F935F936F937F938F939F93AF93DC
:1004D000BF93EF93FF9385ED91E00E94E700FF91BA
:1004E000EF91BF91AF919F918F917F916F915F91AC
:1004F0004F913F912F910F900FBE0F901F90189525
:100500001F920F920FB60F9211242F938F939F93E8
:10051000EF93FF93E091E501F091E6018081E09196
:10052000EB01F091EC0182FD12C090818091EE010F
:100530008F5F8F732091EF01821751F0E091EE01F0
:10054000F0E0EB52FE4F958F8093EE0101C0808169
:10055000FF91EF919F918F912F910F900FBE0F9070
:100560001F90189590E0FC01EA56FF4F2491FC0182
:10057000EE52FF4F3491FC01E254FF4FE491EE2321
:1005800009F43CC0222339F1233091F038F42130B2
:10059000A9F0223001F584B58F7D12C0273091F08B
:1005A0002830A1F02430B9F4809180008F7D03C001
:1005B000809180008F77809380000DC084B58F7705
:1005C00084BD09C08091B0008F7703C08091B000D6
:1005D0008F7D8093B000F0E0EE0FFF1FEC54FF4FD3
:1005E000A591B4919FB7F894611104C08C91309596
:1005F000382302C0EC913E2B3C939FBF0895CF93CC
:10060000DF9390E0FC01EE52FF4F2491FC01E25495
:10061000FF4F8491882361F190E0880F991FFC01BE
:10062000E457FF4FC591D491FC01EC54FF4FA591C5
:10063000B491611109C09FB7F894888120958223F5
:100640008883EC912E230BC0623061F49FB7F8943D
:100650008881322F309583238883EC912E2B2C9325
:100660009FBF06C08FB7F894E8812E2B28838FBFD9
:10067000DF91CF9108951F93CF93DF93182FEB0154
:1006800061E00E94FF02209711F460E004C0CF3FB8
:10069000D10539F461E0812FDF91CF911F910C9446
:1006A000B202E12FF0E0EA56FF4FE491E330F9F0B7
:1006B00048F4E130B9F0E230A1F584B5806284BD40
:1006C000C8BD34C0E730E9F0E83019F1E43049F54D
:1006D00080918000806280938000D0938B00C093D3
:1006E0008A0024C084B5806884BDC7BD1FC08091C6
:1006F0008000806880938000D0938900C093880038
:1007000015C08091B00080688093B000C093B300A2
:100710000DC08091B00080628093B000C093B4009F
:1007200005C0C038D1050CF0B5CFAFCFDF91CF9168
:100730001F9108958F929F92AF92BF92CF92DF92B6
:10074000EF92FF926B017C010E9482014B015C01E0
:10075000C114D104E104F104F1F00E948201DC0132
:10076000CB0188199909AA09BB09883E9340A105C4
:10077000B10570F321E0C21AD108E108F10888EE52
:10078000880E83E0981EA11CB11CC114D104E104A1
:10079000F10419F7DDCFFF90EF90DF90CF90BF907D
:1007A000AF909F908F9008951F920F920FB60F9267
:1007B00011242F933F938F939F93AF93BF93809177
:1007C000C7019091C801A091C901B091CA013091AF
:1007D000C60123E0230F2D3720F40196A11DB11D82
:1007E00005C026E8230F0296A11DB11D2093C60166
:1007F0008093C7019093C801A093C901B093CA0127
:100800008091CB019091CC01A091CD01B091CE010E
:100810000196A11DB11D8093CB019093CC01A093B3
:10082000CD01B093CE01BF91AF919F918F913F9138
:100830002F910F900FBE0F901F9018951F920F923F
:100840000FB60F9211242F933F934F935F936F93A3
:100850007F938F939F93AF93BF93EF93FF93E09119
:10086000BC02F091BD02309709F451C0968DA68567
:10087000B785858591FF04C09C91892329F447C0E1
:100880009C91892309F043C0A389B4899C918589EF
:10089000809589238C93868997890197F1F7608DDC
:1008A000718DA685B785558538E020E0CB0101978D
:1008B000F1F7822F90E095958795282F4C9145234D
:1008C00009F02068315091F7868D81FD2095809147
:1008D000BB0290E001968F7399273091BA023817C6
:1008E00049F0A091BB02B0E0AA57BE4F2C93809371
:1008F000BB0203C0868D8160868F828D938D0197A8
:10090000F1F7A389B4899C918589892B8C93FF91F8
:10091000EF91BF91AF919F918F917F916F915F9177
:100920004F913F912F910F900FBE0F901F901895F0
:10093000E091BC02F091BD02E817F90769F4A389C0
:10094000B4899C918589809589238C931092BD02EE
:100950001092BC0281E0089580E00895CF93DF9368
:10096000DC01ED91FC91EB01A881B981309711F088
:100970001097C9F4109759F0EB012C813D81232B7E
:1009800031F08C9190E091958195910914C0309748
:1009900081F0DC0114968D919C911597892B49F07B
:1009A000808190E008C0BD01CF01DF91CF910C9410
:1009B0008F1280E090E0DF91CF910895E5EDF1E0B6
:1009C000A089B18982E08C93A485B5851C92A68507
:1009D000B7858FEC8C93108EA489B58986E08C93B3
:1009E000A289B3898C9180618C93A289B3898C91FF
:1009F00088608C93A289B3898C9180688C930288DB
:100A0000F389E02D80818F7D808308951F93CF939C
:100A1000DF93CDB7DEB72C970FB6F894DEBF0FBECD
:100A2000CDBF8EEB92E00E941B02892B29F08EEB4A
:100A300092E00E943302F5CF66E771E0CE0107969F
:100A40000E9443074B855C856F8178858EEB92E031
:100A50000E94290669E371E08EEB92E00E94DB07B9
:100A600064EF71E080E090E00E949A038EEB92E0E8
:100A70000E941B0202975CF16BE371E0CE010196CC
:100A80000E9443078EEB92E00E943302682FCE0152
:100A900001960E94E3068EEB92E00E943302682FDB
:100AA000CE0101960E94E3068D819E81892B49F03B
:100AB00069E771E089819A810E948F1211E0892B88
:100AC00009F010E0CE0101960E943E0701C010E03F
:100AD000CE0107960E943E07812F2C960FB6F89400
:100AE000DEBF0FBECDBFDF91CF911F910895DF9282
:100AF000EF92FF920F931F93CF93DF9300D000D01C
:100B000000D0CDB7DEB785E0F82E93E0E92E24E0E3
:100B1000D22E8091DD02853009F48DC08EEB92E0FB
:100B20000E941B02892B09F46CC08EEB92E00E949C
:100B30003302182F8B3279F58EEB92E00E941B0264
:100B40000A97D4F36BE371E0CE0101960E9443074C
:100B50000AE08EEB92E00E943302182F682FCE013C
:100B600001960E94E3060150A1F72D813E818091FC
:100B7000E2029091E3022817390749F46EED72E022
:100B8000CE0101960E94AE04892B09F44EC0CE011D
:100B900001960E943E07133409F0BBCF8EEB92E022
:100BA0000E941B020897D4F36BE371E0CE0101961B
:100BB0000E94430763E4CE0101960E94E30618E019
:100BC0008EEB92E00E943302682FCE0101960E94C4
:100BD000E3061150A9F72D813E818091E8029091A2
:100BE000E9022817390741F464EE72E0CE0101965C
:100BF0000E94AE04892BE1F0CE0101960E943E07CF
:100C000088CF0E940605882319F0E092DD0281CF8B
:100C100068EC70E080E090E00E949A030E94060574
:100C20008111F3CFF092DD0274CFD092DD02AFCF0D
:100C3000F092DD02E1CF26960FB6F894DEBF0FBE2C
:100C4000CDBFDF91CF911F910F91FF90EF90DF907B
:100C50000895CF92DF92EF92FF920F931F93CF935D
:100C6000DF936C017A018B01C0E0D0E0CE15DF0587
:100C700081F0D8016D918D01D601ED91FC9101902B
:100C8000F081E02DC6010995892B11F02196EECF58
:100C90007E01C701DF91CF911F910F91FF90EF90DF
:100CA000DF90CF9008950F931F93CF93DF93EC01C4
:100CB00088819981009729F02A813B81261737077F
:100CC00088F48B016F5F7F4F0E94BB11009761F02A
:100CD000998388831B830A832C813D81232B11F404
:100CE000FC01108281E001C080E0DF91CF911F9173
:100CF0000F910895CF93DF93CAEFD2E060E08A8529
:100D00000E94B20260E08B85DF91CF910C94B20219
:100D10000F931F93CF93DF93C82FD62F8091FC02A0
:100D200086131AC0CC2319F010E001E002C011E0D4
:100D300000E06091FA02062E000C770B809104030C
:100D40000E943B03602F809100030E94B202612F3A
:100D5000809101030E94B2028091FF02D8131EC04D
:100D6000CC2319F0C0E0D1E002C0C1E0D0E0609136
:100D7000FD02062E000C770B809105030E943B03B9
:100D80006D2F809102030E94B2026C2F80910303A9
:100D9000DF91CF911F910F910C94B202DF91CF910F
:100DA0001F910F91089561E081E00E94880660E044
:100DB00080E00C94880660E081E00E94880661E093
:100DC00080E00C948806EF92FF920F931F93CF93CD
:100DD000DF9300D0CDB7DEB78C0169831A82FC01A6
:100DE000E480F580FFEFEF1AFF0AB7010E94530677
:100DF000882381F0F8012081318184819581BE01B1
:100E00006F5F7F4F820F931F0E949812F801F58247
:100E1000E48281E00F900F90DF91CF911F910F91AD
:100E2000FF90EF900895EF92FF920F931F93CF934F
:100E3000DF93EC017B018A01BA010E9453062881ED
:100E4000398181110DC02115310519F0C9010E94A8
:100E50003211198218821D821C821B821A8206C0DE
:100E60001D830C83B701C9010E949812CE01DF9146
:100E7000CF911F910F91FF90EF900895FC01808119
:100E800091810C943211FC01118210821382128222
:100E9000158214826115710551F0FB01019000204B
:100EA000E9F73197AF01461B570B0C9413070895D0
:100EB0000F931F93CF93DF9300D000D000D0CDB716
:100EC000DEB703E08091DD02833009F469C08EEB68
:100ED00092E00E941B02892B09F44EC08EEB92E037
:100EE0000E943302182F682F85ED91E00E940901BE
:100EF0001B3241F78EEB92E00E941B02892BD1F34B
:100F00008EEB92E00E943302182F682F85ED91E05E
:100F10000E9409011035B1F68EEB92E00E941B028F
:100F20000797D4F36BE371E0CE0101960E9443076B
:100F300060E5CE0101960E94E30617E08EEB92E099
:100F40000E943302682FCE0101960E94E3061150E1
:100F5000A9F78D819E81892B51F06CE771E0898121
:100F60009A810E948F12892B11F40093DD02CE0129
:100F700001960E943E07A6CF0E940605882319F01D
:100F80000093DD029FCF68EC70E080E090E00E946B
:100F90009A030E9406058111F3CF85E08093DD025C
:100FA00026960FB6F894DEBF0FBECDBFDF91CF916E
:100FB0001F910F9108956115710579F0FB01019062
:100FC0000020E9F73197AF01461B570BDC01ED918B
:100FD000FC910280F381E02D099480E090E0089577
:100FE0008F929F92AF92BF92EF92FF920F931F93B7
:100FF000CF93DF93CDB7DEB7A1970FB6F894DEBFDE
:101000000FBECDBF7C01FA01CB0119A2223008F43A
:101010002AE08E010F5D1F4F822E912CA12CB12C46
:10102000BF01A50194010E94FB0EF901CA01015004
:1010300011096A3014F4605D01C0695CD8016C93D9
:10104000232B242B252B61F7B801C7010E94DB0756
:10105000A1960FB6F894DEBF0FBECDBFDF91CF9142
:101060001F910F91FF90EF90BF90AF909F908F9046
:101070000895CF92DF92EF92FF920F931F93E82F84
:10108000F92F05C0015011092109310961F1908141
:1010900096239417B9F305C00150110921093109AC
:1010A00011F1908196239413F7CFC12CD12CE12C10
:1010B000F12C0AC08FEFC81AD80AE80AF80A0C15F2
:1010C0001D052E053F0579F080818623841791F355
:1010D0006C2D7D2D8E2D9F2D1F910F91FF90EF90E8
:1010E000DF90CF90089560E070E080E090E01F9185
:1010F0000F91FF90EF90DF90CF900895789484B592
:10110000826084BD84B5816084BD85B5826085BD03
:1011100085B5816085BD80916E00816080936E0091
:101120001092810080918100826080938100809183
:101130008100816080938100809180008160809334
:1011400080008091B10084608093B1008091B000F4
:1011500081608093B00080917A00846080937A00EF
:1011600080917A00826080937A0080917A00816019
:1011700080937A0080917A00806880937A00109240
:10118000C1001092B6021092B7021092B8021092EB
:10119000B9021092740210927502109276021092A7
:1011A00077020E94A7016B017C014B015C0128EBD7
:1011B000820E2BE0921EA11CB11C0E94A7016C158F
:1011C0007D058E059F0528F086169706A806B906A8
:1011D000A0F785ED91E09093B5028093B4020E9450
:1011E000DE040E94A70160937402709375028093DD
:1011F0007602909377026AE271E08091B402909156
:10120000B5020E94DB070E94A7016B017C014B0124
:101210005C013AE0830E911CA11CB11C0E94A70145
:101220006C157D058E059F0528F086169706A80685
:10123000B906A0F7C1E0C09388020E94DE0488E0EE
:10124000809300038BE0809301038CE08093020382
:101250008DE08093030389E0809304038AE0809308
:10126000050361E088E00E94FF0261E080910103D4
:101270000E94FF0261E0809102030E94FF0261E090
:10128000809103030E94FF0261E0809104030E94A9
:10129000FF0261E0809105030E94FF020E947A062E
:1012A0001092FC02C093FF02C093FB021092FE0258
:1012B0008AEF8093FA028093FD020E9458070E94F1
:1012C000770593E2292E312CC4E6DAEF0E94A701BC
:1012D000672B682B692B41F40E94A70162307105CE
:1012E0008105910508F414C10E94A701C090D101A5
:1012F000D090D201E090D301F090D4016C157D051F
:101300008E059F0540F46093D1017093D2018093C4
:10131000D3019093D401C090D101D090D201E0903C
:10132000D301F090D4019B01AC012C193D094E0969
:101330005F0969017A013AEFC316D104E104F104AF
:1013400008F4E6C06093D1017093D2018093D30179
:101350009093D40184EF91E0A0E0B0E0809380020C
:1013600090938102A0938202B09383021092840230
:101370001092850210928602109287028091780264
:1013800090917902A0917A02B0917B0280937C02C5
:1013900090937D02A0937E02B0937F020E94A701EA
:1013A000609378027093790280937A0290937B0223
:1013B0000E94A70160937402709375028093760275
:1013C000909377020E94A7016B017C016CE371E0AE
:1013D0008091B4029091B5020E94DB072AE041E0BF
:1013E00050E060E070E08091B4029091B5020E94FC
:1013F000F00763E471E08091B4029091B5020E941D
:10140000DB072AE0B701A6018091B4029091B502F2
:101410000E94F00765E471E08091B4029091B502FA
:101420000E94DB078091780290917902A0917A0264
:10143000B0917B02B701A601481B590B6A0B7B0BCD
:101440002AE08091B4029091B5020E94F00765E411
:1014500071E08091B4029091B5020E94DB07409147
:1014600078025091790260917A0270917B028091AA
:101470007C0290917D02A0917E02B0917F02481B78
:10148000590B6A0B7B0B2AE08091B4029091B50254
:101490000E94F00767E471E08091B4029091B50278
:1014A0000E94DB070E94A701AB01BC012AE08091EA
:1014B000B4029091B5020E94F007E090B402F0905F
:1014C000B50269E471E0C7010E94DB0769E371E0DE
:1014D000C7010E94DB070E94A7014B015C016B0161
:1014E0007C0192E0C90ED11CE11CF11C0E94A701F5
:1014F000681579058A059B0508F088C10E94A70137
:10150000609378027093790280937A0290937B02C1
:1015100060E08091EA020E94B20283E090E00197CD
:10152000F1F761E08091EA020E94B202C1010197E5
:10153000F1F760E08091EA020E94B2028091EC0231
:101540009091ED029927FC01EE52FF4F6491FC014E
:10155000E254FF4FE491F0E0EE0FFF1FE655FF4F1E
:101560008591949100E412E42FE030E0462F0E9430
:101570003908611571058105910549F0DC01CB0140
:101580000196A11DB11DBC01CD019F7003C060E09B
:1015900070E0CB012091CF013091D0012233310591
:1015A00009F0C9C00E94DE0D2091EE023091EF02D9
:1015B0004091F0025091F1020E94C10F20E030E012
:1015C00040E05FE30E943D0E6B017C014B015C013A
:1015D00060E571E085ED91E00E94DB07A7019601CF
:1015E000C701B6010E946710882319F065E571E014
:1015F0001AC026013701E89477F82FEF3FEF4FE745
:101600005FE7C301B2010E946710811111C02FEF83
:101610003FEF4FE75FE7C301B2010E94D70D1816F5
:101620003CF469E571E085ED91E00E94DB077FC045
:101630002FEF3FEF4FE75FE4C701B6010E94621052
:1016400018161CF46DE571E0EECF2FEF3FEF4FE77A
:101650005FECC701B6010E94D70D87FDF3CF20E0F4
:1016600030E0A901C701B6010E94D70D87FF0BC06A
:101670006DE285ED91E00E94090146015701B7FA3C
:10168000B094B7F8B0942AE037ED43EA5BE3C501C4
:10169000B4010E94550F4B015C010E9433106B0195
:1016A0007C010E94DC0D9B01AC01C501B4010E94CC
:1016B000540F4B015C012AE0B701A60185ED91E0D2
:1016C0000E94F0076EE285ED91E00E94090120E0A2
:1016D00030E040E251E4C501B4010E943D0E4B01EF
:1016E0005C010E9433106B01E12CF12C2AE0B70160
:1016F000A60185ED91E00E94F007C701B6010E94A6
:10170000DC0D9B01AC01C501B4010E94540F20E027
:1017100030E040E251E40E943D0E0E943310AB01E4
:1017200060E070E02AE085ED91E00E94F007109201
:10173000D0011092CF018091CF019091D0010196FC
:101740009093D0018093CF018091DD02853009F024
:1017500052C08EEB92E00E941B02892B09F44BC011
:101760008EEB92E00E9433028B3219F40E945807EC
:1017700042C08F3F09F43FC0082E000C990BAA0B02
:10178000BB0BFC01E254F109E231F105A0F5EC5C80
:10179000FF4F0C9480100E94DB062DC0C093FD0209
:1017A0000E94DB0609C0C093FA020E94DB060BC050
:1017B000C093FD020E94D306D093FD021CC0C093CB
:1017C000FA020E94D306D093FA0215C061E081E0CC
:1017D0000E94880660E081E009C00E94D3060BC029
:1017E00061E080E00E94880660E080E00E94880658
:1017F00002C00E947A068091DD02833021F40E94AB
:101800007A060E9477050E94780160CDC616D70639
:10181000E806F90608F06ACE71CE84EE92E00E94E6
:101820003E078EED92E00E943E078CE191E090939E
:10183000BF028093BE028EEB92E00C949804CF928C
:10184000DF92EF92FF921092D8011092D70198EE9A
:10185000C92E93E0D92EE12CF12CC092D901D0925F
:10186000DA01E092DB01F092DC018AE091E09093F2
:10187000D6018093D50185EC90E09093E2018093AE
:10188000E10184EC90E09093E4018093E30180EC2B
:1018900090E09093E6018093E50181EC90E09093D5
:1018A000E8018093E70182EC90E09093EA01809355
:1018B000E90186EC90E09093EC018093EB011092AB
:1018C000EE011092EF011092F0011092F1011092CE
:1018D00078021092790210927A0210927B02109292
:1018E0007C0210927D0210927E0210927F02109272
:1018F0008002109281021092820210928302109252
:10190000840210928502109286021092870261E092
:1019100085E00E94FF0260E083E00E94FF0285E014
:1019200090E09093EB028093EA0283E090E0909342
:10193000ED028093EC0285E89CEFACEDB1E480937E
:10194000EE029093EF02A093F002B093F1028CE9C3
:1019500093E5ACE8B2E48093F2029093F302A09393
:10196000F402B093F5021092C1021092C002C0922C
:10197000C202D092C302E092C402F092C5028CE18E
:1019800091E09093BF028093BE021092D502109214
:10199000D4021092D7021092D6021092D90210925D
:1019A000D8021092DB021092DA026091DC026E7FA4
:1019B0006D7F6093DC026695617081E0682784E04A
:1019C0000E94B20261E084E00E94FF02E6EDF0E0D6
:1019D000E491E093CE02E2ECF0E0E491F0E0EE0F6F
:1019E000FF1FEC54FF4F859194919093D002809308
:1019F000CF0260E082E00E94FF028091DC0281FD64
:101A000004C061E082E00E94B20282E08093CA02D8
:101A1000E4EDF0E0E491E093CB02E0ECF0E0E4915F
:101A2000F0E0EE0FFF1FE655FF4F859194919093E4
:101A3000CD028093CC026BE371E08EED92E00E94C8
:101A400043076BE371E084EE92E00E9443074AE0B3
:101A500050E061E671E08EED92E00E94130749E0EC
:101A600050E06CE671E084EE92E00E941307109261
:101A7000DD021092D9021092D8021092D702109271
:101A8000D6021092D5021092D4028DE991E0909383
:101A9000DB028093DA029091CA02963108F058C0B6
:101AA0002DEB30E03093D5022093D4022BE931E0C6
:101AB0003093D7022093D6022CE231E03093D90242
:101AC0002093D80240916800983058F031E09E3061
:101AD00008F430E021E0822F01C0880F3A95EAF740
:101AE00001C084E0842B80936800983038F09E30E9
:101AF00040F0963148F020E030E008C02DE630E0BC
:101B000005C02BE630E002C02CE630E03093D20274
:101B10002093D102983030F481E001C0880F9A956B
:101B2000EAF70EC0292F30E09E3018F42850310912
:101B300002C02E50310981E001C0880F2A95EAF7D2
:101B40008093D3028091DA029091DB020197F1F742
:101B50008091D8029091D902892B21F18091BC0209
:101B60009091BD0222E08E3B9207E1F0009711F0C8
:101B70000E9498048091DC028E7F8093DC02109298
:101B8000BB021092BA028EEB92E09093BD0280935A
:101B9000BC02E091D102F091D20290818091D302F7
:101BA000892B8083FF90EF90DF90CF9008950E9463
:101BB000190E08F481E00895E89409C097FB3EF4FB
:101BC00090958095709561957F4F8F4F9F4F99238A
:101BD000A9F0F92F96E9BB279395F6958795779508
:101BE0006795B795F111F8CFFAF4BB0F11F460FFC8
:101BF0001BC06F5F7F4F8F4F9F4F16C0882311F020
:101C000096E911C0772321F09EE8872F762F05C033
:101C1000662371F096E8862F70E060E02AF09A95CE
:101C2000660F771F881FDAF7880F9695879597F9C3
:101C30000895990F0008550FAA0BE0E8FEEF16165D
:101C40001706E807F907C0F012161306E407F507B0
:101C500098F0621B730B840B950B39F40A2661F024
:101C6000232B242B252B21F408950A2609F4A140C7
:101C7000A6958FEF811D811D08950E94500E0C9432
:101C8000C10E0E94B30E38F00E94BA0E20F09523C8
:101C900011F00C94AA0E0C94B00E11240C94F50EB5
:101CA0000E94D20E70F3959FC1F3950F50E0551F1F
:101CB000629FF001729FBB27F00DB11D639FAA27A1
:101CC000F00DB11DAA1F649F6627B00DA11D661FF0
:101CD000829F2227B00DA11D621F739FB00DA11D11
:101CE000621F839FA00D611D221F749F3327A00DCB
:101CF000611D231F849F600D211D822F762F6A2F67
:101D000011249F5750409AF0F1F088234AF0EE0FCB
:101D1000FF1FBB1F661F771F881F91505040A9F7F8
:101D20009E3F510580F00C94AA0E0C94F50E5F3F77
:101D3000E4F3983ED4F3869577956795B795F79534
:101D4000E7959F5FC1F7FE2B880F911D96958795AC
:101D500097F9089597F99F6780E870E060E008952B
:101D60009FEF80EC089500240A94161617061806B3
:101D70000906089500240A9412161306140605068F
:101D80000895092E0394000C11F4882352F0BB0F20
:101D900040F4BF2B11F460FF04C06F5F7F4F8F4F83
:101DA0009F4F089557FD9058440F551F59F05F3FBE
:101DB00071F04795880F97FB991F61F09F3F79F06D
:101DC00087950895121613061406551FF2CF4695EF
:101DD000F1DF08C0161617061806991FF1CF869571
:101DE0007105610508940895E894BB276627772755
:101DF000CB0197F90895A1E21A2EAA1BBB1BFD0186
:101E00000DC0AA1FBB1FEE1FFF1FA217B307E407D9
:101E1000F50720F0A21BB30BE40BF50B661F771F31
:101E2000881F991F1A9469F7609570958095909511
:101E30009B01AC01BD01CF0108952F923F924F92BB
:101E40005F926F927F928F929F92AF92BF92CF924A
:101E5000DF92EF92FF920F931F93CF93DF93CDB753
:101E6000DEB7CA1BDB0B0FB6F894DEBF0FBECDBFCB
:101E700009942A88398848885F846E847D848C849C
:101E80009B84AA84B984C884DF80EE80FD800C81A5
:101E90001B81AA81B981CE0FD11D0FB6F894DEBF88
:101EA0000FBECDBFED0108955058BB27AA270E9451
:101EB0006C0F0C94C10E0E94B30E38F00E94BA0E43
:101EC00020F039F49F3F19F426F40C94B00E0EF470
:101ED000E095E7FB0C94AA0EE92F0E94D20E58F36E
:101EE000BA17620773078407950720F079F4A6F5FF
:101EF0000C94F40E0EF4E0950B2EBA2FA02D0B01CE
:101F0000B90190010C01CA01A0011124FF27591B3E
:101F100099F0593F50F4503E68F11A16F040A22F44
:101F2000232F342F4427585FF3CF469537952795B5
:101F3000A795F0405395C9F77EF41F16BA0B620BB4
:101F4000730B840BBAF09150A1F0FF0FBB1F661FFB
:101F5000771F881FC2F70EC0BA0F621F731F841F3E
:101F600048F4879577956795B795F7959E3F08F064
:101F7000B0CF9395880F08F09927EE0F9795879526
:101F800008950E94D50F0C94C10E0E94BA0E58F00D
:101F90000E94B30E40F029F45F3F29F00C94AA0E82
:101FA00051110C94F50E0C94B00E0E94D20E68F3F1
:101FB0009923B1F3552391F3951B550BBB27AA2702
:101FC00062177307840738F09F5F5F4F220F331F3C
:101FD000441FAA1FA9F335D00E2E3AF0E0E832D004
:101FE00091505040E695001CCAF72BD0FE2F29D007
:101FF000660F771F881FBB1F261737074807AB07D9
:10200000B0E809F0BB0B802DBF01FF2793585F4F4D
:102010003AF09E3F510578F00C94AA0E0C94F50E00
:102020005F3FE4F3983ED4F3869577956795B7952F
:10203000F7959F5FC9F7880F911D9695879597F93A
:102040000895E1E0660F771F881FBB1F62177307B3
:102050008407BA0720F0621B730B840BBA0BEE1FC8
:1020600088F7E09508950E94DA0E88F09F5798F05F
:10207000B92F9927B751B0F0E1F0660F771F881F8D
:10208000991F1AF0BA95C9F714C0B13091F00E94A7
:10209000F40EB1E008950C94F40E672F782F882782
:1020A000B85F39F0B93FCCF3869577956795B395CE
:1020B000D9F73EF490958095709561957F4F8F4F3D
:1020C0009F4F08950E94190E08F48FEF08950E9403
:1020D000190E880B990B089597FB072E16F40094A0
:1020E00007D077FD09D00E94861007FC05D03EF48A
:1020F000909581959F4F0895709561957F4F0895B4
:10210000EE0FFF1F0590F491E02D0994AA1BBB1B55
:1021100051E107C0AA1FBB1FA617B70710F0A61BE7
:10212000B70B881F991F5A95A9F780959095BC0108
:10213000CD0108950F931F93CF93DF9382309105C4
:1021400010F482E090E0E0910803F091090320E0B0
:1021500030E0A0E0B0E0309719F140815181028178
:10216000138148175907C8F08417950769F4109729
:1021700031F012960C93129713961C9327C000937C
:1021800008031093090322C02115310519F04217E5
:10219000530718F49A01BD01EF01DF01F801DBCF0D
:1021A00021153105F9F0281B390B2430310580F455
:1021B0008A819B816115710521F0FB0193838283E4
:1021C00004C09093090380930803FE01329644C033
:1021D000FE01E20FF31F819391932250310939835D
:1021E00028833AC02091060330910703232B41F442
:1021F00020910201309103013093070320930603DD
:1022000020910001309101012115310541F42DB7D4
:102210003EB74091040150910501241B350BE0911C
:102220000603F0910703E217F307A0F42E1B3F0B00
:102230002817390778F0AC014E5F5F4F2417350738
:1022400048F04E0F5F1F509307034093060381939E
:10225000919302C0E0E0F0E0CF01DF91CF911F91B8
:102260000F910895CF93DF93009709F481C0FC018B
:10227000329713821282A0910803B091090310973C
:1022800081F420813181820F931F209106033091C8
:1022900007032817390751F5F0930703E093060366
:1022A00067C0ED0120E030E0CE17DF0740F44A813F
:1022B0005B819E0141155105F1F0EA01F5CFD38311
:1022C000C28340815181840F951FC817D90759F4E3
:1022D00088819981840F951F0296918380838A81DA
:1022E0009B81938382832115310529F4F09309039F
:1022F000E09308033DC0E901FB83EA8349915991CA
:10230000C40FD51FEC17FD0761F480819181840F04
:10231000951F0296E90199838883828193819B832B
:102320008A83E0E0F0E012968D919C9113970097DC
:1023300019F0FD01DC01F7CF8D919C9111979D0162
:102340002E5F3F4F820F931F2091060330910703AA
:102350002817390769F4309729F41092090310926D
:10236000080302C013821282B0930703A0930603EE
:10237000DF91CF910895A0E0B0E0E1ECF1E10C94A1
:10238000210FEC01009721F4CB010E949A10B4C0F8
:10239000FC01E60FF71F9C0122503109E217F307F9
:1023A00008F4A8C0D9010D911C91119706171707C1
:1023B000B0F00530110508F49BC0C80104978617DA
:1023C000970708F495C002501109061B170B0193DB
:1023D00011936D937C93CF010E94321189C05B01F0
:1023E000A01AB10A4C01800E911EA0910803B09171
:1023F0000903612C712CE12CF12C109709F446C0D3
:102400008D919C911197A815B905B1F56C0142E029
:10241000C40ED11CCA14DB0478F14C018A189B0845
:10242000640142E0C40ED11C1296BC901297139620
:10243000AC91B5E0CB16D10440F0B282A383918277
:102440008082D9016D937C9309C00E5F1F4F800F6E
:10245000911FF90191838083EB2DFA2FE114F10490
:1024600031F0D7011396FC93EE93129741C0F0938D
:102470000903E09308033CC06816790608F43C01A0
:102480007D0112960D90BC91A02DB7CF80910603CF
:102490009091070388169906E1F466167706C8F44A
:1024A0008091000190910101009741F48DB79EB792
:1024B0004091040150910501841B950BE817F90721
:1024C000C8F4F0930703E0930603F9017183608376
:1024D0000FC0CB010E949A107C01009759F0A8010F
:1024E000BE010E948612CE010E943211C70104C0B3
:1024F000CE0102C080E090E0CDB7DEB7EEE00C94F4
:102500003D0F81E090E0F8940C949F12FB01DC01F8
:1025100002C001900D9241505040D8F70895FB0140
:10252000DC018D91019080190110D9F3990B089568
:10253000FB01DC0101900D920020E1F7089510E00D
:10254000C4E7D0E004C0FE010E9480102196C53788
:08255000D107C9F7F894FFCF91
:1025580000000A0380000000000009012906A0000D
:102568005601D100AF00C30000000000CB012906CE
:1025780055029F001B023302B301564D4450565F6B
:10258800317C315F564D4450560D0A00564D44502B
:10259800455F003A323A007C005F564D4450450092
:1025A800434D3A20006E616E00696E66006F766674
:1025B80000434F4E4E454354494E4700434F4E4EFD
:1025C8004543544544004154004F4B005041495243
:0625D80041424C450000E9
:00000001FF
