:10000000BEC10000EDC10000EBC10000E9C100006D
:10001000E7C10000E5C10000E3C10000E1C100004C
:10002000DFC10000DDC10000DBC10000D9C100005C
:10003000D7C10000D5C10000D3C10000D1C100006C
:10004000CFC10000CDC10000CBC10000C9C100007C
:10005000C7C10000C5C10000C3C10000FAC500004F
:10006000BFC1000077C30000CDC30000B9C10000CC
:10007000B7C10000B5C10000B3C10000B1C10000AC
:10008000AFC10000ADC10000ABC10000A9C10000BC
:10009000A7C10000A5C10000A3C10000A1C10000CC
:1000A0009FC100009DC100009BC1000099C10000DC
:1000B00097C1000095C1000093C1000091C10000EC
:1000C0008FC100008DC100008BC1000089C10000FC
:1000D00087C1000085C100000FC20000E4C100001C
:1000E0007FC10000040E7E0C280E280E280E6B0C1B
:1000F0006D0C770C280E720C280E800C160E280E34
:10010000840C280E290D7C0C820C280E280E280E3B
:10011000E90C280E280E710D4A034D033C034003E1
:1001200046038403510355035B035F0363036903C1
:100130006D037103840377037B037F035105560529
:100140005B0565056F05E80579058105890593055A
:100150009D05A705B605C005E805CA05D405DE0559
:1001600000407A10F35A00A0724E18090010A5D46E
:10017000E80000E87648170000E40B54020000CACB
:100180009A3B000000E1F505000080969800000011
:1001900040420F000000A086010000001027000070
:1001A0000000E803000000006400000000000A00F6
:1001B000000000000100000000002C76D888DC67F9
:1001C0004F0823DFC1DFAE59E1B1B796E5E3E45351
:1001D000C63AE651997696E8E6C28426EB898C9B6E
:1001E00062ED407C6FFCEFBC9C9F40F2BAA56FA50E
:1001F000F490055A2AF75C936B6CF9676DC11BFC90
:10020000E0E40D47FEF520E6B500D0ED902E0300AA
:10021000943577050080841E080000204E0A0000F7
:1002200000C80C333333330F986E12831141EF8DB6
:100230002114893BE65516CFFEE6DB18D1844B38F6
:100240001BF77C1D901DA4BBE424203284725E2227
:100250008100C9F124ECA1E53D2700002100240024
:1002600027002A002D0030003300010100000401A6
:1002700007010A0100002200250028002B002E00A3
:100280003100340002010000050108010B010000EB
:1002900020002300260029002C002F00320000013E
:1002A0000000030106010901050505050705080809
:1002B0000808020202020A0A0808040404040101F0
:1002C0000101010101010303030303030303040705
:1002D00007070C0C0C0C0C0C0C0C0202020206069C
:1002E0000606060606060B0B0B0B0B0B0B0B01028F
:1002F0001020200808102040102040800201020138
:1003000008040201010204081020408080402010EF
:100310000804020180040201804020100804020148
:1003200008040201010204081020408001020408B0
:100330001020408000000A0B02090C0D0E08070374
:1003400004010000000000000000000000000000A8
:10035000000000000000000000000000000000009D
:10036000121110000000000000000000000000005A
:1003700000000000000000000000810F780F112431
:100380001FBECFEFD1E2DEBFCDBF00E00CBF24E047
:10039000ACEEB2E001C01D92A937B207E1F712E05E
:1003A000A0E0B2E0EEE6FEE200E00BBF02C0079084
:1003B0000D92AC3EB107D9F711E0CEEBD1E000E0F1
:1003C00006C021970109802FFE010E940015CD3B38
:1003D000D10780E00807A9F70E943B0B0C94261771
:1003E0000FCECF92DF92EF92FF920F931F93CF9396
:1003F000DF936C017A018B01C0E0D0E0CE15DF0500
:1004000081F0D8016D918D01D601ED91FC910190A3
:10041000F081E02DC6011995892B11F02196EECFC0
:100420007E01C701DF91CF911F910F91FF90EF9057
:10043000DF90CF900895FB01DC0111961C921E9273
:1004400013961C921E92129715961C921E92149748
:100450008617970749F0608171816115710521F058
:10046000448155810C948F0A08958BE193E0AFD0BD
:1004700021E0892B09F420E0822F0895FC011182EC
:10048000108213821282158214826115710551F057
:10049000FB0101900020E9F73197AF01461B570B94
:1004A0000C948F0A08951F920F920FB60F92112489
:1004B0000BB60F922F933F934F935F936F937F935E
:1004C0008F939F93AF93BF93EF93FF938BE193E051
:1004D00077D1FF91EF91BF91AF919F918F917F91D4
:1004E0006F915F914F913F912F910F900BBE0F90A5
:1004F0000FBE0F901F9018951F920F920FB60F927C
:1005000011240BB60F922F938F939F93EF93FF932A
:10051000E0912B03F0912C038081E0913103F09165
:10052000320382FD12C09081809134038F5F8F73FC
:1005300020913503821751F0E0913403F0E0E55E3D
:10054000FC4F958F8093340301C08081FF91EF9120
:100550009F918F912F910F900BBE0F900FBE0F9018
:100560001F901895089580E090E00895FC01538D48
:10057000448D252F30E0842F90E0821B930B54177D
:1005800010F0CF96089501970895FC01918D828D0A
:10059000981761F0828DDF01A80FB11D5D968C91D7
:1005A000928D9F5F9F73928F90E008958FEF9FEFE2
:1005B0000895FC01918D828D981731F0828DE80F9E
:1005C000F11D858D90E008958FEF9FEF0895FC0158
:1005D000918D228D892F90E0805C9F4F821B910925
:1005E0008F739927089588EB93E0F1DF21E0892B41
:1005F00009F420E0822F089580E090E0892B19F023
:10060000F2DF811120C080E090E0892B41F080E092
:1006100090E0892B21F00E940000811117C080E03A
:1006200090E0892B41F080E090E0892B21F00E943E
:10063000000081110EC080E090E0892B79F015DF79
:1006400081110AC008950E940000DDCF0E940000C1
:10065000E6CF0E940000EFCF0C940000089590E0D8
:10066000FC013197E231F10508F04EC08827E457CC
:10067000FF4F8F4F0C940015809180008F7703C03F
:10068000809180008F7D809380000895809180000C
:10069000877FF9CF84B58F7702C084B58F7D84BD05
:1006A00008958091B0008F7703C08091B0008F7D56
:1006B0008093B0000895809190008F7707C080915B
:1006C00090008F7D03C080919000877F8093900081
:1006D00008958091A0008F7707C08091A0008F7D42
:1006E00003C08091A000877F8093A000089580912F
:1006F00020018F7707C0809120018F7D03C08091FA
:100700002001877F8093200108953FB7F89480915E
:10071000070390910803A0910903B0910A0326B53D
:10072000A89B05C02F3F19F00196A11DB11D3FBF29
:10073000BA2FA92F982F8827820F911DA11DB11DB7
:10074000BC01CD0142E0660F771F881F991F4A95B3
:10075000D1F708951F920F920FB60F9211240BB686
:100760000F922F938F939F93EF93FF93E091C80382
:10077000F091C9038081E091CE03F091CF0382FD17
:1007800012C090818091D1038F5F8F732091D2032B
:10079000821751F0E091D103F0E0E854FC4F958FBF
:1007A0008093D10301C08081FF91EF919F918F9140
:1007B0002F910F900BBE0F900FBE0F901F901895AA
:1007C000FC01848DDF01A80FB11DA35ABF4F2C91EE
:1007D000848D90E001968F739927848FA689B789BD
:1007E0002C93A089B1898C91837080648C93938DB4
:1007F000848D981306C00288F389E02D80818F7D57
:10080000808308951F920F920FB60F9211240BB69A
:100810000F922F933F934F935F936F937F938F9399
:100820009F93AF93BF93EF93FF9388EB93E0C8DF61
:10083000FF91EF91BF91AF919F918F917F916F91B8
:100840005F914F913F912F910F900BBE0F900FBE74
:100850000F901F901895EF92FF920F931F93CF93D5
:10086000DF93EC0181E0888F9B8D8C8D981305C000
:10087000E889F989808185FD25C0F62E0B8D10E071
:100880000F5F1F4F0F731127E02E8C8DE8120BC0E6
:100890000FB607FCFACFE889F989808185FFF5CF8B
:1008A000CE018EDFF2CF8B8DFE01E80FF11DE35AF2
:1008B000FF4FF0829FB7F8940B8FEA89FB89808104
:1008C00080620AC09FB7F894EE89FF896083E88947
:1008D000F98980818370806480839FBF81E090E08C
:1008E000DF91CF911F910F91FF90EF900895CF93DB
:1008F000DF93EC01888D8823C1F0EA89FB89808130
:1009000085FD05C0A889B9898C9186FD0EC00FB6FA
:1009100007FCF5CF808185FFF2CFA889B9898C913A
:1009200085FFEDCFCE014CDFE8CFDF91CF91089569
:10093000CF93DF93282F30E0F901EC5CFC4F8491DA
:10094000F901E251FD4FD491F901E855FD4FC491F1
:10095000CC2389F0811183DEEC2FF0E0EE0FFF1F36
:10096000E257FD4FA591B491EC91ED2381E090E029
:1009700021F480E002C080E090E0DF91CF91089503
:100980001F93CF93DF93282F30E0F901EC5CFC4FED
:100990008491F901E251FD4FD491F901E855FD4FE1
:1009A000C491CC23B9F0162F811159DEEC2FF0E061
:1009B000EE0FFF1FEC58FD4FA591B4919FB7F8942F
:1009C000111104C08C91D095D82302C0EC91DE2B7C
:1009D000DC939FBFDF91CF911F910895CF93DF9359
:1009E00090E0FC01E251FD4F2491FC01E855FD4FE0
:1009F0008491882361F190E0880F991FFC01E65AE9
:100A0000FD4FC591D491FC01EC58FD4FA591B491D7
:100A1000611109C09FB7F89488812095822388834B
:100A2000EC912E230BC0623061F49FB7F89488815B
:100A3000322F309583238883EC912E2B2C939FBFEC
:100A400006C08FB7F894E8812E2B28838FBFDF91E3
:100A5000CF9108951F93CF93DF93182FEB0161E09F
:100A6000BDDF209711F460E004C0CF3FD10531F421
:100A700061E0812FDF91CF911F9182CFE12FF0E0D4
:100A8000EC5CFC4FE4918E2F90E0FC013197E23159
:100A9000F10508F09DC08827E256FF4F8F4F0C9458
:100AA000001584B5806884BDC7BD97C084B58062D9
:100AB00084BDC8BD92C08091800080688093800012
:100AC000D0938900C093880088C0809180008062A4
:100AD00080938000D0938B00C0938A007EC0809169
:100AE0008000886080938000D0938D00C0938C003C
:100AF00074C08091B00080688093B000C093B30050
:100B00006CC08091B00080628093B000C093B4004C
:100B100064C080919000806880939000D093990089
:100B2000C09398005AC0809190008062809390009A
:100B3000D0939B00C0939A0050C080919000886031
:100B400080939000D0939D00C0939C0046C08091FC
:100B5000A00080688093A0008091A0008F7B80938C
:100B6000A000D093A900C093A80037C08091A00036
:100B700080628093A000D093AB00C093AA002DC0E8
:100B80008091A00088608093A000D093AD00C093B6
:100B9000AC0023C080912001806880932001D09315
:100BA0002901C093280119C080912001806280939F
:100BB0002001D0932B01C0932A010FC08091200106
:100BC000886080932001D0932D01C0932C0105C033
:100BD000C038D1050CF04CCF46CFDF91CF911F919B
:100BE00008958F929F92AF92BF92CF92DF92EF9231
:100BF000FF926B017C0189DD4B015C01C114D104C2
:100C0000E104F104E9F081DDDC01CB0188199909E7
:100C1000AA09BB09883E9340A105B10578F321E0FC
:100C2000C21AD108E108F10888EE880E83E0981E08
:100C3000A11CB11CC114D104E104F10421F7DECFE1
:100C4000FF90EF90DF90CF90BF90AF909F908F90EC
:100C500008951F920F920FB60F9211242F933F9376
:100C60008F939F93AF93BF9380910B0390910C034D
:100C7000A0910D03B0910E033091060323E0230FE2
:100C80002D3720F40196A11DB11D05C026E8230FC4
:100C90000296A11DB11D2093060380930B03909330
:100CA0000C03A0930D03B0930E0380910703909162
:100CB0000803A0910903B0910A030196A11DB11D7B
:100CC0008093070390930803A0930903B0930A034A
:100CD000BF91AF919F918F913F912F910F900FBE38
:100CE0000F901F9018950F931F93CF93DF936DEA8A
:100CF00072E088EB93E05FD20CEE12E0C0E0D0E04F
:100D0000CE010E941514F80181938F012196CE30F7
:100D1000D105B1F78091EC029091ED02A091EE0225
:100D2000B091EF024697A105B10579F16BEB72E046
:100D300088EB93E040D286E190E0A0E0B0E08093C1
:100D4000EC029093ED02A093EE02B093EF028AE0E2
:100D500090E09093F9028093F8028EE190E09093F6
:100D6000F7028093F60282E390E09093F50280937D
:100D7000F40286E490E09093F3028093F20284E61A
:100D800090E09093F1028093F00269EC72E088EBBE
:100D900093E011D28091F8029091F9029093FB02B6
:100DA0008093FA028091F6029091F7029093FD02EF
:100DB0008093FC028091F4029091F5029093FF02DF
:100DC0008093FE028091F2029091F30290930103CE
:100DD000809300038091F0029091F10290930303BD
:100DE00080930203DF91CF911F910F9108951F937C
:100DF000CF93DF9300D000D0CDB7DEB78BE193E087
:100E0000E6DB892B21F08BE193E0BFDBF7CF6AEDC6
:100E100072E0CE01019632DBCE010196E7D3182FA6
:100E2000CE010196DED3812F26960FB6F894DEBF51
:100E30000FBECDBFDF91CF911F9108950F931F93E8
:100E4000CF93DF9300D000D0CDB7DEB703E0809121
:100E50000403833009F45AC08BE193E0B8DB892B9B
:100E600009F443C08BE193E090DB182F682F88EBE7
:100E700093E0F1DC1B3259F78BE193E0A8DB892B7F
:100E8000D9F38BE193E081DB182F682F88EB93E097
:100E9000E2DC1035E1F68BE193E099DB0797DCF3B8
:100EA00068EE72E0CE010196E9DA60E5CE010196C6
:100EB000E9D217E08BE193E068DB682FCE01019661
:100EC000E1D21150B9F78D819E81892B51F06DEDE2
:100ED00072E089819A810E941617892B11F4009380
:100EE0000403CE0101967DD3B2CF81DF882319F0B0
:100EF00000930403ACCF68EC70E080E090E071DE1A
:100F000076DF8111F5CF85E08093040326960FB636
:100F1000F894DEBF0FBECDBFDF91CF911F910F912F
:100F20000895DF92EF92FF920F931F93CF93DF9379
:100F300000D000D0CDB7DEB785E0F82E93E0E92EE3
:100F400024E0D22E80910403853009F476C08BE131
:100F500093E03DDB892B09F45EC08BE193E015DB68
:100F6000182F8B3249F58BE193E031DB0A97DCF3E4
:100F700068EE72E0CE01019681DA0AE08BE193E03F
:100F800004DB182F682FCE0101967CD20150B1F7F7
:100F90002D813E8180916504909166042817390760
:100FA00041F461E674E0CE01019603D2892B09F485
:100FB0003EC0CE01019615D3133409F0C3CF8BE1A7
:100FC00093E005DB0897DCF368EE72E0CE01019652
:100FD00055DA63E4CE01019655D218E08BE193E037
:100FE000D4DA682FCE0101964DD21150B9F72D8178
:100FF0003E8180915F04909160042817390739F48D
:101000006BE574E0CE010196D4D1892B99F0CE0125
:101010000196E7D297CFEBDE882319F0E092040324
:1010200091CFE5DE8111FACFF09204038BCFD092FD
:101030000403BFCFF0920403EACF26960FB6F894CC
:10104000DEBF0FBECDBFDF91CF911F910F91FF90FB
:10105000EF90DF9008950F931F93CF93DF93C82FE6
:10106000D62F80911103861317C0CC2319F010E0FE
:1010700001E002C011E000E060910F03062E000CB9
:10108000770B80911903E6DC602F8091150378DCE3
:10109000612F8091160374DC80911403D8131BC058
:1010A000CC2319F0C0E0D1E002C0C1E0D0E06091F3
:1010B0001203062E000C770B80911A03CBDC6D2FE8
:1010C000809117035DDC6C2F80911803DF91CF9125
:1010D0001F910F9155CCDF91CF911F910F910895E2
:1010E0000E9409170F931F93CF93DF93EC01888120
:1010F0009981009729F02A813B812617370788F4C8
:101100008B016F5F7F4F0E942916009761F09983D2
:1011100088831B830A832C813D81232B11F4FC01DE
:10112000108281E001C080E0DF91CF911F910F918B
:101130000895FC01A089B18982E08C93A485B585CE
:101140001C92A685B78580E18C93108EA489B58901
:1011500086E08C93A289B3898C9180618C93A2895B
:10116000B3898C9188608C93A289B3898C918068B3
:101170008C930288F389E02D80818F7D8083089590
:1011800061E081E068DF60E080E065CF61E080E001
:1011900062DF60E080E05FCF6115710549F0FB011F
:1011A00001900020E9F73197AF01461B570B19C991
:1011B00080E090E008950F931F93CF93DF93EC01AD
:1011C000EBDF8C0166EE72E0CE01E6DF800F911F4F
:1011D000DF91CF911F910F91089560E081E03BDF97
:1011E00061E080E038CF61E081E035DF60E081E000
:1011F00032CF0F931F93CF93DF93EC01FB01448118
:10120000558160817181EDD88C0166EE72E0CE016E
:10121000C3DF800F911FDF91CF911F910F91089530
:10122000EF92FF921F93CF93DF9361E080916D0463
:10123000A7DB6AEF70E080E090E0D3DC2FB7F89492
:1012400080910B0390910C03A0910D03B0910E03BC
:101250002FBF40917004509171046091720470919D
:10126000730484179507A607B70740F4109270041B
:1012700010927104109272041092730420917404FD
:10128000211113C040917004509171046091720457
:1012900070917304841B950BA60BB70B803D974090
:1012A000A105B10510F481E07EC0109274042FB73F
:1012B000F89480910B0390910C03A0910D03B091D1
:1012C0000E032FBF8093700490937104A093720457
:1012D000B093730410926B0410926A041092690424
:1012E000109268041092670461E080916D0476DBCF
:1012F00060E080916D0444DB64E170E080E090E0A8
:1013000070DC61E080916D043BDB8BE990E001973C
:10131000F1F760E080916D0461DB10E081E0C0E0F6
:10132000D0E0E82EF12C80916D0402DB8E159F0534
:1013300019F4DF5FDF3FB9F780916D04F9DADF3F21
:10134000C1F0C43098F0C0FD11C0E12FE695E695DC
:10135000E695F0E0E959FB4F9081990F9083209139
:101360006F042D1710F4916090831F5FCF5FC53518
:10137000B9F61832B8F020916B0430E04091670460
:101380008091680490E0840F911D40916904840F5E
:10139000911D40916A04840F911D992728173907E0
:1013A00009F481CF80E0DF91CF911F91FF90EF9002
:1013B0000895CF93DF93DC01ED91FC91EB01A881BF
:1013C000B981309711F01097C9F4109759F0EB01DB
:1013D0002C813D81232B31F08C9190E0919581956A
:1013E000910914C0309781F0DC0114968D919C9185
:1013F0001597892B49F0808190E008C0BD01CF018D
:10140000DF91CF910C94161780E090E0DF91CF919F
:101410000895CF93DF93CFE0D3E060E08A85B0DA20
:1014200060E08B85DF91CF91ABCAEF92FF920F9373
:101430001F93CF93DF936115710511F480E01BC0FA
:1014400041155105B9F07B01EC018C819D818A0128
:10145000080F191FB801CE0145DE882379F32881D2
:1014600039818C819D81B701820F931F0E941F17C4
:101470001D830C8381E0DF91CF911F910F91FF902D
:10148000EF900895CF93DF931F921F92CDB7DEB7F1
:1014900069831A8241E050E0BE016F5F7F4FC5DF74
:1014A0000F900F90DF91CF910895CF93DF93EC01D0
:1014B00088819981009711F00E94A01519821882E5
:1014C0001D821C821B821A82DF91CF910895CF93D7
:1014D000DF93EC016115710559F0FB0101900020CB
:1014E000E9F73197AF01461B570B9FDF811102C00F
:1014F000CE01DBDFCE01DF91CF910895CF93DF9353
:10150000EC01FB0144815581608171818EDF811185
:1015100002C0CE01CADFCE01DF91CF910895EF92D4
:10152000FF920F931F93CF93DF93EC017B018A010E
:10153000BA01D8DD811103C0CE01B7DF07C01D831A
:101540000C83B701888199810E941F17CE01DF911A
:10155000CF911F910F91FF90EF900895CF93DF935C
:10156000EC016115710551F0FB0101900020E9F7D4
:101570003197AF01461B570BD2DF01C096DFCE017A
:10158000DF91CF910895EF92FF920F931F93CF9326
:10159000DF93CDB7DEB7A1970FB6F894DEBF0FBECD
:1015A000CDBF7C01CB01BA01F701118210821382F9
:1015B0001282158214828E010F5F1F4F22E044E0D9
:1015C00040D5BC01C701CADFA1960FB6F894DEBFB3
:1015D0000FBECDBFDF91CF911F910F91FF90EF9084
:1015E0000895FC01808191810C94A0151F93CF93E5
:1015F000DF9300D000D0CDB7DEB7BC018BE193E024
:10160000F8DD8BE193E00E94E702029744F168EE77
:1016100072E0CE0101960E943E028BE193E00E94AF
:10162000C502682FCE0101962DDF8BE193E00E9469
:10163000C502682FCE01019625DF8D819E81892B01
:1016400049F069EE72E089819A810E94161711E0D3
:10165000892B09F010E0CE010196C3DF01C010E034
:10166000812F26960FB6F894DEBF0FBECDBFDF9157
:10167000CF911F910895CF93DF93CDB7DEB7AA978F
:101680000FB6F894DEBF0FBECDBF789484B58260EC
:1016900084BD84B5816084BD85B5826085BD85B516
:1016A000816085BD80916E00816080936E00109294
:1016B000810080918100826080938100809181000F
:1016C00081608093810080918000816080938000A0
:1016D0008091B10084608093B1008091B0008160FE
:1016E0008093B000809191008260809391008091FE
:1016F000910081608093910080919000816080933F
:1017000090008091A10082608093A1008091A1004F
:1017100081608093A1008091A00081608093A000EF
:10172000809121018260809321018091210181605B
:10173000809321018091200181608093200180911C
:101740007A00846080937A0080917A00826080932E
:101750007A0080917A00816080937A0080917A008B
:10176000806880937A001092C10088EB93E0E1DCFE
:101770008BE193E0DEDC69E172E081E694E0EEDE8D
:1017800064E272E08BE594E0E9DE1092040388E005
:10179000809315038BE0809316038CE080931703EE
:1017A0008DE08093180389E0809319038AE0809389
:1017B0001A0361E088E012D961E0809116030ED926
:1017C00061E0809117030AD961E08091180306D97E
:1017D00061E08091190302D961E080911A03FED87B
:1017E00018DE1092110381E080931403809310039C
:1017F000109213038CED80930F038093120373DA1E
:101800001DDB8FDB6EE272E085E594E0A7DE36E15A
:10181000432E512C612C712C44E0242E43E0342EB5
:1018200080910403853069F48BE193E00E94E70224
:10183000892B39F08BE193E00E94C5028B3211F4C1
:10184000FDDA8FEF8093050380910403833011F458
:10185000E0DD67DB8091590490915A0410910503F3
:10186000892B69F060E372E08091550490915604F1
:101870000E941617892B19F41D3409F0EEC18091CE
:101880000002181709F4E4C11093000262E372E049
:1018900088EB93E081DC6091050388EB93E00E9484
:1018A0002B0467EE72E088EB93E076DCB0900503E2
:1018B0008B2D0B2C000C990BAA0BBB0BFC01E154DC
:1018C000F109EA31F10508F0C3C18827EE58FF4F4E
:1018D0008F4F0C94001581DCBBC17FDC8CED8093B5
:1018E0000F03B6C14DDCECEDE0931203B1C148DC4F
:1018F000FCEDF0930F03ACC176DCAAC141DCA8C1BA
:1019000045DCA6C186DDA4C1EED968EE72E0CE0149
:1019100049960E943E0242E050E067E472E0CE0148
:10192000499683DD0AEF12E0F801819191918F01D0
:101930001C8A1B8A1E8A1D8A188E1F8A4AE0BE01D5
:101940006F5F7F4FC3D3BE016F5F7F4FCE01439662
:1019500005DE1A8219821C821B821E821D826B89FF
:101960007C896115710529F04F89588DCE0101964A
:10197000D6DD6FE2CE01019685DD811103C0CE0177
:10198000019693DD4D815E8169817A81CE01499610
:101990004CDDCE01019625DECE01439622DE2016D7
:1019A000310609F0C1CF41E050E06AE472E0CE01B7
:1019B00049963BDDBE01675E7F4F8BE193E019DC0A
:1019C000BE01675E7F4F88EB93E013DCCE01499642
:1019D0003EC168EE72E0CE0101960E943E0200E038
:1019E00010E087E5B81639F1EFE2BE1220C08D8114
:1019F0009E81892B01F189819A81FC01208122231A
:101A0000D1F0009711F03CD303C060E070E0CB014F
:101A1000F801EE0FFF1FE650FD4F718360830F5FEB
:101A20001F4F68EE72E0CE01019698DD04C06B2D69
:101A3000CE01019627DD8BE193E00E94C502B82E0E
:101A4000F8E5BF12CECF6CE472E08BE193E0B3DB3C
:101A5000FCC04092EC025092ED026092EE02709255
:101A6000EF028091FA029091FB029093F902809329
:101A7000F8028091FC029091FD029093F70280930E
:101A8000F6028091FE029091FF029093F5028093FE
:101A9000F40280910003909101039093F3028093EC
:101AA000F20280910203909103039093F1028093DC
:101AB000F0029CEEA92E92E0B92E00E010E0F501B4
:101AC00091905F01C801B1D6981619F0692DC8012F
:101AD000B4D60F5F1F4F0E30110589F76EE472E028
:101AE000ADC040E050E060E471E4CE0185964BDD8E
:101AF00097DB882369F180916E048B3001F140F10E
:101B00008551823028F56091670470E080E090E0B4
:101B100077D520E030E040E853E4D3D54B015C01B9
:101B20006091680470E080E090E06CD5A5019401BC
:101B300093D620E030E040E251E4F2D606C0609156
:101B4000670470E080E090E05BD56B017C010BC026
:101B500060E572E088EB93E01FDBC12CD12C80ECB8
:101B6000E82E8FE7F82E5CDB8823C1F180916E04AC
:101B70008B3029F098F18551823050F02FC0609160
:101B8000690470E080E090E03BD54B015C012CC023
:101B900010916904612F6F7770E080E090E032D59A
:101BA00020E030E040E853E48CD54B015C016091CB
:101BB0006A0470E080E090E025D5A50194014CD640
:101BC00020E030E040E251E4ABD64B015C0117FF6E
:101BD0000BC0B7FAB094B7F8B09406C060E572E0F5
:101BE00088EB93E0D9DA0EC1A5019401C501B401D7
:101BF00003D7811107C1A7019601C701B601FCD621
:101C0000882309F42EC1FEC060E372E0CE01019684
:101C10000E943E02CE010196E9DCCE010196E1DC94
:101C200060E372E085E594E099DC12C0F2DB6EE2DD
:101C300072E085E594E092DC6EE272E0CE010196FE
:101C40000E943E02CE010196D1DCCE010196C9DC94
:101C50008091050380930002D2C0609102037091CD
:101C60000303072E000C880B990BCCD44B015C01AD
:101C70009B01AC0160E070E0CB01BAD687FD07C0E4
:101C8000B2DA64E670E080E090E00E94F105A50120
:101C9000940160E070E0CB01AFD487FF18C0609181
:101CA000000370910103072E000C880B990BAAD436
:101CB0009B01AC0160E070E0CB019AD687FD07C0C4
:101CC0008CDA64E670E080E090E00E94F1056091BB
:101CD000000370910103072E000C880B990B92D41E
:101CE0009B01AC0160E070E0CB0186D487FF1DC092
:101CF0006091FE027091FF02072E000C880B990B79
:101D000081D49B01AC0160E070E0CB0171D687FD0E
:101D10000CC063DA68E672E088EB93E04CDA64E6C4
:101D200070E080E090E00E94F1056091FE02709109
:101D3000FF02072E000C880B990B64D49B01AC01A9
:101D400060E070E0CB0158D487FF18C06091FC02BE
:101D50007091FD02072E000C880B990B53D49B0148
:101D6000AC0160E070E0CB0143D687FD07C00EDA1E
:101D700064E670E080E090E00E94F1056091FC0272
:101D80007091FD02072E000C880B990B3BD49B0130
:101D9000AC0160E070E0CB012FD487FF18C06091E8
:101DA000FA027091FB02072E000C880B990B2AD4C3
:101DB0009B01AC0160E070E0CB011AD687FD07C043
:101DC000DFD964E670E080E090E00E94F105609168
:101DD000FA027091FB02072E000C880B990B12D4AB
:101DE0009B01AC0160E070E0CB0106D487FF07C027
:101DF000C7D964E670E080E090E00E94F1050E949F
:101E0000FC020ECD6FE672E088EB93E0D4D96AE570
:101E100072E0CE0143960E943E02BE016B5D7F4F91
:101E2000CE0143966BDB6BEA72E051DBBE016F5F64
:101E30007F4F64DBBC01CE0149960E941B02CE019C
:101E40004396CFDBCE010196CCDBBE01675E7F4FB0
:101E50008BE193E0CED9CE014996C3DBCE018596C6
:101E6000F6CEB501A401CE014F968DDBB701A601D8
:101E7000CE01499688DB67E872E0CE0101960E94A8
:101E80003E02BE01615E7F4FCE01019637DB66E9FF
:101E900072E01DDB6BE972E01ADBBE01675E7F4F0B
:101EA0002DDB6AEA72E013DBBC01CE0143960E948F
:101EB0001B02CE01019695DB8B899C899A838983CD
:101EC0008D899E899C838B838F89988D9E838D833A
:101ED0001C8A1B8A1E8A1D8A188E1F8ACE01439671
:101EE00080DBCE0149967DDBCE014F967ADB8FCF2A
:101EF00085E594E076DB8BE594E073DB81E694E0A6
:101F000070CBEBE1F3E01382128248EE53E060E025
:101F100070E044835583668377838BE092E09183FE
:101F2000808325E331E03587248724E331E0378758
:101F3000268720E331E0318B208B21E331E0338BA6
:101F4000228B22E331E0358B248B26E331E0378B83
:101F5000268B118E128E138E148EE8EBF3E0138213
:101F6000128244835583668377839183808385ECD3
:101F700090E09587848784EC90E09787868780EC53
:101F800090E0918B808B81EC90E0938B828B82EC44
:101F900090E0958B848B86EC90E0978B868B118EEE
:101FA000128E138E148ECF01C4D861E086E10E9498
:101FB000EE0460E087E10E94EE0461E088E10E94A7
:101FC000EE0460E089E10E94EE0461E08AE10E9493
:101FD000EE0460E08BE10E94EE0461E08CE10E947F
:101FE000EE0460E08DE10E94EE0461E08EE10E946B
:101FF000EE0460E08FE10E94EE0461E080E20E9466
:10200000EE0460E081E20E94EE04E7E6F4E086E39D
:1020100086838BE0878386E0808781E0858768EE12
:1020200072E081E694E00E943E0268EE72E08BE589
:1020300094E00E943E0268EE72E085E594E00C9424
:102040003E02EF920F931F93CF93DF93E80147FD7A
:1020500002C034E001C034E1042E000C550B57FFE0
:1020600003C0519541955109E32E022F242FAE0153
:1020700065D0CE01DF91CF911F910F91EF90089520
:102080001F93FC0199278827BC01E8941191103215
:10209000E9F3193010F01E30C8F31B3249F01D323D
:1020A00041F4689405C01CD0610F711D811D911D04
:1020B000119110531A30B8F33EF4909580957095B5
:1020C00061957F4F8F4F9F4F1F910895BB274A30D7
:1020D00031F4992322F4BDE2909581959F4F16C06B
:1020E000592F482F372F262F660F771F881F991FCC
:1020F000660F771F881F991F620F731F841F951F1C
:10210000660F771F881F991F0895BB27FB0155276E
:10211000AA27880F991FAA1FA41710F0A41B839544
:102120005051B9F7A05DAA3308F0A95DA1930097BB
:1021300079F7B111B1931192CB014EC28F929F9258
:10214000AF92BF92CF92DF92EF92FF920F931F93C5
:10215000CF93DF93CDB7DEB729970FB6F894DEBFE4
:102160000FBECDBF6A01122FB02E2BE3201720F037
:10217000FF24F394F00E02C02CE3F22E0F2D27E083
:10218000AE014F5F5F4F50D1BC014981842F8970F0
:10219000813031F0E1FC06C0E0FE06C090E205C0EF
:1021A0009DE203C09BE201C090E05E2D507143FFB1
:1021B0003CC0911102C083E001C084E0811718F493
:1021C000212F281B01C020E051110BC0F601822FE6
:1021D00030E2882319F031938150FBCFC20ED11C1D
:1021E00020E0992329F0D6019C93F60131966F01E6
:1021F000C6010396E2FE0AC03EE4D6013C9341E4E8
:1022000011964C93119712963C9306C03EE6F60148
:10221000308341E641833283FC01322F40E2332395
:1022200009F442C041933150FACF42FF44C09111AA
:1022300002C083E001C084E0811718F4212F281B1D
:1022400001C020E051110BC0F601822F30E288233B
:1022500019F031938150FBCFC20ED11C20E099239D
:1022600029F0D6019C93F60131966F01C6010396C1
:10227000E2FE0BC039E4D6013C933EE411963C9358
:10228000119736E412963C9307C039E6F601308385
:102290003EE6318336E63283FC01322F40E23323BF
:1022A00019F041933150FBCFFC01E20FF11D108278
:1022B0008EEF9FEFA6C021E030E0911102C020E038
:1022C00030E0161617061CF4FB01319602C0E1E05F
:1022D000F0E02E0F3F1FBB2021F0EB2DF0E03196F8
:1022E00002C0E0E0F0E02E0F3F1FE12FF0E02E17DC
:1022F0003F071CF4121B212F01C020E08E2D887196
:1023000059F4F601822F30E2882319F0319381507D
:10231000FBCFC20ED11C20E0992329F0D6019C935B
:10232000F60131966F0151110BC0F601822F90E337
:10233000882319F091938150FBCFC20ED11C20E06D
:102340000F2D060F9A81342F307144FF03C0913353
:1023500009F40150101624F4093018F008E001C007
:1023600001E0AB0177FF02C040E050E0FB01E41B5D
:10237000F50BA1E0B0E0AC0FBD1FEA0FFB1F8EE232
:10238000A82E4B01801A91080B2D10E01195019594
:1023900011094F3FBFEF5B0721F4D601AC921196B4
:1023A0006D01641775072CF08416950614F481816D
:1023B00001C080E3415051093196D60111967D014B
:1023C0004017510724F0D6018C936701E2CF6417C0
:1023D000750739F4963320F4953319F4311101C09F
:1023E00081E3F6018083F701822F90E2882319F0C0
:1023F00091938150FBCFF701E20FF11D108280E035
:1024000090E029960FB6F894DEBF0FBECDBFDF91E6
:10241000CF911F910F91FF90EF90DF90CF90BF90E1
:10242000AF909F908F900895283008F027E03327D1
:10243000DA01990F311D87FD9160009661057105E4
:1024400039F432602E5F3D9330E32A95E1F7089529
:102450009F3F30F080387105610509F03C5F3C5FBB
:102460003D93913008F08068911DDF93CF931F93C7
:102470000F93FF92EF92192F987F9695E92F9695DB
:102480009695E90FFF27E654FE4F99273327EE2450
:10249000FF24A701E70105900894079428F4360F5C
:1024A000E71EF81E491F511D660F771F881F991FD1
:1024B0000694A1F70590079428F4E70EF81E491F2B
:1024C000561FC11D770F881F991F661F0694A1F71D
:1024D0000590079428F4F80E491F561FC71FD11DF9
:1024E000880F991F661F771F0694A1F70590079420
:1024F00020F4490F561FC71FD81F990F661F771F5B
:10250000881F0694A9F784911095177041F0D6950D
:10251000C79557954795F794E7941A95C1F7E0E664
:10252000F1E068941590159135916591959105901C
:102530007FE27395E118F10A430B560BC90BD009E2
:10254000C0F7E10CF11E431F561FC91FD01D7EF4BA
:10255000703311F48A95E6CFE894015030F0080FFB
:102560000AF40027021708F4202F2395022F7A334C
:1025700028F079E37D932A95E9F710C07D932A9599
:1025800089F6069497956795379517951794E118EE
:10259000F10A430B560BC90BD00998F023957E9195
:1025A00073957A3308F070E37C932013B8F77E912B
:1025B00070617D9330F0839571E37D9370E32A958C
:1025C000E1F71124EF90FF900F911F91CF91DF91D0
:1025D000992787FD90950895DC01FC01672F719183
:1025E0007723E1F7329704C07C916D9370836291F9
:1025F000AE17BF07C8F3089540D008F481E00895EE
:10260000E89409C097FB3EF490958095709561958C
:102610007F4F8F4F9F4F9923A9F0F92F96E9BB2742
:102620009395F695879577956795B795F111F8CFBE
:10263000FAF4BB0F11F460FF1BC06F5F7F4F8F4F29
:102640009F4F16C0882311F096E911C0772321F01F
:102650009EE8872F762F05C0662371F096E8862FB7
:1026600070E060E02AF09A95660F771F881FDAF70E
:10267000880F9695879597F90895990F0008550F3B
:10268000AA0BE0E8FEEF16161706E807F907C0F0F8
:1026900012161306E407F50798F0621B730B840B00
:1026A000950B39F40A2661F0232B242B252B21F4DA
:1026B00008950A2609F4A140A6958FEF811D811D7A
:1026C00008950BD078C069D028F06ED018F095230B
:1026D00009F05AC05FC01124A2C07ED0A0F3959F1C
:1026E000D1F3950F50E0551F629FF001729FBB27F9
:1026F000F00DB11D639FAA27F00DB11DAA1F649FA5
:102700006627B00DA11D661F829F2227B00DA11D57
:10271000621F739FB00DA11D621F839FA00D611DDD
:10272000221F749F3327A00D611D231F849F600DFE
:10273000211D822F762F6A2F11249F5750408AF037
:10274000E1F088234AF0EE0FFF1FBB1F661F771FC3
:10275000881F91505040A9F79E3F510570F014C05A
:102760005EC05F3FECF3983EDCF386957795679506
:10277000B795F795E7959F5FC1F7FE2B880F911DE1
:102780009695879597F9089597F99F6780E870E087
:1027900060E008959FEF80EC089500240A941616D7
:1027A000170618060906089500240A94121613063F
:1027B000140605060895092E0394000C11F48823CD
:1027C00052F0BB0F40F4BF2B11F460FF04C06F5FE9
:1027D0007F4F8F4F9F4F089557FD9058440F551FBF
:1027E00059F05F3F71F04795880F97FB991F61F093
:1027F0009F3F79F087950895121613061406551F0A
:10280000F2CF4695F1DF08C0161617061806991F75
:10281000F1CF86957105610508940895E894BB276A
:1028200066277727CB0197F90895F999FECF92BDD6
:1028300081BDF89A992780B50895262FF999FECF82
:102840001FBA92BD81BD20BD0FB6F894FA9AF99ACD
:102850000FBE019608955058BB27AA270ED0ABCFC4
:102860009CDF30F0A1DF20F031F49F3F11F41EF423
:1028700091CF0EF4E095E7FB87CFE92FADDF80F332
:10288000BA17620773078407950718F071F49EF56D
:10289000C5CF0EF4E0950B2EBA2FA02D0B01B90178
:1028A00090010C01CA01A0011124FF27591B99F0C6
:1028B000593F50F4503E68F11A16F040A22F232FD2
:1028C000342F4427585FF3CF469537952795A79522
:1028D000F0405395C9F77EF41F16BA0B620B730BC9
:1028E000840BBAF09150A1F0FF0FBB1F661F771F3A
:1028F000881FC2F70EC0BA0F621F731F841F48F4EF
:10290000879577956795B795F7959E3F08F0B3CF74
:102910009395880F08F09927EE0F9795879508955E
:102920000CD049CF41DF40F038DF30F021F45F3F79
:1029300019F02ACF511173CF2DCF4EDF98F3992381
:10294000C9F35523B1F3951B550BBB27AA27621773
:102950007307840738F09F5F5F4F220F331F441FB8
:10296000AA1FA9F333D00E2E3AF0E0E830D09150F0
:102970005040E695001CCAF729D0FE2F27D0660FDD
:10298000771F881FBB1F261737074807AB07B0E81C
:1029900009F0BB0B802DBF01FF2793585F4F2AF032
:1029A0009E3F510568F0F0CE3ACF5F3FECF3983E82
:1029B000DCF3869577956795B795F7959F5FC9F78F
:1029C000880F911D9695879597F90895E1E0660F18
:1029D000771F881FBB1F621773078407BA0720F091
:1029E000621B730B840BBA0BEE1F88F7E0950895FA
:1029F00044DE08F48FEF089540DE880B990B0895AC
:102A0000EE0FFF1F881F8BBF0790F691E02D1994E2
:102A10000F931F93CF93DF938230910510F482E0E0
:102A200090E0E0917704F091780420E030E0A0E0BD
:102A3000B0E0309719F1408151810281138148172C
:102A40005907C8F08417950769F4109731F012966A
:102A50000C93129713961C9327C00093770410933E
:102A6000780422C02115310519F04217530718F4D4
:102A70009A01BD01EF01DF01F801DBCF211531051E
:102A8000F9F0281B390B2430310580F48A819B81B1
:102A90006115710521F0FB019383828304C090933B
:102AA000780480937704FE01329644C0FE01E20F61
:102AB000F31F8193919322503109398328833AC0BF
:102AC0002091750430917604232B41F42091030268
:102AD0003091040230937604209375042091010212
:102AE000309102022115310541F42DB73EB74091D6
:102AF000050250910602241B350BE0917504F091FC
:102B00007604E217F307A0F42E1B3F0B28173907B2
:102B100078F0AC014E5F5F4F2417350748F04E0F39
:102B20005F1F50937604409375048193919302C084
:102B3000E0E0F0E0CF01DF91CF911F910F91089578
:102B4000CF93DF93009709F481C0FC013297138281
:102B50001282A0917704B0917804109781F42081BB
:102B60003181820F931F20917504309176042817CC
:102B7000390751F5F0937604E093750467C0ED01D1
:102B800020E030E0CE17DF0740F44A815B819E01F0
:102B900041155105F1F0EA01F5CFD383C28340819D
:102BA0005181840F951FC817D90759F488819981DD
:102BB000840F951F0296918380838A819B819383E2
:102BC00082832115310529F4F0937804E09377048A
:102BD0003DC0E901FB83EA8349915991C40FD51F98
:102BE000EC17FD0761F480819181840F951F029697
:102BF000E90199838883828193819B838A83E0E0C2
:102C0000F0E012968D919C911397009719F0FD01B9
:102C1000DC01F7CF8D919C9111979D012E5F3F4F65
:102C2000820F931F2091750430917604281739077D
:102C300069F4309729F4109278041092770402C056
:102C400013821282B0937604A0937504DF91CF9122
:102C500008956F927F928F929F92AF92BF92CF9280
:102C6000DF92EF92FF920F931F93CF93DF93009722
:102C700081F4CB01DF91CF911F910F91FF90EF90E5
:102C8000DF90CF90BF90AF909F908F907F906F908C
:102C9000BFCEFC01E60FF71F9C0122503109E2175D
:102CA000F30708F4A5C0EC01D9010D911C9111970F
:102CB00006171707A8F00530110508F497C0C801DA
:102CC00004978617970708F491C002501109061B54
:102CD000170B019311936D937C93CF0131DF86C065
:102CE0005B01A01AB10A4C01800E911EA0917704DD
:102CF000B0917804612C712CE12CF12C109709F41F
:102D000046C08D919C911197A815B905B1F56C013C
:102D100042E0C40ED11CCA14DB0478F14C018A18BD
:102D20009B08640142E0C40ED11C1296BC9012971D
:102D30001396AC91B5E0CB16D10440F0B282A383D8
:102D400091828082D9016D937C9309C00E5F1F4FE1
:102D5000800F911FF90191838083EB2DFA2FE114ED
:102D6000F10431F0D7011396FC93EE9312973EC015
:102D7000F0937804E093770439C06816790608F474
:102D80003C017D0112960D90BC91A02DB7CF809192
:102D900075049091760488169906E1F46616770614
:102DA000C8F48091010290910202009741F48DB71E
:102DB0009EB74091050250910602841B950BE817BF
:102DC000F907B0F4F0937604E0937504F901718388
:102DD00060830CC0CB011CDE7C01009749F0A80188
:102DE000BE011BD0CE01ACDEC70104C0CE0102C0C3
:102DF00080E090E0DF91CF911F910F91FF90EF90D5
:102E0000DF90CF90BF90AF909F908F907F906F900A
:102E1000089581E090E0F89419C0FB01DC0102C044
:102E200001900D9241505040D8F70895FB01DC010C
:102E30008D91019080190110D9F3990B0895FB0130
:102E4000DC0101900D920020E1F7089511E0CEEB36
:102E5000D1E000E005C0802FFE01D2DD2196011DEA
:0E2E6000CF3BD10780E00807B1F7F894FFCF11
:102E6E0049000079048000000000002B04F101B637
:102E7E00027704E702C502D902434F4E4E45435432
:102E8E00494E4700434F4E4E4543544544004D0076
:102E9E0041004E6F7576656C6C6520636F6D6D616C
:102EAE006E6465203A20004F2F00580057005100E5
:102EBE0052656164206661696C005A2F44697374AF
:102ECE00616E6365203A20004176616E636500464F
:102EDE0061696C656420746F20726561642066722E
:102EEE006F6D204448540054656D70C3A9726174AF
:102EFE007572653A2000C2B0432F00487967726F31
:102F0E006DC3A9747269653A2000252F006368614C
:102F1E007267657220706172616D004572726575BF
:102F2E0072207374727563740075706461746520B9
:102F3E0074616220706172616D00415400504149AC
:0C2F4E005241424C45000D0A004F4B0060
:00000001FF
