:100000000C94E0000C9408010C9408010C948804F2
:100010000C9488040C9488040C9408010C94080136
:100020000C9408010C9408010C9408010C9408012C
:100030000C9408010C9408010C9408010C9408011C
:100040000C943E040C9408010C94EA020C94C40233
:100050000C9408010C9408010C9408010C940801FC
:100060000C9408010C94080100407A10F35A00A087
:10007000724E18090010A5D4E80000E87648170071
:1000800000E40B54020000CA9A3B000000E1F505B1
:10009000000080969800000040420F000000A086FB
:1000A00001000000102700000000E803000000002D
:1000B0006400000000000A000000000001000000D1
:1000C00000002C76D888DC674F0823DFC1DFAE59EB
:1000D000E1B1B796E5E3E453C63AE651997696E87E
:1000E000E6C28426EB898C9B62ED407C6FFCEFBC02
:1000F0009C9F40F2BAA56FA5F490055A2AF75C932D
:100100006B6CF9676DC11BFCE0E40D47FEF520E662
:10011000B500D0ED902E0300943577050080841E45
:10012000080000204E0A000000C80C333333330FA0
:10013000986E12831141EF8D2114893BE65516CF3D
:10014000FEE6DB18D1844B381BF77C1D901DA4BB49
:10015000E424203284725E228100C9F124ECA1E5FE
:100160003D2700000000240027002A0000000008AE
:10017000000201000003040700000000000000006E
:1001800000000000230026002900000000002500D8
:1001900028002B00040404040404040402020202E4
:1001A000020203030303030301020408102040803A
:1001B000010204081020010204081020930E78099F
:1001C00011241FBECFEFD8E0DEBFCDBF23E0A8ECE7
:1001D000B1E001C01D92A033B207E1F711E0A0E049
:1001E000B1E0E2E2FEE202C005900D92A83CB10748
:1001F000D9F710E0CFEDD0E004C02197FE010E94B6
:10020000F914CE3DD107C9F70E94A4090C94041734
:100210000C940000FC01538D448D252F30E0842F79
:1002200090E0821B930B541710F0CF96089501971E
:100230000895FC01918D828D981761F0828DDF0108
:10024000A80FB11D5D968C91928D9F5F9F73928FC9
:1002500090E008958FEF9FEF0895FC01918D828DBE
:10026000981731F0828DE80FF11D858D90E008958B
:100270008FEF9FEF0895FC01918D228D892F90E0E3
:10028000805C9F4F821B91098F739927089586E2A6
:1002900092E00E943B0121E0892B09F420E0822FAB
:1002A0000895FC01848DDF01A80FB11DA35ABF4F33
:1002B0002C91848D90E001968F739927848FA68965
:1002C000B7892C93A089B1898C91837080648C93B9
:1002D000938D848D981306C00288F389E02D808168
:1002E0008F7D80830895EF92FF920F931F93CF939A
:1002F000DF93EC0181E0888F9B8D8C8D981305C076
:10030000E889F989808185FD26C0F62E0B8D10E0E5
:100310000F5F1F4F0F731127E02E8C8DE8120CC05A
:100320000FB607FCFACFE889F989808185FFF5CF00
:10033000CE010E945101F1CF8B8DFE01E80FF11D1E
:10034000E35AFF4FF0829FB7F8940B8FEA89FB893D
:10035000808180620AC09FB7F894EE89FF8960832C
:10036000E889F98980818370806480839FBF81E000
:1003700090E0DF91CF911F910F91FF90EF90089542
:10038000CF93DF93EC01888D8823C9F0EA89FB893C
:10039000808185FD05C0A889B9898C9186FD0FC033
:1003A0000FB607FCF5CF808185FFF2CFA889B98908
:1003B0008C9185FFEDCFCE010E945101E7CFDF91F7
:1003C000CF91089580E090E0892B29F00E944701A9
:1003D00081110C94000008953FB7F89480910D02AC
:1003E00090910E02A0910F02B091100226B5A89B29
:1003F00005C02F3F19F00196A11DB11D3FBFBA2FB7
:10040000A92F982F8827820F911DA11DB11DBC0116
:10041000CD0142E0660F771F881F991F4A95D1F7DB
:1004200008952FB7F8946091090270910A028091A3
:100430000B0290910C022FBF08952091C5023091BC
:10044000C6022817390771F49091C3028091C40243
:10045000981741F0E091C302F0E0E853FE4F80812D
:1004600090E008958FEF9FEF089508951F93CF9325
:10047000DF93DC015C968D919C915D97009739F438
:1004800021E030E013963C932E9312973BC0519697
:10049000ED91FC91529750962C915097322F3095B8
:1004A0001FB75E964C915E97742F727041FD6095F8
:1004B000F8944081772311F0422B01C043234083FD
:1004C000EC012197F1F748E0508160FF02C0522B08
:1004D00001C053235083EC012197F1F766954150F9
:1004E00099F78081772319F08323808302C0282B1A
:1004F00020831FBF5C968D919C915D970197F1F7CA
:1005000081E090E0DF91CF911F9108952091C50285
:100510003091C6022817390771F48091C4022091E6
:10052000C30290E0805C9F4F821B910960E470E001
:100530000E94AF14089580E090E008952091C502D4
:100540003091C60228173907B9F49091C3028091FF
:10055000C402981789F0E091C302F0E0E853FE4F1F
:1005600080812091C30230E02F5F3F4F2F733327EC
:100570002093C30290E008958FEF9FEF089580E0ED
:1005800090E008950E94E6161F920F920FB60F9208
:1005900011242F933F934F935F936F937F938F9388
:1005A0009F93AF93BF93EF93FF9386E292E00E94F5
:1005B0005101FF91EF91BF91AF919F918F917F91E9
:1005C0006F915F914F913F912F910F900FBE0F90C0
:1005D0001F9018951F920F920FB60F9211242F9310
:1005E0008F939F93EF93FF93E0913602F091370240
:1005F0008081E0913C02F0913D0282FD12C0908129
:1006000080913F028F5F8F7320914002821751F0DB
:10061000E0913F02F0E0EA5DFD4F958F80933F024D
:1006200001C08081FF91EF919F918F912F910F9049
:100630000FBE0F901F90189590E0FC01E459FE4FFB
:100640002491FC01E855FE4F3491FC01EC56FE4F1D
:10065000E491EE2309F43CC0222339F1233091F0D8
:1006600038F42130A9F0223001F584B58F7D12C015
:10067000273091F02830A1F02430B9F48091800027
:100680008F7D03C0809180008F77809380000DC0A4
:1006900084B58F7784BD09C08091B0008F7703C087
:1006A0008091B0008F7D8093B000F0E0EE0FFF1FCF
:1006B000E657FE4FA591B4919FB7F894611104C01D
:1006C0008C913095382302C0EC913E2B3C939FBF18
:1006D0000895CF93DF9390E0FC01E855FE4F2491FD
:1006E000FC01EC56FE4F8491882361F190E0880F65
:1006F000991FFC01EE59FE4FC591D491FC01E657BC
:10070000FE4FA591B491611109C09FB7F8948881FB
:10071000209582238883EC912E230BC0623061F4F4
:100720009FB7F8948881322F309583238883EC918A
:100730002E2B2C939FBF06C08FB7F894E8812E2BE9
:1007400028838FBFDF91CF9108951F93CF93DF93BD
:10075000182FEB0161E00E946903209711F460E01B
:1007600004C0CF3FD10539F461E0812FDF91CF91F3
:100770001F910C941C03E12FF0E0E459FE4FE4912B
:10078000E330F9F048F4E130B9F0E230A1F584B596
:10079000806284BDC8BD34C0E730E9F0E83019F1AB
:1007A000E43049F580918000806280938000D0938E
:1007B0008B00C0938A0024C084B5806884BDC7BD07
:1007C0001FC080918000806880938000D093890052
:1007D000C093880015C08091B00080688093B000FD
:1007E000C093B3000DC08091B00080628093B000D0
:1007F000C093B40005C0C038D1050CF0B5CFAFCF61
:10080000DF91CF911F9108958F929F92AF92BF92E7
:10081000CF92DF92EF92FF926B017C010E94EC017C
:100820004B015C01C114D104E104F104F1F00E9418
:10083000EC01DC01CB0188199909AA09BB09883EA2
:100840009340A105B10570F321E0C21AD108E10877
:10085000F10888EE880E83E0981EA11CB11CC1141B
:10086000D104E104F10419F7DDCFFF90EF90DF90A0
:10087000CF90BF90AF909F908F9008951F920F924E
:100880000FB60F9211242F933F938F939F93AF93A3
:10089000BF938091090290910A02A0910B02B0913E
:1008A0000C023091080223E0230F2D3720F401962B
:1008B000A11DB11D05C026E8230F0296A11DB11D83
:1008C000209308028093090290930A02A0930B02DE
:1008D000B0930C0280910D0290910E02A0910F0234
:1008E000B09110020196A11DB11D80930D0290934D
:1008F0000E02A0930F02B0931002BF91AF919F918F
:100900008F913F912F910F900FBE0F901F901895D0
:100910001F920F920FB60F9211242F933F934F9374
:100920005F936F937F938F939F93AF93BF93EF9357
:10093000FF93E091C502F091C602309709F451C0CF
:10094000968DA685B785858591FF04C09C918923E6
:1009500029F447C09C91892309F043C0A389B48935
:100960009C918589809589238C93868997890197A5
:10097000F1F7608D718DA685B785558538E020E04B
:10098000CB010197F1F7822F90E095958795282F5D
:100990004C91452309F02068315091F7868D81FDF7
:1009A00020958091C40290E001968F739927309131
:1009B000C302381749F0A091C402B0E0A853BE4F5B
:1009C0002C938093C40203C0868D8160868F828DB4
:1009D000938D0197F1F7A389B4899C918589892B1F
:1009E0008C93FF91EF91BF91AF919F918F917F91E8
:1009F0006F915F914F913F912F910F900FBE0F908C
:100A00001F901895CF93DF93DC01ED91FC91EB01E2
:100A1000A881B981309711F01097C9F4109759F057
:100A2000EB012C813D81232B31F08C9190E091954D
:100A30008195910914C0309781F0DC0114968D9155
:100A40009C911597892B49F0808190E008C0BD01E9
:100A5000CF01DF91CF910C94F41680E090E0DF910C
:100A6000CF9108950F931F93CF93DF93CDB7DEB748
:100A700062970FB6F894DEBF0FBECDBF8C01CB01DD
:100A8000F8011182108213821282158214824AE0C8
:100A9000BE016F5F7F4F0E947610BE016F5F7F4F78
:100AA000C8010E943C0862960FB6F894DEBF0FBEE4
:100AB000CDBFDF91CF911F910F910895CF93DF9319
:100AC000BC0186E292E00E941E09EC0168E671E03A
:100AD00086E292E00E941E098C0F9D1FDF91CF914C
:100AE00008951F93CF93DF9300D000D000D0CDB7EF
:100AF000DEB7FC01448155816081718184EE92E012
:100B00000E94AB0668E671E084EE92E00E941E0946
:100B100064EF71E080E090E00E94040484EE92E0D3
:100B20000E94860202975CF16AE671E0CE010196AE
:100B30000E94720884EE92E00E949E02682FCE010D
:100B400001960E94A30784EE92E00E949E02682F05
:100B5000CE0101960E94A3078D819E81892B49F0C9
:100B600069EB71E089819A810E94F41611E0892B6A
:100B700009F010E0CE0101960E94530801C010E078
:100B8000812F26960FB6F894DEBF0FBECDBFDF9142
:100B9000CF911F9108951F93CF93DF9300D000D082
:100BA00000D0CDB7DEB784EE92E00E948602892B9A
:100BB00029F084EE92E00E949E02F5CF6CEB71E08A
:100BC000CE0101960E947208CE0101960E94710525
:100BD000182FCE0101960E945308812F26960FB63A
:100BE000F894DEBF0FBECDBFDF91CF911F91089566
:100BF000DF92EF92FF920F931F93CF93DF9300D07A
:100C000000D000D0CDB7DEB785E0F82E93E0E92E16
:100C100024E0D22E80910303853009F48DC084EE48
:100C200092E00E948602892B09F46CC084EE92E067
:100C30000E949E02182F8B3279F584EE92E00E947A
:100C400086020A97D4F36AE671E0CE0101960E940B
:100C500072080AE084EE92E00E949E02182F682F2C
:100C6000CE0101960E94A3070150A1F72D813E817C
:100C700080910803909109032817390749F464E02B
:100C800073E0CE0101960E940205892B09F44EC043
:100C9000CE0101960E945308133409F0BBCF84EEB5
:100CA00092E00E9486020897D4F36AE671E0CE01D2
:100CB00001960E94720863E4CE0101960E94A30788
:100CC00018E084EE92E00E949E02682FCE01019609
:100CD0000E94A3071150A9F72D813E8180910E0338
:100CE00090910F032817390741F46AE073E0CE01B1
:100CF00001960E940205892BE1F0CE0101960E9427
:100D0000530888CF0E94CB05882319F0E092030393
:100D100081CF68EC70E080E090E00E9404040E94C3
:100D2000CB058111F3CFF092030374CFD09203036C
:100D3000AFCFF0920303E1CF26960FB6F894DEBF53
:100D40000FBECDBFDF91CF911F910F91FF90EF901C
:100D5000DF9008950895CF92DF92EF92FF920F9364
:100D60001F93CF93DF936C017A018B01C0E0D0E039
:100D7000CE15DF0581F0D8016D918D01D601ED9181
:100D8000FC910190F081E02DC6010995892B11F0AD
:100D90002196EECF7E01C701DF91CF911F910F9178
:100DA000FF90EF90DF90CF9008950F931F93CF9314
:100DB000DF93C82FD62F8091220386131AC0CC232D
:100DC00019F010E001E002C011E000E060912003A2
:100DD000062E000C770B80912A030E94A503602F3A
:100DE000809126030E941C03612F809127030E949B
:100DF0001C0380912503D8131EC0CC2319F0C0E03A
:100E0000D1E002C0C1E0D0E060912303062E000CC7
:100E1000770B80912B030E94A5036D2F80912803EF
:100E20000E941C036C2F80912903DF91CF911F91A9
:100E30000F910C941C03DF91CF911F910F91089596
:100E40000F931F93CF93DF93EC01888199810097D3
:100E500029F02A813B812617370788F48B016F5FC1
:100E60007F4F0E942016009761F0998388831B832F
:100E70000A832C813D81232B11F4FC01108281E037
:100E800001C080E0DF91CF911F910F910895CF9322
:100E9000DF93C0E2D3E060E08A850E941C0360E03B
:100EA0008B85DF91CF910C941C0361E081E00E945F
:100EB000D50660E080E00C94D50661E080E00E94F9
:100EC000D50660E080E00C94D50660E081E00E94E9
:100ED000D50661E080E00C94D50661E081E00E94D7
:100EE000D50660E081E00C94D506EF92FF920F9357
:100EF0001F93CF93DF936115710511F480E01CC03F
:100F000041155105C1F07B01EC018C819D818A0165
:100F1000080F191FB801CE010E942007882371F322
:100F2000288139818C819D81B701820F931F0E9496
:100F3000FD161D830C8381E0DF91CF911F910F91EE
:100F4000FF90EF900895CF93DF9300D0CDB7DEB739
:100F500069831A8241E050E0BE016F5F7F4F0E94BB
:100F600075070F900F90DF91CF9108950F931F9306
:100F7000CF93DF938C01EB01FC018081918100977D
:100F800039F06881798161157105A1F40E94971586
:100F900088819981F801918380838A819B819383E1
:100FA00082838C819D8195838483198218821B8220
:100FB0001A820FC0F801428153812C813D81421772
:100FC000530720F30E94FD168C819D81F8019583C3
:100FD00084831D821C82DF91CF911F910F91089510
:100FE000CF93DF93EC0188819981009711F00E94E3
:100FF0009715198218821D821C821B821A82DF912A
:10100000CF910895CF93DF93EC016115710561F0E5
:10101000FB0101900020E9F73197AF01461B570B08
:101020000E947507811103C0CE010E94F007CE0116
:10103000DF91CF910895EF92FF920F931F93CF937B
:10104000DF93EC017B018A01BA010E942007811124
:1010500004C0CE010E94F00707C01D830C83B701B6
:10106000888199810E94FD16CE01DF91CF911F9159
:101070000F91FF90EF900895CF93DF93EC016115EE
:10108000710559F0FB0101900020E9F73197AF019C
:10109000461B570B0E941B0802C00E94F007CE019E
:1010A000DF91CF910895FC01808191810C94971577
:1010B000FB01DC0111961C921E9213961C921E924B
:1010C000129715961C921E9214978617970749F04F
:1010D000608171816115710521F0448155810C9405
:1010E0001B080895FC01118210821382128215825E
:1010F00014826115710551F0FB0101900020E9F7A0
:101100003197AF01461B570B0C941B0808950F93A2
:101110001F93CF93DF9300D000D000D0CDB7DEB7C0
:1011200003E080910303833009F469C084EE92E008
:101130000E948602892B09F44EC084EE92E00E9440
:101140009E02182F682F86E292E00E9473011B32E4
:1011500041F784EE92E00E948602892BD1F384EE5F
:1011600092E00E949E02182F682F86E292E00E9471
:1011700073011035B1F684EE92E00E948602079763
:10118000D4F36AE671E0CE0101960E94720860E530
:10119000CE0101960E94A30717E084EE92E00E9420
:1011A0009E02682FCE0101960E94A3071150A9F755
:1011B0008D819E81892B51F06FEB71E089819A813D
:1011C0000E94F416892B11F400930303CE010196BB
:1011D0000E945308A6CF0E94CB05882319F00093E4
:1011E00003039FCF68EC70E080E090E00E9404046D
:1011F0000E94CB058111F3CF85E0809303032696EF
:101200000FB6F894DEBF0FBECDBFDF91CF911F9117
:101210000F91089580910303853071F484EE92E07C
:101220000E948602892B41F084EE92E00E949E0289
:101230008B3219F40E9487088FEF089561157105AC
:1012400079F0FB0101900020E9F73197AF01461BCF
:10125000570BDC01ED91FC910280F381E02D0994A4
:1012600080E090E00895CF92DF92EF92FF920F938B
:101270001F93E82FF92F05C00150110921093109E9
:1012800061F1908196239417B9F305C001501109BB
:101290002109310911F1908196239413F7CFC12CC4
:1012A000D12CE12CF12C0AC08FEFC81AD80AE80A19
:1012B000F80A0C151D052E053F0579F0808186235F
:1012C000841791F36C2D7D2D8E2D9F2D1F910F91E5
:1012D000FF90EF90DF90CF90089560E070E080E0A5
:1012E00090E01F910F91FF90EF90DF90CF900895C5
:1012F00087ED92E00E9453088EED92E00E94530821
:101300008AE093E00E94530884E093E00E9453082F
:101310008CE191E09093E5028093E4028091C50214
:101320009091C602845E924071F4E091F702F091D0
:10133000F80290818091F902809589238083109230
:10134000C6021092C5020895CF93DF93CDB7DEB7E2
:10135000AD970FB6F894DEBF0FBECDBF789484B5BD
:10136000826084BD84B5816084BD85B5826085BDA1
:1013700085B5816085BD80916E00816080936E002F
:101380001092810080918100826080938100809121
:1013900081008160809381008091800081608093D2
:1013A00080008091B10084608093B1008091B00092
:1013B00081608093B00080917A00846080937A008D
:1013C00080917A00826080937A0080917A008160B7
:1013D00080937A0080917A00806880937A001092DE
:1013E000C100E0913602F091370282E08083E09103
:1013F0003202F09133021082E0913402F091350212
:101400008FEC808310923E02E0913A02F0913B0211
:1014100086E08083E0913802F0913902808180611A
:101420008083E0913802F091390280818860808366
:10143000E0913802F0913902808180688083E091E8
:101440003802F091390280818F7D808388E080931B
:1014500026038BE0809327038CE0809328038DE0A4
:101460008093290389E080932A038AE080932B03E9
:1014700061E088E00E94690361E0809127030E9497
:10148000690361E0809128030E94690361E0809113
:1014900029030E94690361E080912A030E94690385
:1014A00061E080912B030E9469030E94470710921C
:1014B000220381E08093250380932103109224036B
:1014C00084EB80932003809323030E94870885E3A5
:1014D00091E00E945E058EE391E00E945E050E940D
:1014E000F8058FE591E00E945E058EE391E00E9491
:1014F0005E0524E6A22E34EBB32E45ED242E42E009
:10150000342E0E9411026B017C0180912202909185
:101510002302A0912402B0912502A7019601281B65
:10152000390B4A0B5B0B283C31054105510508F48A
:1015300065C0C0922202D0922302E0922402F0926F
:10154000250260E0809110030E941C0383E090E07C
:101550000197F1F761E0809110030E941C0383E280
:1015600090E00197F1F760E0809110030E941C0366
:1015700080911203909113039927FC01E855FE4FC7
:101580006491FC01EC56FE4FE491F0E0EE0FFF1F7A
:10159000E058FE4F8591949100E412E42FE030E092
:1015A000462F0E943309611571058105910549F0A7
:1015B000DC01CB010196A11DB11DBC01CD019F70C5
:1015C00003C060E070E0CB010E94E412209114039C
:1015D0003091150340911603509117030E9438145F
:1015E00020E030E040E05FE30E94431360931A0282
:1015F00070931B0280931C0290931D0280911E0227
:1016000090911F02A0912002B0912102A7019601A2
:10161000281B390B4A0B5B0B223331054105510561
:1016200008F47EC3C0921E02D0921F02E0922002F4
:10163000F09221020E940A09809311028F3F09F45F
:10164000E4C1282F30E040E050E019A28E010F5D88
:101650001F4FCA01B9012AE030E040E050E00E948B
:10166000C314605DF80162938F01211531054105B6
:10167000510579F7BF0186E292E00E941E0968E6F3
:1016800071E086E292E00E941E0980911102873586
:1016900009F08DC06AE671E0CE0188960E9472085A
:1016A00066E870E0CE0101960E943205BE016F5FD0
:1016B0007F4FCE0188960E94B607CE0101960E9408
:1016C00053080DEC12E0F801619171918F01CE0188
:1016D00082960E943205BE016E5D7F4FCE0101965B
:1016E0000E9458086FE2CE0101960E94A307811163
:1016F00004C0CE0101960E94F0074D815E81698190
:101700007A81CE0188960E947507CE0101960E94CB
:101710005308CE0182960E9453082016310699F68E
:1017200041E050E06BE671E0CE0188960E947507BB
:10173000BE01685D7F4FCE0101960E945808CE0120
:1017400001960E947105CE0101960E9453081091E6
:1017500011026AE671E0CE0101960E947208E12C46
:10176000F12C1835D1F0173519F40E940A09182FF9
:101770001F3271F40E940A09182FF701EE0FFF1FA4
:10178000E353FD4F91828082FFEFEF1AFF0AE9CF0A
:10179000810E911C17FD9A94E4CF0E940A09CE0194
:1017A00001960E945308CE0188960E9453088091AA
:1017B00011028A3409F456C0D0F4843409F440C0CC
:1017C00058F4813409F400C1823409F01EC10E942A
:1017D000550763E771E00DC18734D9F1883409F406
:1017E0004AC0863409F011C10E94650741C08235A4
:1017F00009F44AC088F48C3409F44BC08D3409F0E4
:1018000004C10E94470762EA71E087ED92E00E94FE
:101810003C0862EA71E0EDC08A3509F43FC08F3FB1
:1018200009F4CFC0833509F0F0C00E94470767E78D
:1018300071E087ED92E00E943C0867E771E0D9C053
:10184000A09223030E946507B092230367EB71E027
:10185000D0C0A09220030E946507B09220036DEAD9
:1018600071E0C7C0A09223030E945507B0922303E2
:101870006DE671E0BEC0A09220030E945507B092B1
:1018800020036FE671E0B5C00E946D0761E771E06B
:10189000B0C00E945D0765E771E0ABC060911A02BD
:1018A00070911B0280911C0290911D021BA21AA232
:1018B0001DA21CA21FA21EA28E010F5F1F4F22E0BD
:1018C00044E00E945610BC01CE0182960E943C0862
:1018D000BE016E5D7F4F8EED92E00E94B607CE0195
:1018E00082960E94530869E771E0C8010E9472085D
:1018F0004091E2025091E3026091DE027091DF02BA
:10190000C8010E947507811103C0C8010E94F00739
:1019100067E871E0CE0101960E94020869E871E073
:101920000E9402086AE971E00E94020867E871E01B
:101930000E94020869E871E00E9402086AE971E009
:101940000E94020867E871E00E94020869E871E0FD
:101950000E9402086AE971E00E94020867E871E0EB
:101960000E94020869E871E00E9402086AE971E0D9
:101970000E94020867E871E00E94020869E871E0CD
:101980000E9402086AE971E00E940208BC01CE01CF
:1019900082960E945808CE0101960E945308BE010B
:1019A0006E5D7F4FCE0101960E945808CE010196D0
:1019B0000E947105CE0101960E945308CE018296C5
:1019C00022C00E94470721C060EA71E0CE01019663
:1019D0000E947208CE0101960E947105CE01019607
:1019E0000E94530860EA71E087ED92E00E943C0893
:1019F0000CC0CE0101960E947208CE0101960E9491
:101A00007105CE0101960E94530880910303833033
:101A100021F40E9447070E94F8058091DB02909113
:101A2000DC02892B09F47CC160EA71E08091D70265
:101A30009091D8020E94F416892B09F071C10E947E
:101A400011026B017C0140901A0250901B026090C1
:101A50001C0270901D026091D5027091D602072E73
:101A6000000C880B990B0E94E412A30192010E94C2
:101A7000DD1287FF22C00E946D07809116029091AF
:101A80001702A0911802B0911902A7019601281B14
:101A9000390B4A0B5B0B243631054105510568F4BF
:101AA0000E9411026B017C01609316027093170271
:101AB0008093180290931902E0CF6091D502709143
:101AC000D602072E000C880B990B0E94E4129B0192
:101AD000AC01C301B2010E94DD121816A4F160919D
:101AE000D3027091D402072E000C880B990B0E9430
:101AF000E4129B01AC01C301B2010E94AA1487FD4C
:101B000022C00E9465078091160290911702A09151
:101B10001802B0911902A7019601281B390B4A0B34
:101B20005B0B243631054105510568F40E94110212
:101B30006B017C0160931602709317028093180268
:101B400090931902E0CF6091D3027091D40261505A
:101B50007109072E000C880B990B0E94E4129B015F
:101B6000AC01C301B2010E94DD121816A4F160910C
:101B7000D1027091D202072E000C880B990B0E94A3
:101B8000E4129B01AC01C301B2010E94AA1487FDBB
:101B900022C00E9465078091160290911702A091C1
:101BA0001802B0911902A7019601281B390B4A0BA4
:101BB0005B0B243631054105510568F40E94110282
:101BC0006B017C01609316027093170280931802D8
:101BD00090931902E0CF6091D1027091D2026150CE
:101BE0007109072E000C880B990B0E94E4129B01CF
:101BF000AC01C301B2010E94DD121816B4F160916C
:101C0000CF027091D002072E000C880B990B0E9416
:101C1000E4129B01AC01C301B2010E94AA1487FD2A
:101C200024C00E945D078091120290911302A0913E
:101C30001402B0911502A7019601281B390B4A0B1B
:101C40005B0BDA01C901843F9140A105B10568F43D
:101C50000E9411026B017C016093120270931302C7
:101C60008093140290931502DECF6091CF027091A1
:101C7000D00261507109072E000C880B990B0E944D
:101C8000E4129B01AC01C301B2010E94DD121816DF
:101C9000A4F16091CD027091CE02072E000C880B4A
:101CA000990B0E94E4129B01AC01C301B2010E9496
:101CB000AA1487FD22C00E945507809112029091BC
:101CC0001302A0911402B0911502C81AD90AEA0AA7
:101CD000FB0A44EFC41641E0D406E104F10468F4C1
:101CE0000E9411026B017C01609312027093130237
:101CF0008093140290931502E0CF6091CD02709111
:101D0000CE02072E000C880B990B0E94E4129B0157
:101D1000AC01C301B2010E94DD1287FD0E9455078C
:101D20000E94E201EECBCF92DF92EF92FF921092EF
:101D300029021092280298EEC92E93E0D92EE12CA8
:101D4000F12CC0922A02D0922B02E0922C02F09247
:101D50002D028AE091E0909327028093260285EC81
:101D600090E0909333028093320284EC90E0909361
:101D700035028093340280EC90E090933702809398
:101D8000360281EC90E0909339028093380282EC25
:101D900090E090933B0280933A0286EC90E090931F
:101DA0003D0280933C0210923F021092400210923A
:101DB00041021092420261E085E00E94690360E006
:101DC00083E00E94690385E090E090931103809383
:101DD000100383E090E0909313038093120385E84F
:101DE0009CEFACEDB1E48093140390931503A093A2
:101DF0001603B09317038CE993E5ACE8B2E4809343
:101E0000180390931903A0931A03B0931B03109225
:101E1000E7021092E602C092E802D092E902E09254
:101E2000EA02F092EB028CE191E09093E50280935C
:101E3000E4021092FB021092FA021092FD0210923C
:101E4000FC021092FF021092FE0210920103109207
:101E50000003609102036E7F6D7F609302036695BD
:101E6000617081E0682784E00E941C0361E084E0E7
:101E70000E946903ECEAF1E0E491E093F402E8E9FE
:101E8000F1E0E491F0E0EE0FFF1FE657FE4F859181
:101E900094919093F6028093F50260E082E00E94B4
:101EA00069038091020381FD04C061E082E00E9429
:101EB0001C0382E08093F002EAEAF1E0E491E0930F
:101EC000F102E6E9F1E0E491F0E0EE0FFF1FE058E7
:101ED000FE4F859194919093F3028093F2026AE60B
:101EE00071E084E093E00E9472086AE671E08AE0A3
:101EF00093E00E94720864EA71E084E093E00E943B
:101F00003C086FEA71E08AE093E00E943C0810927E
:101F100003031092FF021092FE021092FD02109233
:101F2000FC021092FB021092FA028DE991E090936C
:101F30000103809300039091F002963108F058C09D
:101F40002DEB30E03093FB022093FA022BE931E0D5
:101F50003093FD022093FC022CE231E03093FF022B
:101F60002093FE0240916800983058F031E09E3096
:101F700008F430E021E0822F01C0880F3A95EAF79B
:101F800001C084E0842B80936800983038F09E3044
:101F900040F0963148F020E030E008C02DE630E017
:101FA00005C02BE630E002C02CE630E03093F802AA
:101FB0002093F702983030F481E001C0880F9A95A1
:101FC000EAF70EC0292F30E09E3018F4285031096E
:101FD00002C02E50310981E001C0880F2A95EAF72E
:101FE0008093F90280910003909101030197F1F72A
:101FF0008091FE029091FF02892B49F1E091C50288
:10200000F091C60282E0E43EF80709F1309739F01A
:10201000A389B4899C918589809589238C9380912B
:1020200002038E7F809302031092C4021092C302B7
:1020300084EE92E09093C6028093C502E091F7028D
:10204000F091F80290818091F902892B80836AE6F1
:1020500071E08EED92E00E94720862EA71E087ED15
:1020600092E00E9472088AE090E09093CE02809302
:10207000CD0284E190E09093D0028093CF028EE174
:1020800090E09093D2028093D10282E390E090930B
:10209000D4028093D30286E990E09093D602809395
:1020A000D502FF90EF90DF90CF900895EF920F93BD
:1020B0001F93CF93DF93E80147FD02C034E001C0D6
:1020C00034E1042E000C550B57FF03C05195419588
:1020D0005109E32E022F242FAE010E949B10CE0146
:1020E000DF91CF911F910F91EF900895BB274A3058
:1020F00031F4992322F4BDE2909581959F4F0C9481
:102100008210BB27FB015527AA27880F991FAA1FFA
:10211000A41710F0A41B83955051B9F7A05DAA3302
:1021200008F0A95DA193009779F7B111B1931192CD
:10213000CB010C94CD12A9E0B0E0E1EAF0E10C94FF
:1021400007146A01122FB02E2BE3201720F0FF2472
:10215000F394F00E02C02CE3F22E0F2D27E0AE0117
:102160004F5F5F4F0E94F511BC014981842F897038
:10217000813031F0E1FC06C0E0FE06C090E205C00F
:102180009DE203C09BE201C090E05E2D507143FFD1
:102190003CC0911102C083E001C084E0811718F4B3
:1021A000212F281B01C020E051110BC0F601822F06
:1021B00030E2882319F031938150FBCFC20ED11C3D
:1021C00020E0992329F0D6019C93F60131966F0106
:1021D000C6010396E2FE0AC03EE4D6013C9341E408
:1021E00011964C93119712963C9306C03EE6F60169
:1021F000308341E641833283FC01322F40E23323B6
:1022000009F442C041933150FACF42FF44C09111CA
:1022100002C083E001C084E0811718F4212F281B3D
:1022200001C020E051110BC0F601822F30E288235B
:1022300019F031938150FBCFC20ED11C20E09923BD
:1022400029F0D6019C93F60131966F01C6010396E1
:10225000E2FE0BC039E4D6013C933EE411963C9378
:10226000119736E412963C9307C039E6F6013083A5
:102270003EE6318336E63283FC01322F40E23323DF
:1022800019F041933150FBCFFC01E20FF11D108298
:102290008EEF9FEFA6C021E030E0911102C020E058
:1022A00030E0161617061CF4FB01319602C0E1E07F
:1022B000F0E02E0F3F1FBB2021F0EB2DF0E0319618
:1022C00002C0E0E0F0E02E0F3F1FE12FF0E02E17FC
:1022D0003F071CF4121B212F01C020E08E2D8871B6
:1022E00059F4F601822F30E2882319F0319381509E
:1022F000FBCFC20ED11C20E0992329F0D6019C937C
:10230000F60131966F0151110BC0F601822F90E357
:10231000882319F091938150FBCFC20ED11C20E08D
:102320000F2D060F9A81342F307144FF03C0913373
:1023300009F40150101624F4093018F008E001C027
:1023400001E0AB0177FF02C040E050E0FB01E41B7D
:10235000F50BA1E0B0E0AC0FBD1FEA0FFB1F8EE252
:10236000A82E4B01801A91080B2D10E011950195B4
:1023700011094F3FBFEF5B0721F4D601AC921196D4
:102380006D01641775072CF08416950614F481818D
:1023900001C080E3415051093196D60111967D016B
:1023A0004017510724F0D6018C936701E2CF6417E0
:1023B000750739F4963320F4953319F4311101C0BF
:1023C00081E3F6018083F701822F90E2882319F0E0
:1023D00091938150FBCFF701E20FF11D108280E055
:1023E00090E02996ECE00C942314283008F027E0C4
:1023F0003327DA01990F311D87FD91600096610541
:10240000710539F432602E5F3D9330E32A95E1F790
:1024100008959F3F30F080387105610509F03C5FF9
:102420003C5F3D93913008F08068911DDF93CF931E
:102430001F930F93FF92EF92192F987F9695E92F94
:1024400096959695E90FFF27EE53FF4F992733276F
:10245000EE24FF24A701E70105900894079428F4CF
:10246000360FE71EF81E491F511D660F771F881F84
:10247000991F0694A1F70590079428F4E70EF81E1B
:10248000491F561FC11D770F881F991F661F06948D
:10249000A1F70590079428F4F80E491F561FC71F8F
:1024A000D11D880F991F661F771F0694A1F705900D
:1024B000079420F4490F561FC71FD81F990F661F96
:1024C000771F881F0694A9F784911095177041F023
:1024D000D695C79557954795F794E7941A95C1F700
:1024E000E8E6F0E068941590159135916591959125
:1024F00005907FE27395E118F10A430B560BC90B67
:10250000D009C0F7E10CF11E431F561FC91FD01D93
:102510007EF4703311F48A95E6CFE894015030F0E0
:10252000080F0AF40027021708F4202F2395022F22
:102530007A3328F079E37D932A95E9F710C07D93EB
:102540002A9589F606949795679537951795179468
:10255000E118F10A430B560BC90BD00998F02395EB
:102560007E9173957A3308F070E37C932013B8F76B
:102570007E9170617D9330F0839571E37D9370E37C
:102580002A95E1F71124EF90FF900F911F91CF91C1
:10259000DF91992787FD90950895DC01FC01672F55
:1025A00071917723E1F7329704C07C916D9370832A
:1025B0006291AE17BF07C8F308950E941F1308F475
:1025C00081E00895E89409C097FB3EF490958095CA
:1025D000709561957F4F8F4F9F4F9923A9F0F92FE9
:1025E00096E9BB279395F695879577956795B79567
:1025F000F111F8CFFAF4BB0F11F460FF1BC06F5F4D
:102600007F4F8F4F9F4F16C0882311F096E911C05E
:10261000772321F09EE8872F762F05C0662371F07F
:1026200096E8862F70E060E02AF09A95660F771F93
:10263000881FDAF7880F9695879597F90895990F6F
:102640000008550FAA0BE0E8FEEF16161706E8077C
:10265000F907C0F012161306E407F50798F0621B9D
:10266000730B840B950B39F40A2661F0232B242B72
:10267000252B21F408950A2609F4A140A6958FEF91
:10268000811D811D08950E9456130C94C7130E944A
:10269000B91338F00E94C01320F0952311F00C9468
:1026A000B0130C94B61311240C94FB130E94D8138E
:1026B00070F3959FC1F3950F50E0551F629FF00195
:1026C000729FBB27F00DB11D639FAA27F00DB11DAE
:1026D000AA1F649F6627B00DA11D661F829F222737
:1026E000B00DA11D621F739FB00DA11D621F839FBE
:1026F000A00D611D221F749F3327A00D611D231F94
:10270000849F600D211D822F762F6A2F11249F57E1
:1027100050409AF0F1F088234AF0EE0FFF1FBB1FE4
:10272000661F771F881F91505040A9F79E3F5105A3
:1027300080F00C94B0130C94FB135F3FE4F3983ECD
:10274000D4F3869577956795B795F795E7959F5F4D
:10275000C1F7FE2B880F911D9695879597F90895DF
:1027600097F99F6780E870E060E008959FEF80EC44
:10277000089500240A9416161706180609060895E7
:1027800000240A9412161306140605060895092E4D
:102790000394000C11F4882352F0BB0F40F4BF2BBC
:1027A00011F460FF04C06F5F7F4F8F4F9F4F0895FC
:1027B00057FD9058440F551F59F05F3F71F04795F2
:1027C000880F97FB991F61F09F3F79F087950895D7
:1027D000121613061406551FF2CF4695F1DF08C0F6
:1027E000161617061806991FF1CF86957105610513
:1027F00008940895E894BB2766277727CB0197F9BB
:1028000008952F923F924F925F926F927F928F9294
:102810009F92AF92BF92CF92DF92EF92FF920F936F
:102820001F93CF93DF93CDB7DEB7CA1BDB0B0FB679
:10283000F894DEBF0FBECDBF09942A883988488836
:102840005F846E847D848C849B84AA84B984C884CC
:10285000DF80EE80FD800C811B81AA81B981CE0FC3
:10286000D11D0FB6F894DEBF0FBECDBFED010895A8
:102870000E944C140C94C7130E94C01358F00E947D
:10288000B91340F029F45F3F29F00C94B0135111B3
:102890000C94FB130C94B6130E94D81368F399237D
:1028A000B1F3552391F3951B550BBB27AA2762174C
:1028B0007307840738F09F5F5F4F220F331F441F59
:1028C000AA1FA9F335D00E2E3AF0E0E832D091508D
:1028D0005040E695001CCAF72BD0FE2F29D0660F7A
:1028E000771F881FBB1F261737074807AB07B0E8BD
:1028F00009F0BB0B802DBF01FF2793585F4F3AF0C3
:102900009E3F510578F00C94B0130C94FB135F3F7D
:10291000E4F3983ED4F3869577956795B795F79548
:102920009F5FC9F7880F911D9695879597F9089530
:10293000E1E0660F771F881FBB1F621773078407CC
:10294000BA0720F0621B730B840BBA0BEE1F88F7DB
:10295000E09508950E941F1308F48FEF089597FBE8
:10296000072E16F4009407D077FD09D00E94E514D5
:1029700007FC05D03EF4909581959F4F0895709582
:1029800061957F4F0895A1E21A2EAA1BBB1BFD0182
:102990000DC0AA1FBB1FEE1FFF1FA217B307E4073E
:1029A000F50720F0A21BB30BE40BF50B661F771F96
:1029B000881F991F1A9469F7609570958095909576
:1029C0009B01AC01BD01CF010895AA1BBB1B51E1C6
:1029D00007C0AA1FBB1FA617B70710F0A61BB70B8F
:1029E000881F991F5A95A9F780959095BC01CD0134
:1029F0000895EE0FFF1F0590F491E02D09940F93B9
:102A00001F93CF93DF938230910510F482E090E022
:102A1000E0912E03F0912F0320E030E0A0E0B0E041
:102A2000309719F14081518102811381481759076C
:102A3000C8F08417950769F4109731F012960C933B
:102A4000129713961C9327C000932E0310932F0305
:102A500022C02115310519F04217530718F49A01C5
:102A6000BD01EF01DF01F801DBCF21153105F9F0E0
:102A7000281B390B2430310580F48A819B81611534
:102A8000710521F0FB019383828304C090932F038F
:102A900080932E03FE01329644C0FE01E20FF31F25
:102AA0008193919322503109398328833AC0209130
:102AB0002C0330912D03232B41F4209102013091FE
:102AC000030130932D0320932C03209100013091BA
:102AD00001012115310541F42DB73EB740910401A4
:102AE00050910501241B350BE0912C03F0912D032F
:102AF000E217F307A0F42E1B3F0B2817390778F0D5
:102B0000AC014E5F5F4F2417350748F04E0F5F1F33
:102B100050932D0340932C038193919302C0E0E0E6
:102B2000F0E0CF01DF91CF911F910F910895CF93E6
:102B3000DF93009709F481C0FC013297138212825F
:102B4000A0912E03B0912F03109781F42081318141
:102B5000820F931F20912C0330912D0328173907E2
:102B600051F5F0932D03E0932C0367C0ED0120E0B5
:102B700030E0CE17DF0740F44A815B819E014115AA
:102B80005105F1F0EA01F5CFD383C2834081518131
:102B9000840F951FC817D90759F488819981840F2C
:102BA000951F0296918380838A819B819383828380
:102BB0002115310529F4F0932F03E0932E033DC036
:102BC000E901FB83EA8349915991C40FD51FEC17A2
:102BD000FD0761F480819181840F951F0296E901C0
:102BE00099838883828193819B838A83E0E0F0E0EC
:102BF00012968D919C911397009719F0FD01DC01BD
:102C0000F7CF8D919C9111979D012E5F3F4F820FC1
:102C1000931F20912C0330912D032817390769F455
:102C2000309729F410922F0310922E0302C01382C2
:102C30001282B0932D03A0932C03DF91CF910895BE
:102C4000A0E0B0E0E6E2F6E10C940514EC01009798
:102C500021F4CB010E94FF14B4C0FC01E60FF71F62
:102C60009C0122503109E217F30708F4A8C0D901EA
:102C70000D911C91119706171707B0F0053011053B
:102C800008F49BC0C80104978617970708F495C0FD
:102C900002501109061B170B019311936D937C933E
:102CA000CF010E94971589C05B01A01AB10A4C019F
:102CB000800E911EA0912E03B0912F03612C712CD8
:102CC000E12CF12C109709F446C08D919C9111973D
:102CD000A815B905B1F56C0142E0C40ED11CCA14A7
:102CE000DB0478F14C018A189B08640142E0C40EB1
:102CF000D11C1296BC9012971396AC91B5E0CB16EE
:102D0000D10440F0B282A38391828082D9016D9375
:102D10007C9309C00E5F1F4F800F911FF9019183B3
:102D20008083EB2DFA2FE114F10431F0D7011396D3
:102D3000FC93EE93129741C0F0932F03E0932E0380
:102D40003CC06816790608F43C017D0112960D908E
:102D5000BC91A02DB7CF80912C0390912D038816A4
:102D60009906E1F466167706C8F480910001909107
:102D70000101009741F48DB79EB740910401509135
:102D80000501841B950BE817F907C8F4F0932D0390
:102D9000E0932C03F901718360830FC0CB010E9483
:102DA000FF147C01009759F0A801BE010E94EB16A8
:102DB000CE010E949715C70104C0CE0102C080E079
:102DC00090E0CDB7DEB7EEE00C94211481E090E006
:102DD000F8940C940417FB01DC0102C001900D92E1
:102DE00041505040D8F70895FB01DC018D910190CE
:102DF00080190110D9F3990B0895FB01DC010190B2
:102E00000D920020E1F7089510E0CFEDD0E004C06E
:102E1000FE010E94F9142196C03ED107C9F7F8942B
:022E2000FFCFE2
:102E2200000030038000000000007301AB060A01BD
:102E3200C0013B0119012D01000000003602AB0662
:102E4200BF02350286029E021D02960032001E005B
:102E520014000A00007061697261626C65002A2DBB
:102E62002D2D2D2D2D2D2D2D2D2D2D2D2D2D2D2D90
:102E72002D2D2D2D2D2D2D2D2D2D2D2D2D2A00637A
:102E82006F6E6E65637465000D0A00580046004857
:102E920000520042004C0053005A2F44697374617F
:102EA2006E6365203A20002F0054656D70EFBFBD40
:102EB200726174757265203A200032312E30320010
:102EC20041004D00434F4E4E454354494E47004347
:102ED2004F4E4E4543544544004F4B004154005021
:082EE20041495241424C4500F8
:00000001FF
